:020000040800F2
:10000000A88F0020712F0108FD2B0108FF2B01088C
:10001000012C0108032C0108052C01080000000038
:10002000000000000000000000000000072C010894
:10003000092C0108000000000B2C01080D2C010800
:10004000CD2F0108D12F0108D52F0108D92F010884
:10005000DD2F0108452C0108E12F0108E52F0108DB
:10006000E92F0108ED2F0108F12F0108F52F0108F4
:10007000F92F0108FD2F01080130010805300108A2
:10008000093001080D300108113001081530010850
:10009000193001081D300108213001082530010800
:1000A000293001082D3001083130010835300108B0
:1000B000393001083D300108413001084530010860
:1000C000493001084D300108513001085530010810
:1000D000593001085D3001086130010865300108C0
:1000E000693001086D300108713001087530010870
:1000F000793001087D300108813001088530010820
:10010000893001088D3001089130010895300108CF
:10011000993001089D300108A1300108A53001087F
:10012000A9300108AD300108B1300108B53001082F
:10013000B9300108BD300108C1300108C5300108DF
:10014000C9300108CD300108D1300108D53001088F
:10015000D9300108DD300108E1300108E53001083F
:10016000E9300108ED300108F1300108F5300108EF
:10017000F9300108FD3001080131010800000000DC
:1001800005310108093101080000000000000000ED
:10019000000000000000000000000000000000005F
:1001A000000000000000000000000000003C3C3C9B
:1001B0003C3C3C3C3C3C181818181800003C3C3CAB
:1001C0003C000000000000000000000000000000F3
:1001D000000079E079E079E079E079E079E030C019
:1001E000000000000000000000000000000000000F
:1001F00000000000000000000000000000000000FF
:1002000000000000000000000000000000000000EE
:100210000000071C071C0F3C0E380E38FFFEFFFEC7
:10022000FFFE1C701C701C701C70FFFEFFFEFFFEAA
:1002300038E038E079E071C071C0000000000000D3
:1002400000000000000000000000000000000000AE
:10025000018007E00FF01FF83DBC399C39803980E0
:100260003F801FC00FF007F801FC01BC019C399CC6
:100270003D9C1DBC1FF80FF007E0018001800000CD
:10028000000000000000000000000000000000006E
:10029000000000000000001F01C03F81C071C3804A
:1002A00071C38071C78071C70071C70071CE003FF4
:1002B0008E001F1C00001C000038F80039FC007381
:1002C0008E00738E00E38E00E38E01C38E01C38E19
:1002D0000381FC0380F80000000000000000000023
:1002E000000000000000000000000000000000000E
:1002F0000000000000000003E0000FF8001FFC00F9
:100300001E3C001E3C001E3C000F78000FF800074A
:10031000E0000FE0001FE0003FF3807CFF80787F6B
:1003200080783F00783F007C7FC03FFFE01FFBC02C
:1003300007E0800000000000000000000000000056
:100340000000000000000000000000000078787845
:100350007878783000000000000000000000000005
:10036000000000000000000000000000000000008D
:10037000000007000E000E001E001C003C003C00A8
:1003800038007800780078007800780078007800ED
:100390007800780038003C003C001C001E000E0075
:1003A0000E00070000000000000000000000000038
:1003B00000007000380038003C001C001E001E00C9
:1003C0000E000F000F000F000F000F000F000F00B6
:1003D0000F000F000E001E001E001C003C00380025
:1003E0003800700000000000000000000000000065
:1003F00000000C000C00CCC0FFC01E001E0033002B
:1004000073802100000000000000000000000000D8
:1004100000000000000000000000000000000000DC
:1004200000000000000000000000000000000000CC
:10043000000000000000000003C003C003C003C0B0
:1004400003C07FFE7FFE7FFE7FFE03C003C003C0AC
:1004500003C003C000000000000000000000000016
:10046000000000000000000000000000000000008C
:10047000000000000000000000000000003C3C3CC8
:100480003C0C1C38100000000000000000000000C0
:10049000000000000000000000000000000000005C
:1004A00000000000000000007F807F807F807F8050
:1004B000000000000000000000000000000000003C
:1004C000000000000000000000000000000000002C
:1004D000000000000000000000000000003C3C3C68
:1004E0003C00000000000000000000000007070EB4
:1004F0000E0E0E1C1C1C1C3838383870707070E0E2
:10050000E00000000000000000000000000000000B
:10051000000007C01FF01FF03C783C78783C783C26
:10052000783C783C783C783C783C783C783C783C2B
:100530003C783C781FF01FF007C00000000000006E
:1005400000000000000000000000000000000000AB
:10055000000000E001E003E007E01FE03FE03DE0D5
:1005600039E021E001E001E001E001E001E001E02B
:1005700001E001E001E001E001E000000000000016
:10058000000000000000000000000000000000006B
:10059000000007E01FF03FF83C7C783C783C003CD2
:1005A000003C007800F801F003E007C00F801F0056
:1005B0001E003C003FFC7FFC7FFC000000000000B0
:1005C000000000000000000000000000000000002B
:1005D00000000FC01FE03FF07CF87878007800F052
:1005E00003F003C003F00078003C003C003C783C82
:1005F000783C3C783FF81FF007C000000000000086
:1006000000000000000000000000000000000000EA
:10061000000000F000F001F003F003F007F00EF02E
:100620000EF01CF038F038F070F0E0F0FFFCFFFC4A
:10063000FFFC00F000F000F000F0000000000000FF
:1006400000000000000000000000000000000000AA
:1006500000001FF81FF83FF83C00380038003BE06E
:100660007FF07FF87878003C003C003C003C003C88
:10067000783C7C783FF01FF00FC0000000000000C5
:10068000000000000000000000000000000000006A
:10069000000003E00FF01FF83C7C3C3C3800780081
:1006A0007BE07FF07FF87C78783C783C783C783C45
:1006B000383C3C781FF80FF007C000000000000035
:1006C000000000000000000000000000000000002A
:1006D00000007FFC7FFC7FFC007C00F800F001E064
:1006E00003E003C007C0078007800F000F000F0062
:1006F0000F001E001E001E001E0000000000000073
:1007000000000000000000000000000000000000E9
:1007100000000FE01FF03FF87C7C783C783C783C90
:100720003C781FF00FE01FF03C78783C783C783C38
:10073000783C7C7C3FF81FF007C000000000000000
:1007400000000000000000000000000000000000A9
:10075000000007C01FE03FF03C787838783C783CD8
:10076000783C783C3C7C3FFC1FFC0FBC003C0038D4
:1007700078787C783FF03FE00F80000000000000B8
:100780000000000000000000000000000000000069
:100790000000000000000000000000001E001E001D
:1007A0001E001E000000000000000000000000000D
:1007B00000001E001E001E001E00000000000000C1
:1007C0000000000000000000000000000000000029
:1007D0000000000000000000000000001E001E00DD
:1007E0001E001E00000000000000000000000000CD
:1007F00000001E001E001E001E0006000E001C0051
:1008000008000000000000000000000000000000E0
:1008100000000000000000000004001C00FC03FCBD
:100820000FF83FC07E0078007E003FC00FF803FC49
:1008300000FC001C0004000000000000000000009C
:1008400000000000000000000000000000000000A8
:100850000000000000000000000000007FFE7FFE9E
:100860007FFE7FFE000000007FFE7FFE7FFE7FFE9A
:100870000000000000000000000000000000000078
:100880000000000000000000000000000000000068
:100890000000000000000000400070007E007F802B
:1008A0003FE007F800FC003C00FC07F83FE07F80D9
:1008B0007E0070004000000000000000000000000A
:1008C0000000000000000000000000000000000028
:1008D0000000000000000007E0001FF8003FFC00DF
:1008E0003C3E007C1E00781E00001E00003E000002
:1008F0007C0001F80001F00003E00003C00003C029
:100900000000000000000003C00003C00003C0009E
:1009100003C0000000000000000000000000000014
:1009200000000000000000000000000000000000C7
:10093000000000000000000000000000003FC000B8
:1009400000FFF00003FFFC0007E07E000F001E0028
:100950001E3DEF001C7FE7003CFFE78039E7C380C6
:1009600039C3C38079C3C3807383C3807383C38057
:10097000738387007387870073878F0073CF9E0010
:1009800071FFFC0039FFF80038F3E0003C0003C0C1
:100990001E0007800F000F800FC03F0003FFFE0006
:1009A00001FFF800003FE000000000000000000030
:1009B0000000000000000001F00003F80003F80050
:1009C00003F80007BC0007BC0007BC000F1E000FA7
:1009D0001E000F1E001E0F001E0F001FFF003FFF16
:1009E000803FFF803C07807803C07803C07803C055
:1009F000F001E00000000000000000000000000026
:100A000000000000000000000000000000000000E6
:100A1000000000000000003FFE003FFF003FFF809D
:100A20003FFFC03C07C03C03C03C03C03C07803FC5
:100A3000FF803FFF003FFF803FFFC03C03E03C01E1
:100A4000E03C01E03C03E03FFFE03FFFC03FFF80B0
:100A50003FFF000000000000000000000000000058
:100A60000000000000000000000000000000000086
:100A70000000000000000001FC0007FF000FFF80E5
:100A80001FFFC03F07C03C03E07C01807800007876
:100A900000007800007800007800007801807C0376
:100AA000E03C03E03F0FC01FFFC00FFF8007FF00C7
:100AB00001FC000000000000000000000000000039
:100AC0000000000000000000000000000000000026
:100AD000000000000000003FFC003FFF003FFF80DF
:100AE0003FFF803C07C03C03C03C03E03C01E03CCE
:100AF00001E03C01E03C01E03C01E03C01E03C0362
:100B0000E03C03C03C07C03FFF803FFF803FFF0049
:100B10003FFC00000000000000000000000000009A
:100B200000000000000000000000000000000000C5
:100B3000000000000000003FFF803FFF803FFF807B
:100B40003FFF803C00003C00003C00003C00003FB8
:100B5000FF003FFF003FFF003FFF003C00003C0064
:100B6000003C00003C00003FFF803FFF803FFF80D3
:100B70003FFF8000000000000000000000000000B7
:100B80000000000000000000000000000000000065
:100B9000000000000000003FFF003FFF003FFF009B
:100BA0003FFF003C00003C00003C00003C00003FD8
:100BB000FE003FFE003FFE003FFE003C00003C0008
:100BC000003C00003C00003C00003C00003C0000F9
:100BD0003C000000000000000000000000000000D9
:100BE0000000000000000000000000000000000005
:100BF0000000000000000001FC0007FF000FFF8064
:100C00001FFFC03F07E03C03E07C018078000078D4
:100C10000000781FE0781FE0781FE0781FE03C01BB
:100C2000E03E01E03F07E01FFFE00FFFC007FF00CD
:100C300001FC0000000000000000000000000000B7
:100C400000000000000000000000000000000000A4
:100C5000000000000000003C03C03C03C03C03C097
:100C60003C03C03C03C03C03C03C03C03C03C03F4A
:100C7000FFC03FFFC03FFFC03FFFC03C03C03C037D
:100C8000C03C03C03C03C03C03C03C03C03C03C0A9
:100C90003C03C00000000000000000000000000055
:100CA000000000000000000000000000003C3C3C90
:100CB0003C3C3C3C3C3C3C3C3C3C3C3C3C3C3C3C74
:100CC0003C000000000000000000000000000000E8
:100CD00000000078007800780078007800780078CC
:100CE000007800780078007800780078F078F07864
:100CF000F8F87FF07FF03FE01F8000000000000068
:100D000000000000000000000000000000000000E3
:100D1000000000000000003C03E03C07C03C0F80E6
:100D20003C1F003C3E003C7C003CF8003DF0003F96
:100D3000F0003FF8003FFC003F3C003E3E003C1E00
:100D4000003C0F003C0F803C07803C07C03C03E0A8
:100D50003C01E00000000000000000000000000076
:100D60000000000000000000000000000000000083
:100D7000000000000000003C00003C00003C0000BF
:100D80003C00003C00003C00003C00003C00003CFB
:100D900000003C00003C00003C00003C00003C0027
:100DA000003C00003C00003FFF003FFF003FFF0011
:100DB0003FFF0000000000000000000000000000F5
:100DC0000000000000000000000000000000000023
:100DD000000000000000007E03F07F07F07F07F0B6
:100DE0007F07F07B06F07B8EF07B8EF07B8EF07BB6
:100DF0008EF079DCF079DCF079DCF079DCF078D811
:100E0000F078F8F078F8F078F8F078F8F07870F09A
:100E10007870F000000000000000000000000000FA
:100E200000000000000000000000000000000000C2
:100E3000000000000000003C03C03E03C03F03C0B0
:100E40003F03C03F83C03F83C03FC3C03DC3C03DDD
:100E5000E3C03CF3C03CF3C03C7BC03C3BC03C3FE8
:100E6000C03C1FC03C1FC03C0FC03C0FC03C07C073
:100E70003C07C0000000000000000000000000006F
:100E80000000000000000000000000000000000062
:100E90000000000000000001FC0007FF000FFF80C1
:100EA0001FFFC03F07E03C03E07C01F07800F078D2
:100EB00000F07800F07800F07800F07800F07C0125
:100EC000F03E03E03F07E01FFFC00FFF8007FF0079
:100ED00001FC000000000000000000000000000015
:100EE0000000000000000000000000000000000002
:100EF000000000000000003FFC003FFE003FFF003C
:100F00003FFF803C0F803C07803C07803C0F803FC8
:100F1000FF803FFF003FFE003FF8003C00003C0028
:100F2000003C00003C00003C00003C00003C000095
:100F30003C00000000000000000000000000000075
:100F400000000000000000000000000000000000A1
:100F50000000000000000001FC0007FF000FFF8000
:100F60001FFFC03F07E03E03E07C01F07800F0780F
:100F700000F07800F07800F07800F07800F07C194C
:100F8000F03E3FE03F0FE01FFFC00FFFC007FFF044
:100F900001FCF800007000003000000000000000BC
:100FA0000000000000000000000000000000000041
:100FB000000000000000003FFE003FFF003FFF80F8
:100FC0003FFFC03C07C03C03C03C03C03C07C03FE0
:100FD000FF803FFF803FFF003FF8003C3E003C1F8A
:100FE000003C0F003C0F803C07C03C03C03C03E0CA
:100FF0003C01F000000000000000000000000000C4
:1010000000000000000000000000000000000000E0
:101010000000000000000003F0000FFC001FFE00B5
:101020003FFE003E1F003C0F003E00003FC0001F7F
:10103000F8000FFE0003FF00007F80000F8078079C
:10104000807C07803E0F803FFF001FFF000FFE00E7
:1010500003F8000000000000000000000000000095
:101060000000000000000000000000000000000080
:10107000000000000000007FFF807FFF807FFF8076
:101080007FFF8001E00001E00001E00001E00001DD
:10109000E00001E00001E00001E00001E00001E00B
:1010A0000001E00001E00001E00001E00001E000DB
:1010B00001E000000000000000000000000000004F
:1010C0000000000000000000000000000000000020
:1010D000000000000000003C03C03C03C03C03C013
:1010E0003C03C03C03C03C03C03C03C03C03C03CC9
:1010F00003C03C03C03C03C03C03C03C03C03C03F2
:10110000C03E03C03F0FC01FFF801FFF800FFF00C6
:1011100003FC0000000000000000000000000000D0
:1011200000000000000000000000000000000000BF
:1011300000000000000000F00780F80F80780F002A
:10114000780F00780F003C1E003C1E003C1E001C67
:101150001C001E3C001E3C001E3C000E38000F7898
:10116000000F780007700007700007F00003E00030
:1011700003E000000000000000000000000000008C
:10118000000000000000000000000000000000005F
:10119000000000000000000000000000F03E07809A
:1011A000F03E0780703E0700787F0F0078770F00D1
:1011B00078770F0078770F0038F78E0038E38E00CD
:1011C0003CE39E003CE39E003CE39E001DC1DC002E
:1011D0001DC1DC001DC1DC001DC1DC001F80FC0046
:1011E0000F80F8000F80F8000F80F800000000006A
:1011F00000000000000000000000000000000000EF
:1012000000000000000000000000000000000000DE
:10121000000000000000003C0F003E1F001E1E00EA
:101220000F3C000F3C0007F80007F80003F0000136
:10123000E00001E00003F00007F00007F8000F3CB9
:10124000000F3C001E1E001E1E003C0F007C0F8085
:10125000780780000000000000000000000000008F
:10126000000000000000000000000000000000007E
:1012700000000000000000F003C0F807C07C0F80F1
:101280003C0F003E1F001E1E000F3C000FFC00071D
:10129000F80003F00003F00001E00001E00001E0CD
:1012A0000001E00001E00001E00001E00001E000D9
:1012B00001E000000000000000000000000000004D
:1012C000000000000000000000000000000000001E
:1012D000000000000000007FFF007FFF007FFF0094
:1012E0007FFF00001E00003C0000780000F00001BD
:1012F000E00003C00007C0000780000F00001E00D0
:10130000003C0000780000FFFF00FFFF00FFFF002F
:10131000FFFF0000000000000000000000000000CF
:1013200000000000000000000000000000000000BD
:1013300000003F803F803F803F803C003C003C00FD
:101340003C003C003C003C003C003C003C003C00BD
:101350003C003C003C003C003C003C003F803F80A7
:101360003F803F80000000000000000000E0E070CF
:10137000707070383838381C1C1C1C0E0E0E0E078E
:101380000700000000000000000000000000000056
:101390000000FE00FE00FE00FE001E001E001E00FB
:1013A0001E001E001E001E001E001E001E001E004D
:1013B0001E001E001E001E001E001E00FE00FE007D
:1013C000FE00FE0000000000000000000000000021
:1013D0000000078007800FC00FC00FC01CE01CE09A
:1013E0003CF0387078780000000000000000000039
:1013F00000000000000000000000000000000000ED
:1014000000000000000000000000000000000000DC
:1014100000000000000000000000000000000000CC
:1014200000000000000000000000000000000000BC
:101430000000000000000000000000000000FFFEAF
:10144000FFFEFFFE000000000000000000000000A2
:101450000000F000780038001C00000000000000D0
:10146000000000000000000000000000000000007C
:10147000000000000000000000000000000000006C
:10148000000000000000000000000000000000005C
:101490000000000000000000000000000FE01FF04E
:1014A0003FF878F87078007801F81FF83E7878787F
:1014B000787878F87FF83FB81F3C00000000000003
:1014C000000000000000000000000000000000001C
:1014D000000000000000003C00003C00003C000058
:1014E0003C00003C00003CF0003FFC003FFE003EA2
:1014F0001E003E1F003C0F003C0F003C0F003C0F45
:10150000003C0F003E1F003F1E003FFE003FFC005E
:101510003CF000000000000000000000000000009F
:1015200000000000000000000000000000000000BB
:1015300000000000000000000000000007E01FF0B5
:101540003FF83C7C783078007800780078007800AC
:1015500078303C7C3FF81FF807E0000000000000F6
:10156000000000000000000000000000000000007B
:1015700000000000000000001E00001E00001E0011
:10158000001E00001E00079E001FFE003FFE003CE4
:101590003E007C3E00781E00781E00781E00781EFB
:1015A00000781E007C3E003C3E003FFE001FFE0017
:1015B000079E000000000000000000000000000086
:1015C000000000000000000000000000000000001B
:1015D00000000000000000000000000007C01FF035
:1015E0003FF83C787838783C7FFC7FFC7FFC7800C3
:1015F00078003C303FFC1FF807E0000000000000CE
:1016000000000000000000000000000000000000DA
:1016100000000F801F803F803C003C00FF80FF8067
:10162000FF803C003C003C003C003C003C003C0097
:101630003C003C003C003C003C000000000000007E
:10164000000000000000000000000000000000009A
:10165000000000000000000000000000000000008A
:10166000000000000000079E001FDE003FFE003C5F
:101670003E007C3E00781E00781E00781E00781E1A
:1016800000781E007C3E003C7E003FFE001FDE0016
:101690000F9E00001E00603E007FFC003FF8000F20
:1016A000F00000000000000000000000000000004A
:1016B000000000000000003C00003C00003C000076
:1016C0003C00003C00003CF8003FFC003FFE003EB8
:1016D0003E003C1E003C1E003C1E003C1E003C1E0A
:1016E000003C1E003C1E003C1E003C1E003C1E0038
:1016F0003C1E000000000000000000000000000090
:10170000000000000000000000000000003C3C3C25
:1017100000003C3C3C3C3C3C3C3C3C3C3C3C3C3C81
:101720003C0000000000000000000000003C3C3CC9
:1017300000003C3C3C3C3C3C3C3C3C3C3C3C3C3C61
:101740003C3C3CFCF8F00000000000000000000001
:1017500000003C003C003C003C003C003C3C3C7831
:101760003C703CF03DE03DC03FC03FE03FE03EF01C
:101770003CF03C783C783C3C3C3C000000000000E5
:10178000000000000000000000000000003C3C3CA5
:101790003C3C3C3C3C3C3C3C3C3C3C3C3C3C3C3C89
:1017A0003C000000000000000000000000000000FD
:1017B0000000000000000000000000000000000029
:1017C0000000000000000000000000000000000019
:1017D0003CF87C003FFDFE003FFFFF003E3F1F0046
:1017E0003C1F0F003C1E0F003C1E0F003C1E0F0054
:1017F0003C1E0F003C1E0F003C1E0F003C1E0F0045
:101800003C1E0F003C1E0F003C1E0F00000000009D
:1018100000000000000000000000000000000000C8
:1018200000000000000000000000000000000000B8
:1018300000000000000000000000000000000000A8
:101840000000000000003CF8003DFC003FFE003EB0
:101850003E003C1E003C1E003C1E003C1E003C1E88
:10186000003C1E003C1E003C1E003C1E003C1E00B6
:101870003C1E00000000000000000000000000000E
:101880000000000000000000000000000000000058
:101890000000000000000000000000000000000048
:1018A00000000000000003E0000FF8001FFC003EF5
:1018B0003E003C1E00780F00780F00780F00780F74
:1018C00000780F003C1E003E3E001FFC000FF80099
:1018D00003E0000000000000000000000000000025
:1018E00000000000000000000000000000000000F8
:1018F00000000000000000000000000000000000E8
:101900000000000000003CF8003FFC003FFE003EED
:101910001E003E1F003C0F003C0F003C0F003C0F20
:10192000003C0F003E1F003F1E003FFE003DFC003C
:101930003CF0003C00003C00003C00003C00003C4F
:101940000000000000000000000000000000000097
:101950000000000000000000000000000000000087
:10196000000000000000079E001FFE003FFE003C3C
:101970003E007C3E00781E00781E00781E00781E17
:1019800000781E007C3E003C7E003FFE001FFE00F3
:10199000079E00001E00001E00001E00001E00002A
:1019A0001E00000000000000000000000000000019
:1019B0000000000000000000000000003DE03FE0EB
:1019C0003FE03E003E003C003C003C003C003C0050
:1019D0003C003C003C003C003C00000000000000DB
:1019E00000000000000000000000000000000000F7
:1019F0000000000000000000000000000FE03FF8C1
:101A00007FFC783078007E003FC01FF007F800FCB4
:101A1000003C183C7FF83FF80FE000000000000099
:101A200000000000000000000000000000000000B6
:101A3000000004001C003C003C003C00FF80FF80D4
:101A4000FF803C003C003C003C003C003C003C0073
:101A50003C003C003F801F800F8000000000000021
:101A60000000000000000000000000000000000076
:101A70000000000000000000000000000000000066
:101A80000000000000003C1E003C1E003C1E003C0C
:101A90001E003C1E003C1E003C1E003C1E003C1E66
:101AA000003C1E003C1E003E3E003FFE001FFE00AC
:101AB0000F9E000000000000000000000000000079
:101AC0000000000000000000000000000000000016
:101AD000000000000000000000000000783C783C9E
:101AE000783C38383C783C781C701C701E700EE0D6
:101AF0000EE00FE007C007C007C0000000000000B4
:101B000000000000000000000000000000000000D5
:101B100000000000000000000000000000000000C5
:101B2000000000000000F0707870707070707078C5
:101B3000F8F038D8E038D8E038D8E01DDDC01D8D89
:101B4000C01D8DC00D8D800F8F800F07800707008F
:101B50000707000000000000000000000000000077
:101B60000000000000000000000000000000000075
:101B7000000000000000000000000000783C783CFD
:101B80003C781EF01EE00FE007C007C007C00FE062
:101B90001EF01EF03C78783C783C0000000000000D
:101BA0000000000000000000000000000000000035
:101BB000000000000000000000000000F01EF01E09
:101BC000783C783C78383C783C781C701C701EF06F
:101BD0000EE00EE007C007C007C007800F807F003F
:101BE0007F007C00000000000000000000000000FA
:101BF0000000000000000000000000007FF87FF8F7
:101C00007FF8007800F001E003C007800F001E009D
:101C10003C0078007FF87FF87FF8000000000000AB
:101C200000000000000000000000000000000000B4
:101C3000000003C007C00FC00E000E000E000E0013
:101C40000E000E000E001E007C0078007C001E00BE
:101C50000E000E000E000E000E000E000E000FC053
:101C600007C003C000000000000000000038383842
:101C700038383838383838383838383838383838E4
:101C80003838383838380000000000000000000004
:101C9000000078007C007E000E000E000E000E009A
:101CA0000E000E000E000F0007C003C007C00F009B
:101CB0000E000E000E000E000E000E000E007E0044
:101CC0007C00780000000000000000000000000020
:101CD0000000000000000000000000000000000004
:101CE0001E007FC67FFE7FFE61FE007800000000C0
:101CF00000000000000000000000000000000000E4
:101D00000000000000000000080801008801000831
:101D100008080100A80100080D0D0200C801000814
:101D20000F0F0200080200080F0F0200480200080F
:101D3000181803008802000814140300E8020008C1
:101D400006060100480300080909020068030008AC
:101D500009090200A80300080B0B0200E8030008B1
:101D60001010020028040008080801006804000898
:101D7000090902008804000808080100C8040008D6
:101D800008080100E80400080F0F02000805000819
:101D90000F0F0200480500080F0F02008805000819
:101DA0000F0F0200C80500080F0F02000806000808
:101DB0000F0F0200480600080F0F020088060008F7
:101DC0000F0F0200C80600080F0F020008070008E6
:101DD0000F0F0200480700080A0A020088070008DF
:101DE0000A0A0200C80700081010020008080008CC
:101DF00010100200480800081010020088080008AF
:101E000011110300C80800081A1A04002809000864
:101E100013130300A809000814140300080A00089B
:101E200014140300680A000814140300C80A000808
:101E300012120300280B000811110300880B000880
:101E400015150300E80B000814140300480C0008E3
:101E500008080100A80C00080F0F0200C80C0008B9
:101E600014140300080D000811110300680D000888
:101E700015150300C80D000814140300280E0008EF
:101E800015150300880E000812120300E80E000862
:101E900015150300480F000814140300A80F0008CC
:101EA0001212030008100008121203006810000844
:101EB00014140300C81000081212030028110008AF
:101EC00019190400881100081212030008120008F2
:101ED000121203006812000811110300C812000852
:101EE0000909020028130008080801006813000807
:101EF000090902008813000810100200C813000826
:101F00000F0F020008140008090902004814000815
:101F10000F0F02008814000811110300C8140008F4
:101F20000F0F0200281500081111030068150008A2
:101F30000F0F0200C8150008090902000816000862
:101F4000111103004816000811110300A81600081B
:101F500008080100081700080808010028170008F1
:101F60000F0F020048170008080801008817000832
:101F70001A1A0400A81700081111030028180008F5
:101F8000111103008818000811110300E818000857
:101F900011110300481900080B0B0200A8190008D2
:101FA0000F0F0200E819000809090200281A0008AA
:101FB00011110300681A00080F0F0200C81A000868
:101FC00015150300081B00080F0F0200681B00080E
:101FD0000F0F0200A81B00080E0E0200E81B0008ED
:101FE0000B0B0200281C000807070100681C0008F2
:101FF0000B0B0200881C000810100200C81C00080F
:1020000020007E00081D000800000000191D0108C6
:10201000E11D01081D1E0108231E0108000000002B
:10202000000000002020010100200008190F14000A
:1020300000000000000000000000000000000000A0
:1020400000000000000000000000000038383838B0
:1020500038383838381010003838380000000000A0
:1020600000000000000000007380738073807380A4
:10207000738000000000000000000000000000006D
:102080000000000000000000000000000000000050
:1020900000000000000000000C600C600C6018C024
:1020A000FFF0FFF018C039C03180FFF0FFF0318041
:1020B0007380630063000000000000000000000067
:1020C00000000000000006001F803FC076E076E0C0
:1020D00076007E003F001FC007E006E006E076E0E5
:1020E00076E03FC01F8006000600000000000000F0
:1020F0000000000000000000000000003C18007E0E
:1021000038006630006630006660006660007EC0A1
:10211000003CC000019E0001BF0003B30003330078
:10212000033300063300063F000C1E0000000000D1
:10213000000000000000000000000000000000009F
:1021400007800FC01CE01CE01EE00FC00F801F8046
:102150003F9C71FC71F870F079FC3FFE1F8C000011
:1021600000000000000000000000000070707070AF
:1021700070000000000000000000000000000000EF
:10218000000000000C181838387070707070707093
:102190007030383818180C000000000060303038FB
:1021A000381C1C1C1C1C1C1C1C18383830306000CF
:1021B000000000001818DBFF1C3C66240000000033
:1021C000000000000000000000000000000000000F
:1021D0000000000007000700070007007FF07FF005
:1021E0007FF0070007000700070000000000000064
:1021F00000000000000000000000000000000000DF
:1022000000000000000000007070701030600000DE
:102210000000000000000000000000007E7E7E0044
:1022200000000000000000000000000000000000AE
:10223000000000000000000070707000000000004E
:10224000000000000C0C1818183830303060606046
:1022500060C0C0000000000000000000000000009E
:102260000F003FC039C070E070E070E070E070E0D7
:1022700070E070E070E070E039C03FC00F00000017
:10228000000000000000000000000000000000004E
:102290000380038007801F803F803B802380038072
:1022A0000380038003800380038003800380000099
:1022B000000000000000000000000000000000001E
:1022C0001F803FC079E070E000E000E001C003C083
:1022D00007800F001E001C0038007FE07FE0000038
:1022E00000000000000000000000000000000000EE
:1022F0001F003F8071C071C001C003C00F800F80FC
:1023000001C000E000E070E079C03FC01F000000A5
:1023100000000000000000000000000000000000BD
:102320000380078007800F800F801B8033803380FD
:102330006380C380FFE0FFE0038003800380000030
:10234000000000000000000000000000000000008D
:102350001FC01FC03800380038003F807FC071E0C8
:1023600000E000E000E070E079C03FC01F00000026
:10237000000000000000000000000000000000005D
:102380000F803FC039E07080700077807FC079C0D7
:1023900070E070E070E070E039C03FC00F000000F6
:1023A000000000000000000000000000000000002D
:1023B0007FE07FE000E001C00380038007000700AA
:1023C0000E000E000E001C001C001C001C00000073
:1023D00000000000000000000000000000000000FD
:1023E0001F803FC079E070E070E039C01F801F801F
:1023F00039C070E070E070E079E03FC01F800000FD
:1024000000000000000000000000000000000000CC
:102410000F003FC039C070E070E070E070E039E05C
:102420003FE01EE000E030E079C03FC01F00000048
:10243000000000000000000000000000000000009C
:10244000383838000000000038383800000000003C
:1024500000000000000000003838380000000000D4
:102460003838380818300000000000000000000074
:1024700000000000002000E007E01F807C007000EA
:102480007E001FC007E000E0002000000000000008
:10249000000000000000000000000000000000003C
:1024A00000000000000000007FE07FE07FE000000F
:1024B00000007FE07FE07FE00000000000000000FF
:1024C000000000000000000000000000000000000C
:1024D00000000000400070007E001F8003E000E06C
:1024E00007E03F807E007000400000000000000018
:1024F00000000000000000000000000000000000DC
:102500000F803FE078F07070007000F001E003C0D1
:102510000780070007000000070007000700000011
:1025200000000000000000000000000000000000AB
:102530000000000000FC0007FF000F03801C01C02A
:1025400019DEC033FC6033FC6063BC60673C6067CD
:102550003C606738C06778C067F98063FF0033BCB0
:10256000003800701C00E00F03C007FF8001FE0070
:10257000000000000000000007C007C007C00EE018
:102580000EE00EE01C701C7038383FF83FF87FFCFE
:10259000701C701CE00E0000000000000000000035
:1025A00000000000000000003FE03FF03FF8383836
:1025B000383838383FF03FF03FF8381C381C381CAA
:1025C0003FFC3FF83FF0000000000000000000006A
:1025D000000000000000000007C01FF03FF83C3C76
:1025E00078187000700070007000700078183C3C23
:1025F0003FF81FF007C000000000000000000000CE
:1026000000000000000000003FE03FF03FF83838D5
:10261000383C381C381C381C381C381C381C3838DE
:102620003FF83FF03FC00000000000000000000045
:1026300000000000000000003FF83FF83FF83800BD
:10264000380038003FF03FF03FF0380038003800E5
:102650003FF83FF83FF800000000000000000000D5
:1026600000000000000000003FF03FF03FF03800A5
:10267000380038003FE03FE03FE0380038003800E5
:1026800038003800380000000000000000000000A2
:10269000000000000000000003E00FF81FFC3C1EDB
:1026A000780C7000700070FE70FE70FE380E3C1EDC
:1026B0001FFE0FFC03E0000000000000000000000F
:1026C000000000000000000070387038703870386A
:1026D000703870387FF87FF87FF87038703870384D
:1026E00070387038703800000000000000000000F2
:1026F000000000007070707070707070707070709A
:102700007070700000000000000000000000000079
:1027100001C001C001C001C001C001C001C001C0B1
:1027200001C0E1C0E1C0F1C07FC07F801E00000099
:102730000000000000000000000000000000000099
:10274000383C387838F038E039C03B803FC03FC073
:102750003EE03CE0387038383838381C381C00000F
:102760000000000000000000000000000000000069
:102770003800380038003800380038003800380099
:1027800038003800380038003FF03FF03FF00000DC
:102790000000000000000000000000000000000039
:1027A000000000007C1F007E3F007E3F0076370067
:1027B0007637007637007777007777007367007396
:1027C000670073E70073E70073E70071C70071C724
:1027D00000000000000000000000000000000000F9
:1027E00000000000000000007038783878387C382D
:1027F0007E3876387738733873B871B871F870F8F6
:1028000070F87078703800000000000000000000D0
:10281000000000000000000007E01FF83FFC3C3C07
:10282000781E700E700E700E700E700E781E3C3C8E
:102830003FFC1FF807E0000000000000000000005F
:1028400000000000000000003FE03FF03FF8387853
:10285000383838783FF83FF03FE03800380038002B
:1028600038003800380000000000000000000000C0
:10287000000000000000000007E01FF83FFC3C3CA7
:10288000781E700E700E700E700E708E79DE3CFC2D
:102890003FFC1FFE07EF00060000000000000000E4
:1028A00000000000000000003FE03FF03FF8383833
:1028B000383838383FF83FF03FC038E038F03870EB
:1028C00038383838381C00000000000000000000D4
:1028D000000000000000000007C01FF03FF0387843
:1028E00038383C001F800FF003F00078703878789B
:1028F0003FF83FF00FC000000000000000000000A3
:1029000000000000000000007FF07FF07FF0070073
:10291000070007000700070007000700070007007F
:102920000700070007000000000000000000000092
:1029300000000000000000007038703870387038F7
:1029400070387038703870387038703870387878FF
:102950003FF03FF00FC0000000000000000000004A
:102960000000000000000000E038E0787070707037
:10297000707038E038E038E01DC01DC01DC00F8009
:102980000F800F8007000000000000000000000022
:10299000000000000000000000000000E07038E0CF
:1029A000F83870F87070F87071DC7071DC7039DCB8
:1029B000E03B8EE03B8EE03B8EE01F07E01F07C050
:1029C0001F07C01E03C01E03C0000000000000005F
:1029D00000000000000000000000000000000000F7
:1029E0007038703838701CE01CE00FC0078007801A
:1029F00007800FC01CE01CE0387070387038000091
:102A000000000000000000000000000000000000C6
:102A1000E038E038707038E038E01DC00F800F807B
:102A20000700070007000700070007000700000075
:102A30000000000000000000000000000000000096
:102A40007FF07FF07FF000F001E003C007800F000F
:102A50001E003C007800F000FFF0FFF0FFF00000E7
:102A60000000000000000000000000003E3E3E3874
:102A70003838383838383838383838383E3E3E00FC
:102A800000000000C0C0606060603030303818184E
:102A9000180C0C000000000000000000F8F8F838E6
:102AA000383838383838383838383838F8F8F8009E
:102AB000000000000000000006000F000F001F8053
:102AC000198039C039C070E000000000000000002B
:102AD00000000000000000000000000000000000F6
:102AE00000000000000000000000000000000000E6
:102AF00000000000000000000000000000000000D6
:102B000000000000000000000000FFF0FFF00000E7
:102B100000000000E0603000000000000000000045
:102B200000000000000000000000000000000000A5
:102B300000000000000000001F803FC060E003E0D4
:102B40001FE03CE070E070E071E03FE01E700000CC
:102B50000000000000000000000000000000000075
:102B6000700070007000700077807FE078E0707017
:102B7000707070707070707078E07FE07780000027
:102B80000000000000000000000000000000000045
:102B900000000000000000000F003FC039C070E0DE
:102BA00070007000700070E039C03FC00F0000007E
:102BB0000000000000000000000000000000000015
:102BC00000700070007000700F703FF038F070708F
:102BD000707070707070707038F03FF00F7000009F
:102BE00000000000000000000000000000000000E5
:102BF00000000000000000000F003FC039C070E07E
:102C00007FE07FE0700070E039C03FC00F0000003F
:102C10000000000000000000000000001E3E3838E8
:102C2000FEFE3838383838383838380000000000B0
:102C30000000000000000000000000000000000094
:102C40000F703FF038F0707070707070707070704E
:102C500038F03FF01F70007070F07FE01FC0000080
:102C600000000000000000007000700070007000A4
:102C700073C07FE078F070707070707070707070FA
:102C800070707070707000000000000000000000A4
:102C900000000000707000007070707070707070D4
:102CA00070707000000000000000000070700000F4
:102CB00070707070707070707070707070F0E00094
:102CC0000000000000000000700070007000700044
:102CD00070E071C073807F007F007F007B80718017
:102CE00071C070E070E00000000000000000000013
:102CF0000000000070707070707070707070707094
:102D00007070700000000000000000000000000073
:102D100000000000000000000000000000000000B3
:102D200077CF007FFF8078F1C070E1C070E1C070A4
:102D3000E1C070E1C070E1C070E1C070E1C070E15D
:102D4000C0000000000000000000000000000000C3
:102D50000000000000000000000000000000000073
:102D600073C07FE078F07070707070707070707009
:102D700070707070707000000000000000000000B3
:102D80000000000000000000000000000000000043
:102D90000F803FE038E0707070707070707070700D
:102DA00038E03FE00F80000000000000000000005D
:102DB0000000000000000000000000000000000013
:102DC00077807FE078E070707070707070707070F5
:102DD00078E07FE077807000700070007000000085
:102DE00000000000000000000000000000000000E3
:102DF0000F703FF038F0707070707070707070709D
:102E000038F03FF00F70007000700070007000002C
:102E10000000000000000000777F78707070707014
:102E20007070700000000000000000000000000052
:102E300000000000000000001F803FC070E0700034
:102E40007E003FC007E000E070E03FC01F80000050
:102E500000000000000000000000000000103070C2
:102E6000FCFC707070707070707C3C0000000000A2
:102E70000000000000000000000000000000000052
:102E80007070707070707070707070707070707042
:102E900078F03FF01F70000000000000000000000C
:102EA0000000000000000000000000000000000022
:102EB0007070707038E038E038E01DC01DC00F80C1
:102EC0000F80070007000000000000000000000065
:102ED00000000000000000000000000000000000F2
:102EE000E38EE38E638C77DC76DC36D836D83EF81A
:102EF0003C781C701C700000000000000000000006
:102F000000000000000000000000000000000000C1
:102F100070E039C039C01F800F000F000F001F8004
:102F200039C039C070E0000000000000000000005F
:102F30000000000000000000000000000000000091
:102F4000E0E0E0E071C071C071803B803B801B001D
:102F50001F001F000E000E001C007C007800000007
:102F60000000000000000000000000000000000061
:102F70007FC07FC001C0038007000E001C00380026
:102F800070007FC07FC00000000000000000000053
:102F900000000000070F1F1C1C1C1C1C3C78783C08
:102FA0001C1C1C1C1F1F0F000000000030303030A4
:102FB0003030303030303030303030303030303011
:102FC00000000000E0F0F838383838383C1E1E3C6D
:102FD00038383838F8F8F000000000000000000031
:102FE0000000000000000000000000007C20FFE066
:102FF000FFE087C0000000000000000000000000AB
:10300000000000000000000006060100302000085B
:1030100007070100482000080A0A02006020000893
:103020000C0C0200902000080C0C0200C0200008CC
:1030300011110300F02000080F0F020038210008D2
:10304000050501006821000807070100802100082C
:10305000070701009821000808080100B0210008B6
:103060000C0C0200C821000806060100F821000827
:1030700007070100102200080606010028220008A8
:1030800006060100402200080C0C0200582200082D
:103090000C0C0200882200080C0C0200B822000868
:1030A0000C0C0200E82200080C0C02001823000897
:1030B0000C0C0200482300080C0C020078230008C6
:1030C0000C0C0200A82300080C0C0200D8230008F6
:1030D0000C0C02000824000807070100382400082F
:1030E00007070100502400080C0C020068240008A7
:1030F0000C0C0200982400080C0C0200C8240008E4
:103100000D0D0200F82400081414030028250008FF
:103110000F0F0200702500080F0F0200A025000805
:103120000F0F0200D02500080F0F02000026000834
:103130000E0E0200302600080D0D02006026000869
:1031400010100200902600080E0E0200C026000893
:1031500005050100F02600080C0C020008270008F5
:103160000F0F0200382700080D0D02006827000825
:1031700011110300982700080E0E0200E027000836
:1031800010100200102800080E0E0200402800084F
:1031900010100200702800080F0F0200A02800087D
:1031A0000E0E0200D02800080D0D020000290008B4
:1031B0000E0E0200302900080D0D020060290008E3
:1031C00015150300902900080E0E0200D8290008EA
:1031D0000D0D0200082A00080C0C0200382A000815
:1031E00007070100682A000806060100802A000877
:1031F00007070100982A00080C0C0200B02A0008FA
:103200000C0C0200E02A000807070100102B000840
:103210000C0C0200282B00080D0D0200582B000892
:103220000C0C0200882B00080D0D0200B82B0008C2
:103230000C0C0200E82B000807070100182C0008FE
:103240000D0D0200302C00080D0D0200602C00084E
:1032500005050100902C000805050100A82C0008B8
:103260000C0C0200C02C000805050100F02C000821
:1032700013130300082D00080D0D0200502D000847
:103280000D0D0200802D00080D0D0200B02D00086C
:103290000D0D0200E02D000808080100102E0008A6
:1032A0000C0C0200282E000807070100582E000809
:1032B0000D0D0200702E00080D0D0200A02E00085A
:1032C0000F0F0200D02E00080C0C0200002F000887
:1032D0000B0B0200302F00080B0B0200602F0008C0
:1032E00008080100902F000806060100A82F00081A
:1032F00008080100C02F00080C0C0200D82F00089D
:1033000020007E000830000800000000191D0108A0
:10331000E11D01081D1E0108231E01080000000018
:10332000000000001818010100330008130B0F0003
:10333000DFF8182C136A0021984201D10846704723
:10334000526A01219042F9D04FF0FF3070473EB5EC
:103350000446DFF8FC0B0568696C19B9204601F0DA
:1033600055F837BD00F0A5FEDFF8E00BC06D00B9E1
:10337000A86C01F037FB009001A900F01DF900F0E6
:1033800081FB214601A801F0BFFB01A801F03EF836
:1033900037BD70B504460D46164600F028FE32468D
:1033A000806AC0034CBF4FF4804320232946204647
:1033B000BDE870406CE1FEB506460C46154601F0CE
:1033C00009FB0090876AB80735D5204600F09BF9C5
:1033D00000281EBF40F60100384001282BD000F025
:1033E0005AFA00900246214600F0EAF901A800F0DE
:1033F0008AF9F0B10098806A44F22001084207D0AF
:10340000009800F1080101AA083001F09DFB10E0CE
:103410000098083001A900F04DFE00980099806ADC
:1034200028438862DFF8240B818B491C818301F0DB
:10343000B7FB00F027FBF7BD2022BCE738B50446F8
:103440000D4602E0054600F01DFB00F082F800F09A
:103450001AF903D400F016FB002032BD0099204673
:1034600001F052FB009880690028EBD100F00AFBC4
:103470002846FFF75DFFC043C00F32BD10B5DFF82F
:10348000D00ADFF8C84A84B000684830017B21B117
:1034900004F10800FFF75BFF1FBD006801F0A2FA0E
:1034A000009001A8009900F005FE00F0EBFAE16D34
:1034B00011B101A8FFF7C2FF01A8FFF748FF1FBD28
:1034C00070B50D0084B0044642D001F08BFA019033
:1034D0000020019908620198856100F03AF8029095
:1034E000019890F8280000F008050298C6691EB9F6
:1034F00000F080FD02A829E000F0CDF9009065B948
:1035000090F82800000708D501980662029800F09C
:1035100071FD00F0FAFB684618E000F0F6FB00F0E1
:10352000B1FA00F048F900900098066A0EB90462FA
:103530000BE000F040F9002DF5D190F828100907B4
:10354000F1D5009804620198066201A801F055FACD
:103550007FBD284601F046BA70B5044601F03AFA3C
:103560000546A869A0B101F035FA0646F169A14205
:1035700005D1084601F02EFA006AF06170BD39B13C
:10358000084601F027FA016AA142F8D1296A0162CE
:1035900070BD10B582B000F031FD0090816941B17D
:1035A000026A00F0AEF82046FFF7D6FF009900202F
:1035B000886100F067FA13BD0B46B0F90220B0F93C
:1035C0000010184601F0F4BA10B50446DFF87C0983
:1035D000C06B02E001F0FEF9406910B1A042F9D1E0
:1035E000012010BD10B5040082B021D001F0FAF91D
:1035F00000F049F81AD50098406A00281EBFDFF88D
:10360000C41C0968A14204D001F08BFB0099002082
:103610004862204601F05AFC044605E02046FFF7C8
:10362000E1FF00F0CEFA046A002CF7D100F02AFA8C
:1036300013BD70B5040084B00D46164622D001F0CB
:10364000D1F900F020F804D5009A294600F0B8F826
:1036500010B900F017FA7FBD00F014FA324601A944
:103660002046FFF7A8FE204601F030FC044607E0A4
:10367000324601A92046FFF7DCFF00F0A2FA046AF7
:10368000002CF5D17FBD009090F82800800770478E
:103690002DE9F0410F0084B00646144698462ED01E
:1036A000384601F09FF90090856AA80725D5009A51
:1036B000314600F085F800B340F6010028400128AB
:1036C00007D10098026A8169434601A8FFF7E0FF2D
:1036D00004E0424601A93846FFF76DFE0098C6692E
:1036E00007E0424601A93046FFF7A3FF00F063F868
:1036F000066A002E18BFA642F3D100F0C3F9BDE858
:10370000FF812023C4E7B0F90410B0F900209142F2
:10371000A2BFB0F90610B0F902008142B4BF002088
:103720000120704770B584B006460C4615460BE084
:1037300001AA21463046FFF7F5FF00F03CF8066A83
:10374000002EF5D100F09CF9002E33D000F0A3F844
:103750000090866AB007F5D515B100F02FF801E0AA
:1037600000F0A6FC00F065F80028EBD0F0071ED4AE
:103770000098B0F90200002D04D0B5F90210814282
:10378000A8BF0846B4F90210814209DABDF9060063
:10379000B4F90620411E9142D4DA401EE080D1E700
:1037A000BDF90A00B4F906108842CBDAF6E70098B2
:1037B000C669C5E77FBD304601F00CB900992A46BD
:1037C00001A801F08ABBFEB507460C461546002647
:1037D00010E001AA21463846FFF7F5FF00B10126A7
:1037E000384601F0F7F8076A002FF2D10098076A0F
:1037F00000F048F9DFB1384601F0F4F80090876A2C
:10380000B807F3D515B1FFF7D9FF01E000F050FC80
:1038100000F00FF80028E9D0F80705D4BDF808003B
:10382000401C20800126E1E70098C769DCE73046AC
:10383000FEBD01A9204601F080BB70B584B00646EC
:103840000C4615460BE001AA21463046FFF7F5FF6E
:10385000FFF7B1FF066A002EF5D100F011F9CEB1E5
:1038600000F019F80090866AB007F6D515B1FFF799
:10387000A5FF01E000F01CFCFFF7DBFF0028ECD007
:10388000F00704D4BDF80400401EA080E5E70098CE
:10389000C669E0E77FBD304601F0A4B8002818BF34
:1038A00001F068BB704700B585B000910190694692
:1038B00001F060FB05B000BD00224A800A80038849
:1038C0008288D21A8A80C2884088101AC8807047BD
:1038D00070B5040086B00D4630D001F083F800903A
:1038E000866AB00728D500F0E3FBF00344BF20460A
:1038F000FFF778FE5DB103A8294600F0DBFB0098D6
:1039000003A9FFF759FE03A901A801F0FDF821461C
:1039100001A8FFF793FD78B140F60100304001287F
:1039200006D10098026A816901A8FFF7EAFE03E068
:1039300001A92046FFF780FD00F0A4F806B070BD95
:103940000021C5E72DE9F04F83B0DFF88C4A074628
:1039500088460D98E16C0C9E91469A4641EA000516
:1039600046B9608B50B3DFF8E8050068407C04EB93
:103970008000066A16F1010F08BF00261ED0EEB1C6
:10398000FFF789FF01900199B0F90000B1F9021029
:10399000C719B9F1000F884405D1019AB2F9042082
:1039A000101A00F10109BAF1000F05D10198B0F920
:1039B0000600401A00F1010A00F01DFB0F982C30A0
:1039C00001F0F8FA5FEA000B57D0608B401C60836F
:1039D000584601F007F8009007800098A0F8028090
:1039E00009EB07000099401E88800AEB0800009947
:1039F000401EC88000990E980861DFF8E019009811
:103A0000806A294008430099886200F03BF8E06B27
:103A100050B100F0DFFF0746584600F0DBFF796940
:103A20004161C7F814B001E0C4F83CB031465846D3
:103A3000FFF746FDA80644BF584600F0A7F8E80780
:103A400002D5A06D401CA065680644BF584601F031
:103A5000C3FAA8070DD5584600F0C4FF009000999E
:103A6000806A40F00200886200F00CF85846FFF7C8
:103A700067FF01215846FFF716FF5846BDE8FE8F45
:103A80000098066A684600F0B8BFF8B5040066D032
:103A9000FFF79AFD002862D0204600F061F8054645
:103AA0000B212046FFF7FFFE204601F0D7FA204603
:103AB00000F098FF0090406A08B101F032F9DFF899
:103AC000186900207066B06B06EB8000016BA142A4
:103AD00004BF00210163816AA14204BF0021816209
:103AE000306C05E04168A14204BF002141600068DC
:103AF0000028F7D10721204601F0E9FA009FF86974
:103B0000FFF7C3FFF8690028F9D12046FFF741FD10
:103B1000F06B48B100F05EFF07467869A042F8D12B
:103B200000F04FF8406978610098806AC10702D5BB
:103B3000B16D491EB165800602D5B08B401EB083C1
:103B4000FFF7A0FF708B401E7083204600F0A7FF98
:103B5000002D04D406EB8500006A00F017F8F1BDD3
:103B600010B5044600F036FF80690028F9D12046E0
:103B7000BDE81040FFF7DCBB80B5FFF7F1FF002880
:103B80005CBFBDE8024001F0BFBA01BD70B5DFF80F
:103B9000C05304002868866C04BFDFF83C18CC6B67
:103BA00084642046FFF7E8FF01F037FD00F009F8D4
:103BB0002968B0F90020CA64B0F9020008653046EF
:103BC00070BD204600F006BFDFF814080068806C66
:103BD000704770B5DFF8004884B0D4E90201CDE940
:103BE0000001206920B92088ADF80000608811E04C
:103BF000A089401CADF800006089BDF90010ADF847
:103C00000200B4F90400884206DA2088ADF800000A
:103C1000E089401CADF80200B4F90600BDF90210BD
:103C2000884264DBDFF8B85700F094F90290B4F9E9
:103C30000010BDF90000884217D1E088ADF80600F9
:103C4000A088ADF804002868806C08E000F0C2FE8F
:103C500006460022306A6946FFF764FDB069002815
:103C6000F4D100F04DF8FFF75DFDBDF80000ADF8B0
:103C700004002868806C0AE000F0ACFE06460022D2
:103C8000306A6946FFF79FFD0028EED1B069002831
:103C9000F2D100F035F8FFF796FD0028E5D1BDF927
:103CA0000010B4F90400ADF80400884206DADDE93A
:103CB0000001C4E9020100F028F8A6E72868806C3A
:103CC00008E000F087FE05460022286A6946FFF7F3
:103CD000B4FDA8690028F4D100F012F8FFF7ADFD9B
:103CE00000F013F8206944F62161884201DB0020CE
:103CF00004E0DDE90001C4E90201012004B070BD67
:103D00000298C06900226946704702A800F075BE9B
:103D10008F48006890F8540000B9704710B5DFF87C
:103D2000B8466069022805DA2069401C2061FFF767
:103D300050FF20B96069401E6061002010BDFFF790
:103D40009DFB012010BD70B5814C86B006462068F1
:103D50004830017B11B9FFF791FB06E0DFF8785698
:103D60006969491C0229696101DB012055E000688D
:103D700000F038FE00904FF0FF302861287E20B31D
:103D8000009902A8083100F095F91EB1314602A849
:103D900000F0BAFE2068416C29B300980190082217
:103DA00004A801F0BFFCE86D28B100F024F9E86D2B
:103DB00000F018FE019004A90198FFF7FDFB04A98B
:103DC00002A800F0A1FE01A80EE0009890F82800DB
:103DD000800702D5009902A8D5E76869401E68618E
:103DE000FFF750FE11E0684600F007FEE96D19B1DB
:103DF00002A8FFF723FB28B12068816C02A8FFF717
:103E00001DFB20B96869401E6861002005E0DDE9FE
:103E10000201C5E90001FFF77BFF06B070BD80B568
:103E200001F0BCFCDFF8B81509680020486401BD4A
:103E300070B588B000F0E2F80090866A05690099D4
:103E400001A8083100F036F9FFF71CFE45B3B007B2
:103E500026D52E21204601F0C1FCDFF87C55287EB6
:103E6000401C2876F00406D500F01CF803A9204673
:103E700001F080F80DE001A8FFF765FF48B100F000
:103E800011F803A9204601F075F8FFF741FF00285B
:103E9000F5D1287E401E28762F21204601F09EFC79
:103EA00008B070BD0F200390049401A80690B6E7F7
:103EB00010B5044600F08EFD806AC0034CBFDFF8E9
:103EC0002415DFF824152046BDE8104008472DE9E9
:103ED000FC411F4D804600F03DF80190404600F047
:103EE00081FD009001460198083001F026F828B3C2
:103EF0002868C66C076D01980099DFF8DC4400F172
:103F0000080201F1080000F0E8FF00F074F80099E1
:103F1000C4F85C802868B1F90010C1640099B1F957
:103F200002100165FFF7AEFD4046FFF7C1FF00201C
:103F3000E0652868C6640765012004E000F05BF8CE
:103F4000FFF7A0FD0020BDE8F6810000107C0020F6
:103F5000740000202868806C00F044BD30B585B046
:103F600000F04CF8FFF78FFB3DD50098C56938E0AD
:103F7000FFF7EFFA019090F8280000F00300032803
:103F80002BD1009800F10801019800F0D6FF20B372
:103F9000009902A8083100F08DF8FFF773FD00F0DA
:103FA0002AF82846FFF793FF58B100F020F8019057
:103FB0002846FFF7D3FF00F01AF80190FFF701FE43
:103FC0000090204600F00EFD0090FFF7C2FA01902D
:103FD00002A90098083000F06DF80198056A00F019
:103FE0000AF8002DC4D1FFF74DFD05B030BD2846BD
:103FF00000F0F0BCC46101A800F0FFBC044600F072
:10400000F1BC38B5FFF7FAFF009040F60101806A75
:104010000840012804D0FFF735FD2046FFF748FF90
:10402000DFF8B403806D00B32046FFF797FFFFF77A
:10403000C8FD8469056A16E0FFF7D9FF90F82800EB
:1040400000F00300032804BF2846FFF740FF28467E
:10405000FFF784FFFFF7CBFF056A002DECD1FFF7D8
:10406000B0FD056A8469002CF7D131BD3EB5DFF89B
:1040700070530446FFF76EFF009001A800990831C5
:1040800000F018F80098296808300831082201F07B
:1040900049FBFFF7F7FC2068FFF7B3FFFFF75AFF74
:1040A000009001A9083000F005F8FFF7EBFC37BDE0
:1040B000009901A8082201F035BBF1B584B000F0E9
:1040C00091FC019002A801990831FFF7F3FF0198D4
:1040D000856A86690769FFF78EFF002444F2200095
:1040E000054231D0EFB1049902A8FFF7A7F9C0B19A
:1040F0000498FFF74BFD68070FD5002E0EBF012077
:1041000005F0010080F001000090002304AADFF810
:10411000DC1202A801F069FB03E00498FFF771FFCD
:104120000124049800F05EFC0190B149806A0840C7
:10413000810448BF40F0040001998862FFF75BFFEB
:10414000A548818B491E8183204605B0F0BD2DE92D
:10415000F047A14C9EB0206E0025010002D08047A0
:1041600000E00125A06EB8B1E66B06E037460646D2
:10417000FFF788FC3846FFF788FC5EB1FFF78BFB42
:1041800000900099896A40690904EFD40646FFF758
:1041900079FCF2E70020A066206D010018BF80477F
:1041A00094480068010002D080470028D9D18C4E85
:1041B000306890F8540000284DD001F0CFFB002863
:1041C000CFD1306890F8540000281CBFA08B002885
:1041D00041D0606D10B10068804704E0012001F01B
:1041E00033FC00E00125306890F8540060B3A08BE8
:1041F00050B3676E4FF0010807B9E76B01A801F0F3
:104200002DFC3068D0F83090D0F834A057B90EE0CB
:104210003846FFF752FF08B1A8F10108384600F010
:10422000D9FB4769002F18BFB8F1000FF0D16766BE
:10423000484601F025FC504601F020FC01A801F0A1
:1042400013FCA08B0028CDD1606D10B14068804771
:1042500001E001F0F9FB28461EB0BDE8F08710B57B
:10426000044620680E2802D00F2809D017E0E06825
:104270004168012917D1BDE81040006801F068BB12
:104280006068FFF755F8544901EB80006FF070410A
:10429000406C884203D001F0F1FB01F035FC204670
:1042A000BDE8104010E010BD4D490968012081F8BB
:1042B000540070474A490968002081F8540001F011
:1042C000ACB90000787F002010B504462168606812
:1042D0000E290ED0142906D0172908D022290DD076
:1042E00028290ED002E0E16801F0ACFC0020E0607B
:1042F00010BD2146BDE8104001F0C4BC6FF0704015
:10430000F5E7BDE81040FFF71BBB334800214176BD
:1043100081660164016381624163C1628165C16537
:10432000C164416570472DE9F0432B4C85B0607E38
:1043300000284DD12A4DE0636066002629682E4F83
:104340004864A083608343F6FF78304601F0A8FC00
:10435000A8B10020039002970220019043464FF03D
:10436000FF300090424600210020FFF7EBFA04EBFB
:1043700086016FF0704208624A64FFF7E1FA761C2A
:10438000022EE2DB0026DFF874801D4FDFF8749008
:1043900009EBC60001F01EFD07EBC60001F01AFD97
:1043A00008EBC60001F016FD761C022EF0DB206A39
:1043B000FFF7ECFB2968012081F854006076124871
:1043C000E06605B004F16C00BDE8F04301F01DBCEF
:1043D00005B0BDE8F0830000107C00209F3F3F0047
:1043E00074000020A71A0108313E00086D40000843
:1043F000DFBFFFFF607F00205F420008E87D0020F4
:10440000D87D0020E80200200B43000830B5094D9C
:1044100083B02968497C0446074850F82100C268E7
:10442000126B6946904728686A462146083000F0BA
:1044300054FD37BD74000020780000200F21DFF804
:10444000BC2602EBC1031B6C984201D2491EF8D571
:10445000084670470160006142608360101840F8B0
:10446000042C704710B504466068FFF7E7FF10287A
:1044700012D2DFF8881663680A68D21A0A6001EB64
:10448000C00004F1080144300A68496802B1516073
:1044900009B10A6010BD026010BDF8B5DFF85C46D6
:1044A0000546A06B0E46E1680818AF19401EB842D9
:1044B00003D3386808B900F032F8A06BB04207D2D5
:1044C00056F8040C371A386810B900F028F83E4640
:1044D0002846FFF7B3FF10281FD204EBC0072A4677
:1044E0007B6C00213046FFF7B5FF07F1440006F171
:1044F0000801026802B151600A6000224A6001604E
:10450000206894F829102818206031B9E168081A49
:10451000A168814238BF0146A1602846F2BD786893
:10452000451938469EE72DE9F143DFF8D04582B0C2
:10453000A56BE0684019401E019028464768016855
:1045400099BB019A791991422FD289460091D9F8E5
:104550000480D9F8001041B3626B12F83120012AAF
:1045600023D1E26A91420CBF01260026FFF77AFFB1
:10457000606BD9F8001000EBC10042464560494627
:10458000284601F03FFC26B1606B0099401A2818BC
:10459000606308EB05013846FFF77FFF029919B108
:1045A000884201D3002005E0474601987D198542E5
:1045B000C3D30120BDE8FE83F8B5002304460025DF
:1045C00004E000F06FF844F8046B6D1CB5EB910F3C
:1045D000F7D30546002400E0641CB4EB910F0BD226
:1045E00000F05AF855F8046BCCEB0C2CA7EB0C0739
:1045F000BE42F1D00320F2BD5B1C022BDED30023B0
:104600000446002504E000F04DF824F8026B6D1C10
:10461000B5EB510FF7D30546002400E0641CB4EB62
:10462000510F0CD200F038F8CCEB0C2C35F8026BA3
:10463000A7EB0C07BFB2BE42F0D00220F2BD5B1C5C
:10464000022BDDD300230246002409E01D19FF26BA
:10465000B5FBF6F6C6EB0626AD1B02F8015B641C43
:104660008C42F3D30246002400E0641C8C420BD23F
:104670001E19FF27B6FBF7F712F8015BBE19F6B259
:10468000B542F2D00120F2BD5B1C022BDBD309B195
:1046900001F0F4FB0020F2BD1F194FF0FF0CB7FB37
:1046A000FCFC70475E19FF27B6FBF7F7C7EB07273F
:1046B000F61B704710B5DFF84444002084F828004A
:1046C0008022002104F1400001F0DBFBC022002128
:1046D000204601F0D6FBBDE810400C220021DFF897
:1046E000200401F0CEBB2DE9F041DFF81044E06A70
:1046F00040B9DFF80C04416880680830B1FBF0F085
:10470000851C03E0206900EBD000051DE80000F0E7
:104710008CF85FEA000827D0616BE76A01EBC800FC
:10472000406800F108062069C200304601F00AF82E
:1047300020696663C4F82C806A1E01E0401C486052
:10474000904206EBC001F9D300204860206921693E
:104750006062256160682818401A606017B13846A9
:1047600000F09DF9002000E00120BDE8F08170B567
:10477000DFF8885305F128042078002844D101206F
:10478000DFF87C6320707168B1F5205F88BF4FF45B
:1047900020513068FFF710FFB06810B970688008CA
:1047A000B060DFF86003F06006F10C0001F02DFA54
:1047B000281D5A21C1610021102205EBC1038A4046
:1047C000491C10291A64F7D30221C160326871684C
:1047D00081608B18143BE3602261002105E0E368EF
:1047E0004A1C03EBC1014A601146C268521E914245
:1047F000F5D301210162026021698068FFF74DFE57
:10480000FFF771FF0120A06070BD10B5DFF8EC125A
:104810004A684B6A521C4A604A6B02EBC0046360F0
:10482000002302F83030486210BD2DE9F041054602
:10483000FFF79DFFDFF8C442206C854202D3E81CDD
:104840008008800000F10C052068A8421BD3206B73
:104850006168884207D3401E2063FFF744FF216B45
:10486000491C216378B96068D4F82480401E6060D8
:10487000606B00EBC80149686162012100F83810E3
:10488000B8F1000F01D1002037E02846FFF7D6FD30
:10489000002601E00026401C102830D204EBC001A5
:1048A000496C0029F6D08E68002EF4D07168A942B8
:1048B00008D2B1680029EDD08E68002EEBD0716867
:1048C000A942F6D37768216C781B0C31884238BF37
:1048D0003D463046FFF7C6FD606B00EBC800002385
:1048E00046602A4641463046FFF7B4FDBD4203DA32
:1048F000A919781BFFF7D1FD4046BDE8F081002ED5
:10490000E0D12846FFF70FFE0028BED04046FFF753
:104910007CFFB8E728B17949CA6B026002B15060E8
:10492000C86370472DE9F8430446FFF720FFE01CF9
:1049300080088000714C051D206C854238BF0546FB
:10494000E66B00E006468EB156F8041C3068A942BA
:10495000F8D108B171684160706808B131680160D0
:10496000E06BB0422ED13068E0632BE0A06BE168D1
:1049700001EB0008A8F10409D9F80000A8EB000732
:10498000386830B10020FFF7CEFDD9F80000A8EB61
:1049900000073868B0B97868A84213DBC019401B1B
:1049A000061D3846FFF75EFDE068401BE060606969
:1049B000281860617868401B1CBF3946FFF76DFD01
:1049C00046F8045C3046BDE8F283002818BFFFF7C4
:1049D0002CBF704728B14949496B01EBC0004068C2
:1049E000083070474549CA69521CCA61496B01EBDE
:1049F000C0010A78521C0A70ECE703683F4953F87B
:104A0000083C4A6B02EBC3021378022B03DBCB6931
:104A10000BB15B1ECB611178491E11700021016042
:104A20000020704710B5FFF7A2FE00240F21334885
:104A300000EBC100406C10B9491EF8D508E0806851
:104A400030B141688C4238BF0C4680680028F6D1EE
:104A5000A4F10C0010BD80B5FFF7E4FF2749096AF7
:104A6000B0F5800F04D9642290FBF2F0484302BDF8
:104A700048436421B0FBF1F002BD214A1060880870
:104A8000800050607047002138B11C49496B01EB30
:104A9000C00040684068A0F10C010846704710B59E
:104AA00004001FBF1548406B10F8341000290BD0CC
:104AB000022909DA00EBC40041684868FFF7EDFC01
:104AC0002046BDE81040A0E610BD10B504462068A1
:104AD000FFF7E5FF0020206010BDF8B504460D4645
:104AE000002607E004EB8607761C3868FFF7D7FF3F
:104AF00000203860AE42F5DBF1BD0000507B0020A5
:104B0000C47E0020B5460008B1F90020B0F900309D
:104B10009342B8BF0280B0F90220B1F902309A4244
:104B2000B8BF1A464280B0F90430B1F904209A4265
:104B3000C8BF1A468280B0F90630B1F906209A4201
:104B4000C8BF1A46C280704700B9704710B509B394
:104B50000AB3B2F90030B1F900409C42B8BF234615
:104B60000380B2F90240B1F90230A342C8BF234624
:104B70004380B1F90440B2F90430A342B8BF2346E0
:104B80008380B1F90640B2F90630A342B8BF23468C
:104B9000C38010BD1146BDE81040082200F0C2BD20
:104BA00002480068010018BF00477047847F00205A
:104BB00058B10388CB1803808388C9188180418845
:104BC00051184180C1885118C1807047F8B504461A
:104BD0000D461646FFF706FF00901621009A126850
:104BE000D268526A00209047074600F0B7F83800B4
:104BF00003D0324629462046B847F1BD2DE9F14F92
:104C0000AE4884B00068DDF840801E46437C0F98B3
:104C1000894693460022414601F054F800270400DB
:104C200046D020698068804701F005FA82460AFB79
:104C30000BF0C01DC0080290FFF70DFF0E9DE907A5
:104C400005D4411000EB9170801000EB4000012E64
:104C50000BDA029900291ABF1838B0FBF1F00020D6
:104C600071420E468642C8BF0646E80707D404983C
:104C7000009733465A46494601F094FA0746012EFA
:104C800003DA204601F01CF812E002987043183055
:104C9000E90702D5FFF799FE01E000F08BF9050066
:104CA00008D1204601F00CF817B13846FFF7F7FE9F
:104CB000002021E0FFF796FE01900460019904981E
:104CC00088800198A0F806900198A0F808B0019893
:104CD000468101990298C8600198C0F810A0019817
:104CE000476101A8FFF789FEC4F81080A5607348EA
:104CF0000068407CA061284605B0BDE8F08F10B583
:104D000082B0002458B1FFF76DFE00900068006982
:104D10008068804701F08FF9044600F01FF82046B4
:104D200016BD10B5040082B017D064480068006E4C
:104D3000A04208BF01F06EFA2046FFF753FE009034
:104D4000406908B101F070FA0098006800F0B8FFFF
:104D500000F004F82046FFF7A2FE13BD6846FFF7F7
:104D60004CBE2DE9F0470446544884B00068407CAE
:104D70008846534951F8207091469A460026F968B2
:104D80000968042903D03F68002FF8D100E01FB95B
:104D900000F086FF07001BD0FA68D26A012138466E
:104DA0009047050013D03F690C9EB868804710F10A
:104DB000010F04BF434F46F001060297019500968C
:104DC00053464A4641462046FFF718FF06463046FE
:104DD00004B0BDE8F08770B5384D82B00400286893
:104DE000066E02D101F016FA14E00EB101F012FACB
:104DF000FFF760FA2046FFF7F5FD0090286804668B
:104E00000098006800F096FFFFF7A8FF01F034FA61
:104E100000F003FC304676BD2DE9FE4304008846D1
:104E2000914645D0002001F039FA05462348006834
:104E3000066E2046FFF7D6FD00900068806900F0FE
:104E400063F907462048804504D10098B0F90480F2
:104E5000B0F906900099ADF80480BDF80400098906
:104E6000ADF806900818401E0099ADF80800498971
:104E7000BDF806000818401EADF80A00FFF714FA46
:104E8000FFF76CFF01A8FEF75EFF40B14A464146BE
:104E9000204601F0E2FCFEF73BFF0028F6D1384641
:104EA00000F032F93046FFF796FF284601F0F6F998
:104EB000BDE8F783044A1146AEE700007400002005
:104EC00078000020042F010801F0FFFF00B97047AF
:104ED00080B5FFF77FFDC06902BD10B5B1F90030A4
:104EE000B2F900409C42A8BF23460380B1F90240BA
:104EF000B2F90230A342B8BF23464380B2F904405E
:104F0000B1F90430A342C8BF23468380B2F90640FA
:104F1000B1F90630A342C8BF2346C380B0F90410DC
:104F2000B0F900209142A2BFB0F90610B0F902001A
:104F30008142B4BF0020012010BDB1F90620B0F9B4
:104F400002309A42A2BFB0F90620B1F902309A426B
:104F50000DDBB1F90420B0F900309A42A2BFB0F9DC
:104F60000400B1F90010884201DB012070470020E5
:104F70007047704770B50E4C0546206814280E46E1
:104F800014DA2846FFF726FD01697560080008D08D
:104F90002068401C2060304688472068401E206002
:104FA00070BD3046BDE87040FFF78EB970BD00BFE0
:104FB000807F002038B50446FFF707FD050009D0C3
:104FC000FFF710FD00902246002100F05AFF6846CE
:104FD000FFF713FD284632BD2DE9F041040086B0ED
:104FE00039D0FFF7FFFC009003A80099082200F0D9
:104FF00099FB0098056A866A6846FFF7FEFC204622
:1050000001F04EFC070026D0204601F05AFC8046F5
:10501000B00704D52A46414603A8FEF772FB204696
:10502000FFF7E0FC00904046FFF7DCFC01903846BB
:10503000FFF7D8FC0290056201980099C0690862E8
:105040000198C4616846FFF7D8FC01A8FFF7D5FCBA
:1050500002A8FFF7D2FC06B0BDE8F08170B582B0BF
:105060000446684601F058FC054608E0009E694683
:10507000284601F061FC0546304600F015F895B170
:105080000121284601F0A6FC009959B150B108460B
:10509000FFF7A0FC4068A042E8D06946284601F02E
:1050A0004BFCE1E7F9E773BD10B5040082B00AD00C
:1050B000FFF798FC0090006801F05DFC00F004F838
:1050C0002046FFF7ECFC13BD6846FFF796BC00B521
:1050D00085B0262203910092694600F0D3FD05B009
:1050E00000BD7047002102283CBF114951F8201033
:1050F0000846704738B50C46154601F0D9FC10B18A
:1051000000202060286031BD70B50A4D0446286833
:10511000467C022C09D2204600F0C2FD28B1286846
:10512000447401F077F804480460304670BD000014
:10513000387F002074000020487C002001F084BCEF
:1051400080B500F055F94A6B824205D0486300F003
:10515000B4FABDE80240CBE201BD80B500F048F9E9
:105160000A6B824205D0086300F0A7FABDE802404E
:10517000B5E201BD70B5DFF89C150A68117C80EAC4
:1051800001035B0705D5936BD56B1C682E681E6009
:105190002C601074084670BDDFF87C1509688968BA
:1051A000084738B5DFF86C251268B2F90A30994221
:1051B000A4BFB2F90E308B421FDBB2F9083098421F
:1051C000A4BFB2F90C30834217DBDFF85035547CB2
:1051D00053F82440137CE568DB0707D50A46EB69E2
:1051E0000146204601B0BDE830401847D26B136835
:1051F0000A4601462046AC69A04731BD10B5DFF82C
:1052000014351B68B3F90A40A142A4BFB3F90E409C
:105210008C420FDBB3F90840A042B8BF2046B3F977
:105220000C409442B8BF2246824203DB00F020F8D3
:10523000A468A04710BD10B5DFF8D8341B68B3F9D7
:105240000840A042A4BFB3F90C4084420FDBB3F97D
:105250000A40A142B8BF2146B3F90E409442B8BFFC
:1052600022468A4203DB00F003F8E468A04710BD41
:10527000DFF8A8445B7C54F8234013460A460146F5
:105280002046E468704738B5DFF888442468B4F9EC
:105290000850A842B8BF2846B4F90C509542B8BF90
:1052A0002A46824218DBB4F90A50A942B8BF2946FF
:1052B000B4F90E509D42B8BF2B468B420CDBDFF891
:1052C0005C54647C55F82440009313460A4601461A
:1052D0002046E4682469A04731BD2DE9F84F044613
:1052E000DFF83C0486B000F04EF902D000F072F90D
:1052F00049E05818421E2819431E1098DDF844C092
:105300004CEA000001283FD1DFF808040068B0F93A
:105310000AE0AEEB0107012F09DB0699C91B012941
:10532000069130DBDDF84CC071460CFB0766B0F926
:105330000E70D71B012F04DB069AD21B012A06929E
:1053400021DBB0F90C209A1A012AA8BFAD1A169ACF
:10535000B0F90830A41A9C4217460BDADF193F1B3C
:10536000EB1ABA1AE51806EBE70622F00702141941
:1053700007F00707012D06DBDFF8A023407C52F879
:10538000200000F037F945E100F0F6F801E000F008
:10539000E9F8019806998842F5DA00F00FF9A2BF02
:1053A000B0F90E0000998842F1DB00F0CFF807E079
:1053B00000F0FCF800F0D0F80AF1010A10988144DE
:1053C000AA45E4DA00F0E7F800F00AF810B90A7C20
:1053D0009207F1D400F0B4F8EAD052F82000E7E7E1
:1053E0000499FFB227FA01F012998F40A8EB010847
:1053F000C849096870472DE9F84F0446C84886B087
:1054000000F0C1F802D000F0E5F86CE0DDF844C02F
:105410005818109B2A19401E521E4CEA0303012BF8
:1054200062D1BC4B1B68B3F90AE0AEEB0107012F58
:1054300009DB0699C91B0129069154DBDDF84CC034
:1054400071460CFB0766B3F90E70C71B012F04DB16
:105450000698C01B0128069045DBB3F90C00101A12
:105460000128A8BF2D1AB3F908000027844232DAB8
:10547000071B129AED1B012A0CD0022A12D0042A13
:1054800018D0082A1ED0102A1ED0182A18BF202A89
:105490001DD020E006EBE70627F00700041907F00F
:1054A000070718E006EBA70627F00300041907F02A
:1054B000030710E006EB670627F00100041907F068
:1054C000010708E0BE1904E006EB470601E006EB21
:1054D000870604460027012D05DB90485A7C50F8CA
:1054E000220000F087F895E000F046F801E000F0B7
:1054F00039F8019806998842F5DA00F05FF8A2BF02
:10550000B0F90E0000998842F1DB00F01FF807E0C7
:1055100000F04CF800F020F80AF1010A10988144DC
:10552000AA45E4DA00F037F8FFF75AFF10B90A7C11
:105530009207F1D400F004F8EAD052F82000E7E72F
:10554000C96B159AD1F800B0002A70474FF00008D7
:105550000396A146C24670476E480068C06BC0F80B
:1055600000B0704701981199401C019000980818EC
:10557000009013988619704712980091C0F10800A6
:10558000049001977047D0F800C0149E0027BCF12A
:10559000000F15467047B8F1000F06D10398401C64
:1055A00003904FF0080810F8017D704708601098CC
:1055B000029B00994844421E484664E611980099AF
:1055C0000818401E0290534800680299B0F90A205A
:1055D000914270471598069B059004961398039086
:1055E0001298029011980190109800902046DCF8D3
:1055F00000402047159A0592049703962B46139A6C
:105600000292129A0192069A00920A462146C468B2
:105610006468204707B0BDE8F08F3E4801683F4806
:105620004A7C50F82200C268126B0831104770B5EE
:1056300082B0FFF7F2FF01F057FA040013D1002502
:10564000284600F02DFB009050B1009AD268526AB3
:105650000C216846904701002DD0009888470443EC
:105660006D1C022DECDB24BB01F052FA012543F640
:10567000FF76284600F014FB0090C0B12846FFF7E3
:1056800043FD0420FFF788FD334632460021002009
:10569000FFF7F9FD0020FFF77FFD009AD268526AFC
:1056A0000E216846904701001CBF009888476D1E78
:1056B000DFD5204676BD012076BD164A174912680F
:1056C000527C51F82210096909680847114A1349A8
:1056D0001268527C51F822100969496808470D493F
:1056E00009680A7C52074CBF896BC96B0860704718
:1056F000084909680A7C52074CBFC96B896B08606E
:1057000070470549096849680847034909680968F5
:1057100008470000740000203C03002078000020AF
:10572000707F002062B38B0708D0521E11F8013B36
:1057300000F8013B00F024808B07F6D1830740F08E
:10574000208000BF103A07D330B4B1E83810103AC7
:10575000A0E83810F9D230BC530724BFB1E80810D4
:10576000A0E8081044BF51F8043B40F8043BD207BE
:1057700024BF31F8022B20F8022B44BF0B780370B2
:105780007047083A07D3B1E80810083A40F8043BDC
:1057900040F804CBF7D25307E4E7000080B50020BF
:1057A00000F06CF96FF07F4000F06AF9012001F021
:1057B000EFF9002001F0F4F9002001F0FBF90020DE
:1057C00000F06CFD0448006801F0FEF9BDE80240FD
:1057D000002001F003BA00007000002001F006BABA
:1057E0008142C8BF0146084670472DE9F44F4F4F2C
:1057F00084B006463868457C4D48285602288B46BA
:105800009A46284606DB00F085FB8146284600F0D4
:1058100083FB05E000F082FB8146284600F080FB18
:10582000054626B301A902A801F00AFAB6F90080DC
:10583000B8F1000FB8BF4FF00008B6F90240002CD5
:10584000B8BF002402984844411EB6F90400FFF78F
:10585000C7FF814601982818411EB6F90600FFF7D8
:10586000BFFFA9EB0801001B4A1C451C03E04FF0D9
:10587000000800244A46BAF1000F08BFC5F1000A2B
:10588000012AA8BF012D4ADB0E98009053462146FD
:105890004046FFF766FA5FEA000903D10498D8474B
:1058A00001203DE001F0CEF98246AA451EBF3868CE
:1058B000806C00281CBF322101F098F94846FFF7A0
:1058C0008AFA00261AE0A91B5145BCBF484601F0E0
:1058D000CDF93EB132194146484601F0DFF948465C
:1058E00001F010FA0498D8470F48016808001CBF5F
:1058F000002088474846FFF7DDFA5644AE42E2DB17
:105900004846FFF70EFA0020FFF765FAAA451EBFCA
:105910003868806C00281CBF332101F067F9002033
:1059200005B0BDE8F08F0000887F002074000020E3
:105930009C7F0020134A02F15003984218BF00F1E7
:10594000080209B18A4200D0104670470021F1E7F1
:105950000D498A6802B98860FFF722B970B50A4C10
:1059600021686268002091420AD00D684E6808469E
:10597000FFF7ECFF20603146284601F0E1F90120F5
:1059800070BD0000887C00200C0300202DE9F04150
:1059900080460124B8F1020F82B00F464BDA2D4E3B
:1059A000726810001CBF4046904706EB88053FB365
:1059B000022F13D03FD2A86870B9404600F070F9AA
:1059C0000028009037D000F039F8020033D000985A
:1059D00001219047A8680024401C2BE0404600F0BD
:1059E0005FF9009038B300F029F8050023D0306843
:1059F000010018BF804700980221A84700241AE040
:105A0000A868012811D1404600F04AF9009060B121
:105A100000F014F85FEA000807D03068010018BFF2
:105A2000804700980021C0470024A868010018BFE3
:105A30000121401AA8602046BDE8F681009AD2688C
:105A4000526A0D2168461047014603480068407CB1
:105A50009CE70000FC7E00207400002001490968DA
:105A600009E00000740000200146014802E000BF88
:105A70007400002000687022FFF764BEFFF741BE8B
:105A8000FFF743BE10B56349634C002008607022E5
:105A90000021204600F0F5F904F17800BDE810403F
:105AA0000822002100F0EDB95B49086770472DE935
:105AB000FC4105460E46174698460420FFF76CFB4E
:105AC00004465548406FC16C006D4D198619CF19B9
:105AD0008044ADF80050ADF80470ADF80260ADF848
