:020000040801F1
:1000000070FF0120550201086FD9010875BA010877
:100010006DD90108C30A0108B50C020800000000F0
:100020000000000000000000000000009D01010829
:10003000F51D010800000000F10101087904020823
:100040006F0201086F0201086F0201086F020108C8
:100050006F0201080BE501086F0201086F02010839
:100060006F0201086F0201086F0201086F020108A8
:100070006F0201086F0201086F0201086F02010898
:100080006F0201086F0201086F0201086F02010888
:100090006F0201086F0201086F0201086F02010878
:1000A0006F0201086F0201086F0201086F02010868
:1000B0006F0201086F0201086F0201086F02010858
:1000C0006F0201086F0201086F0201086F02010848
:1000D0006F0201086F0201086F0201086F02010838
:1000E0006F0201086F0201086F0201086F02010828
:1000F0006F0201086F0201086F0201086F02010818
:100100006F0201086F0201086F0201086F02010807
:100110006F0201086F0201086F0201086F020108F7
:100120006F0201086F0201086F0201086F020108E7
:100130006F0201086F0201086F0201086F020108D7
:100140006F0201086F0201086F0201086F020108C7
:100150006F0201086F0201086F0201086F020108B7
:100160006F0201086F0201086F0201086F020108A7
:100170006F0201086F0201086F0201080000000011
:100180006F0201086F020108DFF80CD000F014F9CB
:100190000048004789CE020870FF01202A4B1968E9
:1001A0000868B0E8F04F80F30988BFF36F8F4FF015
:1001B000000080F3118870470000000006480068C6
:1001C000006880F3088862B661B6BFF34F8FBFF353
:1001D0006F8F00DF00BF00BF08ED00E0DFF80C000C
:1001E000016841F470010160704700BF88ED00E0D4
:1001F000EFF30980BFF36F8F134B1A681EF0100FD7
:1002000008BF20ED108A20E9F04F106008B44FF0CD
:10021000500080F31188BFF34F8FBFF36F8F1DF035
:10022000B5FD4FF0000080F3118808BC196808681C
:10023000B0E8F04F1EF0100F08BFB0EC108A80F34A
:100240000988BFF36F8F704768010020EFF30580C6
:10025000704700000648804706480047FEE7FEE773
:10026000FEE7FEE7FEE7FEE7FEE7FEE7FEE7FEE766
:10027000310502088901010810B5441A0346944269
:1002800009D28418114403E011F8013D04F8013D3E
:10029000521EF9D210BD40EA0104A40703D009E0C0
:1002A00010C9121F10C3042AFAD203E011F8014B3F
:1002B00003F8014B521EF9D210BDD2B201E000F892
:1002C000012B491EFBD270470022F6E710B51346FA
:1002D0000A4604461946FFF7F0FF204610BD421CAF
:1002E00010F8011B0029FBD1801A704710B50022BD
:1002F00000E0521C835C8C5CA34201D1002BF8D13E
:10030000D8B2E1B2401A10BD30B504460020034611
:1003100000E05B1C934203D2E05CCD5C401BF8D054
:1003200030BD034611F8012B00F8012B002AF9D14A
:10033000184670472DE9F05F0546002092469B461F
:1003400088460646814640241BE0284641464746EB
:10035000224600F020F853465A46C01A914110D365
:1003600011461846224600F039F82D1A67EB0108AD
:100370004F4622460120002100F030F817EB00091B
:100380004E41201EA4F10104DFDC484631462A46D6
:100390004346BDE8F09F202A04DB203A21FA02F010
:1003A0000021704721FA02F3D040C2F120029140AF
:1003B0000843194670470000064C074D06E0E06808
:1003C00040F0010394E8070098471034AC42F6D39C
:1003D000FFF7DEFEACF70508CCF70508202A04DBA2
:1003E000203A00FA02F1002070479140C2F1200348
:1003F00020FA03F319439040704770B58D1810F838
:10040000014B14F0030201D110F8012B231106D186
:1004100010F8013B03E010F8016B01F8016B521E6C
:10042000F9D1ABB110F8012B04F00C048A1A0C2C92
:1004300003D0A2EB84129B1C08E010F8014BA2EB46
:100440000422F8E712F8014B01F8014B5B1EF9D5C5
:10045000A942D4D3002070BD10B50DF033FA0CF0D2
:10046000B7FD054C20602068A0F5A901663901D1CF
:100470000CF060F8206810BD0800002038B5446812
:1004800005460146204610F06BFC002808BF38BD29
:10049000464A286811280DD006DC0B282AD00E28E1
:1004A00038D00F2817D07CE0282873D0B0F5107F03
:1004B0000AD076E09268002A08BF38BD294601B00C
:1004C0002046BDE830401047526801B0294620461A
:1004D000BDE8304010472546204603F00DFF009050
:1004E000406E0468684603F0DFFF002C1CBF2846FE
:1004F000A04738BD204603F0FFFE0090683003F0AF
:100500000BFE009803216C3003F02EFE684603F0CA
:10051000CBFF46E0E968486809680D2902D0202928
:1005200018D037E0002835DD4FF48071204610F0F8
:10053000E2FC204603F0E0FE009090F82850684668
:1005400003F0B2FF15F0020F1ED00121204612F079
:10055000B9FA19E0002817DD25464FF480712046CE
:1005600010F0C9FC284603F0C7FE009090F8284020
:10057000684603F099FF14F0020F08BF38BD01214F
:10058000284612F09FFA38BD2046BDE838400221C7
:1005900019F025B8E86820B920464FF4807110F0B2
:1005A0008AFB2846BDE8384011F0F6B8DC0200208E
:1005B00070B5044688B08069B4F908C0658A002621
:1005C0000091CDE90165CDE903C0B4F90C00B4F99F
:1005D0001050C118B4F90A00B4F90EC010442B46EB
:1005E000624600F027F86468050020D005F0FCFBA7
:1005F000284603F081FE0190866E01A8009603F064
:1006000053FF2146684609F0CDFE70B10098B04214
:1006100008D0284603F070FE01900099816601A879
:1006200003F042FF284612F09DF908F097FA08B04F
:10063000284670BD2DE9F04F85B09846DDE911647C
:10064000DDE90E5791468A46834605F0CDFB04F15D
:100650004C001749CDE90210CDE9005743464A4600
:100660005146584610F0DCFF05001BD003F044FE55
:1006700010223146049010F0D5FD0E4C0499B4E8D8
:10068000CD133431A1E8CD1394E80D10A1E80D107D
:1006900054F82C0D086004A803F006FF2068416898
:1006A0002846884708F05AFA05B02846BDE8F08F7A
:1006B0007D040108E8020020F0B5044680688C49FA
:1006C00089B051F820506068002800F00A810528A0
:1006D00006D006287DD0122800F0B48000F004B9BE
:1006E000E869002808BF002651D0D5E90012AB68A0
:1006F0008DE80F0004F110010FC908F037FF002644
:1007000055F8260007F015FAA169E8690A1A216967
:1007100001446069304404F0A1FFA169E8690A1A44
:1007200021690144E069801B04F098FFE169E869F0
:100730000A1A616901442069304405F0A1F8E169B1
:10074000E8690A1A61690144A069801B05F098F8FC
:10075000761C022ED4DBA86807F0EBF9E069E969A2
:10076000D4F814C0431A206942186144801C521EF8
:1007700005F0F2F8E169E869A2690B1A61690144C0
:10078000101A401C921E05F0E7F8EE6911E055F8CA
:10079000260007F0CEF9E069831BA069821B60691F
:1007A00081192069304404F0DBFF761C022EEEDB59
:1007B0000226D5E90301CDE90001E1696069014440
:1007C0004B10A1698A1B811C2069304404F038FE5B
:1007D00000E011E0D5E90501CDE90001E0696169BA
:1007E000831E01440122A06902EB6101821B206982
:1007F000304404F025FE77E0206803F07DFD04908E
:10080000206813F092FA50B1A068002818BF0020A9
:100810000AD10498006F002818BF012004E0049852
:10082000406F002818BF0220049901EB8000C56EBC
:1008300004A803F039FE00231A462846216804F074
:1008400097FA51E0206803F057FD0490866E002E61
:1008500008BF04A842D0A168B0F95C70002908BFA5
:10086000012103D003290CBF0221002100EB8101EB
:10087000406D0C6C07F08CF9204607F05AF906A879
:1008800005F054F9BDF81810A88B0144ADF8181004
:10089000BDF81C10081AADF81C00BDF81A00801C29
:1008A000ADF81A00BDF81E00801EADF81E000498B9
:1008B000B0F96020B0F95E1006A806F077FC04A835
:1008C00003F0F2FD022007F0B3F9304603F014FD07
:1008D0003A4606A9059004F01DFB05A803F0E4FDC7
:1008E00002E0206812F020FC09B00020F0BD0000FA
:1008F00038730508042928BF7047F0B4044A52F839
:10090000211091E8FE1080E8FE10F0BC7047000056
:100910003873050838B503F0EFFC044600906846CC
:1009200003F0C2FD204638BD70B505460C461046A2
:1009300000210A4604F0FCF9024621462846BDE89B
:10094000704000F09DB8002808BF704738B50C46CD
:10095000054605F049FA284603F0CEFC00904465B0
:10096000684603F0A1FD284611F0FCFF08F0F6F8F8
:1009700038BD000038B50C46054605F035FA284666
:1009800003F0BAFC0090064984654166684603F0AE
:100990008BFD284611F0E6FF08F0E0F838BD0000B6
:1009A00044070020042928BF7047F0B4044A52F8D5
:1009B000211090E8FD1081E8FD10F0BC70470000A8
:1009C00038730508F0B583B00F4605004FF00104F9
:1009D00021D005F009FA284603F08EFC0190866EBE
:1009E00001A8009603F060FD3946684609F0DAFC7C
:1009F00078B100980024B04208D0284603F07CFC6F
:100A000001900099816601A803F04EFD284611F07F
:100A1000A9FF08F0A3F803B02046F0BD002808BFE6
:100A2000704738B50C46054605F0DEF9284603F058
:100A300063FC0090A0F85C40684603F035FD284652
:100A400011F090FF08F08AF838BD002808BF704701
:100A5000F8B515460C46064605F0C6F9304603F0D3
:100A60004BFC0090032C3CBF00EB840005646846FF
:100A700003F01AFD304611F075FF08F06FF8F8BD6D
:100A8000002808BF7047F8B515460C46064605F025
:100A9000ABF9304603F030FC0090032C0BD200EB96
:100AA00084006C3003F038FB009800EB8400C566CE
:100AB000304611F057FF684603F0F6FC08F04EF898
:100AC000F8BDFEE72DE9F04F466804460146CDB07B
:100AD000304610F045F9002804BF4DB0BDE8F08F56
:100AE000FC4F2068DFF8F0B30E280FD00F2800F07D
:100AF0002D82262800F07A83B0F5107F00F0618106
:100B0000204610F049FE4DB0BDE8F08F304613F09E
:100B10000CF9002804BF4DB0BDE8F08F6C2225A968
:100B2000304610F07BFC2B9828B9DDE92501279A87
:100B30002D92CDE92B0128992B9888421CBF4DB0EE
:100B4000BDE8F08F2C99299881421CBF4DB0BDE8BB
:100B5000F08FE06841680029DCBF4DB0BDE8F08F40
:100B6000DDE92C450068DDF8AC80132808BFE81DDE
:100B700017D00CDC102808BF681E12D0112808BF3F
:100B8000E81F0ED0122808BF681C0AD00AE02128EE
:100B900008BF601E03D0222808BF601C02D12C9021
:100BA00000E02D902C980C2804DD0C382C9008F1D6
:100BB000010005E0012804DA0C302C90A8F10100B6
:100BC0002B900837B7E80F56CDE9400142A880E8DE
:100BD0000C5697E80F000DF59079283F89E80F0033
:100BE0002C98401E8BFB00214A10A2EBE171A1EB77
:100BF000810100EB810040A951F820002C990229C5
:100C000005BF2B9911F0030F0021012108442D99F4
:100C100081420DDD081A2D902C98401C2C900C2838
:100C20003BDD2B98401C2B902C980C382C9034E0FA
:100C3000012932DA2C98401E2C90012805DA2B98D5
:100C4000401E2B902C980C302C900837B7E80F568C
:100C5000CDE9400142A880E80C5697E80F000DF559
:100C6000907989E80F002C98401E8BFB00214A10D8
:100C7000A2EBE171A1EB810100EB810140A850F8EA
:100C800021102C98022805BF2B9810F0030F00208C
:100C9000012008442D9908442D904FF4B07130463E
:100CA00011F0BCF807462C9A6FF003003D9900EB59
:100CB00082002B9B0A5840A8CDF80800029912F830
:100CC000010B01F8010B02910028F7D143B1481E36
:100CD000202100F8011B029002A9184603F0F0FC45
:100CE00040A938460FF065FD2C9829902B98289044
:100CF0006C2225A9304610F0A7FB2998844204BF36
:100D0000289880451CD04FF00000ADF80000DDE9C8
:100D10003B1001443A98ADF80210C0EBC000A0F1BE
:100D200001023B98ADF80420C0EBC000A0F1010027
:100D30000144ADF806106946304611F0A3FD30E0DD
:100D40002D9925A8CDE9085107AA40A918F07EF8E9
:100D5000002508AC54F8253003B3DDE94001CDE9A6
:100D60000401002107985B1E0A4644F8253018BF8D
:100D70003A9B0CD0401C072818BF194418D000BF5C
:100D800054F825C0BCF1010C44F825C0F2D104A8E8
:100D900006F00CFA04A9304611F074FD6D1C022D0A
:100DA000D8D30421304611F08DFE4DB0BDE8F08F50
:100DB000A3EB830C01EB4C01DDF8ECC00020624496
:100DC000DEE7E468002C04BF4DB0BDE8F08F207A68
:100DD00000287DD06C2225A9304610F01FFBDDE9EC
:100DE0002B012D9A0792CDE90501D4E9005425A8DD
:100DF00008AA694618F02AF83A983A9995FBF0F053
:100E000048433C993B9A611A891A91FBF2F13C9B49
:100E1000083701FB02311144BDF900200DF5807A3D
:100E2000801A3A9A90FBF2F2BDF90200081A3B9937
:100E300090FBF1F0C0EBC0001044B7E83E138AE825
:100E40003E1397E80E1048AD401C85E80E10299916
:100E5000491E8BFB01325310A3EBE272A2EB82021C
:100E600001EB820140AA52F82110299A022A03BFFD
:100E7000289A12F0030F0122002211440128A8BF72
:100E800081424CDBDDE92812CDE92C202B910C228C
:100E90002BA905A8FFF738FAD8B16C2225A930464E
:100EA00010F0D2FA2D990798CDE9400125AB44AA5C
:100EB00008A9184617F0CAFF002440AD55F82430A1
:100EC00033B3DDE90801CDE9420100210A4605E01E
:100ED00035E020E048730508ABAAAA2A44985B1EB7
:100EE00045F8243018BF3A9B0BD0401C072818BF88
:100EF00019441BD055F824C0BCF1010C45F824C09E
:100F0000F3D142A806F052F942A9304611F0BAFCDA
:100F1000641C022CD2D30421304611F0D3FD0121F0
:100F2000304611F0CFFD4DB0BDE8F08FA3EB830C40
:100F300001EB4C01DDF8ECC000206244DAE702214D
:100F4000304611F0BFFD4DB0BDE8F08F4FF0000905
:100F50006C2225A93046CDF8089010F05FFA304693
:100F600011F06AF98046304611F07EF90446349853
:100F70006FF0704A504509D006F0DBFD3C98002127
:100F8000431EA8F10102084604F0E6FCADF82090EB
:100F90003C98ADF822003A98CC4D401EADF82400A4
:100FA000601EADF82600002425AE3F984A46011980
:100FB0000846C5FB01208210A2EBE070A0EBC00048
:100FC000084403900228ACBF0120002006EB8000FB
:100FD000406A504504D006F0ACFD08A804F0E8FCD7
:100FE000002208A83A9906F0E1F8641C072CDCDB23
:100FF000ADF820903C98ADF822003A99491EADF822
:1010000024103B990844401EADF82600389806F09D
:10101000BFFD022006F00CFE369806F08AFD002483
:101020003F98494602191046C5FB02108110A1EBFA
:10103000E070A0EBC00010443E9903900E2251F8DE
:10104000200008A903F066FF002208A83A9906F0DC
:10105000ADF8641C072CE3DBBDF92600A8F1030200
:10106000022104F0FBFA03AA08A925A817F0EEFE56
:101070003F99002940F31E8111F0010F05D003981C
:101080000628B4BF401C0020039048100CD00399E0
:101090000629B4BF491C002103910629B4BF491C8D
:1010A00000210391401EF2D108370DF5807EB7E88C
:1010B0003F118EE83F1197E80F0048AC84E80F001D
:1010C0002998401E8BFB00214A10A2EBE171A1EB95
:1010D000810100EB810040A951F8200029990229E3
:1010E00005BF289911F0030F0021012100EB010534
:1010F0004FF00004002DCEBFDFF8D4814DB0BDE825
:10110000F08F00BF04F131008DF8080014E0092CC5
:10111000F8DB601C88FB00108110A1EBE07000F18F
:1011200030018DF808104042611C00EB800001EB9B
:10113000400030308DF809002B992898814241D128
:101140002C99299881423DD12D98611C884239D132
:101150003098504504D006F0ECFC08A804F028FCB8
:10116000339F2599289881420DD129992698884244
:1011700009D12799601C814205D1379806F0D9FC26
:1011800008A804F035FB384606F0D3FC0E2208A967
:1011900002A803F0BFFE0398401C0390072808BF75
:1011A000CDF80C903F990398814214D1002108A8F2
:1011B0003B9A05F0FBFFADF820903A98401EADF841
:1011C00024000DE003980228ACBF0120002006EBAC
:1011D0008000076BC5E7002208A83A9905F0E6FFF2
:1011E000641CAC4293DB4DB0BDE8F08FA06810F0FA
:1011F000A8FEE168B0F5B87F15D0A0F58070713811
:1012000007BF022901244DB0BDE8F08F4FF06C02FA
:101210000AA9304610F002F90E9800190E900AD073
:101220000D280DD011E002290EBF4FF0FF344DB054
:10123000BDE8F08FEAE70D98401E0D900C2003E00A
:101240000D98401C0D9001200E904FF4B071304667
:1012500010F0E4FD04460E9A6FF00300229900EBB3
:1012600082000B5825A90D98CDF80010009A13F8AC
:10127000011B02F8011B00920029F7D138B1511E61
:10128000202201F8012B0091694603F019FA25A9E3
:1012900020460FF08EFA6C220AA9304610F0D4F8DE
:1012A000304611F05FFB0A21304611F00BFC4DB0C7
:1012B000BDE8F08F00293FF4F7AE03980628B4BFCD
:1012C000401C00200390491EF7D1EDE6932449927B
:1012D000676666662DE9FF4FC9B00E46DDE95749DE
:1012E000DDE959879A46154670211EA8DDF858B1E8
:1012F000FEF7EAFF6C2103A8FEF7E6FFABF1010061
:101300000C2880F0E280AAF22E6042F2E2018842CC
:1013100080F0DB8044226F490CA8FEF7ADFF6E4BD6
:1013200000211A460846E4FB0320C008A0EB401049
:101330002044CDE903ABCDE9050A0120CDE907B092
:101340006648059BCDF824A0CDE91D90CDE90AB3F0
:1013500018981A9BC0EBC0021998ADF88260C0EBD8
:10136000C0001844ADF888006C202490ADF88A7055
:101370004FF4B870ADF89C000320ADF89E001A98A9
:10138000574B0A38ADF8808025932C93ADF8A40014
:1013900040F27113ADF88450ADF8B830ADF8862046
:1013A0001A9B4FF0050CD21AD21DADF8BA204D4B46
:1013B0003393ADF8C0004FF4B073ADF8D430C31C14
:1013C000ADF8A0C0ADF8A200D21AADF8DC00ADF8BF
:1013D000BCC0ADF8D8C0ADF8BE00ADF8D630ADF8A1
:1013E000DA2000910191404A04211EA8499B03F094
:1013F000EFFA050069D06FF0704110F012F83B4928
:10140000284611F01FFD4FF4B871284610F006FD74
:10141000044600210FF097FD35492046FFF7AAFA50
:1014200040F27111284610F0F9FC044600210FF03B
:101430008AFD2F492046FFF79DFA4FF4B0712846E8
:1014400010F0ECFC04462B4911F0FCFC0E21204668
:101450000FF0DBF9204613990FF0EEF920461799AB
:101460000FF08EF9204610F08BF8204612990FF0FD
:1014700065F907996FF003021B9802EB81013AAA04
:1014800041580698CDF80020009B11F8012B03F875
:10149000012B0093002AF7D138B1591E202201F800
:1014A000012B0091694603F00BF93AA920460FF091
:1014B00080F9284611F03AFD6C2203A928460FF066
:1014C000C3FF4DB02846BDE8F08F4DB00020BDE809
:1014D000F08F00002404002021841042951302089C
:1014E000B105010853060208C50A010835C90208FA
:1014F000E57A02087DAF020830B59BB00C46054680
:1015000004F072FC6C22694628460FF087FFDDE983
:101510000601089AA260C4E9000107F01FFB1BB096
:1015200030BD30B59BB00C46054604F05DFC6C2226
:10153000694628460FF072FFD4E90012A368CDE98E
:10154000001202936C22694628460FF07DFF284660
:1015500011F008FA07F002FB1BB030BD022828BFCB
:101560007047024A02EB8000816270472404002029
:10157000064A002804BF91637047012804BF116325
:101580007047022808BF5163704700002404002000
:101590002DE9F04744680546014682B020460FF029
:1015A000DFFB002804BF02B0BDE8F08728680B28E5
:1015B0007DD00E2805D00F283ED0B0F5107F4CD03E
:1015C000ADE0204602F098FE019090F8746090F82B
:1015D000757001A802F068FF204612F0A6FB0028F3
:1015E00054D0E8684168002950DD006820284DD1BA
:1015F000781CB0FBF6F106FB1106002C46D004F077
:10160000F3FB204602F078FE009090F87410B1428F
:101610000CD980F87560684602F046FF204611F04C
:10162000A1F90521204611F04DFA02E0684602F0CA
:101630003BFF07F093FA72E02546204602F05CFE7D
:101640000090006F0468684602F02EFF002C1CBF5B
:101650002846A04702B0BDE8F0874FF000092046B9
:1016600002F04AFE019090F8748090F87570B0F91D
:1016700030A001A802F018FFEE68BEB3204611F0BA
:1016800041F820B14946204611F01CFA47E0307A73
:1016900068B30121204611F0EDFB781CB0FBF8F196
:1016A00008FB1106ECB104F09FFB204600E02CE0A3
:1016B00002F022FE009090F87410B1420CD980F82C
:1016C0007560684602F0F0FE204611F04BF90521E6
:1016D000204611F0F7F902E0684602F0E5FE07F057
:1016E0003DFA0121204611F0EDF918E008E0FFE78E
:1016F0000221204611F0E6F9504606F0B1FA0EE05C
:101700000321204611F0DEF909E0204602F0F4FD45
:101710000090783002F000FD684602F0C5FE02B08D
:101720002846BDE8F04710F037B870B586B0B0F97C
:101730000840458AD0F818C00026CDE90254CDE90A
:101740000016CDF810C0B0F90C10B0F91040B0F987
:101750000EC0B0F90A00194410442346624600F056
:1017600003F806B070BD00002DE9FF4F85B01D469F
:10177000DDE912A7DDE9158916468B4604F034FB36
:10178000264C0EB135B10AE02068806800688047B9
:10179000064625B9206880680068804705462048CD
:1017A0006FF07041C068884208BF47F0010709F137
:1017B00054011C48CDE900A7CDE902012B46324671
:1017C000594605980FF02CFF050021D002F094FD3A
:1017D0001022414604900FF025FD241D0499B4E821
:1017E000CD133431A1E8CD1394E8CD11A1E8CD118A
:1017F00054F8240D41F87009022081F874000F207C
:10180000C86704A802F050FE20684168284688474F
:1018100007F0A4F909B02846BDE8F08F680400205D
:101820006C040020911501082DE9F04F0446006872
:1018300089B028B112F079FA002808BF012500D03C
:101840000025FE4850F8256060680A2800F0738182
:1018500008DC002800F0DD81062841D007280CD0E4
:1018600000F0E8B9122800F03081192802BFB069F1
:1018700009B0BDE8F08F00F0DDB9256804F0B4FAD6
:10188000284602F039FD0090C76F684602F00CFE52
:1018900007F064F95FF0000556F8250006F049F9F5
:1018A0002069C119491B4B1E61691A462944284405
:1018B00003F056FF6D1C032DEED3D6E90301CDE9ED
:1018C0000001D4F810C00CEB0700401B431E6069F8
:1018D0001A4641190CEB050003F0B2FD00F0AAB95D
:1018E000A068401E0690246804F07EFA204602F0AC
:1018F00003FD0090D0F87C80684602F0D5FD07F02B
:101900002DF9DFF83C9359F82570002F1CBF06987D
:1019100000EB80000DD000BFB7F84810414505D15D
:1019200007EB8001896809B11FB1C4E0FF6C002F8B
:10193000F2D1502002F056FC070000F07B81C14C30
:10194000502200212368984770697864A7F848807E
:1019500059F82500F864BC48A8F1060880FB081077
:1019600049F825704110A1EBE07103200890012097
:10197000049007F14000CDE90280069D05EB85004B
:1019800007EB8000019005EB450007EB8000283055
:10199000009008EBD8704210401000EBD073A0EB21
:1019A00063004618501A059008F10700C11700EBB4
:1019B00051704FEAE00A0AFB08FB584602F012FC9D
:1019C0005FEA000977D023685A4600219847DDE98D
:1019D0000420012826DD089B012130463344834240
:1019E0001BDD4FEAE27C02EB5C7E02F0070C8024F8
:1019F00024FA0CFC404509DA0AFB00F404EBEE047F
:101A000019F804B04BEA0C0B09F804B06940401C0B
:101A1000834202DD0029F9D0ECE70598521C761CC0
:101A20009042D8DC04990298401A0490904225DD37
:101A30000899012034463144A1421ADDD31702EB44
:101A4000537E02F0070C802323FA0CF3444509DA95
:101A50000AFB04FC0CEBEE0C19F80CB04BEA030B80
:101A600009F80CB06840641CA14202DD0028F9D0DE
:101A7000ECE70498521C761E9042D9DC00980221B3
:101A80000160009901200871009A03999160019901
:101A9000C88001980021A0F804A00198C0F808901F
:101AA00001980161DDE90001C860DDE90101018003
:101AB0000198A0F802800698032200EB800007EB53
:101AC0008000114603F0F2FAB4E0206802F014FC42
:101AD0000290B0F9547090F85650D0F84490D0F875
:101AE000348002A802F0E0FC266804F07DF930465C
:101AF00002F002FC0390B0F87C6003A802F0D4FC72
:101B000007F02CF8684610F03FF9BDF80000711995
:101B10000844ADF80000246A404606F039F8022077
:101B200006F086F8484606F004F83A46694620462C
:101B300003F0F0F97EE0206802F0DEFB0290B0F9DD
:101B4000548090F85660D0F83490876C02A802F068
:101B5000ABFC256804F048F9284602F0CDFB039061
:101B6000B0F87C5003A802F09FFC06F0F7FF68462F
:101B700010F00AF9BDF80000A9190844ADF80000FA
:101B8000206A04F053F80446484604F07DF828F033
:101B90000301042904BFBDF80610091A08D00C2956
:101BA00008D1BDF90610091A491C01EBD171491081
:101BB000ADF8021028F00C0101290CD0022913D134
:101BC000BDF90410BDF90020891A091B01EBD17180
:101BD00002EB610106E0BDF80420BDF80010521AC6
:101BE000121B1144ADF80010BDF80010621E114424
:101BF000ADF80410BDF80210401E0844ADF8060010
:101C0000384605F096FF4FF0FF31684603F0C8FAFA
:101C100010E0206811F088FA206802F06DFB079050
:101C2000B0F90610B0F90220891A491CC16707A84B
:101C300002F03AFC09B00020BDE8F08FB0E90508D9
:101C400094070020740600206766666638B50500B4
:101C50004FF000040CD004F0C7F8284602F04CFB0B
:101C6000009090F87540684602F01EFC06F076FF82
:101C7000204638BD002808BF704738B50C460546D9
:101C800004F0B2F8284602F037FB0090416BA14205
:101C900003D04463284610F065FE684602F004FC59
:101CA00006F05CFF38BD002808BF704738B50C4609
:101CB000054604F099F8284602F01EFB009090F8C3
:101CC0007410A1420CD980F87540684602F0ECFB14
:101CD000284610F047FE0521284610F0F3FE02E0EA
:101CE000684602F0E1FB06F039FF38BD002814BF5A
:101CF0000029704770B582B00D46044604F074F8B0
:101D0000204602F0F9FA0190866F01A8009602F0D1
:101D1000CBFB2946684608F045FB70B10098B042FD
:101D200008D0204602F0E8FA01900099816701A8E6
:101D300002F0BAFB204610F015FE06F00FFF02B0CD
:101D400070BD000000B589B00020009002900390A3
:101D5000049005900690079008901920019004487F
:101D60000068806841686846884709B000BD000087
:101D70006804002000B583B010F03AF8002100910B
:101D800003460191034A0721034802F021FE03B0F4
:101D900000BD0000F9C202081CFB020800B583B0B8
:101DA00010F026F80021009103460191034A032117
:101DB000034802F00DFE03B000BD00007DBD020827
:101DC00094F9020810B582B010F012F800210091C9
:101DD00003460191054A0B21054802F0F9FD04462E
:101DE00006F04CFD02B0204610BD0000A5BF020861
:101DF000E8F902087047000000B583B00FF0F8FF63
:101E00000021009103460191034A0621034802F094
:101E1000DFFD03B000BD000041B302082CF702084B
:101E2000002808BF70472DE9F04F91B00F460446D7
:101E300003F0DAFF204602F05FFA039090F854A016
:101E4000D0F83490866DC56C03A802F02DFB26B146
:101E500039462046B04700F0ABB900264FF00108E4
:101E6000122F7DD006DC082F7BD0102F7AD0112FB7
:101E70003CD006E0132F5BD01D2F00F0E4801E2F16
:101E800071D0202FC0F29481BAF1000F00F0F280DF
:101E9000204602F031FA0590D0F834A0D0F84C90EA
:101EA00005A802F001FBBAF1000F00F0E3805046F4
:101EB00002F022FA82464946069006F023FD81464A
:101EC0005046FEF70CFA48457DD9D144484606F005
:101ED000C5FC09EB00014846FEF723FA06A802F00C
:101EE000E3FA0521204610F0EDFDC3E0B9F1000F43
:101EF00000F05E81484602F0FFF90746294604904B
:101F000006F000FD0744384606F098FC05460296A8
:101F100006F0C2FC8046681C86B2304606F0BCFC67
:101F20000546A84526D004A802F0BEFA00F040B944
:101F3000B9F1000F00F03C81484602F0DDF9074698
:101F40002946049006F0DEFC0744384606F076FC8D
:101F50000546029606F0A0FC8046681E86B203E0A5
:101F600016E021E01AE043E0304606F095FC054615
:101F7000A845D8D1314602A806F04EFC2A4602A94F
:101F80003846FEF779F90521204610F09BFDCAE797
:101F9000691C204600F052FC00F00AB9691E204678
:101FA00000F04CFC00F004B9002D00F00181691E26
:101FB000204600F043FC204602F09EF90190C76CD9
:101FC000456B01A800E052E002F06EFA002D00F02F
:101FD000EF80284602F090F906463946029006F056
:101FE00091FC05463046FEF77AF9A84229D918E057
:101FF000204602F081F90190C76C456B01A802F000
:1020000053FA002D7ED0284602F076F9064639466E
:10201000029006F077FC05463046FEF760F9A842CC
:102020000FD93544284606F019FC29182846FEF732
:1020300078F902A802F038FA0521204610F042FD96
:10204000B6E002A810E0204602F056F90390BAF17B
:10205000010F08BF80F8546005D080F854802946ED
:10206000204600F0EBFB03A802F01EFAA0E006A851
:1020700002F01AFA1FFA87FB204602F03DF90746E4
:102080000290B0F93800002812DD786B4FF000099B
:1020900040B102F031F9009007F0C4FF8146684674
:1020A00002F002FAB7F9381009F10100884200DCA9
:1020B00046460298C06C079002A802F0F5F9002E7F
:1020C00076D0584606F0E8FB074626464FF0000853
:1020D000204602F011F90B90406B40B102F00CF970
:1020E0000890FEF7FCF8804608A802F0DDF90B998D
:1020F00007EB0800498F401A00F101080BA802F015
:10210000D3F900E054E0B8F1000F2CDD304608F1BF
:10211000100802F0F1F80090D0F834A0408F80440D
:10212000684602F0C1F94146504602F0F9F85FEA0C
:1021300000093DD0BAF1000F0AD102F0DDF8204BC2
:102140000D9042461B68002198470DA802F0ACF99B
:10215000304602F0D1F80090A0F83A80C0F83490F0
:10216000684602F0A1F9204602F0C6F80290466BDC
:1021700002A802F099F9304602F0BEF806460F9028
:10218000079906F0BFFB06443046FEF7A8F8421C4C
:10219000F0193146FEF770F85946304606F03CFB20
:1021A0000FA802F081F90521204610F08BFCEFE624
:1021B000204610F0D7FB06F0D1FC11B0BDE8F08F3F
:1021C0007406002070B54568044682B0284611F0B8
:1021D000ACFD0646214628460EF0C2FD002804BF8D
:1021E00002B070BD20680F2844D004DC0B2847D013
:1021F0000E2850D066E0A0F58070133804D0A0F50A
:1022000080702D381FD05DE0284610F0ABFD2846C9
:1022100002F072F8009090F8561081F0040180F8F6
:102220005610684602F040F90021284617F0B6FB28
:10223000284602F061F80090D0F88400002110F0E8
:1022400028FD684624E0E06878B1017A41B1016870
:10225000284600F022F90121284610F033FC31E035
:102260000221284610F02EFC2CE00321284610F015
:1022700029FC27E00121284617F090FB02B070BD31
:10228000284602F039F80190343001F045FF01A8EA
:1022900002F00AF916E0AEB1E0684168002911DDEC
:1022A00001681B290ED009DC09291CBF0A290D2948
:1022B00008D02846FFF7B4FD02B070BD212918BF31
:1022C0002229F6D120460FF067FA02B070BD2DE941
:1022D000F04186B00DF1300898E8F0104FF000089A
:1022E000CDF814808DE8F01000F004F806B0BDE8D9
:1022F000F08100002DE9FF4F85B09846DDE91654C6
:10230000DDE9126B91468A46159F03F06DFD04F1DD
:102310006001324A03914BF480500096CDE90102EE
:1023200043464A46514605980FF07AF904004FD0CB
:1023300001F0E2FF1022394604900EF073FF2848A6
:10234000049990E8CC1701F1600B8BE8CC17006A78
:10235000C1F88000012081F85500681C18BF0120D9
:1023600081F88800002DD8BF08252AB20A870020EE
:1023700048874863551C04A802F096F8204601F0EF
:10238000BBFF0090476B408F0544684602F08CF815
:102390002946384601F0C4FF060015D057B901F0B0
:1023A000ABFF104B01902A461B680021984701A8FB
:1023B00002F07AF8204601F09FFF009045874663BF
:1023C000684602F071F803E020460FF01FFA00247F
:1023D00006F0C4FB09B02046BDE8F08FC521010816
:1023E0009C070020740600200148806870470000A8
:1023F0009C07002038B5040008BF38BD03F0F4FC8A
:10240000204601F079FF0090846E684602F04CF897
:1024100006F0A4FB204638BD38B505004FF0000497
:102420000BD003F0E1FC284601F066FF0090846CBD
:10243000684602F039F806F091FB204638BD0028C6
:1024400008BF7047F8B516460C46054603F0CCFCAD
:10245000284601F051FF0090002818BF032C05D238
:1024600000EB84008667284610F07CFA684602F08C
:102470001BF806F073FBF8BD70B50D46044603F07B
:10248000B3FC34B12946204600F0D8F9204610F0BC
:1024900069FABDE8704006F061BB002808BF7047CC
:1024A0002DE9F04186B00C46074603F09DFC384606
:1024B00001F022FF0090406B002849D001F01CFF82
:1024C00003900098806E05F063FB804638460FF05D
:1024D000B3FE0646039803F0A9FB0546009890F862
:1024E000601001F00301012918D002290FD0416EBC
:1024F000C06A00680844201A441E039807F092FD41
:10250000002C11DA0021384600F098F917E0701B12
:10251000401C00EBD070A4EB6004EEE7406E711B32
:10252000081A201A441CE8E7A54204DB02462146AB
:10253000039807F00BFD0146384600F07FF903A829
:1025400001F0B2FF404605F023FB384610F00AFACE
:10255000684601F0A9FF06F001FB06B0BDE8F08176
:102560002DE9F8431D46DDE9086714468946804693
:1025700003F03AFCB8F1000F75D0404601F0BCFE04
:102580003B49009081653B49C1650021C0E912913A
:10259000C0E90F4580F8446080F85670012180F84A
:1025A000541090F88890684601F07EFFB9F1000F52
:1025B00040D0002DA7BF01210B460221CB1EB8BF82
:1025C0006D422D4A0A2D08DB82FB05C04FEAA00CA4
:1025D000ACEBE075491C0A2DF6DAB3F1FF3F02BF00
:1025E0004B1EB342491C002CBDBF02204FF0FF3CE4
:1025F00064420120A8BF84460A2C07DB82FB044307
:102600009C10A4EBE374401C0A2CF7DABCF1FF3FEA
:1026100002BF431EB342401C002E1CBF401C491C7D
:1026200017F0010F18BF491C8142D8BF0146404630
:1026300000F03CF8404618F0BDFC404601F05CFE5E
:10264000009000F0E5F80D490978884205D100981E
:10265000C06C411C404600F0F1F8684601F024FFD0
:10266000404610F07FF906F079FABDE8F8830000E3
:102670009D450208B5AF020867666666DC0100206A
:10268000002808BF704738B50C46054603F0ACFB80
:10269000284601F031FE00908466284610F062F969
:1026A000684601F001FF06F059FA38BD002808BF5E
:1026B00070472DE9F04184B00C46064603F094FBC8
:1026C000304601F019FE0090B0F93810458FA14254
:1026D00048D012DD406B80B101F00EFE019007F092
:1026E000A1FCA04206DD2146019806F00BF9019AF3
:1026F0000021115401A801F0D7FE684601F0D4FE74
:10270000601B451C304601F0F7FD0290D0F8348084
:10271000408F054402A801F0C7FE2946404601F05B
:10272000FFFD070016D0B8F1000F0AD101F0E4FD5B
:10273000104B03902A461B680021984703A801F01C
:10274000B3FE304601F0D8FD02904587476302A8EA
:1027500001F0AAFE304601F0CFFD0090048730461C
:1027600010F000F9684601F09FFE06F0F7F904B09A
:10277000BDE8F08174060020002808BF7047F8B556
:1027800016460C46054603F02FFB284601F0B4FD23
:102790000090002818BF032C05D200EB8400C66609
:1027A000284610F0DFF8684601F07EFE06F0D6F904
:1027B000F8BD38B505000C4608BF38BD03F014FB62
:1027C000284601F099FD0090C16BA1421CDC016C10
:1027D000A1421BDB816CA14210D08464C16D002931
:1027E0001CBF28468847284610F0BCF8684601F010
:1027F0005BFE0521284610F065F902E0684601F00D
:1028000053FE06F0ABF938BD0C46E0E70C46E1E7B5
:1028100038B50546406B002468B101F06DFD0090AD
:102820000446E96C06F06EF8204406F007F804460A
:10283000684601F039FE204638BD000010B582B070
:102840000C4601F059FD0090406BE8B101F054FDD9
:10285000019007F0E7FB009991F85420002A18BF77
:102860000122002C15DB844215DC00BFB1F93800D1
:10287000801AA04211DBC86CA04218BFCC640020B3
:10288000086501A801F010FE684601F00DFE02B0D7
:1028900010BD0024E7E70446E8E7B1F93800841AE0
:1028A000E9E70000064A136823F4407313601368D5
:1028B0001360136843F00103136001707047000058
:1028C000103C02400A49D1F800C02CF4407CC1F809
:1028D00000C0D1F800C04CF4407CC1F800C0D1F871
:1028E00000C04CF0010CC1F800C0026043607047AA
:1028F000103C0240074A136823F4407313601368C6
:1029000043F480731360136843F001031360018084
:1029100070470000103C0240074A136823F44073DC
:102920001360136843F400731360136843F00103EA
:102930001360016070470000103C02401A490868AB
:1029400010F0100F194805D0C26942F01002C261A0
:1029500010220A600A6812F0200F05D0C26942F006
:102960000802C26120220A600A6812F0400F05D0F6
:10297000C26942F00402C26140220A600A6812F091
:10298000800F05D0C26942F00202C26180220A6053
:102990000A6812F0020F05D0C26942F02002C2613B
:1029A00002200860704700000C3C0240480A0020EA
:1029B00070B5044614490020C86108F03FF8064687
:1029C000124D286810F4803F0ED0B4F1FF3F07D0BD
:1029D00024B108F033F8801BA04201D9032070BD58
:1029E000286810F4803FF0D1286810F0010F01D062
:1029F00001202860286810F0F20F03D0FFF79EFF37
:102A0000012070BD002070BD480A00200C3C02402F
:102A100030B4B3F5804F06D06FF0704140F822100B
:102A200030BC0020704750F82230DFF82CC003EA99
:102A30000C03D1F800C04C688D894CEA041C8C68EA
:102A40008969240244EA05444CEA040C4CEA010179
:102A5000194340F82210E3E70000F0CF70B40B6890
:102A600050F82320DFF84CC002EA0C0C4C688A684E
:102A70000E69CD68144335432C434D692C438D6951
:102A80002C43CD692C430D6A2C434D6A2C438D6A2F
:102A90002C43CD6A2C43CD6B096B2C43214341EA77
:102AA0000C01082A01D141F0400140F8231070BC0C
:102AB000002070478000F0FF30B4521C50F82230E4
:102AC00003F04043D1F800C04C688D894CEA041CE7
:102AD0008C68240244EA05444CEA040C0C8A641E07
:102AE0004CEA045C0C7D8969A41E4CEA046C4CEA37
:102AF0000101194340F82210002030BC704700004B
:102B000070B506460024064D314655F83400FDF7F1
:102B1000EDFB18B1601CC4B21B2CF5D3204670BD70
:102B20003C0000202DE9F84F0F46DDF828900646BE
:102B3000941BA3EB0708D9F800504FF0000A54EAA1
:102B4000080063D0002CD4BF60422046B8F1000FCB
:102B5000CCBF4146C8F1000188420ADA204644460B
:102B6000804630463E46074610461A4603464FF01A
:102B7000010A002CCCBF20466042A04208BF0120C1
:102B800008D03046164602466442C8F100081F4687
:102B90004FF0FF300090C448C449B8F1000FD0F89E
:102BA00000C01CBF04EBD4724FEA620BB8BFCBF17C
:102BB000000B30D09CF81A20002A00F0FA80009A0E
:102BC000002ABCBF2A19C9F800200025002CC0F239
:102BD000458100BF08FB05B090FBF4F0C219D9F89D
:102BE000001000980844B049C9F8000009688B7EBD
:102BF000012B00F00081022B00F00781032B00F075
:102C00000D81042B00F03A8100F019B93046BDE87F
:102C1000F84F00F08DBABAF1000F62D09CF81AC0DC
:102C2000BCF1000F14D04FF00008002CA4BF8A465E
:102C3000834640DBDBF8001028466D1C8A7E012AA3
:102C40000CD0022A14D0032A1BD0042A35D027E046
:102C500031463846BDE8F84F09F0F2BE801DC21774
:102C600000EB127222F00F02801A0C281FDB17E013
:102C7000C21700EB927222F00302801A022816DBC0
:102C80000EE08AFB0032D310A3EBE272524202EB59
:102C9000820200EB82000C2809DB1038022806D3E0
:102CA000496E06EB08004A6801463846904708F12D
:102CB0000108A045BEDD681EDCE07D4A82FB0032D3
:102CC0009310A3EBE272A2EB820200EBC2000C288D
:102CD000EDDBA0F11002022A24BF14380228E6D34B
:102CE000DEE79CF81A80B8F1000F14D04FF000080E
:102CF000002CA4BF8A46834642DBDBF8001028463E
:102D00006D1C8A7E012A0FD0022A17D0032A1ED0FA
:102D1000042A3AD02AE0DCF864003946036801B09E
:102D20003046BDE8F04F1847801DC21700EB127205
:102D300022F00F02801A0C281EDB17E0C21700EBEE
:102D4000927222F00302801A022815DB0EE08AFB41
:102D50000032D310A3EBE272524202EB820200EB8C
:102D600082000C2808DB1038022805D3496E06EBD8
:102D700008004A683946904708F10108A045BCDDC3
:102D8000681EC9F80000BDE8F88F494A82FB00328E
:102D90009310A3EBE272A2EB820200EBC2000C28BC
:102DA000EADBA0F11002022A24BF14380228E3D380
:102DB000DCE70025002CACBF8146BDE8F88F00BFE2
:102DC00008FB05B090FBF4F03844BAF1000F0AD0CC
:102DD000D9F800207119526E526890476D1CA542B7
:102DE000EEDDBDE8F88FD9F800107319496E4A6816
:102DF00001461846F1E7801DC31700EB137323F05B
:102E00000F03C01A0C2825DB19E0C31700EB9373DE
:102E100023F00303C01A02281CDB10E0234B83FBC2
:102E200000C34FEAE30CACEBE3735B4203EB8303B9
:102E300000EB83000C280DDB103802280AD3496E02
:102E4000BAF1000F06EB05004B680EBF11460146B4
:102E5000104698476D1CA5427FF7BCAE009800282D
:102E600004DAD9F800002044C9F80000D9F80010AD
:102E70000098081AC9F80000BDE8F88F0C4B83FBD6
:102E800000C34FEAA30CACEBE373A3EB830300EBAB
:102E9000C3000C28DEDBA0F11003022B24BF143882
:102EA0000228D7D3CBE70000F001002067666666F2
:102EB000ABAAAA2A2DE9F047DFF86892804684B0D1
:102EC000D9F800000F460C99007E1D4616460128D1
:102ED00000F0CE80A8EB060C7C1B5CEA040104BF6A
:102EE00004B0BDE8F087421E0021BCF1000FBCBF5A
:102EF0000121CCF1000C002CBCBF41F00201644266
:102F0000644504DD20466446844641F00401A00285
:102F10000CEBDC7300EB630090FBFCF08010824C48
:102F20004FEA201C00F00F0034F81C30C0F11000F4
:102F300013FB00F3102807D004EB4C0CC0F1100079
:102F4000BCF802C01CFB003303F10800C31700EB00
:102F50001370001111F0040F18BFC0F5806011F05C
:102F6000010F18BFC0F5006011F0020F18BFC0F5C7
:102F7000805000F5806100F50060C0F30B004FF059
:102F8000000AB0F5006FC4BF4FF0010AA0F5006061
:102F9000B0F5806FC8BFC0F500604FEAA01C634B5E
:102FA00000F03F00C0F1400033F81C40444340288B
:102FB00018BFBCF1100F07DA03EB4C0CC0F1400056
:102FC000BCF802C00CFB004404F120008009BAF1F7
:102FD000000F18BF404200FB02FC0024C1F30B00AD
:102FE000B0F5006FC4BF0124A0F50060B0F5806F9C
:102FF000C8BFC0F50060811100F03F00C0F1400083
:1030000033F811A040280AFB00FA18BF102906DA8D
:1030100003EB4101C0F14000498801FB00AA0AF11D
:1030200020008009002C18BF404200FB02F1BCF1D7
:10303000000FB4BFCCF500700CF500704FEAA02073
:10304000B8BF40420029BDBFC1F500718912C1F16E
:10305000000C01F50071A8BF4FEAA12C00280FDD7C
:10306000411C01EBD171491000EBD07042100EE011
:10307000009139464046FFF755FD04B0BDE8F087A2
:1030800000EBD071401E491000EBD0704210BCF133
:10309000000FC6BF0CF1010000EBD0700CEBDC7030
:1030A0004FEA6000CEBF0CEBDC73ACF1010303EB25
:1030B000D3735B1008EB010CADF800C007EB000CFC
:1030C000ADF802C0A8EB020CB21AADF804C0ADF81E
:1030D00008203144A7EB030CEA1AADF80C10284481
:1030E000ADF80A20ADF80E000023ADF806C01A4670
:1030F0000421684600F08EF8D9F800204046394691
:10310000527E002A08BF00F013F83046D9F800209C
:103110002946527E002A08BF00F00AF804B0BDE834
:10312000F0870000F0010020C6EA0508A4EA0508BF
:10313000064A13681A7E012A05D0521E02EBD2728B
:10314000521000F005B85A6E52681047F001002086
:103150002DE9F84F06460F4640F2C32050434FF486
:103160007A7190FBF1F000F1010A02FB02F002EB30
:10317000D271DFF89C8000EB61000090D8F800105D
:1031800014463244496E301B0B6839469847012576
:10319000BAF1010FB8BFBDE8F88F00BF05FB05F01D
:1031A00004FB0400009988421ADD544517DDD8F865
:1031B000003006EB050BA6EB05095B6EABF10102D7
:1031C00039191B6809F101009847D8F80030ABF1B4
:1031D0000102391B5B6E09F101001B689847641EF0
:1031E000D8F80030321979195B6E301B93461B6892
:1031F00081469847D8F800305A46791B5B6E48469E
:103200001B6898476D1CAA45C8DABDE8F88F000016
:10321000F00100202DE9FF4F83B0074643F6FF740D
:10322000C4F1000090460E1E0090C4BFBA1C0846B0
:103230000EDD00BFB2F90010A142D8BF0C46009BC2
:103240009942D8BF19460091401E02F10402F1D103
:103250008C490868406970B1B0F90630069A9B1A2B
:10326000009A9342C0F20281B0F90230069A9A1A8B
:10327000A24200F3018100988442D2BFA6F1010965
:1032800007B0BDE8F08F00207F490546002E08609A
:10329000C4BF069804EB000A7EDD4D45B4BF6A1C2E
:1032A000002207EB850C07EB8201BCF90200B1F9A3
:1032B0000230A04255D1A34213D137F9250051461F
:1032C00000EB080337F922006E4A4044834212683B
:1032D000526ED2F800C0BABF024618461A46E047FE
:1032E00087E000222946B9F1000F0CDD002914BF48
:1032F000491E711E07EB8100B0F90200A04203D104
:10330000521C4A45F2DB2046A04272D0001B37F91E
:1033100025101A1B90EA020F09D45A4A01EB080043
:1033200051461268526E13680246984761E0DFF812
:1033300058B1DBF800C0BCF10C0F5ADA0020BCF128
:10334000000FC4BF6046514A4CDD00BF02EB400392
:1033500033F9023C8B4245DB22F81030401EF5D198
:1033600040E0A34245D0A8BF844203DAA042A8BFF0
:103370009C423EDB98424EDC0246A042DFBF18462C
:103380008442BCF90030B1F9001032DCA1EB030C2F
:10339000A11A0CFB01F100E02FE00029A0EB020CC8
:1033A000CEBF01EB6C01A1EB6C01491C801A91FBB3
:1033B000F0F0DFF8D4B0C118DBF800C0BCF10C0F9E
:1033C00017DA0020BCF1000FC4BF60462F4A09DDA8
:1033D00002EB400333F9023C8B4203DB22F810304E
:1033E000401EF5D1294A22F810100CF10100CBF84B
:1033F00000006D1CB542FFF650AF06980025204432
:1034000001902148AB4601680029C4BF1F49B1F9AA
:1034100000A022DD18E01A46A342DEBF8442B1F9C3
:103420000030BCF90010B1DDE3E7184931F91BA009
:1034300055B108EB000C134808EB0A02019900682B
:10344000406E0368604698470F490BF1010B85F009
:103450000105096850465945E7DC0098641C844220
:103460007FF711AF07B0BDE8F08F00BFB0F90630AD
:10347000069A9A1A0092F7E6B0F902200698141AF2
:10348000F9E60000F0010020BC09002058EF0120FF
:1034900070B52048046802F0A7FC204609F0E2FE5F
:1034A00005F05CFB1C48046802F09EFC204609F015
:1034B00013FF05F053FB012502F096FC174C206822
:1034C000057605F04BFB02F08FFC20680025858512
:1034D00005F044FB02F088FC2068458505F03EFBC2
:1034E00002F082FC284609F00FFF05F037FB0C487C
:1034F000056802F079FC2068002D18BFC56105F051
:103500002DFB002502F070FC20688576BDE8704038
:1035100005F024BBEC010020E8010020F0010020B0
:10352000E401002070B50C46054600F0FBF8A868E1
:103530002168C16261680163A168416311F0040FF1
:1035400007D0D0E90021C0E90012D0E90221C0E98A
:103550000212A189818421690029B8BF002118BF06
:10356000016270BD2DE9F0411E46174688460446AB
:1035700000F0D8F8A5686822414605F58A70FCF786
:103580007BFE2046B8472046B047206980688047C8
:10359000A862BDE8F081000010B5044600F0C2F852
:1035A000A0681049134AC0F8AC100F49C0F8A81021
:1035B0000E49C0F8B0100E49C0F8B8100021C0F88C
:1035C000BC101368C0F8B4300B4BC0E933315168FC
:1035D000C0F8C810C18C21F00301C1840749C0F8AC
:1035E000941010BD85AB0208A9AD020849AB0208D2
:1035F000A7A40208D402002041A60208D9AA020802
:1036000010B5044600F08EF8A46810481021C4F8E4
:10361000EC000F48C4F8F0000E48C4F8F4000E485F
:10362000C4F8F8000D48C4F8A0000D48C4F8A40080
:10363000D4F8C800C4F80401D4F894202046904778
:103640001020A0630748606410BD00004D580208B8
:103650002581020869360108A137010849A402083A
:10366000C9B0020814E90508F8B5846815460F4684
:1036700094F8260010F0020F48D0D4F80831204604
:1036800098470646D4F80C312A46394620469847D2
:10369000D4F8983005461BB10022012120469847F6
:1036A0002069B042CCBF01200020A169B142B4BF63
:1036B0000121002108436169A942CCBF01210021F9
:1036C0000843E169A942B4BF0121002108430AD09F
:1036D0006068401E00902068D4F8A8C0431E0022F5
:1036E00011462046E047D4F8AC302A463146204601
:1036F0009847D4F8A01020468847D4F8983005465B
:103700006BB1012200212046984708E0D4F8AC3084
:1037100020469847D4F8A0102046884705462846FA
:10372000F8BD000010B504468068002818BF10BD21
:103730004FF4BE7000F056FD084BA0604FF4BE720F
:103740001B6800219847A0680221C18401210464FC
:1037500001620349C0F8101110BD0000740600207A
:10376000653701082DE9F0010C4991B0B1E8FC1171
:103770008DE8FC1191E8FE100DF1200888E8FE109C
:10378000416B5DF82120C0F8082108AA52F82110E9
:10379000C0F80C1111B0BDE8F0017047BCFD040881
:1037A0002DE9F84384681F46154694F8260088469C
:1037B00010F0020F35D0D4F808312046984706465D
:1037C000D4F80CC12A4641462046E0470546206908
:1037D000B042D4BF00200120A169B142B4BF012191
:1037E000002108436169A942CCBF0121002108439F
:1037F000E169A942B4BF0121002108430AD06068F1
:10380000401E00902068D4F8A8C0431E0022114634
:103810002046E047D4F8AC302A4631462046984747
:1038200003E0D4F8AC3020469847D4F8A42001B087
:1038300039462046BDE8F043104700002DE9F04F1F
:103840004B4989B00968B1F922200692D1F81CC011
:10385000B1F92470DCF81C40A28982429CBFE38944
:10386000984205D8A0EB02094FF0FF38266812E015
:10387000D4E90162002A71D0138883429CBF558825
:10388000A8426BD8C01A526880B202EB8000B0F92F
:103890000090B0F90280B9F1FF3F5FD09CF81800AA
:1038A000A27C10FB02FB94F810A00790B1F92A50FB
:1038B000284609F029FDC0B208902D4809FB0B628B
:1038C0000068A37C4FF00109816BCDE90293CDE93B
:1038D0000421C0695246C17E807ECDE90001DDE948
:1038E0000603394608F002FFB8F1FF3F18D045F053
:1038F000020009F009FD1E48A37C08FB0B6200686A
:10390000816BCDE90293CDE90421C0695246C17EA5
:10391000807ECDE90001DDE90603394608F0E6FEC8
:10392000134E3068C069417E007E814213D9022D5A
:1039300011D085F0040009F0E7FC3068C069017E11
:10394000C27E11FB0271427ED319827E06981AFB59
:10395000020209F0A7F8089809F0D6FC0448627C36
:103960000068418C1144418409B0BDE8F08F00002B
:10397000F0010020044800290068C069C0691CBF2C
:10398000027C0A60407C7047F00100200220088021
:103990007047C06982898A429CBFC289914210D90E
:1039A000806880B102888A429CBF438899420AD8C5
:1039B000406800EB8100A0EB8200B0F90000002815
:1039C00001DB012070470020704700002DE9F04323
:1039D000394D024687B02868B0F92A60C069C169CC
:1039E0001046002904BF07B0BDE8F0830B8883426E
:1039F0009CBF4B88984205D989680029F6D107B049
:103A0000BDE8F083002904BF07B0BDE8F083486833
:103A10000988511A00EBC1043046A77809F074FCFC
:103A20008046286862680123816BCDE90237CDE9C1
:103A30000421C169CB7E8A7ECDE900230B7EB0F9DB
:103A400024102278B0F9220008F050FE2868C069DE
:103A5000417E027E91421FD9C07E11FB00F912FB0C
:103A600000F7022E18D002F066F8064602F02CF895
:103A700004F05FF829682278CB69B1F92200DB7E77
:103A800012FB0302B1F9241001EB0903394409F0D8
:103A900009F8304604F04DF8404609F035FC286836
:103AA0006278C369B0F922109B7E12FB0311418436
:103AB00007B0BDE8F0830000F0010020F0B52B4D09
:103AC000034687B02868B0F92A20C069C169184642
:103AD00059B100BFB1F800C0844503D8B1F802C0A5
:103AE000844502D289680029F4D121480078002851
:103AF00018BF42F00202002904BF07B0F0BD4868B9
:103B00000988591A01EB410100EB81042078C01D9E
:103B1000C608104609F0F8FB2A680746A168906BB2
:103B20000123CDE90410CDE90236D069C17E807E43
:103B3000CDE90001B2F9240094F90310637801443F
:103B4000B2F9220094F902201044227808F0CEFD48
:103B5000384609F0D9FB28682279C369B0F92210E8
:103B60009B7E12FB0311418407B0F0BDF0010020E1
:103B7000580200200346184810B40068C46918466B
:103B8000E2692AB3B2F800C084459CBFB2F802C013
:103B9000604503D99268002AF4D119E0C2B11088B7
:103BA000D2F804C0181A00EB4003042000EB830095
:103BB000A27E1CF8000010FB02F0002904BF10BC1C
:103BC00070471CF8233013FB02F20A6010BC7047E8
:103BD00010BC002070470000F0010020034612488E
:103BE0000068C069C2691846E2B100BFB2F800C0FF
:103BF00084459CBFB2F802C0604503D99268002A90
:103C0000F4D10FE072B1506812889A1A02EB4202A6
:103C100000EB8200D0E9002380680A60C1E901302E
:103C20000020704701207047F0010020012008802B
:103C30007047C06968B102888A429CBF428891423D
:103C400003D980680028F6D103E000281CBF0120BA
:103C500070470020704700002DE9F341354C82B0D9
:103C600000252068C069427EC07E12FB00F84F1E0E
:103C700024D402A804F016FE064620683146C06926
:103C8000C06900F081F890B141680088301A00EBFB
:103C9000400001EB800090F902100079084421688F
:103CA000C969897E10FB01F00028C8BF05447F1E4A
:103CB000DFD51EB1304606F0D9F9054420686A1EEA
:103CC000418CADF80010808C1144ADF80410ADF8B3
:103CD0000200A8F101010844ADF80600164800688A
:103CE00000281CBF8168002901D06846884701F080
:103CF00022FF0546206890F82A0010F0040F02D039
:103D000001F019FF01E001F0DFFE03F012FFBDF941
:103D10000630BDF90420BDF90210BDF9000008F01D
:103D2000C1FE284603F005FF04490120087004B0D5
:103D3000BDE8F081F001002044020020580200207C
:103D40002DE9F3410E4C0F4F0D462068B0F92A6063
:103D500016F0030F02D17A68009890476D1E08D4C0
:103D6000684604F09FFD2168C969096888476D1E8F
:103D7000F6D5002038702068468502B0BDE8F08195
:103D8000F001002058020020002808BF7047028878
:103D90008A4203D842888A4228BF70478068002838
:103DA000F5D1704710B4044615480068D0F81CC01F
:103DB0002046DCF81C2002B3138883429CBF538842
:103DC000984203D99268002AF6D116E0AAB1108869
:103DD0005368221A012000EBC2009CF81AC0185C3C
:103DE00010FB0CF0002904BF10BC704713F8322000
:103DF00012FB0CF20A6010BC704710BC0020704728
:103E0000F0010020012008807047C06968B1028875
:103E10008A429CBF4288914203D980680028F6D12B
:103E200003E000281CBF01207047002070470000FD
:103E30002DE9F047DFF8A480DFF8A4A04FF00009D7
:103E4000D8F80840002CC4BFD8F8106000251DDD4C
:103E5000D8F81000C5EB051700EBC7007022001D55
:103E6000DAF80010FCF708FA46F8789BD8F810004A
:103E700005F1010500EBC70000F10C018161011D96
:103E80000A1DC0E90F124164641EE1D1D8F8080090
:103E90000024002810DD00BF04F07BFED8F81020BD
:103EA000C4EB041152F83110814206D081B1D8F828
:103EB0000800641C8442EFDB4C46D8F81010C4EBB9
:103EC000041001EBC000001DCAF80000BDE8F08737
:103ED000C4EB041142F83100EFE70000C4060020F3
:103EE000F001002070B51B4919480860084606F02B
:103EF00051FA194CA068C0EB0010C500284600F02C
:103F000071F9164B20612A461B68002198474FF033
:103F1000FF30206004F042FEA06800250028D8BFD2
:103F200070BD00BF04F035FE2269C5EB051152F8E3
:103F30003110814208BF70BD21B16D1CA06885425F
:103F4000F0DB70BDC5EB051142F8310070BD00001B
:103F5000B9970208D8060020C40600207406002085
:103F6000002904BF002070472DE9F0410F4680462C
:103F700001F03AFF01F038FF384610F035FD0446F5
:103F800004F0ECFD002C2FD01A4D3A46E869401C95
:103F9000E861686B00EBC4000178491C01700421E2
:103FA000686B01EBC401B8F1000F405800F108063E
:103FB00005D0114B414630461B68984704E00F4B33
:103FC000002130461B68984756F8081C686B00EBC8
:103FD000C1000178022904D3E96900291CBF491EE8
:103FE000E9610178491E017004F0B8FD2046BDE882
:103FF000F081000094EC0120780600207406002077
:10400000002808BF704710B5044601F0EDFE2046B9
:1040100010F0EAFC044604F0A1FD204610BD0000AB
:104020002DE9F041074601F0DFFE002F08BF002414
:1040300030D001F0D9FE384610F0D6FC044604F02A
:104040008DFD002C26D0164D164B3A46E869401CD3
:10405000E861686B00EBC4000178491C0170042121
:10406000686B01EBC4011B684058002100F1080691
:104070003046984756F8081C686B00EBC100017881
:10408000022904D3E96900291CBF491EE9610178AE
:10409000491E017004F062FD2046BDE8F081000079
:1040A00094EC012074060020024A106021F0030005
:1040B0005060704754ED0120002808BF704770B56C
:1040C000044601F091FE0C4D042000EBC406696B20
:1040D0008959486810F004FA6868401C6860696B88
:1040E000686A8851696B002001F834006C62BDE891
:1040F000704004F033BD000094EC0120002808BF9C
:104100007047044AD16B0160002918BF4860D06332
:104110007047000094EC01202DE9F041064601F0C3
:1041200063FE34680027C4B101F05EFE0D4D04202B
:1041300000EBC408696B51F80810486810F0D0F91A
:104140006868401C6860696B686A41F80800686BC1
:1041500000F834706C6204F001FD3760BDE8F04196
:1041600004F0FCBC94EC01202DE9F05F0F1E8146A9
:104170004FF00005C6BFDFF868804FF0000ABDE8C9
:10418000F09F00BF09EB850601F02EFE3468F4B104
:1041900001F02AFE0420D8F8341000EBC40B51F8CB
:1041A0000B10486810F09CF9D8F80400401CC8F8BF
:1041B0000400D8F83410D8F8240041F80B00D8F8DF
:1041C000340000F834A0C8F8244004F0C7FCC6F856
:1041D00000A004F0C3FC6D1CBD42D3DBBDE8F09F22
:1041E00094EC01202DE9F041044615F031F8E01C73
:1041F000274E20F00300051D306CA84288BF0546FD
:10420000F46BBCB154F8041CA94210D19CB12068D5
:1042100000281CBF61684160606800281CBF2168DD
:104220000160F16BA14204BF2068F0632DE02468B7
:10423000002CE7D10024F168B06B00EB010858F8BE
:10424000040CA8EB0007386840B1002016F09AFA79
:1042500058F8040CA8EB00073868B0B97868A84291
:1042600013DB3844401B041D384616F05DFAF06835
:10427000401BF0607069284470617868401B1CBF67
:10428000394610F02DF944F8045C2046BDE8F08171
:1042900094EC012010B5002414F0DAFF0D490F2032
:1042A00001EBC002526C8AB101EBC000406C806827
:1042B00048B14168A14288BF0C46806800281CBFF5
:1042C00080680028F5D1A4F10C0010BD401EE7D590
:1042D000F9E7000094EC0120002140B105490422D7
:1042E00002EBC000496B08584068A0F10C01084679
:1042F0007047000094EC01200849CA69521CCA6149
:104300004A6B02EBC00213785B1C1370496B0422EA
:1043100002EBC000085808307047000094EC012000
:104320002DE9F05F0E0005464FF0000808BF474634
:1043300074D001F059FD304610F056FB074604F0EA
:104340000DFC002F18BF002D68D0364C4FF004092B
:1043500009EBC50A606B50F80A004068A0F10C0038
:10436000B042B8BF064601F03FFDE0692E4B401C4D
:10437000E061606B324600EBC7000178491C0170B8
:10438000606B09EBC701415800EBC50001F1080B58
:10439000E169491CE1610178491C0170606B1B688F
:1043A00050F80A0000F108094946584698475BF85A
:1043B000081C606B00EBC1000178022904D3E1699D
:1043C00000291CBF491EE1610178491E017059F89E
:1043D000081C606B00EBC1000178022904D3E1697D
:1043E00000291CBF491EE1610178491E017001F0DE
:1043F000FBFC606B50F80A10486810F071F86068B8
:10440000401C6060616B606A41F80A00606B00F8F4
:104410003580656204F0A2FB04F0A0FB3846BDE8DD
:10442000F09F000094EC01207806002010B501F008
:10443000DBFC002414F00CFF194B1A490F2000BFBD
:1044400001EBC002526CE2B101EBC000406C80682D
:10445000C8B14268A24288BF1446806800281CBFC9
:1044600080680028F5D1A4F10C00B0F5800F0DD9BB
:1044700083FB00204211096AA2EBE07000FB01F40B
:1044800009E0401EDCD5A4F10C00F1E7096A4843BD
:10449000A3FB0010440904F061FB204610BD00009E
:1044A0001F85EB5194EC01200A4902684B6B52F8CE
:1044B000082C03EBC2021378022B04D3CB69002B28
:1044C0001CBF5B1ECB611178491E11700021016079
:1044D0000846704794EC01200349042202EBC00017
:1044E000496B08580830704794EC01202DE9F041E1
:1044F0004FF0000682B00B465FEA000834462BD02E
:1045000032B111461846FFF72BFD060008BF012403
:104510004046FFF7F1FE0090078845686846FFF7C0
:10452000C3FFCCB9B800011D2846FFF7F9FE05000E
:1045300016D0FFF7E1FE019040F8276001A8FFF7D1
:10454000B3FF4046FFF7D8FE009045600188491C44
:1045500001806846FFF7A8FF02B02046BDE8F08161
:104560003046FFF7A9FD0124F6E70820FFF758BD04
:10457000002808BF704730B583B00546FFF7BCFE82
:1045800000904068D8B1FFF7B7FE01900098002472
:104590000088002809DD019800EB8400FFF7BCFDCE
:1045A0000098641C0088A042F5DC01A8FFF77CFF9E
:1045B0000098001DFFF7B0FD0099002008806846B4
:1045C000FFF772FF2846FFF777FD03B030BD38B51F
:1045D000002430B1FFF790FE009004886846FFF792
:1045E00063FF204638BD30B583B00D460024B8B116
:1045F000FFF782FE00900188A9420ED9406860B1A1
:10460000FFF77AFE019050F8255001A8FFF74CFF04
:10461000280002D0FFF770FE04466846FFF744FF0B
:1046200003B0204630BD00002DE9F043002483B0E4
:104630001E4690460D4600283BD0FFF75DFE0190D8
:10464000B0F80090476801A8FFF72EFF4D4530D223
:104650007FB33846FFF750FE009050F8254068467B
:10466000FFF722FF24B12046FFF736FEB04211D0FB
:104670003046FFF7D5FC04001BD03846FFF73CFE60
:1046800000EB850500902846FFF746FD68462C6044
:10469000FFF70AFFB8F1000F0BD02046FFF72CFE02
:1046A000064B029032461B684146984702A8FFF726
:1046B000FBFE03B02046BDE8F08300007806002032
:1046C00070B50C46054601F0DBFBC1B22346284617
:1046D000BDE87040002200F001B800002DE9F001B3
:1046E0002D24D3F800C0B0F1004F34D000250028AD
:1046F000A8BF4FF0000C07DA0CF101061E608CF821
:10470000004040424FF0010CA1EB0C01C9B2002A5D
:104710001CBF491EC9B200291CBF234F234E3DD0E8
:104720008C46491EC9B2944508D1D3F800C03C78E4
:104730000CF10108C3F800808CF8004056F82140C5
:1047400090FBF4FC0CF0FF0CBCF10A0F26D80CFB1C
:10475000140081B909E00CF1010601251E606FF01B
:1047600000408CF80040491ED0E7002D1CBF0CF122
:10477000010C0CF0FF0CBCF10A0F03D1491C4FF0E7
:10478000010CC9B20CF13004D3F800C000290CF1BF
:104790000108C3F800808CF80040C1D119680020DE
:1047A0000870BDE8F0017047DC01002014FD04082A
:1047B0000028D8BF70472B230A6802F1010CC1F80A
:1047C00000C01370096800220A70704770B5144663
:1047D0000D46064601F008FB204601F0B9F903003A
:1047E000164804EB840109D050F821004168806824
:1047F000711A2A1A184603F0DBF91AE000EB81045B
:10480000A268B24214BF01220022E368AB4214BF87
:10481000012300231A430CD0236943B150F821002F
:10482000816840686A1A311A184602F0FFFDC4E92F
:104830000265BDE8704004F091B9000000EF01206E
:10484000C2B2CBB2D21A48BF524292B202FB02F3BA
:10485000C0F30722C1F3072CB2EB0C0248BF52424F
:1048600092B2000CA0EB114002FB023200B2002811
:10487000BCBF404200B280B200FB00207047000085
:104880002DE9F041002182B0084601F013FA43F609
:10489000FF76374601F0A8FA042008F035FD80467F
:1048A00012484069C16C006D8D1B841B0E44074487
:1048B000ADF80050ADF80460ADF80240ADF80670F8
:1048C00068460FF079F848B13B4632462146284603
:1048D00008F0E8F80EF082FE0028F5D1404608F016
:1048E00013FD04F03BF902B0BDE8F081DC010020CB
:1048F0002DE9F04182B01C4617460D46064601F0F0
:1049000073FA042008F000FD804613484169C86C22
:10491000096D064407440D440C44ADF80060ADF841
:104920000470ADF80250ADF8064068460FF044F848
:1049300048B123463A462946304608F0B3F80EF00F
:104940004DFE0028F5D1404608F0DEFC04F006F9E3
:1049500002B0BDE8F0810000DC0100202DE9F0414B
:1049600082B0B0F90050B0F90240B0F90460B0F97B
:10497000067001F039FA042008F0C6FC804613489E
:104980004169C86C096D054406440C440F44ADF8F8
:104990000050ADF80460ADF80240ADF8067068460E
:1049A0000FF00AF848B13B4632462146284608F047
:1049B00079F80EF013FE0028F5D1404608F0A4FC6B
:1049C00004F0CCF802B0BDE8F0810000DC0100206A
:1049D0002DE9F8431C00DDE9089816460F46054608
:1049E00002D10DF005FA04460096D5F800C0434602
:1049F0004A4621462846E047061E08BFBDE8F88320
:104A00000DF0E9F98146698A30460CF074FA3046B7
:104A10000EF04DFC48460EF04AFC7F1E002FC8BF2A
:104A20004FF000080FDD00BFCDF8008055F81CCF17
:104A300000231A4649462846E04718B30EF037FCD3
:104A40007F1E002FF0DC1D2148460EF0D3F9B4F193
:104A5000FF3F14D001F0C8F90DF052FA40B100BF89
:104A6000FFF73AFD8469B44218BF5FEA0400F7D14A
:104A7000B4421CBF30460EF0D5FA04F06FF8304651
:104A8000BDE8F88330460CF0C1FE0020BDE8F88395
:104A9000022BA4BF002070472DE9F04106461C46BA
:104AA00015460F461C20FFF79DFB002808BFBDE8F8
:104AB000F081002F18BF07610BD10A4A52F8241069
:104AC00039B10A681AB111461268002AFBD1096986
:104AD000016184618582002101604160C0E90216A4
:104AE000BDE8F0811C0200202DE9F04100241D46A4
:104AF000074688461646022B27DA1C20FFF772FB72
:104B000018B3B8F1000F18BFC0F810800BD1104ACD
:104B100052F8251039B10A681AB111461268002AF4
:104B2000FBD1096901618561868204604460C0E946
:104B30000247040009D000F011F8E068006820B9CD
:104B40000448006800EB850084652046BDE8F081DC
:104B50001C020020F0010020FFF7D0BA00281CBF83
:104B60008369022BA4BF01207047234A591C92F885
:104B700000C08C45B8BF117010B4204C54F82310FD
:104B8000002908BF44F8230030D04A682AB11146F2
:104B90005268002AFBD100292BD0C268D2F800C08D
:104BA000CA681268624503DD09680029F8D120E06F
:104BB000F9B1CA681268624504BF828A012A08D125
:104BC0000A682AB11146D26812686245F8DA00E034
:104BD00079B14A68002A1DBF10604A68426044F8F3
:104BE00023004860884208BF0021016010BC0020FB
:104BF000704710BC01207047420200201C020020B8
:104C0000002808BF704770B4244D254CD0F800C070
:104C100000281CBF8669022E3ADA2A78711C8A4263
:104C2000B8BF297054F82610002908BF44F82600A0
:104C30002ED04A6822B111465268002AFBD139B3FE
:104C4000C2681268CB681B68934203DD09680029BB
:104C5000F8D11DE0E1B1CB681B68934204BF838AA1
:104C6000012B08D10B682BB11946DB681B689342F6
:104C7000F8DA00E061B14A68002A1DBF10604A6896
:104C8000426044F826004860884208BF0021016065
:104C90005FEA0C00BAD170BC7047000042020020ED
:104CA0001C0200200D4B8269002153F822C084456C
:104CB00007D1D0F800C043F822C00268002A18BF0C
:104CC00051604268002A1CBF036813600268002A12
:104CD0001CBF436853600160416070471C020020A4
:104CE0000020704702280BDA064A52F8200038B13B
:104CF000C26812688A4208BF704700680028F7D16E
:104D0000002070471C0200200228A4BF002070472A
:104D1000064951F82000002808BF7047C16809689B
:104D200000291CBF00680028F8D170471C02002031
:104D3000F8B516460F4605004FF0000414D00C20BD
:104D4000FFF76EF904000FD001F04EF82046FFF790
:104D5000D3FA06490090C0E90015078146816846EC
:104D6000FFF7A2FB03F0FAFE2046F8BDB8E90508FC
:104D7000002808BF70472DE9F8431E4617468846AD
:104D80000446FFF7B9FA0090006805686846FFF727
:104D90008BFB33463A4641462046A847BDE8F88398
:104DA000002808BF70472DE9F04F83B0054601F099
:104DB0001BF800F0D7FE3C4C80462068B0F922700A
:104DC00000F040FF82462068818CA1EB0A018184BB
:104DD0002878002818BFA8F1010946D047F6FF71CE
:104DE000284605F0FDF883460146284605F0BEF842
:104DF0002168064691F82C0000F00300012808BF46
:104E0000304605D0022812BF002006EBD6704010B5
:104E10004A8C101A4884ADF80000721E1044ADF898
:104E20000400888CADF802004844ADF806006A46DC
:104E30005946284604F004F92168BDF80200888428
:104E40005946284603F05EFD054428780A2818BF15
:104E50000D2817D0BDF80000216830444884287818
:104E600018B115F8010F0028B8D12068818C514481
:104E70008184818D21F00301818503F06FFE03B0F1
:104E8000BDE8F08F206890F82C1001F00301012993
:104E90001DBF0229018C4184478429780A29DED16B
:104EA000818C41448184DAE7F001002070B514461A
:104EB0000D46064600F098FF0548016830464D84CF
:104EC0008C84FFF76DFFBDE8704003F047BE000023
:104ED000F00100202DE9F0410D4F064615463868D7
:104EE0000C46B0F92C0040F0020002F091FE804622
:104EF00000F07AFF3868448485843046FFF750FF1D
:104F000003F02CFE4046BDE8F04102F081BE0000F7
:104F1000F00100202DE9F04182B006000D46174651
:104F200047F6FF784FF0000404BF02B0BDE8F081FF
:104F300000F05AFF65B128460EF07CF9040007D056
:104F400002462946684605F0D0F868460EF072F928
:104F500043463A462946304604F064F920460EF0AE
:104F600069F903F0FBFD02B0BDE8F081002808BF3D
:104F700070472DE9FF4F87B093460E46054600F077
:104F800033FF3468776821B238B2401A401C02906F
:104F900000F0E8FD82461BF00C0F2FD00298019024
:104FA0000A98A8464FF00009009000F01DFFDDE9C7
:104FB0000021404605F058FA8044002818BF09F146
:104FC0000109F4D103F0CAFD0BF00C00042818BF4E
:104FD000082802D00C2805D010E0381409FB1A006C
:104FE000401C09E02114C1EB274009FB1A00401CBA
:104FF00000EBD07001EB600060F31F4430460EF010
:1050000019F95FEA000909D0CDE9044702463146A3
:1050100004A805F06AF804A80EF00CF9AAF101083A
:1050200028460A9A029905F061FA039008EB244099
:1050300060F31F47CDE900472846039904F096FF27
:105040001BF0030108BF30880ED001290FD00229C0
:1050500012D1B6F90420B6F90010521A101A401CE9
:1050600000EBD07001EB6000ADF8000004E0B18807
:10507000081A401CADF800006A462846039903F060
:10508000DFFF28460A9A029905F0EEF905440AEB7B
:10509000244060F31F4428780028C1D148460EF010
:1050A000C9F803F05BFD0BB0BDE8F08F2DE9F04FC0
:1050B00089B015460E46044600F096FE364F386815
:1050C000C16C006D0E4405442088711E0844ADF883
:1050D0001860ADF81C006088691E0844ADF81E0019
:1050E000ADF81A5006A80EF067FC00281CBFDFF8C8
:1050F000ACB04FF0010A42D00020D4F80C9002F07E
:105100003BFD8046B9F1000F1BBF99F80400002851
:1051100028F0020048F0020002F02EFD206970B174
:10512000D4E902120091CDE9012ACDF80CA0D0F803
:1051300000C06388228829463046E04718E0386876
:10514000DBF800302146427CE0689847E0B1A28855
:10515000E388A168CDF800A0CDE90410CDE90232C2
:10516000CDF804A0638822882946304607F0BEFAAD
:10517000404602F001FD0EF031FA0028BCD103F0E8
:10518000EDFC09B0BDE8F08FE088012812BF0020D7
:105190003868806BDBE70000F0010020E0010020B0
:1051A00010B50A4682B00146684605F0E5F800F001
:1051B0001BFE2B48BDF800100068B0F84C201144CD
:1051C000ADF80010BDF80210B0F850201144ADF851
:1051D0000210BDF80410B0F84C201144ADF80410D2
:1051E000BDF80610B0F850000844ADF80600684657
:1051F0000EF0E2FB78B300BFBDF90040BDF904003A
:10520000A0420EDBBDF90210204607F0E1FBBDF91C
:105210000610204607F0DCFBBDF90400A41CA042E8
:10522000F0DABDF90240BDF90600A0420FDB00BF75
:10523000BDF90000214607F0CBFBBDF90400214673
:1052400007F0C6FBBDF90600A41CA042F0DA0EF080
:10525000C5F90028D0D103F081FC02B010BD0000D8
:10526000F00100202DE9FF4FA3B01C4615460E4665
:10527000074600F0B9FD70480168D1F84CC00CEB4E
:1052800007002390096D881924900CEB05002590E8
:10529000081926902398ADF868002598ADF86C00A1
:1052A0002498ADF86A002698ADF86E001AA80EF0A2
:1052B00083FB002800F0BA8025992398091A3198B9
:1052C0000391C1B23098C0B2091A1C9103994843A6
:1052D000109001EBD1700C9030983199C0F30720F9
:1052E000C1F30721091A1991039948431190309885
:1052F0003199C0F30740C1F30741091A1D91039981
:105300004843129030983199000EC0EB11611E9104
:105310000399484313902498029023980890269864
:1053200001902598DDE9304506904448049000F04E
:1053300002FC1F90AC4209D1204607F0CDFFDDE909
:105340000131069A089807F0ADFB66E0039F01263D
:10535000002F65D01C991791109A0C99089C02EBAC
:10536000610B199A1692119A02EB610A1D9A159215
:10537000129A02EB61091E9A1492139A02EB6108C9
:1053800006998C4242DC00BF9BFBF7FC9AFBF7F3CB
:10539000179999FBF7F28B441699149D8A44159935
:1053A0004CEA0323894498FBF7F1A84443EA0242FC
:1053B00042EA016508998C4214DD854208BF761CDB
:1053C00010D007F089FF012E06DDDDE90131A01BB9
:1053D000621E07F067FB04E0DDE90121049B601E0B
:1053E000984701260699641C28468C42CCDD07F0BC
:1053F00073FF0698012E0CDD811B01F1010CDDE924
:1054000001310246604607F04DFB06E007F064FFFD
:105410000698DDE90121049B98471F9807F05CFF7F
:105420000EF0DCF800287FF476AF00BF03F096FBA7
:1054300027B0BDE8F08F0000F001002041CA01084C
:105440002DE9FF4FA3B01C4615460E46074600F057
:10545000CBFC80480168D1F84CC00CEB07002390CE
:10546000086D811924910CEB05012044CDE925102C
:105470002398ADF86800ADF86C1026982499ADF823
:105480006E00ADF86A101AA80EF096FA002800F027
:10549000DB8026992498081A02903198C2B230987D
:1054A000C1B2501A1C90029848431090029800EB29
:1054B000D0700F903098C0F307213198C0F30720C7
:1054C000401A19900298484311903098C0F3074150
:1054D0003198C0F30740401A1D900298484312903B
:1054E0003098010E3198C1EB10601E90029848432D
:1054F000139023980390249807902598019026985C
:10550000DDE930450590544804900120209000F0DA
:1055100012FB1F90AC4207D1204607F0DDFE059B31
:10552000019A0799039879E0029F0125002F6ED018
:105530001C991791DDE90F1202EB610B199A169273
:10554000119A079C02EB610A1D9A1592129A02EBBE
:1055500061091E9A1492139A02EB610805998C4214
:1055600051DC00BF9BFBF7FC9AFBF7F3179999FB03
:10557000F7F28B441699149E8A4415994CEA03233A
:10558000894498FBF7F1B04443EA024242EA0166DB
:1055900007998C4216DD864208BF6D1C12D007F0B9
:1055A0009BFE2098012D23DD00281FBF611B631E79
:1055B000019A039801BF601B019B621E039907F0CB
:1055C00071FA01250599641C30468C42CADD07F04A
:1055D00083FE05982099012D23DD0029A0EB05010C
:1055E00016D00346491C019A039807F05BFA23E0A2
:1055F000019A002819BF611EDDE90303601EDDE981
:1056000003139847DDE707F067FE05980FE016E003
:1056100001F1010C02466046019B039907F042FA32
:105620000AE0002904BF019ADDE9031303D0014613
:10563000DDE90303019A98471F9807F04DFE0DF02E
:10564000CDFF00287FF455AF03F088FA27B0BDE8FE
:10565000F08F0000F00100206DC90108F0B583B0A3
:1056600015460E46074600F0BFFB114C2168C86C7A
:10567000096D064405440F44ADF80060ADF80450D0
:10568000ADF80270ADF8067068460EF095F950B1AD
:1056900020682A463946406E0368304698470DF028
:1056A0009DFF0028F4D103F059FA03B0F0BD0000CB
:1056B000F00100202DE9F04383B01C4615460E464C
:1056C000074600F091FB11480168C86C096D07445A
:1056D00005440E440C4400200EF06EF900281CBF57
:1056E0004FF000080DF104090BD0CDE900983846C1
:1056F00031462A462346FDF7DDFB0DF06FFF0028FB
:10570000F3D103B0BDE8F04303F028BAF001002064
:1057100070B582B00D46064600F066FB0F4C20685F
:10572000C16C006D0E440544ADF80460ADF8006036
:10573000ADF80650ADF8025068460EF03DF948B19C
:1057400020682946406E4268304690470DF046FF7B
:105750000028F5D103F002FA02B070BDF00100207C
:105760002DE9F04182B0984617460D46064600F0F6
:105770003BFB1E480468207E216DA0F1010CE06C0B
:105780000D4406440744A6EB0C00ADF8000007EBFF
:105790000C00ADF80400A5EB0C0001EB0804ADF81B
:1057A000020004EB0C00ADF8060068460EF004F9A8
:1057B000B8B13A462946304607F0D8F83A4621466D
:1057C000304607F0D3F8621E691C304607F038F9FE
:1057D000621E691C384607F033F90DF0FFFE002801
:1057E000E7D103F0BBF902B0BDE8F081F001002081
:1057F0002DE9F04182B0B0F90060B0F90240B0F993
:105800000450B0F9068000F0EFFA1C480168087EE9
:10581000CA6C096D571916440C4401EB0805401E6B
:10582000311AADF800103918ADF80410211A2844C7
:10583000ADF80600ADF8021068460EF0BDF8B8B13C
:105840003A462146304607F091F83A462946304616
:1058500007F08CF86A1E611C304607F0F1F86A1EEA
:10586000611C384607F0ECF80DF0B8FE0028E7D1CF
:1058700003F074F902B0BDE8F0810000F0010020EF
:1058800070B582B014460D46064600F0ADFA1048D9
:105890000068C16C006D0E4405440444ADF800601E
:1058A000ADF80460ADF80250ADF8064068460EF061
:1058B00083F840B122462946304607F0C1F80DF082
:1058C0008DFE0028F6D103F049F902B070BD00004A
:1058D000F00100202DE9F0411C4E00252C463068D7
:1058E00018B18047002818BF01240CF05DF800288B
:1058F00018BF0124164F386818B18047002818BF18
:105900000124DFF85080D8F80000002818BF804735
:10591000CCB101253068002418B18047002818BF99
:1059200001240CF041F8002818BF0124386818B190
:105930008047002818BF0124D8F80000002818BFAD
:105940008047002CE5D12846BDE8F081FC0100200D
:105950002802002024020020F0B583B01C46154622
:105960000E46074600F040FA10480168C86C096D01
:10597000074405440E440C44ADF80070ADF80450E3
:10598000ADF80260ADF8064068460EF015F848B173
:1059900023462A463146384607F084F80DF01EFEAD
:1059A0000028F5D103F0DAF803B0F0BDF0010020D3
:1059B000F0B583B0B0F90040B0F90250B0F904601E
:1059C000B0F9067000F010FA10480168C86C096D53
:1059D000044406440D440F44ADF80040ADF80460A3
:1059E000ADF80250ADF8067068460DF0E5FF48B11D
:1059F0003B4632462946204607F054F80DF0EEFDAE
:105A00000028F5D103F0AAF803B0F0BDF0010020A2
:105A1000002808BF7047B0F806C083888068BCF1D2
:105A2000080F02BF02FB0311405C704709DCBCF1A8
:105A3000010F0ED0BCF1020F17D0BCF1040F21D022
:105A400005E0BCF1100F28D0BCF1200F2BD00020B6
:105A500070475A4302EBD10201F00701805CC1F1AB
:105A60000701C84000F0010070475A4302EB910261
:105A7000805C062202EA4101C1F10601C84000F043
:105A8000030070475A4302EB510211F0010F805C92
:105A900014BF00F00F00000970475B0802FB031100
:105AA00030F8110070479B0802FB031150F82100E9
:105AB00070470000034951F82000C1688A6A082134
:105AC000104700001C02002010B500F08DF907F00F
:105AD0002FF807F0F7F9044603F040F8204610BD10
