:020000040801F1
:10000000B0D901205502010823EA010825C90108D9
:1000100021EA01080B0D0108BD20020800000000C4
:100020000000000000000000000000009D01010829
:10003000B323010800000000F1010108AD17020818
:100040006F0201086F0201086F0201086F020108C8
:100050006F0201083BF701086F0201086F020108F7
:100060006F0201086F0201086F0201086F020108A8
:100070006F0201086F0201086F0201086F02010898
:100080006F0201086F0201086F0201086F02010888
:100090006F0201086F0201086F0201086F02010878
:1000A0006F0201086F0201086F0201086F02010868
:1000B0006F0201086F0201086F0201086F02010858
:1000C0006F0201086F0201086F0201086F02010848
:1000D0006F0201086F0201086F0201086F02010838
:1000E0006F0201086F0201086F0201086F02010828
:1000F0006F0201086F0201086F0201086F02010818
:100100006F0201086F0201086F0201086F02010807
:100110006F0201086F0201086F0201086F020108F7
:10012000BD2201086F0201086F0201086F02010879
:100130006F0201086F0201086F0201086F020108D7
:100140006F0201086F0201086F0201086F020108C7
:100150006F0201086F0201086F0201086F020108B7
:100160006F0201086F0201086F0201086F020108A7
:100170006F0201086F0201086F0201080000000011
:100180006F0201086F020108DFF80CD000F014F9CB
:10019000004800472DE50208B0D901202A4B196814
:1001A0000868B0E8F04F80F30988BFF36F8F4FF015
:1001B000000080F3118870470000000006480068C6
:1001C000006880F3088862B661B6BFF34F8FBFF353
:1001D0006F8F00DF00BF00BF08ED00E0DFF80C000C
:1001E000016841F470010160704700BF88ED00E0D4
:1001F000EFF30980BFF36F8F134B1A681EF0100FD7
:1002000008BF20ED108A20E9F04F106008B44FF0CD
:10021000500080F31188BFF34F8FBFF36F8F1FF033
:1002200065F94FF0000080F3118808BC1968086870
:10023000B0E8F04F1EF0100F08BFB0EC108A80F34A
:100240000988BFF36F8F704718010020EFF3058016
:10025000704700000648804706480047FEE7FEE773
:10026000FEE7FEE7FEE7FEE7FEE7FEE7FEE7FEE766
:10027000651802088901010810B5441A0346944222
:1002800009D28418114403E011F8013D04F8013D3E
:10029000521EF9D210BD40EA0104A40703D009E0C0
:1002A00010C9121F10C3042AFAD203E011F8014B3F
:1002B00003F8014B521EF9D210BDD2B201E000F892
:1002C000012B491EFBD270470022F6E710B51346FA
:1002D0000A4604461946FFF7F0FF204610BD421CAF
:1002E00010F8011B0029FBD1801A704710B50022BD
:1002F00000E0521C835C8C5CA34201D1002BF8D13E
:10030000D8B2E1B2401A10BD30B504460020034611
:1003100000E05B1C934203D2E05CCD5C401BF8D054
:1003200030BD034611F8012B00F8012B002AF9D14A
:10033000184670472DE9F05F0546002092469B461F
:1003400088460646814640241BE0284641464746EB
:10035000224600F020F853465A46C01A914110D365
:1003600011461846224600F039F82D1A67EB0108AD
:100370004F4622460120002100F030F817EB00091B
:100380004E41201EA4F10104DFDC484631462A46D6
:100390004346BDE8F09F202A04DB203A21FA02F010
:1003A0000021704721FA02F3D040C2F120029140AF
:1003B0000843194670470000064C074D06E0E06808
:1003C00040F0010394E8070098471034AC42F6D39C
:1003D000FFF7DEFE080F0608280F0608202A04DBB8
:1003E000203A00FA02F1002070479140C2F1200348
:1003F00020FA03F319439040704770B58C1810F839
:10040000015B15F0070301D110F8013B2A1106D159
:1004100010F8012B03E010F8016B01F8016B5B1E73
:10042000F9D12B0705D40023521E0DD401F8013B4E
:10043000FAE710F8013BCB1A921C03E013F8015BBA
:1004400001F8015B521EF9D5A142D8D3002070BD3E
:1004500010B50246906B016C11F0500F05D0806B07
:10046000C16CBDE8104010460847016C41F40071B2
:10047000016401688A6812F0405F19D18269BAB9D3
:10048000CA6A12F4700F03D08A6812F4806F0FD119
:100490004A6822F020024A60016C21F480710164F4
:1004A000016C11F4805F03D1016C41F00101016422
:1004B0000AF03EFD10BD10B5806B40210164416C17
:1004C00041F0040141640AF035FD10BD10B5806BA8
:1004D0000AF02FFD10BD00004C494A6822F440325A
:1004E0004A604A6843681A434A6001684A6822F4CD
:1004F00080724A6001684A68036942EA03224A60DE
:1005000001684A6822F040724A6001684A6883685C
:100510001A434A6001688A6822F400628A600168AE
:100520008A68C3681A438A60816A6FF07062D14238
:1005300014D001688A6822F070628A6001688A6853
:10054000836A1A438A6001688A6822F040528A608E
:1005500001688A68C36A1A438A6009E001688A6888
:1005600022F070628A6001688A6822F040528A60D4
:1005700001688A6822F002028A6001688A688369D9
:1005800042EA43028A60016AC1B101684A6842F4E2
:1005900000624A6001684A6822F460424A60016869
:1005A0004A68436A4FF4604C9CFAACFC5B1EBCFA90
:1005B0008CFC03FA0CF31A434A6004E001684A68B1
:1005C00022F400624A600168CA6A22F47002CA62B8
:1005D0000168CA6A838B5B1E42EA0352CA620168E1
:1005E0008A6822F400728A6001688A68036B42EAB2
:1005F00043228A6001688A6822F480628A60016806
:100600008A68406942EA8020886070470023014080
:100610000E4810490E4A0388087822F81030401C12
:10062000C0B20870052801D3002008700021002006
:1006300032F81030194489B2401CC0B20528F7D3F3
:100640004CF6CD404843800C70470000000000206D
:10065000CAC601209B01002010B50EF0F3F80DF082
:1006600033FC054C20602068A0F5A901663901D152
:100670000CF0B8FE206810BD0C00002038B54468AE
:1006800005460146204611F06FFD002808BF38BD21
:10069000464A286811280DD006DC0B282AD00E28DF
:1006A00038D00F2817D07CE0282873D0B0F5107F01
:1006B0000AD076E09268002A08BF38BD294601B00A
:1006C0002046BDE830401047526801B02946204618
:1006D000BDE8304010472546204604F06BF90090F5
:1006E000406E0468684604F03DFA002C1CBF2846A2
:1006F000A04738BD204604F05DF90090683004F052
:1007000069F8009803216C3004F08CF8684604F016
:1007100029FA46E0E968486809680D2902D02029CD
:1007200018D037E0002835DD4FF48071204611F0F5
:10073000E6FD204604F03EF9009090F82850684607
:1007400004F010FA15F0020F1ED00121204613F01C
:10075000BDFB19E0002817DD25464FF480712046C7
:1007600011F0CDFD284604F025F9009090F82840BE
:10077000684604F0F7F914F0020F08BF38BD0121F4
:10078000284613F0A3FB38BD2046BDE838400221BF
:100790001AF029B9E86820B920464FF4807111F0A9
:1007A0008EFC2846BDE8384012F0FAB9300400202B
:1007B00070B5044688B08069B4F908C0658A00261F
:1007C0000091CDE90165CDE903C0B4F90C00B4F99D
:1007D0001050C118B4F90A00B4F90EC010442B46E9
:1007E000624600F027F86468050020D005F05AFE44
:1007F000284604F0DFF80190866E01A8009604F008
:10080000B1F9214668460AF021F970B10098B0426A
:1008100008D0284604F0CEF801900099816601A81E
:1008200004F0A0F9284613F0A1FA08F0EBFC08B098
:10083000284670BD2DE9F04F85B09846DDE911647A
:10084000DDE90E5791468A46834605F02BFE04F1FA
:100850004C001749CDE90210CDE9005743464A46FE
:100860005146584612F0E0F805001BD004F0A2F8FB
:1008700010223146049011F0D9FE0E4C0499B4E8D0
:10088000CD133431A1E8CD1394E80D10A1E80D107B
:1008900054F82C0D086004A804F064F9206841683D
:1008A0002846884708F0AEFC05B02846BDE8F08F22
:1008B0007D0601083C040020F0B5044680688C49A0
:1008C00089B051F820506068002800F00A8105289E
:1008D00006D006287DD0122800F0B48000F004B9BC
:1008E000E869002808BF002651D0D5E90012AB689E
:1008F0008DE80F0004F110010FC909F08BF90026F3
:1009000055F8260007F073FCA169E8690A1A216905
:1009100001446069304405F0FFF9A169E8690A1AE9
:1009200021690144E069801B05F0F6F9E169E86995
:100930000A1A616901442069304405F0FFFAE1694F
:10094000E8690A1A61690144A069801B05F0F6FA9A
:10095000761C022ED4DBA86807F049FCE069E9693F
:10096000D4F814C0431A206942186144801C521EF6
:1009700005F050FBE169E869A2690B1A616901445D
:10098000101A401C921E05F045FBEE6911E055F867
:10099000260007F02CFCE069831BA069821B6069BC
:1009A00081192069304405F039FA761C022EEEDBFD
:1009B0000226D5E90301CDE90001E169606901443E
:1009C0004B10A1698A1B811C2069304405F096F800
:1009D00000E011E0D5E90501CDE90001E0696169B8
:1009E000831E01440122A06902EB6101821B206980
:1009F000304405F083F877E0206803F0DBFF0490D3
:100A0000206814F096FB50B1A068002818BF0020A1
:100A10000AD10498006F002818BF012004E0049850
:100A2000406F002818BF0220049901EB8000C56EBA
:100A300004A804F097F800231A462846216804F019
:100A4000F5FC51E0206803F0B5FF0490866E002E9F
:100A500008BF04A842D0A168B0F95C70002908BFA3
:100A6000012103D003290CBF0221002100EB8101E9
:100A7000406D0C6C07F0EAFB204607F0B8FB06A8B7
:100A800005F0B2FBBDF81810A88B0144ADF81810A2
:100A9000BDF81C10081AADF81C00BDF81A00801C27
:100AA000ADF81A00BDF81E00801EADF81E000498B7
:100AB000B0F96020B0F95E1006A806F0D5FE04A8D3
:100AC00004F050F8022007F011FC304603F072FFEA
:100AD0003A4606A9059004F07BFD05A804F042F80B
:100AE00002E0206813F024FD09B00020F0BD0000F2
:100AF000A08A0508042928BF7047F0B4044A52F8B8
:100B0000211091E8FE1080E8FE10F0BC7047000054
:100B1000A08A050838B503F04DFF044600906846EA
:100B200004F020F8204638BD70B505460C46104646
:100B300000210A4604F05AFC024621462846BDE838
:100B4000704000F0C1B8002808BF704738B50C46A7
:100B5000054605F0A7FC284603F02CFF00904465ED
:100B6000684603F0FFFF284613F000F908F04AFB3F
:100B700038BD000038B50C46054605F093FC284604
:100B800003F018FF0090064984654166684603F04B
:100B9000E9FF284613F0EAF808F034FB38BD0000FE
:100BA000F0080020042928BF7047F0B4044A52F826
:100BB000211090E8FD1081E8FD10F0BC70470000A6
:100BC000A08A0508F0B583B00F4605004FF0010478
:100BD00021D005F067FC284603F0ECFE0190866EFC
:100BE00001A8009603F0BEFF3946684609F02EFFC3
:100BF00078B100980024B04208D0284603F0DAFE0D
:100C000001900099816601A803F0ACFF284613F01B
:100C1000ADF808F0F7FA03B02046F0BD002808BF91
:100C2000704738B50C46054605F03CFC284603F0F5
:100C3000C1FE0090A0F85C40684603F093FF284690
:100C400013F094F808F0DEFA38BD002808BF7047AA
:100C5000F8B515460C46064605F024FC304603F070
:100C6000A9FE0090032C3CBF00EB8400056468469D
:100C700003F078FF304613F079F808F0C3FAF8BDB6
:100C800000B589B002216846FFF734FF03200790C2
:100C90006FF07F4003900A4905910491069002216C
:100CA0006846FFF77FFF01216846FFF77BFF054895
:100CB0000590049000216846FFF774FF09B000BD5D
:100CC0004040DD008080FF00002808BF7047F8B575
:100CD00015460C46064605F0E5FB304603F06AFE75
:100CE0000090032C0BD200EB84006C3003F072FDFB
:100CF000009800EB8400C566304613F037F868466C
:100D000003F030FF08F07EFAF8BDFEE72DE9F04F62
:100D1000466804460146CDB0304611F025FA002859
:100D200004BF4DB0BDE8F08FFC4F2068DFF8F0B392
:100D30000E280FD00F2800F02D82262800F07A838D
:100D4000B0F5107F00F06181204611F029FF4DB011
:100D5000BDE8F08F304614F0ECF9002804BF4DB028
:100D6000BDE8F08F6C2225A9304611F05BFD2B9871
:100D700028B9DDE92501279A2D92CDE92B01289983
:100D80002B9888421CBF4DB0BDE8F08F2C99299854
:100D900081421CBF4DB0BDE8F08FE068416800297A
:100DA000DCBF4DB0BDE8F08FDDE92C450068DDF813
:100DB000AC80132808BFE81D17D00CDC102808BF32
:100DC000681E12D0112808BFE81F0ED0122808BFD5
:100DD000681C0AD00AE0212808BF601E03D0222820
:100DE00008BF601C02D12C9000E02D902C980C289C
:100DF00004DD0C382C9008F1010005E0012804DA2C
:100E00000C302C90A8F101002B900837B7E80F5652
:100E1000CDE9400142A880E80C5697E80F000DF597
:100E20009079283F89E80F002C98401E8BFB002109
:100E30004A10A2EBE171A1EB810100EB810040A916
:100E400051F820002C99022905BF2B9911F0030FAE
:100E50000021012108442D9981420DDD081A2D90B1
:100E60002C98401C2C900C283BDD2B98401C2B9080
:100E70002C980C382C9034E0012932DA2C98401E42
:100E80002C90012805DA2B98401E2B902C980C30C2
:100E90002C900837B7E80F56CDE9400142A880E80A
:100EA0000C5697E80F000DF5907989E80F002C9803
:100EB000401E8BFB00214A10A2EBE171A1EB8101E6
:100EC00000EB810140A850F821102C98022805BFA2
:100ED0002B9810F0030F0020012008442D9908449E
:100EE0002D904FF4B071304612F09CF907462C9AC1
:100EF0006FF003003D9900EB82002B9B0A5840A83D
:100F0000CDF80800029912F8010B01F8010B0291CB
:100F10000028F7D143B1481E202100F8011B0290A0
:100F200002A9184603F02AFF40A9384610F0DBFD5D
:100F30002C9829902B9828906C2225A9304611F0E6
:100F400087FC2998844204BF289880451CD04FF024
:100F50000000ADF80000DDE93B1001443A98ADF81F
:100F60000210C0EBC000A0F101023B98ADF80420D4
:100F7000C0EBC000A0F101000144ADF806106946C5
:100F8000304612F083FE30E02D9925A8CDE90851B6
:100F900007AA40A919F05EF9002508AC54F82530DD
:100FA00003B3DDE94001CDE90401002107985B1E90
:100FB0000A4644F8253018BF3A9B0CD0401C07283D
:100FC00018BF194418D000BF54F825C0BCF1010C5B
:100FD00044F825C0F2D104A806F046FC04A9304626
:100FE00012F054FE6D1C022DD8D30421304612F0AD
:100FF0006DFF4DB0BDE8F08FA3EB830C01EB4C010E
:10100000DDF8ECC000206244DEE7E468002C04BF99
:101010004DB0BDE8F08F207A00287DD06C2225A944
:10102000304611F0FFFBDDE92B012D9A0792CDE947
:101030000501D4E9005425A808AA694619F00AF95F
:101040003A983A9995FBF0F048433C993B9A611ADB
:10105000891A91FBF2F13C9B083701FB02311144E4
:10106000BDF900200DF5807A801A3A9A90FBF2F2D1
:10107000BDF90200081A3B9990FBF1F0C0EBC000EB
:101080001044B7E83E138AE83E1397E80E1048ADC7
:10109000401C85E80E102999491E8BFB0132531024
:1010A000A3EBE272A2EB820201EB820140AA52F8AA
:1010B0002110299A022A03BF289A12F0030F012255
:1010C000002211440128A8BF81424CDBDDE928122F
:1010D000CDE92C202B910C222BA905A8FFF714F9A0
:1010E000D8B16C2225A9304611F0B2FB2D99079892
:1010F000CDE9400125AB44AA08A9184619F0AAF881
:10110000002440AD55F8243033B3DDE90801CDE9C2
:10111000420100210A4605E035E020E0B08A0508DA
:10112000ABAAAA2A44985B1E45F8243018BF3A9B04
:101130000BD0401C072818BF19441BD055F824C0F9
:10114000BCF1010C45F824C0F3D142A806F08CFB99
:1011500042A9304612F09AFD641C022CD2D304211D
:10116000304612F0B3FE0121304612F0AFFE4DB012
:10117000BDE8F08FA3EB830C01EB4C01DDF8ECC074
:1011800000206244DAE70221304612F09FFE4DB0A3
:10119000BDE8F08F4FF000096C2225A93046CDF84C
:1011A000089011F03FFB304612F04AFA8046304674
:1011B00012F05EFA044634986FF0704A504509D038
:1011C00007F015F83C980021431EA8F101020846DB
:1011D00004F020FFADF820903C98ADF822003A983A
:1011E000CC4D401EADF82400601EADF82600002452
:1011F00025AE3F984A4601190846C5FB01208210DA
:10120000A2EBE070A0EBC000084403900228ACBF42
:101210000120002006EB8000406A504504D006F013
:10122000E6FF08A804F022FF002208A83A9906F079
:101230001BFB641C072CDCDBADF820903C98ADF860
:1012400022003A99491EADF824103B990844401EEB
:10125000ADF82600389806F0F9FF022007F046F8AE
:10126000369806F0C4FF00243F98494602191046FC
:10127000C5FB02108110A1EBE070A0EBC000104490
:101280003E9903900E2251F8200008A904F0A0F91D
:10129000002208A83A9906F0E7FA641C072CE3DB61
:1012A000BDF92600A8F10302022104F035FD03AACE
:1012B00008A925A818F0CEFF3F99002940F31E8108
:1012C00011F0010F05D003980628B4BF401C002080
:1012D000039048100CD003990629B4BF491C002183
:1012E00003910629B4BF491C00210391401EF2D18D
:1012F00008370DF5807EB7E83F118EE83F1197E87B
:101300000F0048AC84E80F002998401E8BFB002199
:101310004A10A2EBE171A1EB810100EB810040A931
:1013200051F820002999022905BF289911F0030FCF
:101330000021012100EB01054FF00004002DCEBF7C
:10134000DFF8D4814DB0BDE8F08F00BF04F131006B
:101350008DF8080014E0092CF8DB601C88FB0010F5
:101360008110A1EBE07000F130018DF808104042CF
:10137000611C00EB800001EB400030308DF809006B
:101380002B992898814241D12C99299881423DD1AD
:101390002D98611C884239D13098504504D006F010
:1013A00026FF08A804F062FE339F25992898814201
:1013B0000DD129992698884209D12799601C81422C
:1013C00005D1379806F013FF08A804F06FFD3846E2
:1013D00006F00DFF0E2208A902A804F0F9F8039800
:1013E000401C0390072808BFCDF80C903F99039844
:1013F000814214D1002108A83B9A06F035FAADF8D5
:1014000020903A98401EADF824000DE00398022881
:10141000ACBF0120002006EB8000076BC5E700226F
:1014200008A83A9906F020FA641CAC4293DB4DB050
:10143000BDE8F08FA06811F088FFE168B0F5B87FD3
:1014400015D0A0F58070713807BF022901244DB076
:10145000BDE8F08F4FF06C020AA9304611F0E2F9B6
:101460000E9800190E900AD00D280DD011E0022917
:101470000EBF4FF0FF344DB0BDE8F08FEAE70D9896
:10148000401E0D900C2003E00D98401C0D90012093
:101490000E904FF4B071304611F0C4FE04460E9A1F
:1014A0006FF00300229900EB82000B5825A90D98DC
:1014B000CDF80010009A13F8011B02F8011B0092EE
:1014C0000029F7D138B1511E202201F8012B0091DB
:1014D000694603F053FC25A9204610F004FB6C225A
:1014E0000AA9304611F0B4F9304612F03FFC0A2147
:1014F000304612F0EBFC4DB0BDE8F08F00293FF410
:10150000F7AE03980628B4BF401C00200390491E84
:10151000F7D1EDE693244992676666662DE9FF4FA1
:10152000C9B00E46DDE95749DDE959879A461546A7
:1015300070211EA8DDF858B1FEF7C6FE6C2103A885
:10154000FEF7C2FEABF101000C2880F0E280AAF2A7
:101550002E6042F2E201884280F0DB8044226F4933
:101560000CA8FEF789FE6E4B00211A460846E4FBE4
:101570000320C008A0EB40102044CDE903ABCDE927
:10158000050A0120CDE907B06648059BCDF824A0E7
:10159000CDE91D90CDE90AB318981A9BC0EBC002A3
:1015A0001998ADF88260C0EBC0001844ADF888000F
:1015B0006C202490ADF88A704FF4B870ADF89C00A0
:1015C0000320ADF89E001A98574B0A38ADF880807A
:1015D00025932C93ADF8A40040F27113ADF884501C
:1015E000ADF8B830ADF886201A9B4FF0050CD21A32
:1015F000D21DADF8BA204D4B3393ADF8C0004FF477
:10160000B073ADF8D430C31CADF8A0C0ADF8A200E3
:10161000D21AADF8DC00ADF8BCC0ADF8D8C0ADF85A
:10162000BE00ADF8D630ADF8DA2000910191404A05
:1016300004211EA8499B03F029FD050069D06FF025
:10164000704111F0F2F83B49284612F0FFFD4FF4CB
:10165000B871284611F0E6FD0446002110F077FE2F
:1016600035492046FFF786FA40F27111284611F0FD
:10167000D9FD0446002110F06AFE2F492046FFF7ED
:1016800079FA4FF4B071284611F0CCFD04462B498D
:1016900012F0DCFD0E21204610F051FA204613997D
:1016A00010F064FA2046179910F004FA204611F061
:1016B0006BF92046129910F0DBF907996FF00302DD
:1016C0001B9802EB81013AAA41580698CDF80020F8
:1016D000009B11F8012B03F8012B0093002AF7D18E
:1016E00038B1591E202201F8012B0091694603F000
:1016F00045FB3AA9204610F0F6F9284612F01AFEEA
:101700006C2203A9284611F0A3F84DB02846BDE885
:10171000F08F4DB00020BDE8F08F0000780500206C
:10172000218410429D270208B10701088719020889
:101730000D0D0108C1DF0208ED8E020885C3020805
:1017400030B59BB00C46054604F0ACFE6C226946F1
:10175000284611F067F8DDE90601089AA260C4E99D
:10176000000107F04FFD1BB030BD30B59BB00C46FB
:10177000054604F097FE6C226946284611F052F89F
:10178000D4E90012A368CDE9001202936C226946E5
:10179000284611F05DF8284612F0E8FA07F032FD0D
:1017A0001BB030BD022828BF7047024A02EB800000
:1017B0008162704778050020064A002804BF9163C3
:1017C0007047012804BF11637047022808BF5163A6
:1017D00070470000780500202DE9F0474468054671
:1017E000014682B0204610F0BFFC002804BF02B0C2
:1017F000BDE8F08728680B287DD00E2805D00F287B
:101800003ED0B0F5107F4CD0ADE0204603F0D2F8CA
:10181000019090F8746090F8757001A803F0A2F937
:10182000204613F086FC002854D0E868416800295F
:1018300050DD006820284DD1781CB0FBF6F106FB86
:101840001106002C46D004F02DFE204603F0B2F81D
:10185000009090F87410B1420CD980F87560684619
:1018600003F080F9204612F081FA0521204612F09B
:101870002DFB02E0684603F075F907F0C3FC72E047
:101880002546204603F096F80090006F04686846ED
:1018900003F068F9002C1CBF2846A04702B0BDE841
:1018A000F0874FF00009204603F084F8019090F88B
:1018B000748090F87570B0F930A001A803F052F967
:1018C000EE68BEB3204612F021F920B14946204609
:1018D00012F0FCFA47E0307A68B30121204612F09A
:1018E000CDFC781CB0FBF8F108FB1106ECB104F05C
:1018F000D9FD204600E02CE003F05CF8009090F861
:101900007410B1420CD980F87560684603F02AF96A
:10191000204612F02BFA0521204612F0D7FA02E0F9
:10192000684603F01FF907F06DFC0121204612F014
:10193000CDFA18E008E0FFE70221204612F0C6FACF
:10194000504606F0EBFC0EE00321204612F0BEFAF2
:1019500009E0204603F02EF80090783002F03AFFBC
:10196000684603F0FFF802B02846BDE8F04711F0E2
:1019700017B970B586B0B0F90840458AD0F818C0DC
:101980000026CDE90254CDE90016CDF810C0B0F91B
:101990000C10B0F91040B0F90EC0B0F90A001944AB
:1019A00010442346624600F003F806B070BD000004
:1019B0002DE9FF4F85B01D46DDE912A7DDE9158948
:1019C00016468B4604F06EFD264C0EB135B10AE08A
:1019D0002068806800688047064625B920688068CE
:1019E00000688047054620486FF07041C068884213
:1019F00008BF47F0010709F154011C48CDE900A7D1
:101A0000CDE902012B4632465946059811F00CF8F3
:101A1000050021D002F0CEFF10224146049010F0C4
:101A200005FE241D0499B4E8CD133431A1E8CD138B
:101A300094E8CD11A1E8CD1154F8240D41F87009B6
:101A4000022081F874000F20C86704A803F08AF808
:101A5000206841682846884707F0D4FB09B028462B
:101A6000BDE8F08FBC050020C0050020D917010893
:101A70002DE9F04F0446006889B028B113F059FBF6
:101A8000002808BF012500D00025FE4850F8256039
:101A900060680A2800F0738108DC002800F0DD810E
:101AA000062841D007280CD000F0E8B9122800F031
:101AB0003081192802BFB06909B0BDE8F08F00F08D
:101AC000DDB9256804F0EEFC284602F073FF0090B3
:101AD000C76F684603F046F807F094FB5FF0000517
:101AE00056F8250006F083FB2069C119491B4B1EDF
:101AF00061691A462944284404F090F96D1C032DAD
:101B0000EED3D6E90301CDE90001D4F810C00CEB07
:101B10000700401B431E60691A4641190CEB050083
:101B200003F0ECFF00F0AAB9A068401E06902468FC
:101B300004F0B8FC204602F03DFF0090D0F87C8015
:101B4000684603F00FF807F05DFBDFF83C9359F8A7
:101B50002570002F1CBF069800EB80000DD000BF41
:101B6000B7F84810414505D107EB8001896809B1F4
:101B70001FB1C4E0FF6C002FF2D1502002F090FEA4
:101B8000070000F07B81C14C502200212368984758
:101B900070697864A7F8488059F82500F864BC4853
:101BA000A8F1060880FB081049F825704110A1EB48
:101BB000E071032008900120049007F14000CDE976
:101BC0000280069D05EB850007EB8000019005EB88
:101BD000450007EB80002830009008EBD8704210D9
:101BE000401000EBD073A0EB63004618501A05902C
:101BF00008F10700C11700EB51704FEAE00A0AFB39
:101C000008FB584602F04CFE5FEA000977D02368D3
:101C10005A4600219847DDE90420012826DD089B6B
:101C200001213046334483421BDD4FEAE27C02EB64
:101C30005C7E02F0070C802424FA0CFC404509DA93
:101C40000AFB00F404EBEE0419F804B04BEA0C0BA9
:101C500009F804B06940401C834202DD0029F9D034
:101C6000ECE70598521C761C9042D8DC0499029847
:101C7000401A0490904225DD0899012034463144F1
:101C8000A1421ADDD31702EB537E02F0070C80232A
:101C900023FA0CF3444509DA0AFB04FC0CEBEE0CC6
:101CA00019F80CB04BEA030B09F80CB06840641C3F
:101CB000A14202DD0028F9D0ECE70498521C761E00
:101CC0009042D9DC0098022101600099012008713E
:101CD000009A039991600199C88001980021A0F8A9
:101CE00004A00198C0F8089001980161DDE90001A5
:101CF000C860DDE9010101800198A0F80280069822
:101D0000032200EB800007EB8000114603F02CFD5E
:101D1000B4E0206802F04EFE0290B0F9547090F8E2
:101D20005650D0F84490D0F8348002A802F01AFF40
:101D3000266804F0B7FB304602F03CFE0390B0F892
:101D40007C6003A802F00EFF07F05CFA684611F011
:101D50001FFABDF8000071190844ADF80000246AAC
:101D6000404606F073FA022006F0C0FA484606F034
:101D70003EFA3A466946204603F02AFC7EE0206897
:101D800002F018FE0290B0F9548090F85660D0F836
:101D90003490876C02A802F0E5FE256804F082FB0F
:101DA000284602F007FE0390B0F87C5003A802F02A
:101DB000D9FE07F027FA684611F0EAF9BDF80000ED
:101DC000A9190844ADF80000206A04F08DFA044611
:101DD000484604F0B7FA28F00301042904BFBDF80F
:101DE0000610091A08D00C2908D1BDF90610091AE5
:101DF000491C01EBD1714910ADF8021028F00C011B
:101E000001290CD0022913D1BDF90410BDF900201D
:101E1000891A091B01EBD17102EB610106E0BDF8E3
:101E20000420BDF80010521A121B1144ADF8001026
:101E3000BDF80010621E1144ADF80410BDF8021088
:101E4000401E0844ADF80600384606F0D0F94FF0C1
:101E5000FF31684603F002FD10E0206812F068FBD5
:101E6000206802F0A7FD0790B0F90610B0F9022033
:101E7000891A491CC16707A802F074FE09B0002046
:101E8000BDE8F08F1C010608400900202008002052
:101E90006766666638B505004FF000040CD004F0A4
:101EA00001FB284602F086FD009090F875406846D8
:101EB00002F058FE07F0A6F9204638BD002808BFFA
:101EC000704738B50C46054604F0ECFA284602F097
:101ED00071FD0090416BA14203D04463284611F08C
:101EE00045FF684602F03EFE07F08CF938BD002839
:101EF00008BF704738B50C46054604F0D3FA2846AB
:101F000002F058FD009090F87410A1420CD980F8AE
:101F10007540684602F026FE284611F027FF05218D
:101F2000284611F0D3FF02E0684602F01BFE07F0DE
:101F300069F938BD002814BF0029704770B582B018
:101F40000D46044604F0AEFA204602F033FD01903F
:101F5000866F01A8009602F005FE2946684608F043
:101F600075FD70B10098B04208D0204602F022FD05
:101F700001900099816701A802F0F4FD204611F05C
:101F8000F5FE07F03FF902B070BD000000B589B062
:101F90000020009002900390049005900690079016
:101FA00008901920019004480068806841686846DC
:101FB000884709B000BD0000BC05002002464FF470
:101FC0008051014809F07FBC001C024000B583B07D
:101FD00011F012F90021009103460191034A0721F3
:101FE000034803F053F803B000BD00008DD9020888
:101FF0008412030810B502200DF095F80122114655
:10200000034809F060FC03490120C87010BD0000BE
:1020100000000240C0C6012010B500200DF083F87A
:1020200000220121034809F04EFC03490020C8703A
:1020300010BD000000000240C0C601202DE9F0479D
:10204000DFF8EC814FF0020998F80400002823D053
:10205000784E0127DFF8E0A1F2790024A6F10C0503
:10206000012826D002286BD1A5F12408DFF8CC91F5
:10207000D8F81400824205D3B470002201214846EA
:1020800009F021FCD8F81410F079891E884277D223
:10209000B079002876D078E00FF072FB0FF016FBD5
:1020A00088F804900DF098FBBDE8F047002000F0A0
:1020B00041BF98F80310012914D0022930D0032918
:1020C00040D004293CD101220821504609F0FBFBF5
:1020D0003179002934D05046BDE8F047002208216C
:1020E00009F0F1BB322A2BD2307938B177705046E3
:1020F000BDE8F0470122082109F0E5BB47F2305066
:10210000286088F8039000220821504609F0DBFB84
:1021100037705046BDE8F0470122102109F0D3BBCB
:10212000286800280CD1347000221021504609F094
:10213000CAFB98F80300401C88F803004048686018
:10214000BDE8F0873F496868B0FBF1F201FB12007F
:102150008910884205D901220821504609F0B3FBB5
:1021600004E000220821504609F0ADFB6868002811
:10217000E6D198F80300401C88F80300BDE8F0871A
:1021800009E0FFE73079012813D0002201214846F9
:1021900009F099FBB470307990B17079C0B1002228
:1021A0001021504609F08FFB3470B079012817D008
:1021B0001CE001221146484609F085FBB770EAE7AA
:1021C0006C6001221021504609F07DFB3770ECE76E
:1021D0006C6001221021504609F075FB3770E4E76E
:1021E00000221021504609F06EFB3470A86828B90F
:1021F0007078012802D174700CF02CFC707838B122
:1022000000220121504609F05EFB6C60BDE8F087BA
:102210000D496868884201D9FFF7ECFE0B496868F0
:102220008842F3D96C60BDE8F047FFF7F5BE0000C7
:102230008C010020C0C601200000024000040240C2
:1022400080EE3600804F1200C0D40100D0FB0100A8
:1022500000B583B010F0D0FF00210091034601913A
:10226000034A0321034802F011FF03B000BD000040
:1022700015D20208FC10030810B582B00DF094FAD4
:102280000CF039FF10F0B8FF0021009103460191D6
:10229000084A0B21084802F0F9FE04460023642294
:1022A0001946204610F090FB06F03CFE02B0204696
:1022B00010BD00003DD4020850110308014808F089
:1022C0004DBF0000E40B002001680A4BCAB2103A6F
:1022D000A3FB02321209084B9B5CC365032A04D995
:1022E0006FF30901091D816502E06FF30901816542
:1022F000806D7047ABAAAAAAB0FF02080146002071
:102300008A6A8B69002B0FD0B3F5005F1DD08AB3AA
:10231000012A30D0022A2ED0032A04D1C96A11F032
:10232000807F00D0012070471AB1012A07D0022A0D
:10233000F9D1C96A11F0807FF5D001207047C96AD0
:10234000B1F1C07FFAD1012070475AB1012A0BD0F8
:10235000022A07D0032AF7D1C96AB1F1C07FF3D1AD
:102360000120704701207047C96A11F0807FFAD0C0
:1023700001207047FFE70120704710B4D0F800C07B
:10238000DCF8004024F48024CCF80040D0F800C0F1
:10239000CCF804308368402B05D00368996000684E
:1023A000C26010BC704703689A600068C16010BCCE
:1023B0007047704738B50A4C0AA063782278A17834
:1023C0001AF03EF9E0790090A379627921790CA0A6
:1023D0001AF036F9BDE8384010A01AF031B9000003
:1023E000C0C60120BCD3C8C8256409BDF8CBAEB7B0
:1023F000A7256409B3F6CBAEB7A725640D0A000084
:10240000B5CD256409B8DF256409B1A8BEAF256440
:1024100009CEC2B6C825640D0A0000002D2D2D2D51
:102420002D2D2D2D2D2D2D2D2D2D2D2D2D2D2D2DDC
:102430002D2D2D2D2D2D2D2D2D2D2D2D2D2D2D2DCC
:102440002D2D2D2D2D2D2D2D2D2D2D2D2D2D2D0DDC
:102450000A0D0A0000B583B010F0CEFE00210091F5
:1024600003460191034A0621034802F00FFE03B020
:1024700000BD000049C70208940E030810B50120F2
:102480000BF04CF80020FFF799FD00200FF0F4FD51
:102490000A201BF0D3FF00200BF040F80349087816
:1024A000002801D0401E087010BD00009A010020D5
:1024B000002808BF70472DE9F04F91B00F46044641
:1024C00003F0F0FF204602F075FA039090F854A054
:1024D000D0F83490866DC56C03A802F043FB26B19A
:1024E00039462046B04700F0ABB900264FF001084E
:1024F000122F7DD006DC082F7BD0102F7AD0112F21
:102500003CD006E0132F5BD01D2F00F0E4801E2F7F
:1025100071D0202FC0F29481BAF1000F00F0F28048
:10252000204602F047FA0590D0F834A0D0F84C903D
:1025300005A802F017FBBAF1000F00F0E380504647
:1025400002F038FA82464946069006F02FFD814691
:102550005046FDF7C4FE48457DD9D144484606F0B3
:10256000D1FC09EB00014846FDF7DBFE06A802F0AE
:10257000F9FA0521204611F0A9FCC3E0B9F1000FDA
:1025800000F05E81484602F015FA0746294604909D
:1025900006F00CFD0744384606F0A4FC05460296FA
:1025A00006F0CEFC8046681C86B2304606F0C8FCB9
:1025B0000546A84526D004A802F0D4FA00F040B998
:1025C000B9F1000F00F03C81484602F0F3F90746EC
:1025D0002946049006F0EAFC0744384606F082FCDF
:1025E0000546029606F0ACFC8046681E86B203E003
:1025F00016E021E01AE043E0304606F0A1FC054673
:10260000A845D8D1314602A806F05AFC2A4602A9AC
:102610003846FDF731FE0521204611F057FCCAE788
:10262000691C204600F052FC00F00AB9691E2046E1
:1026300000F04CFC00F004B9002D00F00181691E8F
:10264000204600F043FC204602F0B4F90190C76C2C
:10265000456B01A800E052E002F084FA002D00F082
:10266000EF80284602F0A6F906463946029006F0A9
:102670009DFC05463046FDF732FEA84229D918E0F8
:10268000204602F097F90190C76C456B01A802F053
:1026900069FA002D7ED0284602F08CF906463946AC
:1026A000029006F083FC05463046FDF718FEA8426E
:1026B0000FD93544284606F025FC29182846FDF791
:1026C00030FE02A802F04EFA0521204611F0FEFB72
:1026D000B6E002A810E0204602F06CF90390BAF1CF
:1026E000010F08BF80F8546005D080F85480294657
:1026F000204600F0EBFB03A802F034FAA0E006A8A5
:1027000002F030FA1FFA87FB204602F053F9074621
:102710000290B0F93800002812DD786B4FF0000904
:1027200040B102F047F9009007F0D0FF81466846BB
:1027300002F018FAB7F9381009F10100884200DCFC
:1027400046460298C06C079002A802F00BFA002ED1
:1027500076D0584606F0F4FB074626464FF00008B0
:10276000204602F027F90B90406B40B102F022F9AD
:102770000890FDF7B4FD804608A802F0F3F90B9924
:1027800007EB0800498F401A00F101080BA802F07E
:10279000E9F900E054E0B8F1000F2CDD304608F113
:1027A000100802F007F90090D0F834A0408F804460
:1027B000684602F0D7F94146504602F00FF95FEA49
:1027C00000093DD0BAF1000F0AD102F0F3F8204B16
:1027D0000D9042461B68002198470DA802F0C2F9EF
:1027E000304602F0E7F80090A0F83A80C0F8349044
:1027F000684602F0B7F9204602F0DCF80290466B1A
:1028000002A802F0AFF9304602F0D4F806460F9065
:10281000079906F0CBFB06443046FDF760FD421CED
:10282000F0193146FDF728FD5946304606F048FBC1
:102830000FA802F097F90521204611F047FBEFE6BB
:10284000204611F093FA06F0DDFC11B0BDE8F08FE0
:102850002008002070B54568044682B0284612F072
:1028600068FC0646214628460FF07EFC002804BF7F
:1028700002B070BD20680F2844D004DC0B2847D07C
:102880000E2850D066E0A0F58070133804D0A0F573
:1028900080702D381FD05DE0284611F067FC284677
:1028A00002F088F8009090F8561081F0040180F84A
:1028B0005610684602F056F90021284618F072FAC0
:1028C000284602F077F80090D0F88400002111F03B
:1028D000E4FB684624E0E06878B1017A41B1016820
:1028E000284600F022F90121284611F0EFFA31E0E4
:1028F0000221284611F0EAFA2CE00321284611F0C3
:10290000E5FA27E00121284618F04CFA02B070BD24
:10291000284602F04FF80190343001F05BFF01A827
:1029200002F020F916E0AEB1E0684168002911DD3F
:1029300001681B290ED009DC09291CBF0A290D29B1
:1029400008D02846FFF7B4FD02B070BD212918BF9A
:102950002229F6D1204610F023F902B070BD2DE9EE
:10296000F04186B00DF1300898E8F0104FF0000803
:10297000CDF814808DE8F01000F004F806B0BDE842
:10298000F08100002DE9FF4F85B09846DDE916542F
:10299000DDE9126B91468A46159F03F083FD04F131
:1029A0006001324A03914BF480500096CDE9010258
:1029B00043464A465146059810F036F804004FD079
:1029C00001F0F8FF1022394604900FF02FFE28483E
:1029D000049990E8CC1701F1600B8BE8CC17006AE2
:1029E000C1F88000012081F85500681C18BF012043
:1029F00081F88800002DD8BF08252AB20A87002058
:102A000048874863551C04A802F0ACF8204601F042
:102A1000D1FF0090476B408F0544684602F0A2F852
:102A20002946384601F0DAFF060015D057B901F003
:102A3000C1FF104B01902A461B680021984701A84E
:102A400002F090F8204601F0B5FF009045874663FC
:102A5000684602F087F803E0204610F0DBF8002417
:102A600006F0D0FB09B02046BDE8F08F55280108DC
:102A700048090020200800200148806870470000B5
:102A80004809002038B5040008BF38BD03F00AFD2E
:102A9000204601F08FFF0090846E684602F062F8D5
:102AA00006F0B0FB204638BD38B505004FF00004F5
:102AB0000BD003F0F7FC284601F07CFF0090846CFB
:102AC000684602F04FF806F09DFB204638BD00280E
:102AD00008BF7047F8B516460C46054603F0E2FC01
:102AE000284601F067FF0090002818BF032C05D28C
:102AF00000EB84008667284611F038F9684602F03A
:102B000031F806F07FFBF8BD70B50D46044603F0C2
:102B1000C9FC34B12946204600F0D8F9204611F00E
:102B200025F9BDE8704006F06DBB002808BF70476E
:102B30002DE9F04186B00C46074603F0B3FC384659
:102B400001F038FF0090406B002849D001F032FFBF
:102B500003900098806E05F079FB8046384610F0AF
:102B60006FFD0646039803F0BFFB0546009890F8FA
:102B7000601001F00301012918D002290FD0416E25
:102B8000C06A00680844201A441E039807F09EFD9E
:102B9000002C11DA0021384600F098F917E0701B7C
:102BA000401C00EBD070A4EB6004EEE7406E711B9C
:102BB000081A201A441CE8E7A54204DB0246214615
:102BC000039807F017FD0146384600F07FF903A887
:102BD00001F0C8FF404605F039FB384611F0C6F851
:102BE000684601F0BFFF06F00DFB06B0BDE8F081BE
:102BF0002DE9F8431D46DDE90867144689468046FD
:102C000003F050FCB8F1000F75D0404601F0D2FE41
:102C10003B49009081653B49C1650021C0E91291A3
:102C2000C0E90F4580F8446080F85670012180F8B3
:102C3000541090F88890684601F094FFB9F1000FA5
:102C400040D0002DA7BF01210B460221CB1EB8BFEB
:102C50006D422D4A0A2D08DB82FB05C04FEAA00C0D
:102C6000ACEBE075491C0A2DF6DAB3F1FF3F02BF69
:102C70004B1EB342491C002CBDBF02204FF0FF3C4D
:102C800064420120A8BF84460A2C07DB82FB044370
:102C90009C10A4EBE374401C0A2CF7DABCF1FF3F54
:102CA00002BF431EB342401C002E1CBF401C491CE7
:102CB00017F0010F18BF491C8142D8BF014640469A
:102CC00000F03CF8404619F079FB404601F072FEF6
:102CD000009000F0E5F80D490978884205D1009888
:102CE000C06C411C404600F0F1F8684601F03AFF24
:102CF000404611F03BF806F085FABDE8F883000085
:102D0000A5590208BDC30208676666663003002045
:102D1000002808BF704738B50C46054603F0C2FBD3
:102D2000284601F047FE00908466284611F01EF800
:102D3000684601F017FF06F065FA38BD002808BFA5
:102D400070472DE9F04184B00C46064603F0AAFB1B
:102D5000304601F02FFE0090B0F93810458FA142A7
:102D600048D012DD406B80B101F024FE019007F0E5
:102D7000ADFCA04206DD2146019806F017F9019A44
:102D80000021115401A801F0EDFE684601F0EAFEB1
:102D9000601B451C304601F00DFE0290D0F83480D7
:102DA000408F054402A801F0DDFE2946404601F0AF
:102DB00015FE070016D0B8F1000F0AD101F0FAFD98
:102DC000104B03902A461B680021984703A801F086
:102DD000C9FE304601F0EEFD02904587476302A828
:102DE00001F0C0FE304601F0E5FD0090048730465A
:102DF00010F0BCFF684601F0B5FE06F003FA04B01F
:102E0000BDE8F08120080020002808BF7047F8B511
:102E100016460C46054603F045FB284601F0CAFD60
:102E20000090002818BF032C05D200EB8400C66672
:102E3000284610F09BFF684601F094FE06F0E2F988
:102E4000F8BD38B505000C4608BF38BD03F02AFBB5
:102E5000284601F0AFFD0090C16BA1421CDC016C63
:102E6000A1421BDB816CA14210D08464C16D00299A
:102E70001CBF28468847284610F078FF684601F0B6
:102E800071FE0521284611F021F802E0684601F0A4
:102E900069FE06F0B7F938BD0C46E0E70C46E1E7FD
:102EA00038B50546406B002468B101F083FD009001
:102EB0000446E96C06F07AF8204406F013F804465C
:102EC000684601F04FFE204638BD000010B582B0C4
:102ED0000C4601F06FFD0090406BE8B101F06AFD17
:102EE000019007F0F3FB009991F85420002A18BFD5
:102EF0000122002C15DB844215DC00BFB1F938003B
:102F0000801AA04211DBC86CA04218BFCC6400201C
:102F1000086501A801F026FE684601F023FE02B014
:102F200010BD0024E7E70446E8E7B1F93800841A49
:102F3000E9E7000002464021014808F0C4BC000057
:102F400000000240064A136823F4407313601368BC
:102F50001360136843F001031360017070470000B1
:102F6000103C02400A49D1F800C02CF4407CC1F862
:102F700000C0D1F800C04CF4407CC1F800C0D1F8CA
:102F800000C04CF0010CC1F800C002604360704703
:102F9000103C0240074A136823F44073136013681F
:102FA00043F480731360136843F0010313600180DE
:102FB00070470000103C0240074A136823F4407336
:102FC0001360136843F400731360136843F0010344
:102FD0001360016070470000103C02401A49086805
:102FE00010F0100F194805D0C26942F01002C261FA
:102FF00010220A600A6812F0200F05D0C26942F060
:103000000802C26120220A600A6812F0400F05D04F
:10301000C26942F00402C26140220A600A6812F0EA
:10302000800F05D0C26942F00202C26180220A60AC
:103030000A6812F0020F05D0C26942F02002C26194
:1030400002200860704700000C3C0240440C002045
:1030500070B5044614490020C86108F03BFC0646E0
:10306000124D286810F4803F0ED0B4F1FF3F07D016
:1030700024B108F02FFC801BA04201D9032070BDB1
:10308000286810F4803FF0D1286810F0010F01D0BB
:1030900001202860286810F0F20F03D0FFF79EFF90
:1030A000012070BD002070BD440C00200C3C02408B
:1030B00030B4B3F5804F06D06FF0704140F8221065
:1030C00030BC0020704750F82230DFF82CC003EAF3
:1030D0000C03D1F800C04C688D894CEA041C8C6844
:1030E0008969240244EA05444CEA040C4CEA0101D3
:1030F000194340F82210E3E70000F0CF70B40B68EA
:1031000050F82320DFF84CC002EA0C0C4C688A68A7
:103110000E69CD68144335432C434D692C438D69AA
:103120002C43CD692C430D6A2C434D6A2C438D6A88
:103130002C43CD6A2C43CD6B096B2C43214341EAD0
:103140000C01082A01D141F0400140F8231070BC65
:10315000002070478000F0FF30B4521C50F822303D
:1031600003F04043D1F800C04C688D894CEA041C40
:103170008C68240244EA05444CEA040C0C8A641E60
:103180004CEA045C0C7D8969A41E4CEA046C4CEA90
:103190000101194340F82210002030BC70470000A4
:1031A00070B506460024064D314655F83400FDF74B
:1031B0009DF818B1601CC4B21B2CF5D3204670BD1D
:1031C000300000200549C888401C80B2C8801428FF
:1031D00003D30020C880FEF731BF70478C01002068
:1031E0002DE9F84F0F46DDF828900646941BA3EB17
:1031F0000708D9F800504FF0000A54EA080063D0DD
:10320000002CD4BF60422046B8F1000FCCBF41462D
:10321000C8F1000188420ADA20464446804630461A
:103220003E46074610461A4603464FF0010A002C58
:10323000CCBF20466042A04208BF012008D03046E3
:10324000164602466442C8F100081F464FF0FF30A0
:103250000090C448C449B8F1000FD0F800C01CBFAA
:1032600004EBD4724FEA620BB8BFCBF1000B30D045
:103270009CF81A20002A00F0FA80009A002ABCBFAD
:103280002A19C9F800200025002CC0F2458100BF92
:1032900008FB05B090FBF4F0C219D9F800100098B3
:1032A0000844B049C9F8000009688B7E012B00F082
:1032B0000081022B00F00781032B00F00D81042B0D
:1032C00000F03A8100F019B93046BDE8F84F00F03F
:1032D0008DBABAF1000F62D09CF81AC0BCF1000F91
:1032E00014D04FF00008002CA4BF8A46834640DB70
:1032F000DBF8001028466D1C8A7E012A0CD0022AB9
:1033000014D0032A1BD0042A35D027E03146384692
:10331000BDE8F84F0AF010BB801DC21700EB127217
:1033200022F00F02801A0C281FDB17E0C21700EBF7
:10333000927222F00302801A022816DB0EE08AFB4A
:103340000032D310A3EBE272524202EB820200EB96
:1033500082000C2809DB1038022806D3496E06EBE0
:1033600008004A6801463846904708F10108A04520
:10337000BEDD681EDCE07D4A82FB00329310A3EBC9
:10338000E272A2EB820200EBC2000C28EDDBA0F19E
:103390001002022A24BF14380228E6D3DEE79CF884
:1033A0001A80B8F1000F14D04FF00008002CA4BF11
:1033B0008A46834642DBDBF8001028466D1C8A7E75
:1033C000012A0FD0022A17D0032A1ED0042A3AD08D
:1033D0002AE0DCF864003946036801B03046BDE8F5
:1033E000F04F1847801DC21700EB127222F00F0237
:1033F000801A0C281EDB17E0C21700EB927222F035
:103400000302801A022815DB0EE08AFB0032D3107B
:10341000A3EBE272524202EB820200EB82000C2824
:1034200008DB1038022805D3496E06EB08004A680D
:103430003946904708F10108A045BCDD681EC9F86F
:103440000000BDE8F88F494A82FB00329310A3EBDD
:10345000E272A2EB820200EBC2000C28EADBA0F1D0
:103460001002022A24BF14380228E3D3DCE7002527
:10347000002CACBF8146BDE8F88F00BF08FB05B04B
:1034800090FBF4F03844BAF1000F0AD0D9F80020CC
:103490007119526E526890476D1CA542EEDDBDE871
:1034A000F88FD9F800107319496E4A68014618461A
:1034B000F1E7801DC31700EB137323F00F03C01A4D
:1034C0000C2825DB19E0C31700EB937323F00303EB
:1034D000C01A02281CDB10E0234B83FB00C34FEA19
:1034E000E30CACEBE3735B4203EB830300EB830081
:1034F0000C280DDB103802280AD3496EBAF1000FF0
:1035000006EB05004B680EBF114601461046984772
:103510006D1CA5427FF7BCAE0098002804DAD9F8EC
:1035200000002044C9F80000D9F800100098081ADB
:10353000C9F80000BDE8F88F0C4B83FB00C34FEACD
:10354000A30CACEBE373A3EB830300EBC3000C28E9
:10355000DEDBA0F11003022B24BF14380228D7D3DE
:10356000CBE700004403002067666666ABAAAA2A80
:103570002DE9F047DFF86892804684B0D9F8000062
:103580000F460C99007E1D461646012800F0CE809D
:10359000A8EB060C7C1B5CEA040104BF04B0BDE888
:1035A000F087421E0021BCF1000FBCBF0121CCF10D
:1035B000000C002CBCBF41F002016442644504DDF4
:1035C00020466446844641F00401A0020CEBDC7303
:1035D00000EB630090FBFCF08010824C4FEA201C53
:1035E00000F00F0034F81C30C0F1100013FB00F3A2
:1035F000102807D004EB4C0CC0F11000BCF802C03E
:103600001CFB003303F10800C31700EB137000111B
:1036100011F0040F18BFC0F5806011F0010F18BF42
:10362000C0F5006011F0020F18BFC0F5805000F522
:10363000806100F50060C0F30B004FF0000AB0F5A8
:10364000006FC4BF4FF0010AA0F50060B0F5806FB5
:10365000C8BFC0F500604FEAA01C634B00F03F00FC
:10366000C0F1400033F81C404443402818BFBCF16F
:10367000100F07DA03EB4C0CC0F14000BCF802C09D
:103680000CFB004404F120008009BAF1000F18BFC0
:10369000404200FB02FC0024C1F30B00B0F5006FB8
:1036A000C4BF0124A0F50060B0F5806FC8BFC0F5AD
:1036B0000060811100F03F00C0F1400033F811A01C
:1036C00040280AFB00FA18BF102906DA03EB410173
:1036D000C0F14000498801FB00AA0AF120008009DE
:1036E000002C18BF404200FB02F1BCF1000FB4BF38
:1036F000CCF500700CF500704FEAA020B8BF404236
:103700000029BDBFC1F500718912C1F1000C01F59E
:103710000071A8BF4FEAA12C00280FDD411C01EB6E
:10372000D171491000EBD07042100EE00091394683
:103730004046FFF755FD04B0BDE8F08700EBD071BF
:10374000401E491000EBD0704210BCF1000FC6BF04
:103750000CF1010000EBD0700CEBDC704FEA600064
:10376000CEBF0CEBDC73ACF1010303EBD3735B1046
:1037700008EB010CADF800C007EB000CADF802C07F
:10378000A8EB020CB21AADF804C0ADF80820314421
:10379000A7EB030CEA1AADF80C102844ADF80A2088
:1037A000ADF80E000023ADF806C01A4604216846A5
:1037B00000F08EF8D9F8002040463946527E002AA3
:1037C00008BF00F013F83046D9F800202946527E91
:1037D000002A08BF00F00AF804B0BDE8F087000036
:1037E000440300202E0206080C020608064A13684D
:1037F0001A7E012A05D0521E02EBD272521000F03E
:1038000005B85A6E52681047440300202DE9F84F5E
:1038100006460F4640F2C32050434FF47A7190FBA6
:10382000F1F000F1010A02FB02F002EBD271DFF8C5
:103830009C8000EB61000090D8F8001014463244E0
:10384000496E301B0B68394698470125BAF1010FC4
:10385000B8BFBDE8F88F00BF05FB05F004FB04000E
:10386000009988421ADD544517DDD8F8003006EB80
:10387000050BA6EB05095B6EABF1010239191B685C
:1038800009F101009847D8F80030ABF10102391B6B
:103890005B6E09F101001B689847641ED8F8003080
:1038A000321979195B6E301B93461B688146984725
:1038B000D8F800305A46791B5B6E48461B6898471B
:1038C0006D1CAA45C8DABDE8F88F0000440300204B
:1038D0002DE9FF4F83B0074643F6FF74C4F10000A3
:1038E00090460E1E0090C4BFBA1C08460EDD00BFF5
:1038F000B2F90010A142D8BF0C46009B9942D8BF34
:1039000019460091401E02F10402F1D18C49086869
:10391000406970B1B0F90630069A9B1A009A93423A
:10392000C0F20281B0F90230069A9A1AA24200F35C
:10393000018100988442D2BFA6F1010907B0BDE819
:10394000F08F00207F490546002E0860C4BF06980E
:1039500004EB000A7EDD4D45B4BF6A1C002207EB74
:10396000850C07EB8201BCF90200B1F90230A042DC
:1039700055D1A34213D137F92500514600EB080376
:1039800037F922006E4A404483421268526ED2F8E0
:1039900000C0BABF024618461A46E04787E0002238
:1039A0002946B9F1000F0CDD002914BF491E711E14
:1039B00007EB8100B0F90200A04203D1521C4A4536
:1039C000F2DB2046A04272D0001B37F925101A1BEB
:1039D00090EA020F09D45A4A01EB080051461268D6
:1039E000526E13680246984761E0DFF858B1DBF881
:1039F00000C0BCF10C0F5ADA0020BCF1000FC4BFAC
:103A00006046514A4CDD00BF02EB400333F9023CF3
:103A10008B4245DB22F81030401EF5D140E0A34236
:103A200045D0A8BF844203DAA042A8BF9C423EDB37
:103A300098424EDC0246A042DFBF18468442BCF9E1
:103A40000030B1F9001032DCA1EB030CA11A0CFB21
:103A500001F100E02FE00029A0EB020CCEBF01EB4A
:103A60006C01A1EB6C01491C801A91FBF0F0DFF8AE
:103A7000D4B0C118DBF800C0BCF10C0F17DA00207D
:103A8000BCF1000FC4BF60462F4A09DD02EB4003C2
:103A900033F9023C8B4203DB22F81030401EF5D193
:103AA000294A22F810100CF10100CBF800006D1C1F
:103AB000B542FFF650AF06980025204401902148FA
:103AC000AB4601680029C4BF1F49B1F900A022DD3F
:103AD00018E01A46A342DEBF8442B1F90030BCF9B7
:103AE0000010B1DDE3E7184931F91BA055B108EB2F
:103AF000000C134808EB0A0201990068406E036845
:103B0000604698470F490BF1010B85F001050968E4
:103B100050465945E7DC0098641C84427FF711AF9A
:103B200007B0BDE8F08F00BFB0F90630069A9A1AC8
:103B30000092F7E6B0F902200698141AF9E60000A0
:103B400044030020100B002098C9012070B52048C4
:103B5000046802F0A7FC20460AF000FB05F052FBC7
:103B60001C48046802F09EFC20460AF031FB05F078
:103B700049FB012502F096FC174C2068057605F0FC
:103B800041FB02F08FFC20680025858505F03AFB9B
:103B900002F088FC2068458505F034FB02F082FCC9
:103BA00028460AF02DFB05F02DFB0C48056802F0B5
:103BB00079FC2068002D18BFC56105F023FB0025A6
:103BC00002F070FC20688576BDE8704005F01ABBF5
:103BD000400300203C030020440300203803002061
:103BE00070B50C46054600F0FBF8A8682168C16274
:103BF00061680163A168416311F0040F07D0D0E947
:103C00000021C0E90012D0E90221C0E90212A18915
:103C1000818421690029B8BF002118BF016270BDED
:103C20002DE9F0411E4617468846044600F0D8F8B4
:103C3000A5686822414605F58A70FCF71DFB204601
:103C4000B8472046B047206980688047A862BDE831
:103C5000F081000010B5044600F0C2F8A0681049D9
:103C6000134AC0F8AC100F49C0F8A8100E49C0F8AC
:103C7000B0100E49C0F8B8100021C0F8BC1013688D
:103C8000C0F8B4300B4BC0E933315168C0F8C810EC
:103C9000C18C21F00301C1840749C0F8941010BD04
:103CA0008DBF0208B1C1020851BF0208AFB80208B7
:103CB0002804002049BA0208E1BE020810B50446F3
:103CC00000F08EF8A46810481021C4F8EC000F48EA
:103CD000C4F8F0000E48C4F8F4000E48C4F8F80028
:103CE0000D48C4F8A0000D48C4F8A400D4F8C800DA
:103CF000C4F80401D4F89420204690471020A06313
:103D00000748606410BD0000556C02082D9502083C
:103D1000253D01085D3E010851B80208D1C40208E2
:103D200080000608F8B5846815460F4694F826000A
:103D300010F0020F48D0D4F80831204698470646C4
:103D4000D4F80C312A46394620469847D4F89830A2
:103D500005461BB100220121204698472069B04248
:103D6000CCBF01200020A169B142B4BF01210021D4
:103D700008436169A942CCBF012100210843E169E0
:103D8000A942B4BF0121002108430AD06068401E47
:103D900000902068D4F8A8C0431E00221146204697
:103DA000E047D4F8AC302A46314620469847D4F84C
:103DB000A01020468847D4F8983005466BB1012200
:103DC00000212046984708E0D4F8AC3020469847B8
:103DD000D4F8A0102046884705462846F8BD0000C4
:103DE00010B504468068002818BF10BD4FF4BE709F
:103DF00000F056FD084BA0604FF4BE721B68002116
:103E00009847A0680221C18401210464016203492A
:103E1000C0F8101110BD000020080020213E01084C
:103E20002DE9F0010C4991B0B1E8FC118DE8FC11CD
:103E300091E8FE100DF1200888E8FE10416B5DF856
:103E40002120C0F8082108AA52F82110C0F80C114E
:103E500011B0BDE8F0017047241505082DE9F843BD
:103E600084681F46154694F82600884610F0020F15
:103E700035D0D4F80831204698470646D4F80CC10E
:103E80002A4641462046E04705462069B042D4BF55
:103E900000200120A169B142B4BF012100210843E3
:103EA0006169A942CCBF012100210843E169A9420F
:103EB000B4BF0121002108430AD06068401E009071
:103EC0002068D4F8A8C0431E002211462046E047CF
:103ED000D4F8AC302A4631462046984703E0D4F85F
:103EE000AC3020469847D4F8A42001B0394620468B
:103EF000BDE8F043104700002DE9F04F4B4989B071
:103F00000968B1F922200692D1F81CC0B1F92470D9
:103F1000DCF81C40A28982429CBFE389984205D804
:103F2000A0EB02094FF0FF38266812E0D4E90162E5
:103F3000002A71D0138883429CBF5588A8426BD851
:103F4000C01A526880B202EB8000B0F90090B0F95C
:103F50000280B9F1FF3F5FD09CF81800A27C10FBF3
:103F600002FB94F810A00790B1F92A5028460AF0F5
:103F700047F9C0B208902D4809FB0B620068A37C8A
:103F80004FF00109816BCDE90293CDE90421C069AD
:103F90005246C17E807ECDE90001DDE90603394647
:103FA00009F020FBB8F1FF3F18D045F002000AF0FD
:103FB00027F91E48A37C08FB0B620068816BCDE9E2
:103FC0000293CDE90421C0695246C17E807ECDE9CD
:103FD0000001DDE90603394609F004FB134E3068A1
:103FE000C069417E007E814213D9022D11D085F037
:103FF00004000AF005F93068C069017EC27E11FB39
:104000000271427ED319827E06981AFB020209F0E1
:10401000C5FC08980AF0F4F80448627C0068418CFA
:104020001144418409B0BDE8F08F00004403002032
:10403000044800290068C069C0691CBF027C0A608E
:10404000407C704744030020022008807047C0690C
:1040500082898A429CBFC289914210D9806880B10E
:1040600002888A429CBF438899420AD8406800EB84
:104070008100A0EB8200B0F90000002801DB0120E4
:1040800070470020704700002DE9F043394D02468B
:1040900087B02868B0F92A60C069C1691046002954
:1040A00004BF07B0BDE8F0830B8883429CBF4B88F8
:1040B000984205D989680029F6D107B0BDE8F08398
:1040C000002904BF07B0BDE8F08348680988511A89
:1040D00000EBC1043046A7780AF092F880462868C1
:1040E00062680123816BCDE90237CDE90421C16902
:1040F000CB7E8A7ECDE900230B7EB0F92410227896
:10410000B0F9220009F06EFA2868C069417E027E8B
:1041100091421FD9C07E11FB00F912FB00F7022E5D
:1041200018D002F066F8064602F02CF804F05FF8AA
:1041300029682278CB69B1F92200DB7E12FB0302E9
:10414000B1F9241001EB0903394409F027FC30468A
:1041500004F04DF840460AF053F828686278C369C5
:10416000B0F922109B7E12FB0311418407B0BDE819
:10417000F083000044030020F0B52B4D034687B0C8
:104180002868B0F92A20C069C169184659B100BF32
:10419000B1F800C0844503D8B1F802C0844502D20A
:1041A00089680029F4D121480078002818BF42F01E
:1041B0000202002904BF07B0F0BD48680988591AF7
:1041C00001EB410100EB81042078C01DC6081046B8
:1041D0000AF016F82A680746A168906B0123CDE91A
:1041E0000410CDE90236D069C17E807ECDE90001A0
:1041F000B2F9240094F9031063780144B2F9220063
:1042000094F902201044227809F0ECF9384609F0BC
:10421000F7FF28682279C369B0F922109B7E12FB50
:104220000311418407B0F0BD44030020AC0300201B
:104230000346184810B40068C4691846E2692AB3F6
:10424000B2F800C084459CBFB2F802C0604503D9F3
:104250009268002AF4D119E0C2B11088D2F804C0E3
:10426000181A00EB4003042000EB8300A27E1CF828
:10427000000010FB02F0002904BF10BC70471CF8BE
:10428000233013FB02F20A6010BC704710BC002000
:104290007047000044030020034612480068C069CC
:1042A000C2691846E2B100BFB2F800C084459CBFA5
:1042B000B2F802C0604503D99268002AF4D10FE039
:1042C00072B1506812889A1A02EB420200EB820027
:1042D000D0E9002380680A60C1E9013000207047FE
:1042E0000120704744030020012008807047C06906
:1042F00068B102888A429CBF4288914203D9806893
:104300000028F6D103E000281CBF012070470020E0
:10431000704700002DE9F341354C82B0002520683C
:10432000C069427EC07E12FB00F84F1E24D402A852
:1043300004F00CFE064620683146C069C06900F0F2
:1043400081F890B141680088301A00EB400001EB21
:10435000800090F90210007908442168C969897EBB
:1043600010FB01F00028C8BF05447F1EDFD51EB139
:10437000304606F0CFF9054420686A1E418CADF83E
:104380000010808C1144ADF80410ADF80200A8F1C3
:1043900001010844ADF806001648006800281CBF5B
:1043A0008168002901D06846884701F022FF054650
:1043B000206890F82A0010F0040F02D001F019FFD5
:1043C00001E001F0DFFE03F012FFBDF90630BDF998
:1043D0000420BDF90210BDF9000009F0DFFA2846FB
:1043E00003F005FF04490120087004B0BDE8F08126
:1043F0004403002098030020AC0300202DE9F34182
:104400000E4C0F4F0D462068B0F92A6016F0030FCE
:1044100002D17A68009890476D1E08D4684604F06F
:1044200095FD2168C969096888476D1EF6D5002089
:1044300038702068468502B0BDE8F0814403002052
:10444000AC030020002808BF704702888A4203D8C6
:1044500042888A4228BF704780680028F5D170479B
:1044600010B4044615480068D0F81CC02046DCF89B
:104470001C2002B3138883429CBF5388984203D9FF
:104480009268002AF6D116E0AAB110885368221A61
:10449000012000EBC2009CF81AC0185C10FB0CF065
:1044A000002904BF10BC704713F8322012FB0CF235
:1044B0000A6010BC704710BC002070474403002005
:1044C000012008807047C06968B102888A429CBF99
:1044D0004288914203D980680028F6D103E0002881
:1044E0001CBF012070470020704700002DE9F047F5
:1044F000DFF8A480DFF8A4A04FF00009D8F8084046
:10450000002CC4BFD8F8106000251DDDD8F81000BD
:10451000C5EB051700EBC7007022001DDAF800108C
:10452000FBF7AAFE46F8789BD8F8100005F10105C4
:1045300000EBC70000F10C018161011D0A1DC0E9FB
:104540000F124164641EE1D1D8F80800002400284D
:1045500010DD00BF04F071FED8F81020C4EB041188
:1045600052F83110814206D081B1D8F80800641C9D
:104570008442EFDB4C46D8F81010C4EB041001EB7A
:10458000C000001DCAF80000BDE8F087C4EB0411AC
:1045900042F83100EFE700007008002044030020DB
:1045A00070B51B4919480860084606F047FA194CCF
:1045B000A068C0EB0010C500284600F071F9164B4A
:1045C00020612A461B68002198474FF0FF30206089
:1045D00004F038FEA06800250028D8BF70BD00BFD9
:1045E00004F02BFE2269C5EB051152F8311081420F
:1045F00008BF70BD21B16D1CA0688542F0DB70BDA5
:10460000C5EB051142F8310070BD0000C1AB0208D6
:10461000840800207008002020080020002904BF22
:10462000002070472DE9F0410F46804601F03AFF27
:1046300001F038FF384611F0DBFB044604F0E2FDE0
:10464000002C2FD01A4D3A46E869401CE861686B8F
:1046500000EBC4000178491C01700421686B01EB78
:10466000C401B8F1000F405800F1080605D0114B05
:10467000414630461B68984704E00F4B0021304606
:104680001B68984756F8081C686B00EBC10001785E
:10469000022904D3E96900291CBF491EE961017898
:1046A000491E017004F0AEFD2046BDE8F081000017
:1046B000D4C601202408002020080020002808BFBC
:1046C000704710B5044601F0EDFE204611F090FB56
:1046D000044604F097FD204610BD00002DE9F0418E
:1046E000074601F0DFFE002F08BF002430D001F0A4
:1046F000D9FE384611F07CFB044604F083FD002C03
:1047000026D0164D164B3A46E869401CE861686BA6
:1047100000EBC4000178491C01700421686B01EBB7
:10472000C4011B684058002100F108063046984734
:1047300056F8081C686B00EBC1000178022904D30D
:10474000E96900291CBF491EE9610178491E017011
:1047500004F058FD2046BDE8F0810000D4C60120D9
:1047600020080020024A106021F0030050607047CA
:1047700094C70120002808BF704770B5044601F0B7
:1047800091FE0C4D042000EBC406696B8959486802
:1047900011F0AAF86868401C6860696B686A885103
:1047A000696B002001F834006C62BDE8704004F0D1
:1047B00029BD0000D4C60120002808BF7047044A64
:1047C000D16B0160002918BF4860D06370470000BA
:1047D000D4C601202DE9F041064601F063FE34689D
:1047E0000027C4B101F05EFE0D4D042000EBC408AB
:1047F000696B51F80810486811F076F86868401C39
:104800006860696B686A41F80800686B00F834708A
:104810006C6204F0F7FC3760BDE8F04104F0F2BCD4
:10482000D4C601202DE9F05F0F1E81464FF0000530
:10483000C6BFDFF868804FF0000ABDE8F09F00BFF8
:1048400009EB850601F02EFE3468F4B101F02AFE72
:104850000420D8F8341000EBC40B51F80B10486852
:1048600011F042F8D8F80400401CC8F80400D8F849
:104870003410D8F8240041F80B00D8F8340000F8C0
:1048800034A0C8F8244004F0BDFCC6F800A004F031
:10489000B9FC6D1CBD42D3DBBDE8F09FD4C601203E
:1048A0002DE9F041044615F0D7FEE01C274E20F01C
:1048B0000300051D306CA84288BF0546F46BBCB1EF
:1048C00054F8041CA94210D19CB1206800281CBFD8
:1048D00061684160606800281CBF21680160F16B5D
:1048E000A14204BF2068F0632DE02468002CE7D1CA
:1048F0000024F168B06B00EB010858F8040CA8EB39
:104900000007386840B1002017F040F958F8040C4F
:10491000A8EB00073868B0B97868A84213DB3844C0
:10492000401B041D384617F003F9F068401BF06087
:104930007069284470617868401B1CBF394610F0CC
:10494000D3FF44F8045C2046BDE8F081D4C60120C2
:1049500010B5002415F080FE0D490F2001EBC002B8
:10496000526C8AB101EBC000406C806848B141686C
:10497000A14288BF0C46806800281CBF80680028C0
:10498000F5D1A4F10C0010BD401EE7D5F9E70000F9
:10499000D4C60120002140B10549042202EBC00029
:1049A000496B08584068A0F10C01084670470000A8
:1049B000D4C601200849CA69521CCA614A6B02EB7D
:1049C000C00213785B1C1370496B042202EBC00019
:1049D0000858083070470000D4C601202DE9F05F68
:1049E0000E0005464FF0000808BF474674D001F09E
:1049F00059FD304611F0FCF9074604F003FC002F86
:104A000018BF002D68D0364C4FF0040909EBC50AD9
:104A1000606B50F80A004068A0F10C00B042B8BFCB
:104A2000064601F03FFDE0692E4B401CE061606BE3
:104A3000324600EBC7000178491C0170606B09EB3E
:104A4000C701415800EBC50001F1080BE169491CA1
:104A5000E1610178491C0170606B1B6850F80A0025
:104A600000F108094946584698475BF8081C606BF6
:104A700000EBC1000178022904D3E16900291CBFC1
:104A8000491EE1610178491E017059F8081C606BEC
:104A900000EBC1000178022904D3E16900291CBFA1
:104AA000491EE1610178491E017001F0FBFC606B59
:104AB00050F80A10486810F017FF6068401C6060EA
:104AC000616B606A41F80A00606B00F835806562CE
:104AD00004F098FB04F096FB3846BDE8F09F000018
:104AE000D4C601202408002010B501F0DBFC00240E
:104AF00015F0B2FD194B1A490F2000BF01EBC0029F
:104B0000526CE2B101EBC000406C8068C8B14268F1
:104B1000A24288BF1446806800281CBF8068002815
:104B2000F5D1A4F10C00B0F5800F0DD983FB002066
:104B30004211096AA2EBE07000FB01F409E0401E9B
:104B4000DCD5A4F10C00F1E7096A4843A3FB00108F
:104B5000440904F057FB204610BD00001F85EB51AF
:104B6000D4C601200A4902684B6B52F8082C03EBAB
:104B7000C2021378022B04D3CB69002B1CBF5B1E2F
:104B8000CB611178491E1170002101600846704701
:104B9000D4C601200349042202EBC000496B085827
:104BA00008307047D4C601202DE9F0414FF00006CF
:104BB00082B00B465FEA000834462BD032B1114672
:104BC0001846FFF72BFD060008BF01244046FFF7FB
:104BD000F1FE0090078845686846FFF7C3FFCCB92F
:104BE000B800011D2846FFF7F9FE050016D0FFF7B3
:104BF000E1FE019040F8276001A8FFF7B3FF4046AF
:104C0000FFF7D8FE009045600188491C0180684686
:104C1000FFF7A8FF02B02046BDE8F0813046FFF75D
:104C2000A9FD0124F6E70820FFF758BD002808BFBA
:104C3000704730B583B00546FFF7BCFE0090406872
:104C4000D8B1FFF7B7FE0190009800240088002833
:104C500009DD019800EB8400FFF7BCFD0098641C9F
:104C60000088A042F5DC01A8FFF77CFF0098001D3A
:104C7000FFF7B0FD0099002008806846FFF772FF3B
:104C80002846FFF777FD03B030BD38B5002430B1BA
:104C9000FFF790FE009004886846FFF763FF204608
:104CA00038BD30B583B00D460024B8B1FFF782FEA1
:104CB00000900188A9420ED9406860B1FFF77AFEE2
:104CC000019050F8255001A8FFF74CFF280002D0B2
:104CD000FFF770FE04466846FFF744FF03B0204626
:104CE00030BD00002DE9F043002483B01E469046FD
:104CF0000D4600283BD0FFF75DFE0190B0F8009014
:104D0000476801A8FFF72EFF4D4530D27FB33846E4
:104D1000FFF750FE009050F825406846FFF722FF4D
:104D200024B12046FFF736FEB04211D03046FFF7DF
:104D3000D5FC04001BD03846FFF73CFE00EB850590
:104D400000902846FFF746FD68462C60FFF70AFFF3
:104D5000B8F1000F0BD02046FFF72CFE064B029057
:104D600032461B684146984702A8FFF7FBFE03B096
:104D70002046BDE8F08300002408002070B50C46F2
:104D8000054601F0DBFBC1B223462846BDE8704072
:104D9000002200F001B800002DE9F0012D24D3F825
:104DA00000C0B0F1004F34D000250028A8BF4FF05C
:104DB000000C07DA0CF101061E608CF8004040423E
:104DC0004FF0010CA1EB0C01C9B2002A1CBF491E17
:104DD000C9B200291CBF234F234E3DD08C46491E2B
:104DE000C9B2944508D1D3F800C03C780CF1010851
:104DF000C3F800808CF8004056F8214090FBF4FC8A
:104E00000CF0FF0CBCF10A0F26D80CFB140081B982
:104E100009E00CF1010601251E606FF000408CF8DE
:104E20000040491ED0E7002D1CBF0CF1010C0CF016
:104E3000FF0CBCF10A0F03D1491C4FF0010CC9B2A1
:104E40000CF13004D3F800C000290CF10108C3F8BC
:104E500000808CF80040C1D1196800200870BDE8BE
:104E6000F0017047300300207C1405080028D8BFEB
:104E700070472B230A6802F1010CC1F800C01370BF
:104E8000096800220A70704770B514460D46064640
:104E900001F008FB204601F0B9F90300164804EBC5
:104EA000840109D050F8210041688068711A2A1ADB
:104EB000184603F0DBF91AE000EB8104A268B24265
:104EC00014BF01220022E368AB4214BF0123002378
:104ED0001A430CD0236943B150F82100816840681F
:104EE0006A1A311A184602F0FFFDC4E90265BDE8EE
:104EF000704004F087B9000040C90120C2B2CBB2B3
:104F0000D21A48BF524292B202FB02F3C0F3072208
:104F1000C1F3072CB2EB0C0248BF524292B2000C14
:104F2000A0EB114002FB023200B20028BCBF40429D
:104F300000B280B200FB0020704700002DE9F04174
:104F4000002182B0084601F013FA43F6FF76374697
:104F500001F0A8FA042009F053F98046124840698C
:104F6000C16C006D8D1B841B0E440744ADF80050CE
:104F7000ADF80460ADF80240ADF8067068460FF079
:104F80001FFF48B13B4632462146284608F006FD41
:104F90000FF028FD0028F5D1404609F031F904F062
:104FA00031F902B0BDE8F081300300202DE9F04175
:104FB00082B01C4617460D46064601F073FA0420DF
:104FC00009F01EF9804613484169C86C096D064412
:104FD00007440D440C44ADF80060ADF80470ADF822
:104FE0000250ADF8064068460FF0EAFE48B123468D
:104FF0003A462946304608F0D1FC0FF0F3FC002871
:10500000F5D1404609F0FCF804F0FCF802B0BDE828
:10501000F0810000300300202DE9F04182B0B0F9AA
:105020000050B0F90240B0F90460B0F9067001F028
:1050300039FA042009F0E4F8804613484169C86C45
:10504000096D054406440C440F44ADF80050ADF81A
:105050000460ADF80240ADF8067068460FF0B0FE8F
:1050600048B13B4632462146284608F097FC0FF0EF
:10507000B9FC0028F5D1404609F0C2F804F0C2F8A6
:1050800002B0BDE8F0810000300300202DE9F843B4
:105090001C00DDE9089816460F46054602D10EF0C1
:1050A000ABF804460096D5F800C043464A46214670
:1050B0002846E047061E08BFBDE8F8830EF08FF8CB
:1050C0008146698A30460DF01AF930460FF0F3FA3E
:1050D00048460FF0F0FA7F1E002FC8BF4FF00008BF
:1050E0000FDD00BFCDF8008055F81CCF00231A4615
:1050F00049462846E04718B30FF0DDFA7F1E002F1F
:10510000F0DC1D2148460FF079F8B4F1FF3F14D0D0
:1051100001F0C8F90EF0F8F840B100BFFFF73AFD12
:105120008469B44218BF5FEA0400F7D1B4421CBFDF
:1051300030460FF07BF904F065F83046BDE8F8839F
:1051400030460DF067FD0020BDE8F883022BA4BFB8
:10515000002070472DE9F04106461C4615460F46D3
:105160001C20FFF79DFB002808BFBDE8F081002F41
:1051700018BF07610BD10A4A52F8241039B10A68E6
:105180001AB111461268002AFBD1096901618461D4
:105190008582002101604160C0E90216BDE8F0810E
:1051A000700300202DE9F04100241D460746884683
:1051B0001646022B27DA1C20FFF772FB18B3B8F152
:1051C000000F18BFC0F810800BD1104A52F82510FC
:1051D00039B10A681AB111461268002AFBD109696F
:1051E00001618561868204604460C0E90247040071
:1051F00009D000F011F8E068006820B904480068A0
:1052000000EB850084652046BDE8F0817003002036
:1052100044030020FFF7D0BA00281CBF8369022B8B
:10522000A4BF01207047234A591C92F800C08C4546
:10523000B8BF117010B4204C54F82310002908BFD7
:1052400044F8230030D04A682AB111465268002A37
:10525000FBD100292BD0C268D2F800C0CA681268FE
:10526000624503DD09680029F8D120E0F9B1CA6878
:105270001268624504BF828A012A08D10A682AB1ED
:105280001146D26812686245F8DA00E079B14A68DE
:10529000002A1DBF10604A68426044F8230048603D
:1052A000884208BF0021016010BC0020704710BC7C
:1052B000012070479603002070030020002808BFDB
:1052C000704770B4244D254CD0F800C000281CBF96
:1052D0008669022E3ADA2A78711C8A42B8BF297090
:1052E00054F82610002908BF44F826002ED04A683A
:1052F00022B111465268002AFBD139B3C268126844
:10530000CB681B68934203DD09680029F8D11DE0D2
:10531000E1B1CB681B68934204BF838A012B08D19B
:105320000B682BB11946DB681B689342F8DA00E082
:1053300061B14A68002A1DBF10604A68426044F8A3
:1053400026004860884208BF002101605FEA0C0027
:10535000BAD170BC70470000960300207003002093
:105360000D4B8269002153F822C0844507D1D0F843
:1053700000C043F822C00268002A18BF516042688A
:10538000002A1CBF036813600268002A1CBF436820
:105390005360016041607047700300200020704737
:1053A00002280BDA064A52F8200038B1C2681268A7
:1053B0008A4208BF704700680028F7D10020704774
:1053C000700300200228A4BF00207047064951F84E
:1053D0002000002808BF7047C168096800291CBF69
:1053E00000680028F8D1704770030020F8B5164611
:1053F0000F4605004FF0000414D00C20FFF76EF9A3
:1054000004000FD001F04EF82046FFF7D3FA06490A
:105410000090C0E90015078146816846FFF7A2FBAE
:1054200003F0F0FE2046F8BD24010608002808BF5E
:1054300070472DE9F8431E46174688460446FFF795
:10544000B9FA0090006805686846FFF78BFB3346A1
:105450003A4641462046A847BDE8F883002808BFE1
:1054600070472DE9F04F83B0054601F01BF800F0BE
:10547000D7FE3C4C80462068B0F9227000F040FF17
:1054800082462068818CA1EB0A018184287800285B
:1054900018BFA8F1010946D047F6FF71284605F06C
:1054A000F3F883460146284605F0B4F8216806461D
:1054B00091F82C0000F00300012808BF304605D009
:1054C000022812BF002006EBD67040104A8C101A3A
:1054D0004884ADF80000721E1044ADF80400888CBA
:1054E000ADF802004844ADF806006A465946284621
:1054F00004F0FAF82168BDF802008884594628466D
:1055000003F054FD054428780A2818BF0D2817D049
:10551000BDF80000216830444884287818B115F897
:10552000010F0028B8D12068818C51448184818D7D
:1055300021F00301818503F065FE03B0BDE8F08F23
:10554000206890F82C1001F0030101291DBF0229E9
:10555000018C4184478429780A29DED1818C414419
:105560008184DAE74403002070B514460D460646F0
:1055700000F098FF0548016830464D848C84FFF7A1
:105580006DFFBDE8704003F03DBE00004403002005
:105590002DE9F0410D4F0646154638680C46B0F926
:1055A0002C0040F0020002F091FE804600F07AFFED
:1055B0003868448485843046FFF750FF03F022FEAC
:1055C0004046BDE8F04102F081BE000044030020E7
:1055D0002DE9F04182B006000D46174647F6FF78E8
:1055E0004FF0000404BF02B0BDE8F08100F05AFFA4
:1055F00065B128460FF022F8040007D0024629467C
:10560000684605F0C6F868460FF018F843463A4673
:105610002946304604F05AF920460FF00FF803F0FF
:10562000F1FD02B0BDE8F081002808BF70472DE908
:10563000FF4F87B093460E46054600F033FF3468AF
:10564000776821B238B2401A401C029000F0E8FDA1
:1056500082461BF00C0F2FD0029801900A98A846A2
:105660004FF00009009000F01DFFDDE900214046E9
:1056700005F04EFA8044002818BF09F10109F4D161
:1056800003F0C0FD0BF00C00042818BF082802D05E
:105690000C2805D010E0381409FB1A00401C09E062
:1056A0002114C1EB274009FB1A00401C00EBD0700D
:1056B00001EB600060F31F4430460EF0BFFF5FEA6D
:1056C000000909D0CDE904470246314604A805F097
:1056D00060F804A80EF0B2FFAAF1010828460A9A61
:1056E000029905F057FA039008EB244060F31F4736
:1056F000CDE900472846039904F08CFF1BF0030115
:1057000008BF30880ED001290FD0022912D1B6F976
:105710000420B6F90010521A101A401C00EBD07089
:1057200001EB6000ADF8000004E0B188081A401CED
:10573000ADF800006A462846039903F0D5FF2846D5
:105740000A9A029905F0E4F905440AEB244060F353
:105750001F4428780028C1D148460EF06FFF03F09F
:1057600051FD0BB0BDE8F08F2DE9F04F89B0154623
:105770000E46044600F096FE364F3868C16C006D48
:105780000E4405442088711E0844ADF81860ADF839
:105790001C006088691E0844ADF81E00ADF81A5060
:1057A00006A80FF00DFB00281CBFDFF8ACB04FF0CF
:1057B000010A42D00020D4F80C9002F03BFD804654
:1057C000B9F1000F1BBF99F80400002828F002006F
:1057D00048F0020002F02EFD206970B1D4E90212F7
:1057E0000091CDE9012ACDF80CA0D0F800C0638863
:1057F000228829463046E04718E03868DBF8003058
:105800002146427CE0689847E0B1A288E388A1681D
:10581000CDF800A0CDE90410CDE90232CDF804A006
:10582000638822882946304607F0DCFE404602F0B5
:1058300001FD0FF0D7F80028BCD103F0E3FC09B05C
:10584000BDE8F08FE088012812BF00203868806B27
:10585000DBE70000440300203403002010B50A46B3
:1058600082B00146684605F0DBF800F01BFE2B48CD
:10587000BDF800100068B0F84C201144ADF80010DD
:10588000BDF80210B0F850201144ADF80210BDF878
:105890000410B0F84C201144ADF80410BDF8061007
:1058A000B0F850000844ADF8060068460FF088FADA
:1058B00078B300BFBDF90040BDF90400A0420EDB83
:1058C000BDF90210204607F0FFFFBDF90610204683
:1058D00007F0FAFFBDF90400A41CA042F0DABDF9FC
:1058E0000240BDF90600A0420FDB00BFBDF9000079
:1058F000214607F0E9FFBDF90400214607F0E4FF67
:10590000BDF90600A41CA042F0DA0FF06BF80028E5
:10591000D0D103F077FC02B010BD0000440300209A
:105920002DE9FF4FA3B01C4615460E46074600F072
:10593000B9FD70480168D1F84CC00CEB070023900A
:10594000096D881924900CEB050025900819269004
:105950002398ADF868002598ADF86C002498ADF850
:105960006A002698ADF86E001AA80FF029FA0028F0
:1059700000F0BA8025992398091A31980391C1B291
:105980003098C0B2091A1C9103994843109001EB5A
:10599000D1700C9030983199C0F30720C1F30721E2
:1059A000091A199103994843119030983199C0F31D
:1059B0000740C1F30741091A1D910399484312900A
:1059C00030983199000EC0EB11611E910399484344
:1059D0001390249802902398089026980190259877
:1059E000DDE9304506904448049000F002FC1F9029
:1059F000AC4209D1204608F0EBFBDDE90131069A03
:105A0000089807F0CBFF66E0039F0126002F65D0C2
:105A10001C991791109A0C99089C02EB610B199A2A
:105A20001692119A02EB610A1D9A1592129A02EBD4
:105A300061091E9A1492139A02EB610806998C422E
:105A400042DC00BF9BFBF7FC9AFBF7F3179999FB2D
:105A5000F7F28B441699149D8A4415994CEA032356
:105A6000894498FBF7F1A84443EA024242EA0165FF
:105A700008998C4214DD854208BF761C10D008F0CE
:105A8000A7FB012E06DDDDE90131A01B621E07F038
:105A900085FF04E0DDE90121049B601E9847012693
:105AA0000699641C28468C42CCDD08F091FB0698D0
:105AB000012E0CDD811B01F1010CDDE901310246F3
:105AC000604607F06BFF06E008F082FB0698DDE910
:105AD0000121049B98471F9808F07AFB0EF082FF83
