:020000040801F1
:10000000A0FD012055020108CFC40108D5B00108A8
:10001000CDC401082F0A010809E80108000000000A
:100020000000000000000000000000009D01010829
:100030007D15010800000000F1010108D9DF010869
:100040006F0201086F0201086F0201086F020108C8
:100050006F02010897CA01086F0201086F020108C8
:100060006F0201086F0201086F0201086F020108A8
:100070006F0201086F0201086F0201086F02010898
:100080006F0201086F0201086F0201086F02010888
:100090006F0201086F0201086F0201086F02010878
:1000A0006F0201086F0201086F0201086F02010868
:1000B0006F0201086F0201086F0201086F02010858
:1000C0006F0201086F0201086F0201086F02010848
:1000D0006F0201086F0201086F0201086F02010838
:1000E0006F0201086F0201086F0201086F02010828
:1000F0006F0201086F0201086F0201086F02010818
:100100006F0201086F0201086F0201086F02010807
:100110006F0201086F0201086F0201086F020108F7
:100120006F0201086F0201086F0201086F020108E7
:100130006F0201086F0201086F0201086F020108D7
:100140006F0201086F0201086F0201086F020108C7
:100150006F0201086F0201086F0201086F020108B7
:100160006F0201086F0201086F0201086F020108A7
:100170006F0201086F0201086F0201080000000011
:100180006F0201086F020108DFF80CD000F006F9D9
:1001900000480047F9AB0208A0FD01202A4B19686E
:1001A0000868B0E8F04F80F30988BFF36F8F4FF015
:1001B000000080F3118870470000000006480068C6
:1001C000006880F3088862B661B6BFF34F8FBFF353
:1001D0006F8F00DF00BF00BF08ED00E0DFF80C000C
:1001E000016841F470010160704700BF88ED00E0D4
:1001F000EFF30980BFF36F8F134B1A681EF0100FD7
:1002000008BF20ED108A20E9F04F106008B44FF0CD
:10021000500080F31188BFF34F8FBFF36F8F1BF037
:100220006FFC4FF0000080F3118808BC1968086863
:10023000B0E8F04F1EF0100F08BFB0EC108A80F34A
:100240000988BFF36F8F704790000020EFF305809F
:10025000704700000648804706480047FEE7FEE773
:10026000FEE7FEE7FEE7FEE7FEE7FEE7FEE7FEE766
:1002700085E001088901010810B5441A034694423B
:1002800009D28418114403E011F8013D04F8013D3E
:10029000521EF9D210BD40EA0104A40703D009E0C0
:1002A00010C9121F10C3042AFAD203E011F8014B3F
:1002B00003F8014B521EF9D210BDD2B201E000F892
:1002C000012B491EFBD270470022F6E710B51346FA
:1002D0000A4604461946FFF7F0FF204610BD421CAF
:1002E00010F8011B0029FBD1801A704730B5044675
:1002F0000020034600E05B1C934203D2E05CCD5C2F
:10030000401BF8D030BD034611F8012B00F8012B3B
:10031000002AF9D1184670472DE9F05F0546002004
:1003200092469B4688460646814640241BE0284666
:1003300041464746224600F020F853465A46C01A26
:10034000914110D311461846224600F039F82D1A73
:1003500067EB01084F4622460120002100F030F8EB
:1003600017EB00094E41201EA4F10104DFDC4846D2
:1003700031462A464346BDE8F09F202A04DB203A56
:1003800021FA02F00021704721FA02F3D040C2F1B5
:10039000200291400843194670470000064C074D63
:1003A00006E0E06840F0010394E807009847103445
:1003B000AC42F6D3FFF7ECFE24C9030844C9030896
:1003C000202A04DB203A00FA02F100207047914015
:1003D000C2F1200320FA03F319439040704770B52F
:1003E0008D1810F8014B14F0030201D110F8012B05
:1003F000231106D110F8013B03E010F8016B01F85E
:10040000016B521EF9D1ABB110F8012B04F00C04B2
:100410008A1A0C2C03D0A2EB84129B1C08E010F863
:10042000014BA2EB0422F8E712F8014B01F8014B53
:100430005B1EF9D5A942D4D3002070BD10B50CF0D5
:1004400017F80BF09BFB074C2060216806A019F001
:100450008BFA2068A0F5A901663901D10AF048FE9F
:10046000206810BD080000204C43445F5265616461
:1004700049443D25780A000038B5446805460146E0
:1004800020460EF017FA002808BF38BD464A2868F3
:1004900011280DD006DC0B282AD00E2838D00F28C2
:1004A00017D07CE0282873D0B0F5107F0AD076E012
:1004B0009268002A08BF38BD294601B02046BDE831
:1004C00030401047526801B029462046BDE8304010
:1004D00010472546204603F0ADFF0090406E0468AB
:1004E000684604F087F8002C1CBF2846A04738BD9A
:1004F000204603F09FFF0090683003F0A3FE0098B1
:1005000003216C3003F0C6FE684604F073F846E041
:10051000E968486809680D2902D0202918D037E019
:10052000002835DD4FF4807120460EF08EFA20460B
:1005300003F080FF009090F82850684604F05AF8C5
:1005400015F0020F1ED0012120460FF02AFF19E0FE
:10055000002817DD25464FF4807120460EF075FA0D
:10056000284603F067FF009090F82840684604F0A2
:1005700041F814F0020F08BF38BD012128460FF0E2
:1005800010FF38BD2046BDE83840022115F01ABDE5
:10059000E86820B920464FF480710EF036F92846FD
:1005A000BDE838400EF072BEFC01002070B5044674
:1005B00088B08069B4F908C0658A00260091CDE949
:1005C0000165CDE903C0B4F90C00B4F91050C118AD
:1005D000B4F90A00B4F90EC010442B46624600F08C
:1005E00027F86468050020D005F082FB284603F058
:1005F00021FF0190866E01A8009603F0FBFF2146C3
:10060000684609F011FD70B10098B04208D0284644
:1006100003F010FF01900099816601A803F0EAFF42
:1006200028460FF0D7FD08F09DFA08B0284670BDA7
:100630002DE9F04F85B09846DDE91164DDE90E57EC
:1006400091468A46834605F053FB04F14C00174956
:10065000CDE90210CDE9005743464A465146584677
:100660000EF058FD05001BD003F0E4FE10223146C9
:1006700004900EF063FB0E4C0499B4E8CD133431B2
:10068000A1E8CD1394E80D10A1E80D1054F82C0D3D
:10069000086004A803F0AEFF206841682846884738
:1006A00008F060FA05B02846BDE8F08F790401082B
:1006B00008020020F0B5044680688C4989B051F8E2
:1006C00020506068002800F00A81052806D006281E
:1006D0007DD0122800F0B48000F004B9E869002849
:1006E00008BF002651D0D5E90012AB688DE80F0095
:1006F00004F110010FC909F031F8002655F8260061
:1007000007F02DFAA169E8690A1A216901446069B4
:10071000304404F043FFA169E8690A1A21690144E1
:10072000E069801B04F03AFFE169E8690A1A61692F
:1007300001442069304405F043F8E169E8690A1A88
:1007400061690144A069801B05F03AF8761C022E0D
:10075000D4DBA86807F003FAE069E969D4F814C0AB
:10076000431A206942186144801C521E05F094F817
:10077000E169E869A2690B1A61690144101A401C19
:10078000921E05F089F8EE6911E055F8260007F091
:10079000E6F9E069831BA069821B60698119206901
:1007A000304404F07DFF761C022EEEDB0226D5E9F4
:1007B0000301CDE90001E169606901444B10A169C1
:1007C0008A1B811C2069304404F0DAFD00E011E04E
:1007D000D5E90501CDE90001E0696169831E0144A5
:1007E0000122A06902EB6101821B2069304404F000
:1007F000C7FD77E0206803F01DFE0490206810F02C
:1008000022FF50B1A068002818BF00200AD1049828
:10081000006F002818BF012004E00498406F0028F2
:1008200018BF0220049901EB8000C56E04A803F0F4
:10083000E1FE00231A462846216804F025FA51E01B
:10084000206803F0F7FD0490866E002E08BF04A810
:1008500042D0A168B0F95C70002908BF012103D023
:1008600003290CBF0221002100EB8101406D0C6CBB
:1008700007F092F9204607F072F906A805F0F6F89D
:10088000BDF81810A88B0144ADF81810BDF81C1065
:10089000081AADF81C00BDF81A00801CADF81A004B
:1008A000BDF81E00801EADF81E000498B0F960204F
:1008B000B0F95E1006A806F0A9FB04A803F09AFEA2
:1008C000022007F0B9F9304603F0B4FD3A4606A914
:1008D000059004F0BFFA05A803F08CFE02E0206842
:1008E00010F0ECF809B00020F0BD0000C84F03087C
:1008F000042928BF7047F0B4044A52F8211091E847
:10090000FE1080E8FE10F0BC70470000C84F0308DE
:1009100038B503F08FFD04460090684603F06AFE88
:10092000204638BD002808BF704738B50C4605463C
:1009300005F0DEF9284603F07DFD00904465684629
:1009400003F058FE28460FF045FC08F00BF938BDBF
:1009500038B50C46054605F0CBF9284603F06AFD8C
:100960000090064984654166684603F043FE2846C8
:100970000FF030FC08F0F6F838BD00008C050020C0
:10098000042928BF7047F0B4044A52F8211090E8B7
:10099000FD1081E8FD10F0BC70470000C84F03084F
:1009A000F0B583B00F4605004FF0010421D005F0EB
:1009B0009FF9284603F03EFD0190866E01A800963F
:1009C00003F018FE3946684609F02EFB78B100980E
:1009D0000024B04208D0284603F02CFD0190009975
:1009E000816601A803F006FE28460FF0F3FB08F02D
:1009F000B9F803B02046F0BD002808BF7047F8B52D
:100A000015460C46064605F073F9304603F012FD14
:100A10000090032C3CBF00EB84000564684603F0A3
:100A2000E9FD30460FF0D6FB08F09CF8F8BDFEE774
:100A30002DE9F04F466804460146CDB030460DF032
:100A400039FF002804BF4DB0BDE8F08FFC4F20688F
:100A5000DFF8F0B30E280FD00F2800F02D822628E3
:100A600000F07A83B0F5107F00F0618120460EF02F
:100A70000DFC4DB0BDE8F08F304610F0E4FD0028CD
:100A800004BF4DB0BDE8F08F6C2225A930460EF0B2
:100A90003FFA2B9828B9DDE92501279A2D92CDE957
:100AA0002B0128992B9888421CBF4DB0BDE8F08FD0
:100AB0002C99299881421CBF4DB0BDE8F08FE068A9
:100AC00041680029DCBF4DB0BDE8F08FDDE92C4561
:100AD0000068DDF8AC80132808BFE81D17D00CDCD7
:100AE000102808BF681E12D0112808BFE81F0ED0BA
:100AF000122808BF681C0AD00AE0212808BF601E1F
:100B000003D0222808BF601C02D12C9000E02D9059
:100B10002C980C2804DD0C382C9008F1010005E01D
:100B2000012804DA0C302C90A8F101002B90083732
:100B3000B7E80F56CDE9400142A880E80C5697E887
:100B40000F000DF59079283F89E80F002C98401E82
:100B50008BFB00214A10A2EBE171A1EB810100EBBC
:100B6000810040A951F820002C99022905BF2B993A
:100B700011F0030F0021012108442D9981420DDD60
:100B8000081A2D902C98401C2C900C283BDD2B989B
:100B9000401C2B902C980C382C9034E0012932DA30
:100BA0002C98401E2C90012805DA2B98401E2B9083
:100BB0002C980C302C900837B7E80F56CDE940013F
:100BC00042A880E80C5697E80F000DF5907989E867
:100BD0000F002C98401E8BFB00214A10A2EBE17104
:100BE000A1EB810100EB810140A850F821102C9865
:100BF000022805BF2B9810F0030F002001200844A5
:100C00002D9908442D904FF4B07130460EF084FEBB
:100C100007462C9A6FF003003D9900EB82002B9B56
:100C20000A5840A8CDF80800029912F8010B01F803
:100C3000010B02910028F7D143B1481E202100F892
:100C4000011B029002A9184603F0F9FC40A938469E
:100C50000DF059FB2C9829902B9828906C2225A9EF
:100C600030460EF06BF92998844204BF28988045DD
:100C70001CD04FF00000ADF80000DDE93B1001444E
:100C80003A98ADF80210C0EBC000A0F101023B9809
:100C9000ADF80420C0EBC000A0F101000144ADF8A4
:100CA0000610694630460FF025FA30E02D9925A848
:100CB000CDE9085107AA40A914F058FD002508AC59
:100CC00054F8253003B3DDE94001CDE904010021EA
:100CD00007985B1E0A4644F8253018BF3A9B0CD093
:100CE000401C072818BF194418D000BF54F825C06D
:100CF000BCF1010C44F825C0F2D104A806F086F935
:100D000004A930460FF0F6F96D1C022DD8D304214A
:100D100030460FF046FB4DB0BDE8F08FA3EB830CDF
:100D200001EB4C01DDF8ECC000206244DEE7E46832
:100D3000002C04BF4DB0BDE8F08F207A00287DD094
:100D40006C2225A930460EF0E3F8DDE92B012D9A3F
:100D50000792CDE90501D4E9005425A808AA6946FF
:100D600014F004FD3A983A9995FBF0F048433C9909
:100D70003B9A611A891A91FBF2F13C9B083701FBFF
:100D800002311144BDF900200DF5807A801A3A9A9B
:100D900090FBF2F2BDF90200081A3B9990FBF1F0CA
:100DA000C0EBC0001044B7E83E138AE83E1397E852
:100DB0000E1048AD401C85E80E102999491E8BFB8A
:100DC00001325310A3EBE272A2EB820201EB82012B
:100DD00040AA52F82110299A022A03BF289A12F039
:100DE000030F0122002211440128A8BF81424CDBDD
:100DF000DDE92812CDE92C202B910C222BA905A886
:100E0000FFF774FAD8B16C2225A930460EF096F897
:100E10002D990798CDE9400125AB44AA08A91846A9
:100E200014F0A4FC002440AD55F8243033B3DDE9C0
:100E30000801CDE9420100210A4605E035E020E045
:100E4000D84F0308ABAAAA2A44985B1E45F8243061
:100E500018BF3A9B0BD0401C072818BF19441BD061
:100E600055F824C0BCF1010C45F824C0F3D142A8C8
:100E700006F0CCF842A930460FF03CF9641C022C75
:100E8000D2D3042130460FF08CFA012130460FF006
:100E900088FA4DB0BDE8F08FA3EB830C01EB4C0159
:100EA000DDF8ECC000206244DAE7022130460FF0A2
:100EB00078FA4DB0BDE8F08F4FF000096C2225A9FB
:100EC0003046CDF808900EF023F830460EF003FEC1
:100ED000804630460EF017FE044634986FF0704A94
:100EE000504509D006F03BFE3C980021431EA8F176
:100EF0000102084604F0D0FCADF820903C98ADF813
:100F000022003A98CC4D401EADF82400601EADF88A
:100F10002600002425AE3F984A4601190846C5FB25
:100F200001208210A2EBE070A0EBC0000844039007
:100F30000228ACBF0120002006EB8000406A50452B
:100F400004D006F00CFE08A804F0D2FC002208A889
:100F50003A9906F05BF8641C072CDCDBADF82090B6
:100F60003C98ADF822003A99491EADF824103B99FF
:100F70000844401EADF82600389806F00DFE022009
:100F800006F05AFE369806F0EAFD00243F984946DE
:100F900002191046C5FB02108110A1EBE070A0EB16
:100FA000C00010443E9903900E2251F8200008A979
:100FB00003F050FF002208A83A9906F027F8641CB5
:100FC000072CE3DBBDF92600A8F10302022104F09F
:100FD000E5FA03AA08A925A814F0C8FB3F9900293F
:100FE00040F31E8111F0010F05D003980628B4BF0D
:100FF000401C0020039048100CD003990629B4BF70
:10100000491C002103910629B4BF491C002103910A
:10101000401EF2D108370DF5807EB7E83F118EE80B
:101020003F1197E80F0048AC84E80F002998401E54
:101030008BFB00214A10A2EBE171A1EB810100EBD7
:10104000810040A951F820002999022905BF28995B
:1010500011F0030F0021012100EB01054FF0000406
:10106000002DCEBFDFF8D4814DB0BDE8F08F00BFBA
:1010700004F131008DF8080014E0092CF8DB601C45
:1010800088FB00108110A1EBE07000F130018DF8B9
:1010900008104042611C00EB800001EB4000303042
:1010A0008DF809002B992898814241D12C992998D3
:1010B00081423DD12D98611C884239D130985045EC
:1010C00004D006F04CFD08A804F012FC339F2599CB
:1010D000289881420DD129992698884209D12799CB
:1010E000601C814205D1379806F039FD08A804F04C
:1010F0001FFB384606F033FD0E2208A902A803F0B4
:10110000A9FE0398401C0390072808BFCDF80C9057
:101110003F990398814214D1002108A83B9A05F019
:1011200075FFADF820903A98401EADF824000DE010
:1011300003980228ACBF0120002006EB8000076B5B
:10114000C5E7002208A83A9905F060FF641CAC428C
:1011500093DB4DB0BDE8F08FA0680EF070FCE16845
:10116000B0F5B87F15D0A0F58070713807BF02299F
:1011700001244DB0BDE8F08F4FF06C020AA9304653
:101180000DF0C6FE0E9800190E900AD00D280DD055
:1011900011E002290EBF4FF0FF344DB0BDE8F08FD3
:1011A000EAE70D98401E0D900C2003E00D98401CBE
:1011B0000D9001200E904FF4B07130460EF0ACFB54
:1011C00004460E9A6FF00300229900EB82000B5840
:1011D00025A90D98CDF80010009A13F8011B02F80C
:1011E000011B00920029F7D138B1511E202201F8CD
:1011F000012B0091694603F022FA25A920460DF043
:1012000082F86C220AA930460DF098FE30460EF0A6
:10121000E1FF0A2130460FF0C4F84DB0BDE8F08F71
:1012200000293FF4F7AE03980628B4BF401C002005
:101230000390491EF7D1EDE69324499267666666EE
:101240002DE9FF4FC9B00E46DDE95749DDE9598761
:101250009A46154670211EA8DDF858B1FFF734F8FC
:101260006C2103A8FFF730F8ABF101000C2880F0E7
:10127000E280AAF22E6042F2E201884280F0DB8036
:1012800044226F490CA8FEF7F7FF6E4B00211A4667
:101290000846E4FB0320C008A0EB40102044CDE941
:1012A00003ABCDE9050A0120CDE907B06648059BEF
:1012B000CDF824A0CDE91D90CDE90AB318981A9B6A
:1012C000C0EBC0021998ADF88260C0EBC0001844B2
:1012D000ADF888006C202490ADF88A704FF4B87097
:1012E000ADF89C000320ADF89E001A98574B0A38C1
:1012F000ADF8808025932C93ADF8A40040F27113D3
:10130000ADF88450ADF8B830ADF886201A9B4FF098
:10131000050CD21AD21DADF8BA204D4B3393ADF85F
:10132000C0004FF4B073ADF8D430C31CADF8A0C00A
:10133000ADF8A200D21AADF8DC00ADF8BCC0ADF833
:10134000D8C0ADF8BE00ADF8D630ADF8DA200091C7
:101350000191404A04211EA8499B03F0F7FA0500B9
:1013600069D06FF070410DF0D6FD3B4928460FF073
:10137000D9F94FF4B87128460EF0CEFA0446002190
:101380000DF08BFB35492046FFF7E2FA40F2711170
:1013900028460EF0C1FA044600210DF07EFB2F49CD
:1013A0002046FFF7D5FA4FF4B07128460EF0B4FA94
:1013B00004462B490FF0B6F90E2120460CF0CFFF62
:1013C000204613990CF0E2FF204617990CF082FF9B
:1013D00020460DF04FFE204612990CF059FF079958
:1013E0006FF003021B9802EB81013AAA415806985C
:1013F000CDF80020009B11F8012B03F8012B00937E
:10140000002AF7D138B1591E202201F8012B009192
:10141000694603F014F93AA920460CF074FF2846F7
:101420000FF04EFA6C2203A928460DF087FD4DB04F
:101430002846BDE8F08F4DB00020BDE8F08F0000D9
:10144000440300202184104289EE0108AD05010803
:10145000A7E10108310A010845A802089D420208D7
:10146000D996020830B59BB00C46054604F040FC06
:101470006C22694628460DF04BFDDDE90601089A0D
:10148000A260C4E9000107F06DFB1BB030BD30B5B0
:101490009BB00C46054604F02BFC6C22694628469E
:1014A0000DF036FDD4E90012A368CDE900120293D5
:1014B0006C22694628460DF041FD28460EF08AFE52
:1014C00007F050FB1BB030BD022828BF7047024A0E
:1014D00002EB80008162704744030020064A002826
:1014E00004BF91637047012804BF1163704702284D
:1014F00008BF5163704700004403002000B583B06B
:101500000EF0F4F90021009103460191034A0321F2
:10151000034803F01BFA03B000BD000041A6020817
:101520001CD5020800B583B00EF0E0F9002100914F
:1015300003460191034A0221034803F007FA03B06E
:1015400000BD000045A20208B0D3020810B582B069
:101550000EF0CCF90021009103460191054A0B21C0
:10156000054803F0F3F9044607F08CF902B0204671
:1015700010BD000071A30208E8D302087047000004
:1015800000B583B00EF0B2F900210091034601913D
:10159000034A0721034803F0D9F903B000BD000056
:1015A000799A020880D10208002808BF70472DE907
:1015B000F04F91B00F46044604F09AFB204602F02B
:1015C00039FF039090F854A0D0F83490866DC56C24
:1015D00003A803F00FF826B139462046B04700F0C3
:1015E000ABB900264FF00108122F7DD006DC082F82
:1015F0007BD0102F7AD0112F3CD006E0132F5BD078
:101600001D2F00F0E4801E2F71D0202FC0F2948196
:10161000BAF1000F00F0F280204602F00BFF0590B7
:10162000D0F834A0D0F84C9005A802F0E3FFBAF14E
:10163000000F00F0E380504602F0FCFE824649466F
:10164000069007F063F981465046FEF748FE48458C
:101650007DD9D144484607F005F909EB0001484619
:10166000FEF751FE06A802F0C5FF052120460EF048
:1016700098FEC3E0B9F1000F00F05E81484602F029
:10168000D9FE07462946049007F040F9074438463A
:1016900007F0D8F80546029607F002F98046681C64
:1016A00086B2304607F0FCF80546A84526D004A8C7
:1016B00002F0A0FF00F040B9B9F1000F00F03C814A
:1016C000484602F0B7FE07462946049007F01EF987
:1016D0000744384607F0B6F80546029607F0E0F8EA
:1016E0008046681E86B203E016E021E01AE043E07F
:1016F000304607F0D5F80546A845D8D1314602A8AE
:1017000007F08EF82A4602A93846FEF7B5FD0521F6
:1017100020460EF046FECAE7691C204600F052FC47
:1017200000F00AB9691E204600F04CFC00F004B934
:10173000002D00F00181691E204600F043FC204688
:1017400002F078FE0190C76C456B01A800E052E002
:1017500002F050FF002D00F0EF80284602F06AFEF4
:1017600006463946029007F0D1F805463046FEF7A6
:10177000B6FDA84229D918E0204602F05BFE019090
:10178000C76C456B01A802F035FF002D7ED02846BE
:1017900002F050FE06463946029007F0B7F80546BB
:1017A0003046FEF79CFDA8420FD93544284607F085
:1017B00059F829182846FEF7A6FD02A802F01AFFDC
:1017C000052120460EF0EDFDB6E002A810E020460F
:1017D00002F030FE0390BAF1010F08BF80F85460A8
:1017E00005D080F854802946204600F0EBFB03A882
:1017F00002F000FFA0E006A802F0FCFE1FFA87FB43
:10180000204602F017FE07460290B0F93800002883
:1018100012DD786B4FF0000940B102F00BFE009032
:1018200008F04EFA8146684602F0E4FEB7F9381037
:1018300009F10100884200DC46460298C06C07901E
:1018400002A802F0D7FE002E76D0584607F028F8FE
:10185000074626464FF00008204602F0EBFD0B90AD
:10186000406B40B102F0E6FD0890FEF738FD80467F
:1018700008A802F0BFFE0B9907EB0800498F401A39
:1018800000F101080BA802F0B5FE00E054E0B8F149
:10189000000F2CDD304608F1100802F0CBFD00905F
:1018A000D0F834A0408F8044684602F0A3FE414641
:1018B000504602F0D3FD5FEA00093DD0BAF1000FB7
:1018C0000AD102F0B7FD204B0D9042461B68002163
:1018D00098470DA802F08EFE304602F0ABFD009056
:1018E000A0F83A80C0F83490684602F083FE2046A3
:1018F00002F0A0FD0290466B02A802F07BFE30468B
:1019000002F098FD06460F90079906F0FFFF064487
:101910003046FEF7E4FC421CF0193146FEF7ACFC01
:101920005946304606F07CFF0FA802F063FE052101
:1019300020460EF036FDEFE620460EF04BFC07F099
:1019400011F911B0BDE8F08FEC04002070B54568C6
:10195000044682B028460FF076FE06462146284609
:101960000CF0A8FF002804BF02B070BD20680F284B
:1019700044D004DC0B2847D00E2850D066E0A0F5F8
:101980008070133804D0A0F580702D381FD05DE032
:1019900028460EF057FE284602F04CFD009090F8C5
:1019A000561081F0040180F85610684602F022FEBD
:1019B0000021284614F076FC284602F03BFD0090FA
:1019C000D0F8840000210EF0D4FD684624E0E068E1
:1019D00078B1017A41B10168284600F022F901216D
:1019E00028460EF0DEFC31E0022128460EF0D9FC3C
:1019F0002CE0032128460EF0D4FC27E001212846E4
:101A000014F050FC02B070BD284602F013FD0190A6
:101A1000343002F017FC01A802F0ECFD16E0AEB184
:101A2000E0684168002911DD01681B290ED009DC3E
:101A300009291CBF0A290D2908D02846FFF7B4FD43
:101A400002B070BD212918BF2229F6D120460DF021
:101A50001DFC02B070BD2DE9F04186B00DF13008DB
:101A600098E8F0104FF00008CDF814808DE8F010E1
:101A700000F004F806B0BDE8F08100002DE9FF4F4A
:101A800085B09846DDE91654DDE9126B91468A4629
:101A9000159F04F02DF904F16001324A03914BF4D3
:101AA00080500096CDE9010243464A4651460598CA
:101AB0000DF030FB04004FD002F0BCFC1022394680
:101AC00004900DF03BF92848049990E8CC1701F1F7
:101AD000600B8BE8CC17006AC1F88000012081F808
:101AE0005500681C18BF012081F88800002DD8BF60
:101AF00008252AB20A87002048874863551C04A895
:101B000002F078FD204602F095FC0090476B408F74
:101B10000544684602F06EFD2946384602F09EFCF8
:101B2000060015D057B902F085FC104B01902A46EB
:101B30001B680021984701A802F05CFD204602F0D6
:101B400079FC009045874663684602F053FD03E048
:101B500020460DF0D5FB002407F004F809B020461C
:101B6000BDE8F08F4D19010898050020EC04002015
:101B700001488068704700009805002038B50400CF
:101B800008BF38BD04F0B4F8204602F053FC0090C2
:101B9000846E684602F02EFD06F0E4FF204638BD54
:101BA00038B505004FF000040BD004F0A1F828462A
:101BB00002F040FC0090846C684602F01BFD06F0C9
:101BC000D1FF204638BD002808BF7047F8B516463B
:101BD0000C46054604F08CF8284602F02BFC0090D9
:101BE000002818BF032C05D200EB84008667284626
:101BF0000EF0F0FA684602F0FDFC06F0B3FFF8BD07
:101C000070B50D46044604F073F834B129462046F9
:101C100000F0D8F920460EF0DDFABDE8704006F07D
:101C2000A1BF002808BF70472DE9F04186B00C46DF
:101C3000074604F05DF8384602F0FCFB0090406B6C
:101C4000002849D002F0F6FB03900098806E05F062
:101C5000A3FF804638460DF03EFF0646039803F08A
:101C600069FF0546009890F8601001F00301012912
:101C700018D002290FD0416EC06A00680844201AAB
:101C8000441E039808F01CF8002C11DA0021384695
:101C900000F098F917E0701B401C00EBD070A4EB2B
:101CA0006004EEE7406E711B081A201A441CE8E736
:101CB000A54204DB02462146039807F095FF014642
:101CC000384600F07FF903A802F094FC404605F086
:101CD00063FF38460EF07EFA684602F08BFC06F091
:101CE00041FF06B0BDE8F0812DE9F8431D46DDE96E
:101CF000086714468946804603F0FAFFB8F1000FE2
:101D000075D0404602F096FB3B49009081653B4907
:101D1000C1650021C0E91291C0E90F4580F8446017
:101D200080F85670012180F8541090F88890684629
:101D300002F060FCB9F1000F40D0002DA7BF0121D7
:101D40000B460221CB1EB8BF6D422D4A0A2D08DB7F
:101D500082FB05C04FEAA00CACEBE075491C0A2DD4
:101D6000F6DAB3F1FF3F02BF4B1EB342491C002C11
:101D7000BDBF02204FF0FF3C64420120A8BF844653
:101D80000A2C07DB82FB04439C10A4EBE374401C89
:101D90000A2CF7DABCF1FF3F02BF431EB342401CDE
:101DA000002E1CBF401C491C17F0010F18BF491C16
:101DB0008142D8BF0146404600F03CF8404617F04B
:101DC000A7FC404602F036FB009000F0E5F80D4914
:101DD0000978884205D10098C06C411C404600F04B
:101DE000F1F8684602F006FC40460EF0F3F906F002
:101DF000B9FEBDE8F8830000B91E02081197020879
:101E00006766666604010020002808BF704738B581
:101E10000C46054603F06CFF284602F00BFB0090D1
:101E2000846628460EF0D6F9684602F0E3FB06F019
:101E300099FE38BD002808BF70472DE9F04184B0F5
:101E40000C46064603F054FF304602F0F3FA0090C9
:101E5000B0F93810458FA14248D012DD406B80B1F7
:101E600002F0E8FA019007F02BFFA04206DD2146C0
:101E7000019806F04BFD019A0021115401A802F0CF
:101E8000B9FB684602F0B6FB601B451C304602F009
:101E9000D1FA0290D0F83480408F054402A802F0B5
:101EA000A9FB2946404602F0D9FA070016D0B8F13E
:101EB000000F0AD102F0BEFA104B03902A461B68AD
:101EC0000021984703A802F095FB304602F0B2FAD1
:101ED00002904587476302A802F08CFB304602F06F
:101EE000A9FA0090048730460EF074F9684602F0B3
:101EF00081FB06F037FE04B0BDE8F081EC04002061
:101F0000002808BF7047F8B516460C46054603F092
:101F1000EFFE284602F08EFA0090002818BF032C2E
:101F200005D200EB8400C66628460EF053F96846D9
:101F300002F060FB06F016FEF8BD38B505000C4651
:101F400008BF38BD03F0D4FE284602F073FA0090B3
:101F5000C16BA1421CDC016CA1421BDB816CA14264
:101F600010D08464C16D00291CBF284688472846CC
:101F70000EF030F9684602F03DFB052128460EF0D0
:101F800010FA02E0684602F035FB06F0EBFD38BDC2
:101F90000C46E0E70C46E1E738B50546406B002407
:101FA00068B102F047FA00900446E96C06F0AEFC16
:101FB000204406F047FC0446684602F01BFB20461E
:101FC00038BD000010B582B00C4602F033FA009024
:101FD000406BE8B102F02EFA019007F071FE009913
:101FE00091F85420002A18BF0122002C15DB8442EE
:101FF00015DC00BFB1F93800801AA04211DBC86CB3
:10200000A04218BFCC640020086501A802F0F2FAD3
:10201000684602F0EFFA02B010BD0024E7E704467C
:10202000E8E7B1F93800841AE9E700002DE9F04744
:10203000446805468EB04FF00008204602F0FAF9D9
:102040000090B0F87CA0D0F86890D0F88070D0F8FC
:102050008860C06D002818BFD0F80080684602F084
:10206000C9FA56B171682846884700281CBF0EB0CF
:10207000BDE8F0873668002EF4D12868172802BF23
:10208000C5F80C900EB0BDE8F08713DC0F2844D0E3
:102090000ADC0B2800F053810D2808BF1AF0080F46
:1020A00000F0F68000F054B9112814D0142870D034
:1020B00000F04EB926286DD006DC1E286BD02028F3
:1020C00000F0F08000F044B92A2818D0B0F5107F55
:1020D0002AD000F03DB92046EE6802F0ABF901903D
:1020E000717A002904BF317A012905D1B0F87C103A
:1020F00041F48071A0F87C1001A800F0FDB82046E2
:1021000002F098F90090E968002912BFC0F8841025
:10211000D0F88400E860684649E0B8F1000F1CBFC1
:102120002046C04700F014B927462046EE6802F06A
:1021300081F90190B0F87C4001A802F05BFAE868F0
:10214000002804BF0EB0BDE8F087307A20B314F049
:10215000080F04BF38460EF0B3FB38460CF046FFBC
:1021600014F0100F12BF14F4807F0EB0BDE8F0879A
:10217000002314F0800F1CBF0EB0BDE8F087794833
:102180003146B0F9002038460EF00EFB0EB0BDE827
:10219000F0870FE018E024E0384602F04BF9019098
:1021A000B0F87C1021F48071A0F87C1001A802F036
:1021B00021FAEBE705A9204600F032FCDDE9061222
:1021C000E86801604260E1E7E8680228DED10C942B
:1021D000E8680D9027200A900AA9A8680FF00EFC65
:1021E000D4E7E868012819D0002CCFD003F080FD97
:1021F000204602F01FF90190B0F87C1011F0080F92
:1022000006D021F00801A0F87C1020460DF0E2FF76
:1022100001A802F0EFF906F0A5FCB7E738460EF08A
:1022200051F858B138460EF04BFB38460DF0C8FE59
:1022300088B1012138460CF008FC0CE048460EF04D
:10224000BBFB0746204602F0F5F80090C0F880700E
:10225000684602F0CFF9B4B103F04AFD204602F01F
:10226000E9F80290B0F87C1011F0080F06D141F0A7
:102270000801A0F87C1020460DF0ACFF02A802F087
:10228000B9F906F06FFC002F04BF0020E8607DE77D
:10229000E868C06800281FBF007A002820460EF0BA
:1022A0000FFB55E0EE684EB3214670680FF0B4F9AD
:1022B00000282746204622D002F0BCF80490B0F84F
:1022C0007C1011F0080F06D141F00801A0F87C1035
:1022D00038460DF07FFF04A802F08CF921467068A3
:1022E0000FF086F950B1204602F0A4F80290716810
:1022F000C0F880100DF1080002F07CF928E002F02F
:1023000099F80490B0F87C1011F0080F06D021F075
:102310000801A0F87C1038460DF05CFF04A802F01C
:1023200069F9214630680FF063F988B1204602F060
:1023300081F802903168C0F8801002A8DCE72046DE
:1023400002F078F80090703001F07CFF6846D3E727
:10235000294620460CF0AEFA00281CBF28460CF097
:1023600095FF13E78803002070B588B0B0F90840E6
:102370000DF10C0E0C9ED0F818C045688EE8701058
:10238000B0F812C00024CDE90014CDF808C0B0F9AF
:102390000C10B0F91040B0F90EC0B0F90A001944A1
:1023A00010442346624600F003F808B070BD0000F8
:1023B0002DE9FF4F8BB09946DDE91885DDE91B67F4
:1023C00092468B461E9C03F093FC04F16000444946
:1023D00045F48055CDE90210CDE900854B465246C3
:1023E00059460B980CF096FE040073D002F022F8C8
:1023F0003022314604900CF0A1FC3A4E049A06F1CA
:10240000080102F1340E91E80B1F8EE80B1FD6E98C
:102410000A01C2E915011D9850661A98A2F87C00BD
:102420004FF00008C2F88080C2F86C80C2F8888043
:102430007068D06504A802F0DDF805A9204600F018
:10244000EFFA294841F28271CDF80C800094CDE971
:102450000110BDF91E00BDF91A10BDF91C20401A6B
:10246000431CBDF91800121A521C0CF053FE804692
:102470007068416820468847204601F0DBFF0490E1
:10248000C0F8688004A802F0B5F842F204000542E2
:1024900004BF20460DF002F803F02AFC204601F0AC
:1024A000C9FF0090006F0190684602F0A3F839461A
:1024B00001A807F0B9FD58B1204601F0BBFF00901C
:1024C00001990167684602F095F820460DF082FEFA
:1024D00006F048FB06F046FB0FB02046BDE8F08F43
:1024E0002D20010888030020DF2D01082DE9F0418F
:1024F000044698B0006800F0BDF9002814BFDB4D19
:10250000DB4D6068152802BFA86A18B0BDE8F081ED
:1025100012DC0B282AD007DC002800F09281052865
:1025200000F02C8100F09DB90E2800F07781122870
:1025300000F03B8100F095B9162802BFE86918B099
:10254000BDE8F081172802BF286A18B0BDE8F08105
:10255000182802BF686A18B0BDE8F0811C2802BFC5
:10256000686918B0BDE8F08100F07BB920680E9072
:102570001C200F90206801F05DFF0390016D0EA8F4
:102580008847064603A802F035F8022E11DBD5E98C
:102590000001AA680292CDE90001D4E904023346A1
:1025A000A16906F0D9FF20698719A069A0EB060888
:1025B0002CE0286805F0D3FA2169E8690844421E36
:1025C000606902F0EBFFA269E869101A411C6069BA
:1025D00002F0E4FF6069471C3946206903F038F8CF
:1025E0003946A06903F034F8686805F0B8FA206944
:1025F0003946401C03F02CF8A0693946401E03F010
:1026000027F82069871CA069A0F10208286805F056
:10261000A6FA42463946606902F0C0FF686805F0D4
:102620009EFA606942463946401C02F0B7FF686A6C
:1026300002287DDDA86805F092FA60696A6A811C4B
:102640001044431E4246384603F026F96069022EC4
:10265000ACBF0644861CE069471E286805F07FFA77
:102660003A463146206903F0ABF83A463146A06954
:1026700003F0A6F8E069871E686805F070FA206923
:102680003A463146401C03F09BF8A0693A46314671
:10269000401E03F095F8E8690228DCBF286A02288A
:1026A00020DDA86A0228C7BFE1690F1AE069871E0A
:1026B000A86805F054FAE969022907DD22693B465A
:1026C000901C11444A1E314603F0E6F8286A02289D
:1026D00008DDA169E8698A1E081A3B463146401C9C
:1026E00003F0DAF8286805F03AFAD4E906202169FF
:1026F00002F054FF686805F032FAA069421E2069B2
:10270000411CE069401E02F049FFA86A02284BDD27
:1027100021698E1CA1698F1EE169081A441CA1F170
:102720000208A86805F01BFA43463A46214600E035
:1027300003E0304603F0B0F893E0296AB14285DD4A
:102740006069022E00F10208ACBF87194746206974
:10275000ACBF3044801C22693B461144A1F1010208
:10276000414603F099F8A069022EACBF821B821E7D
:10277000E9693B46401A4146401C65E7208A00B2A1
:10278000ADF81800A18A09B2ADF81A10228B12B266
:10279000ADF81C20A38B1BB2ADF81E30D5E9034C5D
:1027A000CDE9004C02F0ECFD5BE0208A298B084467
:1027B000ADF81800A08AADF81A00208B298B401ABA
:1027C000ADF81C00A08BADF81E00206801F032FEB1
:1027D0000390006FF0B1022005F02EFA039991F8F2
:1027E0007C00C0F3C00001EB8000006C05F0B7F97D
:1027F0000398406B05F0D0F90398006F01F01AFEC2
:1028000003990A90B1F95A2006A902F023FB0AA8FD
:1028100001F0F0FE03A801F0EDFE22E0208AADF801
:102820001800A08AADF81A00208BADF81C00A08B10
:10283000ADF81E00A86805F092F906A803F058F854
:102840000FE0206801F0F6FD0390B0F85A1041F057
:102850000C01A0F85A1003A801F0CCFE20680EF07D
:102860002DF918B00020BDE8F0810000D00500204F
:10287000FC05002038B505004FF0000410D003F02F
:1028800037FA284601F0D6FD009090F87C0010F051
:10289000080F18BF0124684601F0ACFE06F062F98B
:1028A000204638BD2DE9F04383B00D46064603F0BF
:1028B0001FFA002E34D0304601F0BCFD0190C16DEE
:1028C00000248F6890F8321011F0200F06D0B0F974
:1028D00054401CB9406B03F05BF9841C01984563BC
:1028E00001A801F087FE3A680121304690478046F2
:1028F0003B680321304698478146D7F800C0002145
:102900003046E0470546304600F02EFA4B46424638
:1029100021463046009500F0A6F930460DF05AFCED
:1029200006F020F903B0BDE8F083002808BF704727
:1029300038B50C46054603F0DBF9284601F07AFD70
:102940000090B0F95A10A14204D0A0F85A4028468D
:102950000DF040FC684601F04DFE06F003F938BD6D
:10296000002808BF704738B50C46054603F0C0F98B
:10297000284601F05FFD009004644464684601F05D
:1029800039FE28460DF026FC06F0ECF838BD2DE99E
:10299000F04383B00E4607004FF000053CD003F033
:1029A000A7F9384601F046FD0190B0F954100D46E4
:1029B0008E422CD090F83220002412F0200F05D047
:1029C0002C0003D1406B03F0E3F8841C0198012133
:1029D000A0F85460C06D86683846326890478146DA
:1029E00032680321384690478046326800213846D5
:1029F00090470646384600F0B7F943464A46214616
:102A00003846009600F02FF938460DF0E3FB01A898
:102A100001F0F0FD06F0A6F803B02846BDE8F0830B
:102A20002DE9F04F00278DB00C468146BA4601F0E3
:102A300001FD0190C06D0121856848462A689047D4
:102A400080462A6803214846904707902A68022159
:102A50004846904706902A68002148469047064617
:102A600001980EF02BFC059001980EF02EFC834689
:102A7000019890F8321001F02001002918BFB0F938
:102A800058A04FF0000506D0B0F954501DB9406B66
:102A900003F07EF8851C0198C06E10B10DF033F87C
:102AA000074625806780A4F8048007990598401A96
:102AB00006EB0A01401E294420813944E180069931
:102AC000ABEB0101491E6181A4F80C8020827019D2
:102AD000E681401E608201A801F08CFDB4F90C7003
:102AE000B4F910604D46484601F0A4FC0690C16D53
:102AF000D0F8008006A8D1F8089001F07BFDD9F845
:102B00000020002128469047814628460CF069FFA6
:102B1000050024D001F08EFC0790B0F900200FFAD8
:102B200088F1B0F90430521A5B1AB0F90210A1EB27
:102B3000284149450BD190F8280010F0800F03D0B0
:102B40009642A8BF561E02E09F42D8BF5F1C07A84E
:102B500001F050FD28460CF080FF0500DAD1A78176
:102B600026820DB0BDE8F08F10B50146002091F827
:102B7000322012F0200F08BF10BDB1F95400002818
:102B800018BF10BD486B03F003F8801C10BD70B572
:102B90008AB00E46044601F04DFC0990C06D856870
:102BA00009A801F027FD0094002E08BF18200BD0C3
:102BB000012E08BF162007D0022E08BF152003D013
:102BC000032E08BF172000D1019069686846884726
:102BD0000AB070BD2DE9F04383B0174688468146A0
:102BE00001F028FC0090C16D056868468C6801F012
:102BF00001FD2268002148469047064648460CF0F1
:102C0000F0FE040004BF03B0BDE8F08301F012FC45
:102C10000190B0F900102AB2B0F90430891A9A1A5A
:102C2000B0F90230A3EB2543B34211D190F828004C
:102C300010F0800F05D038688842A4BF481E386065
:102C400006E0D8F800009042DCBF501CC8F8000035
:102C500001A801F0CFFC20460CF0FFFE0400D5D106
:102C600003B0BDE8F0832DE9FF4F85B09A46914649
:102C70000F46DDF848B0059801F0DCFB0390C16D0C
:102C80008C68FFF771FF064603A801F0B3FC2268C9
:102C900001210598904702902268032105989047EA
:102CA000019022680021059890470546BE4204BF66
:102CB0000298484506D10198504502BF5D4509B0CC
:102CC000BDE8F08FA6EB07044FF00007B846059863
:102CD0000CF087FE060004BF09B0BDE8F08F019834
:102CE000A5EB0B05AAEB000A0298A0EB09093046F8
:102CF00001F0A0FB0090806A10F0800F03D010F468
:102D0000007F06D025E010F4007F22D010F0800F65
:102D10001FD124B12246114630460DF0A9FB009880
:102D200090F8280010F0800F06D004FB17A12A4667
:102D300030467F1C0DF026FB0098008D10F4007FBC
:102D400007D004FB08912A46304608F101080DF02F
:102D500019FB684601F04EFC30460CF07EFE060082
:102D6000C5D109B0BDE8F08F70B586B0064601F058
:102D700061FB0590D0E91A4505A801F03BFC54EA37
:102D8000050004BF06B070BD69463046FFF748FE37
:102D9000ACB1BDF90620BDF9041020460DF09EFA35
:102DA000BDF90A00BDF90610401A421CBDF9080021
:102DB000BDF90410401A411C20460DF0A5FE002D5F
:102DC00004BF06B070BDBDF90600BDF90210421A7D
:102DD000BDF9041028460DF081FA06B070BD2DE94A
:102DE000F0430446406889B005460CF043FE814636
:102DF00001F020FB0290D0F88080876C466E02A81C
:102E000001F0F8FB2068172862D008DC0E2850D0AB
:102E10000F2816D0142818BF152859D052E01E28A4
:102E200029D01F283ED0222802BFE76009B0BDE8A4
:102E3000F083312801BF0020E06009B0BDE8F083D5
:102E400040E06FF07040874204D0384608F0E0FF61
:102E500001F0D4FC002E04BF09B0BDE8F083D4E932
:102E600002122068CDE90405CDE9061204A8B04796
:102E700009B0BDE8F083E068002804BF09B0BDE8F0
:102E8000F083B8F1000F18BFA84505D040460DF0FB
:102E900017FD09B0BDE8F08328460DF08DFD09B09F
:102EA000BDE8F083214648460BF004FD09B0BDE8BB
:102EB000F083E0684168002904DD00680928EBD050
:102EC0000A280BD0002E1CBFC4F804902046CED197
:102ED00020460CF0DBF909B0BDE8F08328460DF080
:102EE000B5FD09B0BDE8F08330B4B3F5804F06D02E
:102EF0006FF0704140F8221030BC0020704750F84D
:102F00002230DFF82CC003EA0C03D1F800C04C6873
:102F10008D894CEA041C8C688969240244EA0544C2
:102F20004CEA040C4CEA0101194340F82210E3E793
:102F30000000F0CF70B40B6850F82320DFF84CC0CD
:102F400002EA0C0C4C688A680E69CD68144335435C
:102F50002C434D692C438D692C43CD692C430D6A5C
:102F60002C434D6A2C438D6A2C43CD6A2C43CD6B88
:102F7000096B2C43214341EA0C01082A01D141F09D
:102F8000400140F8231070BC002070478000F0FF23
:102F900030B4521C50F8223003F04043D1F800C046
:102FA0004C688D894CEA041C8C68240244EA054470
:102FB0004CEA040C0C8A641E4CEA045C0C7D8969A2
:102FC000A41E4CEA046C4CEA0101194340F822109B
:102FD000002030BC704700002DE9F84F0F46DDF8A7
:102FE00028900646941BA3EB0708D9F800504FF031
:102FF000000A54EA080063D0002CD4BF6042204687
:10300000B8F1000FCCBF4146C8F1000188420ADA8E
:1030100020464446804630463E46074610461A46FD
:1030200003464FF0010A002CCCBF20466042A0426C
:1030300008BF012008D03046164602466442C8F157
:1030400000081F464FF0FF300090C448C449B8F153
:10305000000FD0F800C01CBF04EBD4724FEA620B23
:10306000B8BFCBF1000B30D09CF81A20002A00F03A
:10307000FA80009A002ABCBF2A19C9F8002000254E
:10308000002CC0F2458100BF08FB05B090FBF4F0B6
:10309000C219D9F8001000980844B049C9F80000D6
:1030A00009688B7E012B00F00081022B00F0078164
:1030B000032B00F00D81042B00F03A8100F019B9C8
:1030C0003046BDE8F84F00F08DBABAF1000F62D07B
:1030D0009CF81AC0BCF1000F14D04FF00008002C6F
:1030E000A4BF8A46834640DBDBF8001028466D1CEF
:1030F0008A7E012A0CD0022A14D0032A1BD0042A6B
:1031000035D027E031463846BDE8F84F08F076BAAA
:10311000801DC21700EB127222F00F02801A0C28D9
:103120001FDB17E0C21700EB927222F00302801A35
:10313000022816DB0EE08AFB0032D310A3EBE2720A
:10314000524202EB820200EB82000C2809DB1038AD
:10315000022806D3496E06EB08004A680146384645
:10316000904708F10108A045BEDD681EDCE07D4AFD
:1031700082FB00329310A3EBE272A2EB820200EB1F
:10318000C2000C28EDDBA0F11002022A24BF143883
:103190000228E6D3DEE79CF81A80B8F1000F14D0BD
:1031A0004FF00008002CA4BF8A46834642DBDBF8C0
:1031B000001028466D1C8A7E012A0FD0022A17D0E3
:1031C000032A1ED0042A3AD02AE0DCF864003946EB
:1031D000036801B03046BDE8F04F1847801DC217A4
:1031E00000EB127222F00F02801A0C281EDB17E08F
:1031F000C21700EB927222F00302801A022815DB3C
:103200000EE08AFB0032D310A3EBE272524202EBD3
:10321000820200EB82000C2808DB1038022805D35C
:10322000496E06EB08004A683946904708F10108E4
:10323000A045BCDD681EC9F80000BDE8F88F494A0A
:1032400082FB00329310A3EBE272A2EB820200EB4E
:10325000C2000C28EADBA0F11002022A24BF1438B5
:103260000228E3D3DCE70025002CACBF8146BDE893
:10327000F88F00BF08FB05B090FBF4F03844BAF1BA
:10328000000F0AD0D9F800207119526E5268904789
:103290006D1CA542EEDDBDE8F88FD9F8001073195A
:1032A000496E4A6801461846F1E7801DC31700EBD6
:1032B000137323F00F03C01A0C2825DB19E0C31782
:1032C00000EB937323F00303C01A02281CDB10E009
:1032D000234B83FB00C34FEAE30CACEBE3735B428D
:1032E00003EB830300EB83000C280DDB103802286E
:1032F0000AD3496EBAF1000F06EB05004B680EBF0A
:1033000011460146104698476D1CA5427FF7BCAE9A
:103310000098002804DAD9F800002044C9F8000019
:10332000D9F800100098081AC9F80000BDE8F88F15
:103330000C4B83FB00C34FEAA30CACEBE373A3EB92
:10334000830300EBC3000C28DEDBA0F11003022B8B
:1033500024BF14380228D7D3CBE70000180100207F
:1033600067666666ABAAAA2A2DE9F047DFF868927D
:10337000804684B0D9F800000F460C99007E1D46A7
:103380001646012800F0CE80A8EB060C7C1B5CEAF8
:10339000040104BF04B0BDE8F087421E0021BCF167
:1033A000000FBCBF0121CCF1000C002CBCBF41F0D0
:1033B00002016442644504DD20466446844641F0CF
:1033C0000401A0020CEBDC7300EB630090FBFCF04B
:1033D0008010824C4FEA201C00F00F0034F81C30A3
:1033E000C0F1100013FB00F3102807D004EB4C0CC5
:1033F000C0F11000BCF802C01CFB003303F1080050
:10340000C31700EB1370001111F0040F18BFC0F5C3
:10341000806011F0010F18BFC0F5006011F0020FBD
:1034200018BFC0F5805000F5806100F50060C0F362
:103430000B004FF0000AB0F5006FC4BF4FF0010A57
:10344000A0F50060B0F5806FC8BFC0F500604FEA1E
:10345000A01C634B00F03F00C0F1400033F81C405B
:103460004443402818BFBCF1100F07DA03EB4C0CA3
:10347000C0F14000BCF802C00CFB004404F1200085
:103480008009BAF1000F18BF404200FB02FC002483
:10349000C1F30B00B0F5006FC4BF0124A0F50060BC
:1034A000B0F5806FC8BFC0F50060811100F03F002B
:1034B000C0F1400033F811A040280AFB00FA18BF01
:1034C000102906DA03EB4101C0F14000498801FBF5
:1034D00000AA0AF120008009002C18BF404200FB1E
:1034E00002F1BCF1000FB4BFCCF500700CF5007018
:1034F0004FEAA020B8BF40420029BDBFC1F500710E
:103500008912C1F1000C01F50071A8BF4FEAA12C8E
:1035100000280FDD411C01EBD171491000EBD07088
:1035200042100EE0009139464046FFF755FD04B0C9
:10353000BDE8F08700EBD071401E491000EBD07061
:103540004210BCF1000FC6BF0CF1010000EBD070BF
:103550000CEBDC704FEA6000CEBF0CEBDC73ACF11F
:10356000010303EBD3735B1008EB010CADF800C053
:1035700007EB000CADF802C0A8EB020CB21AADF8D4
:1035800004C0ADF808203144A7EB030CEA1AADF8EB
:103590000C102844ADF80A20ADF80E000023ADF859
:1035A00006C01A460421684600F08EF8D9F80020BB
:1035B00040463946527E002A08BF00F013F83046D4
:1035C000D9F800202946527E002A08BF00F00AF8E8
:1035D00004B0BDE8F0870000180100204EBD0308CC
:1035E0002CBD0308064A13681A7E012A05D0521E14
:1035F00002EBD272521000F005B85A6E52681047B2
:10360000180100202DE9F84F06460F4640F2C3206E
:1036100050434FF47A7190FBF1F000F1010A02FB84
:1036200002F002EBD271DFF89C8000EB61000090A9
:10363000D8F8001014463244496E301B0B683946E6
:1036400098470125BAF1010FB8BFBDE8F88F00BF58
:1036500005FB05F004FB0400009988421ADD54457F
:1036600017DDD8F8003006EB050BA6EB05095B6EFD
:10367000ABF1010239191B6809F101009847D8F82C
:103680000030ABF10102391B5B6E09F101001B68D0
:103690009847641ED8F80030321979195B6E301BD8
:1036A00093461B6881469847D8F800305A46791BE4
:1036B0005B6E48461B6898476D1CAA45C8DABDE892
:1036C000F88F0000180100202DE9FF4F83B0074656
:1036D00043F6FF74C4F1000090460E1E0090C4BF74
:1036E000BA1C08460EDD00BFB2F90010A142D8BFD7
:1036F0000C46009B9942D8BF19460091401E02F12A
:103700000402F1D18C490868406970B1B0F9063003
:10371000069A9B1A009A9342C0F20281B0F90230D5
:10372000069A9A1AA24200F3018100988442D2BFFD
:10373000A6F1010907B0BDE8F08F00207F490546DA
:10374000002E0860C4BF069804EB000A7EDD4D45DC
:10375000B4BF6A1C002207EB850C07EB8201BCF9A1
:103760000200B1F90230A04255D1A34213D137F97A
:103770002500514600EB080337F922006E4A404409
:1037800083421268526ED2F800C0BABF0246184691
:103790001A46E04787E000222946B9F1000F0CDD08
:1037A000002914BF491E711E07EB8100B0F9020009
:1037B000A04203D1521C4A45F2DB2046A04272D0FF
:1037C000001B37F925101A1B90EA020F09D45A4A38
:1037D00001EB080051461268526E13680246984782
:1037E00061E0DFF858B1DBF800C0BCF10C0F5ADA29
:1037F0000020BCF1000FC4BF6046514A4CDD00BF41
:1038000002EB400333F9023C8B4245DB22F81030D7
:10381000401EF5D140E0A34245D0A8BF844203DA60
:10382000A042A8BF9C423EDB98424EDC0246A0422A
:10383000DFBF18468442BCF90030B1F9001032DC19
:10384000A1EB030CA11A0CFB01F100E02FE0002911
:10385000A0EB020CCEBF01EB6C01A1EB6C01491C8B
:10386000801A91FBF0F0DFF8D4B0C118DBF800C08B
:10387000BCF10C0F17DA0020BCF1000FC4BF60468A
:103880002F4A09DD02EB400333F9023C8B4203DB94
:1038900022F81030401EF5D1294A22F810100CF100
:1038A0000100CBF800006D1CB542FFF650AF069842
:1038B0000025204401902148AB4601680029C4BF7F
:1038C0001F49B1F900A022DD18E01A46A342DEBF6D
:1038D0008442B1F90030BCF90010B1DDE3E71849CA
:1038E00031F91BA055B108EB000C134808EB0A0294
:1038F00001990068406E0368604698470F490BF1D4
:10390000010B85F00105096850465945E7DC009830
:10391000641C84427FF711AF07B0BDE8F08F00BF91
:10392000B0F90630069A9A1A0092F7E6B0F902202A
:103930000698141AF9E60000180100202C0800204F
:1039400088ED012070B52048046802F0D1F92046C6
:1039500008F05EFA05F006F91C48046802F0C8F9A0
:10396000204608F08FFA05F0FDF8012502F0C0F9B5
:10397000174C2068057605F0F5F802F0B9F92068D3
:103980000025858505F0EEF802F0B2F9206845853E
:1039900005F0E8F802F0ACF9284608F08BFA05F0DB
:1039A000E1F80C48056802F0A3F92068002D18BF63
:1039B000C56105F0D7F8002502F09AF920688576F0
:1039C000BDE8704005F0CEB81401002010010020C1
:1039D000180100200C01002070B50C46054600F0CF
:1039E000FBF8A8682168C16261680163A16841634E
:1039F00011F0040F07D0D0E90021C0E90012D0E98E
:103A00000221C0E90212A189818421690029B8BF7D
:103A1000002118BF016270BD2DE9F0411E46174616
:103A20008846044600F0D8F8A5686822414605F5A6
:103A30008A70FCF721FC2046B8472046B047206931
:103A400080688047A862BDE8F081000010B5044698
:103A500000F0C2F8A0681049134AC0F8AC100F4932
:103A6000C0F8A8100E49C0F8B0100E49C0F8B81040
:103A70000021C0F8BC101368C0F8B4300B4BC0E98B
:103A800033315168C0F8C810C18C21F00301C184E2
:103A90000749C0F8941010BD29920208BD9302088E
:103AA000ED910208ED8B0208F4010020F58C02086C
:103AB0008D91020810B5044600F08EF8A4681048F5
:103AC0001021C4F8EC000F48C4F8F0000E48C4F808
:103AD000F4000E48C4F8F8000D48C4F8A0000D48E2
:103AE000C4F8A400D4F8C800C4F80401D4F89420A1
:103AF000204690471020A0630748606410BD000076
:103B0000412B0208214C02081D3B0108553C0108CD
:103B10008F8B020825980208C8BC0308F8B5846892
:103B200015460F4694F8260010F0020F48D0D4F83E
:103B30000831204698470646D4F80C312A463946C3
:103B400020469847D4F8983005461BB10022012141
:103B5000204698472069B042CCBF01200020A169CF
:103B6000B142B4BF0121002108436169A942CCBF21
:103B7000012100210843E169A942B4BF01210021CC
:103B800008430AD06068401E00902068D4F8A8C09E
:103B9000431E002211462046E047D4F8AC302A46A6
:103BA000314620469847D4F8A01020468847D4F8DC
:103BB000983005466BB1012200212046984708E065
:103BC000D4F8AC3020469847D4F8A0102046884757
:103BD00005462846F8BD000010B504468068002858
:103BE00018BF10BD4FF4BE7000F092FB084BA060F0
:103BF0004FF4BE721B6800219847A0680221C1845F
:103C00000121046401620349C0F8101110BD0000D5
:103C1000EC040020193C01082DE9F0010C4991B099
:103C2000B1E8FC118DE8FC1191E8FE100DF12008BF
:103C300088E8FE10416B5DF82120C0F8082108AA31
:103C400052F82110C0F80C1111B0BDE8F001704716
:103C5000F8E202082DE9F84384681F46154694F8F7
:103C60002600884610F0020F35D0D4F808312046DF
:103C700098470646D4F80CC12A4641462046E047FC
:103C800005462069B042D4BF00200120A169B1429D
:103C9000B4BF0121002108436169A942CCBF0121C1
:103CA00000210843E169A942B4BF01210021084372
:103CB0000AD06068401E00902068D4F8A8C0431E57
:103CC000002211462046E047D4F8AC302A4631465F
:103CD0002046984703E0D4F8AC3020469847D4F803
:103CE000A42001B039462046BDE8F043104700004B
:103CF0002DE9F04F4B4989B00968B1F922200692AD
:103D0000D1F81CC0B1F92470DCF81C40A2898242B1
:103D10009CBFE389984205D8A0EB02094FF0FF3819
:103D2000266812E0D4E90162002A71D01388834228
:103D30009CBF5588A8426BD8C01A526880B202EB6B
:103D40008000B0F90090B0F90280B9F1FF3F5FD078
:103D50009CF81800A27C10FB02FB94F810A00790BE
:103D6000B1F92A50284608F0A5F8C0B208902D48AD
:103D700009FB0B620068A37C4FF00109816BCDE960
:103D80000293CDE90421C0695246C17E807ECDE90F
:103D90000001DDE90603394607F086FAB8F1FF3F76
:103DA00018D045F0020008F085F81E48A37C08FBF7
:103DB0000B620068816BCDE90293CDE90421C069F3
:103DC0005246C17E807ECDE90001DDE90603394619
:103DD00007F06AFA134E3068C069417E007E814266
:103DE00013D9022D11D085F0040008F063F8306873
:103DF000C069017EC27E11FB0271427ED319827EB0
:103E000006981AFB020207F02BFC089808F052F8FB
:103E10000448627C0068418C1144418409B0BDE8CB
:103E2000F08F000018010020044800290068C069D4
:103E3000C0691CBF027C0A60407C704718010020EA
:103E4000022008807047C06982898A429CBFC2896B
:103E5000914210D9806880B102888A429CBF438811
:103E600099420AD8406800EB8100A0EB8200B0F9CB
:103E70000000002801DB012070470020704700008F
:103E80002DE9F043394D024687B02868B0F92A6021
:103E9000C069C1691046002904BF07B0BDE8F083BE
:103EA0000B8883429CBF4B88984205D989680029BA
:103EB000F6D107B0BDE8F083002904BF07B0BDE824
:103EC000F08348680988511A00EBC1043046A7788E
:103ED00007F0F0FF8046286862680123816BCDE916
:103EE0000237CDE90421C169CB7E8A7ECDE900236A
:103EF0000B7EB0F924102278B0F9220007F0D4F933
:103F00002868C069417E027E91421FD9C07E11FBA4
:103F100000F912FB00F7022E18D001F0ACFD0646A6
:103F200001F072FD03F01BFE29682278CB69B1F91C
:103F30002200DB7E12FB0302B1F9241001EB09031E
:103F4000394407F08DFB304603F009FE404607F088
:103F5000B1FF28686278C369B0F922109B7E12FB1A
:103F60000311418407B0BDE8F08300001801002070
:103F700010B4044615480068D0F81CC02046DCF890
:103F80001C2002B3138883429CBF5388984203D9F4
:103F90009268002AF6D116E0AAB110885368221A56
:103FA000012000EBC2009CF81AC0185C10FB0CF05A
:103FB000002904BF10BC704713F8322012FB0CF22A
:103FC0000A6010BC704710BC002070471801002028
:103FD000012008807047C06968B102888A429CBF8E
:103FE0004288914203D980680028F6D103E0002876
:103FF0001CBF012070470020704700002DE9F047EA
:10400000DFF8A480DFF8A4A04FF00009D8F808403A
:10401000002CC4BFD8F8106000251DDDD8F81000B2
:10402000C5EB051700EBC7007022001DDAF8001081
:10403000FCF722F946F8789BD8F8100005F1010545
:1040400000EBC70000F10C018161011D0A1DC0E9F0
:104050000F124164641EE1D1D8F808000024002842
:1040600010DD00BF04F099FDD8F81020C4EB041156
:1040700052F83110814206D081B1D8F80800641C92
:104080008442EFDB4C46D8F81010C4EB041001EB6F
:10409000C000001DCAF80000BDE8F087C4EB0411A1
:1040A00042F83100EFE70000200500201801002051
:1040B00070B51B4919480860084605F0ADFF194C5A
:1040C000A068C0EB0010C500284600F021F9164B8F
:1040D00020612A461B68002198474FF0FF3020607E
:1040E00004F060FDA06800250028D8BF70BD00BFA7
:1040F00004F053FD2269C5EB051152F831108142DD
:1041000008BF70BD21B16D1CA0688542F0DB70BD99
:10411000C5EB051142F8310070BD000021610208B5
:104120003405002020050020EC040020002808BFF2
:10413000704710B5044601F0DBFD20460EF0E2F8B2
:10414000044604F00FFD204610BD00002DE9F041AB
:10415000074601F0CDFD002F08BF002430D001F04C
:10416000C7FD38460EF0CEF8044604F0FBFC002CE8
:1041700026D0164D164B3A46E869401CE861686B3C
:1041800000EBC4000178491C01700421686B01EB4D
:10419000C4011B684058002100F1080630469847CA
:1041A00056F8081C686B00EBC1000178022904D3A3
:1041B000E96900291CBF491EE9610178491E0170A7
:1041C00004F0D0FC2046BDE8F081000020EA012088
:1041D000EC040020024A106021F003005060704798
:1041E000E0EA0120002808BF704770B5044601F0DE
:1041F0007FFD0C4D042000EBC406696B89594868AB
:104200000DF0FCFD6868401C6860696B686A885145
:10421000696B002001F834006C62BDE8704004F066
:10422000A1BC000020EA0120002808BF7047044A12
:10423000D16B0160002918BF4860D063704700004F
:1042400020EA01202DE9F041064601F051FD3468D5
:104250000027C4B101F04CFD0D4D042000EBC40853
:10426000696B51F8081048680DF0C8FD6868401C7B
:104270006860696B686A41F80800686B00F8347020
:104280006C6204F06FFC3760BDE8F04104F06ABC7A
:1042900020EA01202DE9F05F0F1E81464FF0000556
:1042A000C6BFDFF868804FF0000ABDE8F09F00BF8E
:1042B00009EB850601F01CFD3468F4B101F018FD2E
:1042C0000420D8F8341000EBC40B51F80B104868E8
:1042D0000DF094FDD8F80400401CC8F80400D8F88C
:1042E0003410D8F8240041F80B00D8F8340000F856
:1042F00034A0C8F8244004F035FCC6F800A004F04F
:1043000031FC6D1CBD42D3DBBDE8F09F20EA0120EB
:104310002DE9F041044611F05FFBE01C274E20F030
:104320000300051D306CA84288BF0546F46BBCB184
:1043300054F8041CA94210D19CB1206800281CBF6D
:1043400061684160606800281CBF21680160F16BF2
:10435000A14204BF2068F0632DE02468002CE7D15F
:104360000024F168B06B00EB010858F8040CA8EBCE
:104370000007386840B1002014F05EFD58F8040CC6
:10438000A8EB00073868B0B97868A84213DB384456
:10439000401B041D384614F021FDF068401BF060FE
:1043A0007069284470617868401B1CBF39460DF065
:1043B00025FD44F8045C2046BDE8F08120EA012098
:1043C00010B5002411F008FB0D490F2001EBC002CD
:1043D000526C8AB101EBC000406C806848B1416802
:1043E000A14288BF0C46806800281CBF8068002856
:1043F000F5D1A4F10C0010BD401EE7D5F9E700008F
:1044000020EA0120002140B10549042202EBC0004E
:10441000496B08584068A0F10C010846704700003D
:1044200020EA012002488169491C8161704700002F
:1044300020EA01200849CA69521CCA614A6B02EB92
:10444000C00213785B1C1370496B042202EBC0009E
:10445000085808307047000020EA01202DE9F05F7D
:104460000E0005464FF0000808BF474674D001F023
:104470003FFC30460DF046FF074604F073FB002F6B
:1044800018BF002D68D0364C4FF0040909EBC50A5F
:10449000606B50F80A004068A0F10C00B042B8BF51
:1044A000064601F025FCE0692E4B401CE061606B84
:1044B000324600EBC7000178491C0170606B09EBC4
:1044C000C701415800EBC50001F1080BE169491C27
:1044D000E1610178491C0170606B1B6850F80A00AB
:1044E00000F108094946584698475BF8081C606B7C
:1044F00000EBC1000178022904D3E16900291CBF47
:10450000491EE1610178491E017059F8081C606B71
:1045100000EBC1000178022904D3E16900291CBF26
:10452000491EE1610178491E017001F0E1FB606BF9
:1045300050F80A1048680DF061FC6068401C60602B
:10454000616B606A41F80A00606B00F83580656253
:1045500004F008FB04F006FB3846BDE8F09F0000BD
:1045600020EA0120F004002010B501F0C1FB002476
:1045700011F032FA194B1A490F2000BF01EBC002AB
:10458000526CE2B101EBC000406C8068C8B1426877
:10459000A24288BF1446806800281CBF806800289B
:1045A000F5D1A4F10C00B0F5800F0DD983FB0020EC
:1045B0004211096AA2EBE07000FB01F409E0401E21
:1045C000DCD5A4F10C00F1E7096A4843A3FB001015
:1045D000440904F0C7FA204610BD00001F85EB51C6
:1045E00020EA012002488169491E8161704700006C
:1045F00020EA01200A4902684B6B52F8082C03EBB1
:10460000C2021378022B04D3CB69002B1CBF5B1EA4
:10461000CB611178491E1170002101600846704776
:1046200020EA01200349042202EBC000496B08582C
:104630000830704720EA012050F8080C704770B528
:104640000C46054601F0A0FBC1B223462846BDE852
:1046500070400022AFF300802DE9F0012D24D3F843
:1046600000C0B0F1004F34D000250028A8BF4FF0A3
:10467000000C07DA0CF101061E608CF80040404285
:104680004FF0010CA1EB0C01C9B2002A1CBF491E5E
:10469000C9B200291CBF234F234E3DD08C46491E72
:1046A000C9B2944508D1D3F800C03C780CF1010898
:1046B000C3F800808CF8004056F8214090FBF4FCD1
:1046C0000CF0FF0CBCF10A0F26D80CFB140081B9CA
:1046D00009E00CF1010601251E606FF000408CF826
:1046E0000040491ED0E7002D1CBF0CF1010C0CF05E
:1046F000FF0CBCF10A0F03D1491C4FF0010CC9B2E9
:104700000CF13004D3F800C000290CF10108C3F803
:1047100000808CF80040C1D1196800200870BDE805
:10472000F00170470401002080D502080028D8BF9E
:1047300070472B230A6802F1010CC1F800C0137006
:10474000096800220A70704770B514460D46064687
:1047500001F0CEFA204601F09BF90300164804EB65
:10476000840109D050F8210041688068711A2A1A22
:10477000184603F021FA1AE000EB8104A268B24265
:1047800014BF01220022E368AB4214BF01230023BF
:104790001A430CD0236943B150F821008168406866
:1047A0006A1A311A184602F0E3FEC4E90265BDE850
:1047B000704004F0D7B90000E8EC0120C2B2CBB2DF
:1047C000D21A48BF524292B202FB02F3C0F3072250
:1047D000C1F3072CB2EB0C0248BF524292B2000C5C
:1047E000A0EB114002FB023200B20028BCBF4042E5
:1047F00000B280B200FB0020704700002DE9F041BC
:10480000002182B0084601F0D9F943F6FF76374619
:1048100001F06EFA042007F04DFB80461248406913
:10482000C16C006D8D1B841B0E440744ADF8005015
:10483000ADF80460ADF80240ADF8067068460CF0C3
:104840004BFD48B13B4632462146284606F008FF5C
:104850000CF046FB0028F5D1404607F02BFB04F096
:1048600081F902B0BDE8F081040100202DE9F0419A
:1048700082B01C4617460D46064601F039FA042060
:1048800007F018FB804613484169C86C096D06445F
:1048900007440D440C44ADF80060ADF80470ADF869
:1048A0000250ADF8064068460CF016FD48B12346AC
:1048B0003A462946304606F0D3FE0CF011FB00289C
:1048C000F5D1404607F0F6FA04F04CF902B0BDE825
:1048D000F0810000040100202DE9F04182B0B0F920
:1048E0000050B0F90240B0F90460B0F9067001F070
:1048F000FFF9042007F0DEFA804613484169C86CCE
:10490000096D054406440C440F44ADF80050ADF861
:104910000460ADF80240ADF8067068460CF0DCFCAF
:1049200048B13B4632462146284606F099FE0CF037
:10493000D7FA0028F5D1404607F0BCFA04F012F986
:1049400002B0BDE8F0810000040100202DE9F84329
:104950001C00DDE9089816460F46054602D10AF00C
:10496000C5FF04460096D5F800C043464A46214696
:104970002846E047061E08BFBDE8F8830AF0A9FFF5
:104980008146698A30460AF060F830460CF01FF91B
:1049900048460CF01CF97F1E002FC8BF4FF00008DE
:1049A0000FDD00BFCDF8008055F81CCF00231A465C
:1049B00049462846E04718B30CF009F97F1E002F3E
:1049C000F0DC1D2148460BF085FEB4F1FF3F14D00A
:1049D00001F08EF90BF012F840B100BFFFF722FE94
:1049E0008469B44218BF5FEA0400F7D1B4421CBF27
:1049F00030460BF0E1FF04F0B5F83046BDE8F8832F
:104A000030460AF07DFC0020BDE8F883022BA4BFED
:104A1000002070472DE9F04106461C4615460F461A
:104A20001C20FFF775FC002808BFBDE8F081002FAF
:104A300018BF07610BD10A4A52F8241039B10A682D
:104A40001AB111461268002AFBD10969016184611B
:104A50008582002101604160C0E90216BDE8F08155
:104A6000440100202DE9F04100241D4607468846F8
:104A70001646022B27DA1C20FFF74AFC18B3B8F1C0
:104A8000000F18BFC0F810800BD1104A52F8251043
:104A900039B10A681AB111461268002AFBD10969B6
:104AA00001618561868204604460C0E902470400B8
:104AB00009D000F011F8E068006820B904480068E7
:104AC00000EB850084652046BDE8F08144010020AC
:104AD00018010020FFF7A8BB00281CBF8369022B28
:104AE000A4BF01207047234A591C92F800C08C458E
:104AF000B8BF117010B4204C54F82310002908BF1F
:104B000044F8230030D04A682AB111465268002A7E
:104B1000FBD100292BD0C268D2F800C0CA68126845
:104B2000624503DD09680029F8D120E0F9B1CA68BF
:104B30001268624504BF828A012A08D10A682AB134
:104B40001146D26812686245F8DA00E079B14A6825
:104B5000002A1DBF10604A68426044F82300486084
:104B6000884208BF0021016010BC0020704710BCC3
:104B7000012070476A01002044010020002808BF7E
:104B8000704770B4244D254CD0F800C000281CBFDD
:104B90008669022E3ADA2A78711C8A42B8BF2970D7
:104BA00054F82610002908BF44F826002ED04A6881
:104BB00022B111465268002AFBD139B3C26812688B
:104BC000CB681B68934203DD09680029F8D11DE01A
:104BD000E1B1CB681B68934204BF838A012B08D1E3
:104BE0000B682BB11946DB681B689342F8DA00E0CA
:104BF00061B14A68002A1DBF10604A68426044F8EB
:104C000026004860884208BF002101605FEA0C006E
:104C1000BAD170BC704700006A0100204401002036
:104C20000D4B8269002153F822C0844507D1D0F88A
:104C300000C043F822C00268002A18BF51604268D1
:104C4000002A1CBF036813600268002A1CBF436867
:104C500053600160416070474401002000207047AC
:104C60000228A4BF00207047064951F82000002800
:104C700008BF7047C168096800291CBF0068002888
:104C8000F8D1704744010020002808BF70472DE983
:104C9000F8431E46174688460446FFF7CBFB0090B4
:104CA000006805686846FFF7A5FC33463A4641466A
:104CB0002046A847BDE8F88370B584B01C46154669
:104CC0000E46CDF80CD003AB00222146FFF7C4FC02
:104CD0002A463146684600F089F804B070BD0000ED
:104CE000002808BF70472DE9F04F83B0054600F05B
:104CF000FFFF00F0D7FE3C4C80462068B0F92270E0
:104D000000F024FF82462068818CA1EB0A01818497
:104D10002878002818BFA8F1010946D047F6FF718E
:104D2000284604F0ABFF83460146284604F06CFF9A
:104D30002168064691F82C0000F00300012808BF06
:104D4000304605D0022812BF002006EBD670401076
:104D50004A8C101A4884ADF80000721E1044ADF859
:104D60000400888CADF802004844ADF806006A469D
:104D70005946284604F068F92168BDF80200888485
:104D80005946284603F0C2FD054428780A2818BF72
:104D90000D2817D0BDF800002168304448842878D9
:104DA00018B115F8010F0028B8D12068818C514442
:104DB0008184818D21F00301818503F0D3FE03B04E
:104DC000BDE8F08F206890F82C1001F00301012954
:104DD0001DBF0229018C4184478429780A29DED12C
:104DE000818C41448184DAE71801002070B51446B3
:104DF0000D46064600F07CFF0548016830464D84AC
:104E00008C84FFF76DFFBDE8704003F0ABBE00007F
:104E1000180100202DE9F0410D4F0646154638686F
:104E20000C46B0F92C0040F0020002F0F5FE80467E
:104E300000F05EFF3868448485843046FFF750FFF9
:104E400003F090FE4046BDE8F04102F0E5BE0000F0
:104E5000180100202DE9F04182B006000D461746EA
:104E600047F6FF784FF0000404BF02B0BDE8F081C0
:104E700000F03EFF65B128460BF06CFE040007D041
:104E800002462946684604F072FF68460BF062FE4F
:104E900043463A462946304604F0C8F920460BF00E
:104EA00059FE03F05FFE02B0BDE8F081002808BFA4
:104EB00070472DE9FF4F87B093460E46054600F038
:104EC00017FF3468776821B238B2401A401C02904C
:104ED00000F0E8FD82461BF00C0F2FD002980190E5
:104EE0000A98A8464FF00009009000F001FFDDE9A4
:104EF0000021404605F0FAF88044002818BF09F167
:104F00000109F4D103F02EFE0BF00C00042818BFA9
:104F1000082802D00C2805D010E0381409FB1A002C
:104F2000401C09E02114C1EB274009FB1A00401C7A
:104F300000EBD07001EB600060F31F4430460BF0D3
:104F400009FE5FEA000909D0CDE90447024631466F
:104F500004A804F00CFF04A80BF0FCFDAAF1010862
:104F600028460A9A029905F003F9039008EB2440B9
:104F700060F31F47CDE900472846039904F044FE3B
:104F80001BF0030108BF30880ED001290FD0022981
:104F900012D1B6F90420B6F90010521A101A401CAA
:104FA00000EBD07001EB6000ADF8000004E0B188C8
:104FB000081A401CADF800006A462846039904F020
:104FC00043F828460A9A029905F090F805440AEB3E
:104FD000244060F31F4428780028C1D148460BF0D4
:104FE000B9FD03F0BFFD0BB0BDE8F08F2DE9F04F28
:104FF00089B015460E46044600F07AFE364F3868F2
:10500000C16C006D0E4405442088711E0844ADF843
:105010001860ADF81C006088691E0844ADF81E00D9
:10502000ADF81A5006A80CF057F900281CBFDFF89D
:10503000ACB04FF0010A42D00020D4F80C9002F03E
:105040009FFD8046B9F1000F1BBF99F804000028AE
:1050500028F0020048F0020002F092FD206970B1D1
:10506000D4E902120091CDE9012ACDF80CA0D0F8C4
:1050700000C06388228829463046E04718E0386837
:10508000DBF800302146427CE0689847E0B1A28816
:10509000E388A168CDF800A0CDE90410CDE9023283
:1050A000CDF804A0638822882946304606F0FCF833
:1050B000404602F065FD0BF013FF0028BCD103F061
:1050C00051FD09B0BDE8F08FE088012812BF002033
:1050D0003868806BDBE70000180100200801002021
:1050E00010B50A4682B00146684604F087FF00F01A
:1050F000FFFD2B48BDF800100068B0F84C201144AB
:10510000ADF80010BDF80210B0F850201144ADF811
:105110000210BDF80410B0F84C201144ADF8041092
:10512000BDF80610B0F850000844ADF80600684617
:105130000CF0D2F878B300BFBDF90040BDF904000F
:10514000A0420EDBBDF90210204606F01FFABDF9A1
:105150000610204606F01AFABDF90400A41CA0426D
:10516000F0DABDF90240BDF90600A0420FDB00BF36
:10517000BDF90000214606F009FABDF904002146F8
:1051800006F004FABDF90600A41CA042F0DA0BF008
:10519000A7FE0028D0D103F0E5FC02B010BD00004E
:1051A000180100202DE9FF4FA3B01C4615460E46FE
:1051B000074600F09DFD70480168D1F84CC00CEB2B
:1051C00007002390096D881924900CEB05002590A9
:1051D000081926902398ADF868002598ADF86C0062
:1051E0002498ADF86A002698ADF86E001AA80CF065
:1051F00073F8002800F0BA8025992398091A31988D
:105200000391C1B23098C0B2091A1C910399484366
:10521000109001EBD1700C9030983199C0F30720B9
:10522000C1F30721091A1991039948431190309845
:105230003199C0F30740C1F30741091A1D91039941
:105240004843129030983199000EC0EB11611E91C5
:105250000399484313902498029023980890269825
:1052600001902598DDE9304506904448049000F00F
:1052700002FC1F90AC4209D1204606F003FEDDE996
:105280000131069A089806F0EBF966E0039F0126C3
:10529000002F65D01C991791109A0C99089C02EB6D
:1052A000610B199A1692119A02EB610A1D9A1592D6
:1052B000129A02EB61091E9A1492139A02EB61088A
:1052C00006998C4242DC00BF9BFBF7FC9AFBF7F38C
:1052D000179999FBF7F28B441699149D8A441599F6
:1052E0004CEA0323894498FBF7F1A84443EA0242BD
:1052F00042EA016508998C4214DD854208BF761C9C
:1053000010D006F0BFFD012E06DDDDE90131A01B46
:10531000621E06F0A5F904E0DDE90121049B601E90
:10532000984701260699641C28468C42CCDD06F07D
:10533000A9FD0698012E0CDD811B01F1010CDDE9B0
:1053400001310246604606F08BF906E006F09AFD50
:105350000698DDE90121049B98471F9806F092FD0D
:105360000BF0BEFD00287FF476AF00BF03F0FAFB20
:1053700027B0BDE8F08F000018010020FDB501083E
:105380002DE9FF4FA3B01C4615460E46074600F018
:10539000AFFC80480168D1F84CC00CEB07002390AB
:1053A000086D811924910CEB05012044CDE92510ED
:1053B0002398ADF86800ADF86C1026982499ADF8E4
:1053C0006E00ADF86A101AA80BF086FF002800F0F6
:1053D000DB8026992498081A02903198C2B230983E
:1053E000C1B2501A1C90029848431090029800EBEA
:1053F000D0700F903098C0F307213198C0F3072088
:10540000401A19900298484311903098C0F3074110
:105410003198C0F30740401A1D90029848431290FB
:105420003098010E3198C1EB10601E9002984843ED
:10543000139023980390249807902598019026981C
:10544000DDE930450590544804900120209000F09B
:1054500012FB1F90AC4207D1204606F013FD059BBE
:10546000019A0799039879E0029F0125002F6ED0D9
:105470001C991791DDE90F1202EB610B199A169234
:10548000119A079C02EB610A1D9A1592129A02EB7F
:1054900061091E9A1492139A02EB610805998C42D5
:1054A00051DC00BF9BFBF7FC9AFBF7F3179999FBC4
:1054B000F7F28B441699149E8A4415994CEA0323FB
:1054C000894498FBF7F1B04443EA024242EA01669C
:1054D00007998C4216DD864208BF6D1C12D006F07B
:1054E000D1FC2098012D23DD00281FBF611B631E06
:1054F000019A039801BF601B019B621E039906F08D
:10550000AFF801250599641C30468C42CADD06F0CF
:10551000B9FC05982099012D23DD0029A0EB050198
:1055200016D00346491C019A039806F099F823E027
:10553000019A002819BF611EDDE90303601EDDE941
:1055400003139847DDE706F09DFC05980FE016E091
:1055500001F1010C02466046019B039906F080F8B8
:105560000AE0002904BF019ADDE9031303D00146D4
:10557000DDE90303019A98471F9806F083FC0BF0BE
:10558000AFFC00287FF455AF03F0ECFA27B0BDE87C
:10559000F08F00001801002029B50108F0B583B094
:1055A00015460E46074600F0A3FB114C2168C86C57
:1055B000096D064405440F44ADF80060ADF8045091
:1055C000ADF80270ADF8067068460BF085FE50B17C
:1055D00020682A463946406E0368304698470BF0EB
:1055E0007FFC0028F4D103F0BDFA03B0F0BD000049
:1055F000180100202DE9F04383B01C4615460E46E5
:10560000074600F075FB11480168C86C096D074436
:1056100005440E440C4400200BF05EFE00281CBF25
:105620004FF000080DF104090BD0CDE90098384681
:1056300031462A462346FDF797FE0BF051FC002821
:10564000F3D103B0BDE8F04303F08CBA1801002099
:1056500070B582B00D46064600F04AFB0F4C20683C
:10566000C16C006D0E440544ADF80460ADF80060F7
:10567000ADF80650ADF8025068460BF02DFE48B16B
:1056800020682946406E4268304690470BF028FC5F
:105690000028F5D103F066FA02B070BD18010020B1
:1056A0002DE9F04182B0984617460D46064600F0B7
:1056B0001FFB1E480468207E216DA0F1010CE06CE8
:1056C0000D4406440744A6EB0C00ADF8000007EBC0
:1056D0000C00ADF80400A5EB0C0001EB0804ADF8DC
:1056E000020004EB0C00ADF8060068460BF0F4FD78
:1056F000B8B13A462946304605F016FF3A462146EB
:10570000304605F011FF621E691C304605F076FF39
:10571000621E691C384605F071FF0BF0E1FB0028A2
:10572000E7D103F01FFA02B0BDE8F08118010020B4
:105730002DE9F04182B0B0F90060B0F90240B0F953
:105740000450B0F9068000F0D3FA1C480168087EC6
:10575000CA6C096D571916440C4401EB0805401E2C
:10576000311AADF800103918ADF80410211A284488
:10577000ADF80600ADF8021068460BF0ADFDB8B10B
:105780003A462146304605F0CFFE3A462946304695
:1057900005F0CAFE6A1E611C304605F02FFF6A1E26
:1057A000611C384605F02AFF0BF09AFB0028E7D170
:1057B00003F0D8F902B0BDE8F08100001801002024
:1057C00070B582B014460D46064600F091FA1048B6
:1057D0000068C16C006D0E4405440444ADF80060DF
:1057E000ADF80460ADF80250ADF8064068460BF025
:1057F00073FD40B122462946304605F0FFFE0BF00E
:105800006FFB0028F6D103F0ADF902B070BD0000C7
:10581000180100202DE9F0411C4E00252C4630686F
:1058200018B18047002818BF012409F04BFE00285A
:1058300018BF0124164F386818B18047002818BFD8
:105840000124DFF85080D8F80000002818BF8047F6
:10585000CCB101253068002418B18047002818BF5A
:10586000012409F02FFE002818BF0124386818B160
:105870008047002818BF0124D8F80000002818BF6E
:105880008047002CE5D12846BDE8F08124010020A6
:10589000500100204C010020F0B583B01C46154695
:1058A0000E46074600F024FA10480168C86C096DDE
:1058B000074405440E440C44ADF80070ADF80450A4
:1058C000ADF80260ADF8064068460BF005FD48B142
:1058D00023462A463146384605F0C2FE0BF000FB4F
:1058E0000028F5D103F03EF903B0F0BD1801002007
:1058F000F0B583B0B0F90040B0F90250B0F90460DF
:10590000B0F9067000F0F4F910480168C86C096D30
:10591000044406440D440F44ADF80040ADF8046063
:10592000ADF80250ADF8067068460BF0D5FC48B1F2
:105930003B4632462946204605F092FE0BF0D0FA4F
:105940000028F5D103F00EF903B0F0BD18010020D6
:10595000002808BF7047B0F806C083888068BCF193
:10596000080F02BF02FB0311405C704709DCBCF169
:10597000010F0ED0BCF1020F17D0BCF1040F21D0E3
:1059800005E0BCF1100F28D0BCF1200F2BD0002077
:1059900070475A4302EBD10201F00701805CC1F16C
:1059A0000701C84000F0010070475A4302EB910222
:1059B000805C062202EA4101C1F10601C84000F004
:1059C000030070475A4302EB510211F0010F805C53
:1059D00014BF00F00F00000970475B0802FB0311C1
:1059E00030F8110070479B0802FB031150F82100AA
:1059F00070470000034951F82000C1688A6A0821F5
:105A0000104700004401002010B500F071F905F0C6
:105A10006DFE06F02DF8044603F0A4F8204610BDF4
:105A200010B5044600F064F9054920460968C969C3
:105A30004A6800219047044603F094F8204610BDC0
:105A40001801002070B50C46054600F051F9064AD1
:105A5000214628461268D26952689047044603F0EE
:105A600081F8204670BD000018010020002808BF02
:105A7000704709F007BF10B500F03AF905F03EFE97
:105A800005F0F6FF044603F06DF8204610BD000057
:105A9000002102283CBF024951F8201008467047F7
:105AA0001805002010B500F023F904480068C0690B
:105AB000447E03F057F8204610BD00001801002076
:105AC00010B500F015F905480068C069017EC07E78
:105AD00011FB00F403F046F8204610BD1801002029
