:020000040801F1
:10000000E0C60120550201083FEB010815CA0108AE
:100010003DEB01085F0D01083D25020800000000CE
:100020000000000000000000000000009D01010829
:100030003F24010800000000F1010108BB1A02087A
:100040006F0201086F0201086F0201086F020108C8
:100050006F020108A7F801086F0201086F0201088A
:100060006F0201086F0201086F0201086F020108A8
:100070006F0201086F0201086F0201086F02010898
:100080006F0201086F0201086F0201086F02010888
:100090006F0201086F0201086F0201086F02010878
:1000A0006F0201086F0201086F0201086F02010868
:1000B0006F0201086F0201086F0201086F02010858
:1000C0006F0201086F0201086F0201086F02010848
:1000D0006F0201086F0201086F020108E92402089B
:1000E0006F0201086F0201086F0201086F02010828
:1000F0006F0201086F0201086F0201086F02010818
:100100006F0201086F0201086F0201086F02010807
:100110006F0201086F0201086F0201086F020108F7
:10012000492301086F0201086F0201086F020108EC
:100130006F0201086F0201086F0201086F020108D7
:100140006F0201086F0201086F0201086F020108C7
:100150006F0201086F0201086F0201086F020108B7
:100160006F0201086F0201086F0201086F020108A7
:100170006F0201086F0201086F0201080000000011
:100180006F0201086F020108DFF80CD000F014F9CB
:1001900000480047CDF00208E0C601202A4B19684C
:1001A0000868B0E8F04F80F30988BFF36F8F4FF015
:1001B000000080F3118870470000000006480068C6
:1001C000006880F3088862B661B6BFF34F8FBFF353
:1001D0006F8F00DF00BF00BF08ED00E0DFF80C000C
:1001E000016841F470010160704700BF88ED00E0D4
:1001F000EFF30980BFF36F8F134B1A681EF0100FD7
:1002000008BF20ED108A20E9F04F106008B44FF0CD
:10021000500080F31188BFF34F8FBFF36F8F1FF033
:1002200077FF4FF0000080F3118808BC1968086858
:10023000B0E8F04F1EF0100F08BFB0EC108A80F34A
:100240000988BFF36F8F704778010020EFF30580B6
:10025000704700000648804706480047FEE7FEE773
:10026000FEE7FEE7FEE7FEE7FEE7FEE7FEE7FEE766
:10027000711B02088901010810B5441A0346944213
:1002800009D28418114403E011F8013D04F8013D3E
:10029000521EF9D210BD40EA0104A40703D009E0C0
:1002A00010C9121F10C3042AFAD203E011F8014B3F
:1002B00003F8014B521EF9D210BDD2B201E000F892
:1002C000012B491EFBD270470022F6E710B51346FA
:1002D0000A4604461946FFF7F0FF204610BD421CAF
:1002E00010F8011B0029FBD1801A704710B50022BD
:1002F00000E0521C835C8C5CA34201D1002BF8D13E
:10030000D8B2E1B2401A10BD30B504460020034611
:1003100000E05B1C934203D2E05CCD5C401BF8D054
:1003200030BD034611F8012B00F8012B002AF9D14A
:10033000184670472DE9F05F0546002092469B461F
:1003400088460646814640241BE0284641464746EB
:10035000224600F020F853465A46C01A914110D365
:1003600011461846224600F039F82D1A67EB0108AD
:100370004F4622460120002100F030F817EB00091B
:100380004E41201EA4F10104DFDC484631462A46D6
:100390004346BDE8F09F202A04DB203A21FA02F010
:1003A0000021704721FA02F3D040C2F120029140AF
:1003B0000843194670470000064C074D06E0E06808
:1003C00040F0010394E8070098471034AC42F6D39C
:1003D000FFF7DEFE3C2406085C240608202A04DB26
:1003E000203A00FA02F1002070479140C2F1200348
:1003F00020FA03F319439040704770B58C1810F839
:10040000015B15F0070301D110F8013B2A1106D159
:1004100010F8012B03E010F8016B01F8016B5B1E73
:10042000F9D12B0705D40023521E0DD401F8013B4E
:10043000FAE710F8013BCB1A921C03E013F8015BBA
:1004400001F8015B521EF9D5A142D8D3002070BD3E
:1004500010B50246906B016C11F0500F05D0806B07
:10046000C16CBDE8104010460847016C41F40071B2
:10047000016401688A6812F0405F19D18269BAB9D3
:10048000CA6A12F4700F03D08A6812F4806F0FD119
:100490004A6822F020024A60016C21F480710164F4
:1004A000016C11F4805F03D1016C41F00101016422
:1004B0000AF036FC10BD10B5806B40210164416C20
:1004C00041F0040141640AF02DFC10BD10B5806BB1
:1004D0000AF027FC10BD00004C494A6822F4403263
:1004E0004A604A6843681A434A6001684A6822F4CD
:1004F00080724A6001684A68036942EA03224A60DE
:1005000001684A6822F040724A6001684A6883685C
:100510001A434A6001688A6822F400628A600168AE
:100520008A68C3681A438A60816A6FF07062D14238
:1005300014D001688A6822F070628A6001688A6853
:10054000836A1A438A6001688A6822F040528A608E
:1005500001688A68C36A1A438A6009E001688A6888
:1005600022F070628A6001688A6822F040528A60D4
:1005700001688A6822F002028A6001688A688369D9
:1005800042EA43028A60016AC1B101684A6842F4E2
:1005900000624A6001684A6822F460424A60016869
:1005A0004A68436A4FF4604C9CFAACFC5B1EBCFA90
:1005B0008CFC03FA0CF31A434A6004E001684A68B1
:1005C00022F400624A600168CA6A22F47002CA62B8
:1005D0000168CA6A838B5B1E42EA0352CA620168E1
:1005E0008A6822F400728A6001688A68036B42EAB2
:1005F00043228A6001688A6822F480628A60016806
:100600008A68406942EA8020886070470023014080
:100610000E4810490E4A0388087822F81030401C12
:10062000C0B20870052801D3002008700021002006
:1006300032F81030194489B2401CC0B20528F7D3F3
:100640004CF6CD404843800C704700000400002069
:10065000E4B30120F901002010B5002201210D486A
:100660000BF03BF80C4C0022102120460BF035F823
:100670000022082120460BF030F8002201212046FC
:100680000BF02BF8002002F053FCBDE8104003A053
:100690001CF016BA0004024000000240B9D8B1D5DF
:1006A000CBF9D3D0B9A6C4DC0D0A000010B50EF00A
:1006B00043F90DF083FC054C20602068A0F5A901EA
:1006C000663901D10CF008FF206810BD140000202D
:1006D00038B5446805460146204611F085FF0028DC
:1006E00008BF38BD464A286811280DD006DC0B2803
:1006F0002AD00E2838D00F2817D07CE0282873D0B5
:10070000B0F5107F0AD076E09268002A08BF38BDA5
:10071000294601B02046BDE830401047526801B07C
:1007200029462046BDE8304010472546204603F0C4
:10073000BFFF0090406E0468684604F091F8002CFA
:100740001CBF2846A04738BD204603F0B1FF0090EB
:10075000683003F0BDFE009803216C3003F0E0FE2A
:10076000684604F07DF846E0E968486809680D29A4
:1007700002D0202918D037E0002835DD4FF48071F1
:10078000204611F0FCFF204603F092FF009090F805
:100790002850684604F064F815F0020F1ED00121BD
:1007A000204613F0D3FD19E0002817DD25464FF44D
:1007B0008071204611F0E3FF284603F079FF009096
:1007C00090F82840684604F04BF814F0020F08BF78
:1007D00038BD0121284613F0B9FD38BD2046BDE8DB
:1007E000384002211AF03FBBE86820B920464FF498
:1007F000807111F0A4FE2846BDE8384012F010BC0C
:10080000AC04002070B5044688B08069B4F908C013
:10081000658A00260091CDE90165CDE903C0B4F9F0
:100820000C00B4F91050C118B4F90A00B4F90EC0A4
:1008300010442B46624600F027F86468050020D07B
:1008400005F0AEFC284603F033FF0190866E01A848
:10085000009604F005F82146684609F069FF70B17A
:100860000098B04208D0284603F022FF019000997A
:10087000816601A803F0F4FF284613F0B7FC08F0E6
:100880003FFB08B0284670BD2DE9F04F85B0984673
:10089000DDE91164DDE90E5791468A46834605F08D
:1008A0007FFC04F14C001749CDE90210CDE9005757
:1008B00043464A465146584612F0F6FA05001BD008
:1008C00003F0F6FE10223146049012F0EFF80E4CC1
:1008D0000499B4E8CD133431A1E8CD1394E80D1098
:1008E000A1E80D1054F82C0D086004A803F0B8FF1F
:1008F000206841682846884708F002FB05B0284672
:10090000BDE8F08FD1060108B8040020F0B5044618
:1009100080688C4989B051F820506068002800F048
:100920000A81052806D006287DD0122800F0B48060
:1009300000F004B9E869002808BF002651D0D5E9C5
:100940000012AB688DE80F0004F110010FC908F028
:10095000DFFF002655F8260007F0C7FAA169E8690D
:100960000A1A216901446069304405F053F8A1690D
:10097000E8690A1A21690144E069801B05F04AF818
:10098000E169E8690A1A616901442069304405F0A7
:1009900053F9E169E8690A1A61690144A069801B99
:1009A00005F04AF9761C022ED4DBA86807F09DFA00
:1009B000E069E969D4F814C0431A20694218614417
:1009C000801C521E05F0A4F9E169E869A2690B1ABE
:1009D00061690144101A401C921E05F099F9EE69F4
:1009E00011E055F8260007F080FAE069831BA06942
:1009F000821B606981192069304405F08DF8761CEE
:100A0000022EEEDB0226D5E90301CDE90001E16902
:100A1000606901444B10A1698A1B811C2069304424
:100A200004F0EAFE00E011E0D5E90501CDE900019E
:100A3000E0696169831E01440122A06902EB610142
:100A4000821B2069304404F0D7FE77E0206803F071
:100A50002FFE0490206814F0ACFD50B1A06800286F
:100A600018BF00200AD10498006F002818BF012089
:100A700004E00498406F002818BF0220049901EB9D
:100A80008000C56E04A803F0EBFE00231A4628463A
:100A9000216804F049FB51E0206803F009FE04904E
:100AA000866E002E08BF04A842D0A168B0F95C7021
:100AB000002908BF012103D003290CBF0221002116
:100AC00000EB8101406D0C6C07F03EFA204607F008
:100AD0000CFA06A805F006FABDF81810A88B014418
:100AE000ADF81810BDF81C10081AADF81C00BDF8C0
:100AF0001A00801CADF81A00BDF81E00801EADF86B
:100B00001E000498B0F96020B0F95E1006A806F047
:100B100029FD04A803F0A4FE022007F065FA304680
:100B200003F0C6FD3A4606A9059004F0CFFB05A8E0
:100B300003F096FE02E0206813F03AFF09B00020AF
:100B4000F0BD0000009F0508042928BF7047F0B4DD
:100B5000044A52F8211091E8FE1080E8FE10F0BC23
:100B600070470000009F050838B503F0A1FD04465A
:100B70000090684603F074FE204638BD70B5054607
:100B80000C46104600210A4604F0AEFA0246214601
:100B90002846BDE8704000F0C1B8002808BF704783
:100BA00038B50C46054605F0FBFA284603F080FDF3
:100BB00000904465684603F053FE284613F016FB88
:100BC00008F09EF938BD000038B50C46054605F022
:100BD000E7FA284603F06CFD0090064984654166FB
:100BE000684603F03DFE284613F000FB08F088F944
:100BF00038BD00006C090020042928BF7047F0B4FC
:100C0000044A52F8211090E8FD1081E8FD10F0BC74
:100C100070470000009F0508F0B583B00F4605003F
:100C20004FF0010421D005F0BBFA284603F040FD47
:100C30000190866E01A8009603F012FE39466846C0
:100C400009F076FD78B100980024B04208D028461B
:100C500003F02EFD01900099816601A803F000FECB
:100C6000284613F0C3FA08F04BF903B02046F0BD54
:100C7000002808BF704738B50C46054605F090FAC5
:100C8000284603F015FD0090A0F85C40684603F08C
:100C9000E7FD284613F0AAFA08F032F938BD00281B
:100CA00008BF7047F8B515460C46064605F078FAB9
:100CB000304603F0FDFC0090032C3CBF00EB8400A9
:100CC0000564684603F0CCFD304613F08FFA08F057
:100CD00017F9F8BD00B589B002216846FFF734FF67
:100CE000032007906FF07F4003900A49059104911B
:100CF000069002216846FFF77FFF01216846FFF753
:100D00007BFF05480590049000216846FFF774FFBB
:100D100009B000BD4040DD008080FF00002808BF12
:100D20007047F8B515460C46064605F039FA3046C8
:100D300003F0BEFC0090032C0BD200EB84006C305F
:100D400003F0C6FB009800EB8400C566304613F044
:100D50004DFA684603F084FD08F0D2F8F8BDFEE7CE
:100D60002DE9F04F466804460146CDB0304611F0FB
:100D70003BFC002804BF4DB0BDE8F08FFC4F20685D
:100D8000DFF8F0B30E280FD00F2800F02D822628B0
:100D900000F07A83B0F5107F00F06181204612F0F8
:100DA0003FF94DB0BDE8F08F304614F002FC00284A
:100DB00004BF4DB0BDE8F08F6C2225A9304611F07C
:100DC00071FF2B9828B9DDE92501279A2D92CDE9ED
:100DD0002B0128992B9888421CBF4DB0BDE8F08F9D
:100DE0002C99299881421CBF4DB0BDE8F08FE06876
:100DF00041680029DCBF4DB0BDE8F08FDDE92C452E
:100E00000068DDF8AC80132808BFE81D17D00CDCA3
:100E1000102808BF681E12D0112808BFE81F0ED086
:100E2000122808BF681C0AD00AE0212808BF601EEB
:100E300003D0222808BF601C02D12C9000E02D9026
:100E40002C980C2804DD0C382C9008F1010005E0EA
:100E5000012804DA0C302C90A8F101002B900837FF
:100E6000B7E80F56CDE9400142A880E80C5697E854
:100E70000F000DF59079283F89E80F002C98401E4F
:100E80008BFB00214A10A2EBE171A1EB810100EB89
:100E9000810040A951F820002C99022905BF2B9907
:100EA00011F0030F0021012108442D9981420DDD2D
:100EB000081A2D902C98401C2C900C283BDD2B9868
:100EC000401C2B902C980C382C9034E0012932DAFD
:100ED0002C98401E2C90012805DA2B98401E2B9050
:100EE0002C980C302C900837B7E80F56CDE940010C
:100EF00042A880E80C5697E80F000DF5907989E834
:100F00000F002C98401E8BFB00214A10A2EBE171D0
:100F1000A1EB810100EB810140A850F821102C9831
:100F2000022805BF2B9810F0030F00200120084471
:100F30002D9908442D904FF4B071304612F0B2FB59
:100F400007462C9A6FF003003D9900EB82002B9B23
:100F50000A5840A8CDF80800029912F8010B01F8D0
:100F6000010B02910028F7D143B1481E202100F85F
:100F7000011B029002A9184603F07EFD40A93846E5
:100F800010F037FF2C9829902B9828906C2225A9D7
:100F9000304611F09DFE2998844204BF2898804570
:100FA0001CD04FF00000ADF80000DDE93B1001441B
:100FB0003A98ADF80210C0EBC000A0F101023B98D6
:100FC000ADF80420C0EBC000A0F101000144ADF871
:100FD00006106946304613F099F830E02D9925A89F
:100FE000CDE9085107AA40A919F074FB002508AC07
:100FF00054F8253003B3DDE94001CDE904010021B7
:1010000007985B1E0A4644F8253018BF3A9B0CD05F
:10101000401C072818BF194418D000BF54F825C039
:10102000BCF1010C44F825C0F2D104A806F09AFAEC
:1010300004A9304613F06AF86D1C022DD8D30421A0
:10104000304613F083F94DB0BDE8F08FA3EB830C6D
:1010500001EB4C01DDF8ECC000206244DEE7E468FF
:10106000002C04BF4DB0BDE8F08F207A00287DD061
:101070006C2225A9304611F015FEDDE92B012D9AD1
:101080000792CDE90501D4E9005425A808AA6946CC
:1010900019F020FB3A983A9995FBF0F048433C99B7
:1010A0003B9A611A891A91FBF2F13C9B083701FBCC
:1010B00002311144BDF900200DF5807A801A3A9A68
:1010C00090FBF2F2BDF90200081A3B9990FBF1F097
:1010D000C0EBC0001044B7E83E138AE83E1397E81F
:1010E0000E1048AD401C85E80E102999491E8BFB57
:1010F00001325310A3EBE272A2EB820201EB8201F8
:1011000040AA52F82110299A022A03BF289A12F005
:10111000030F0122002211440128A8BF81424CDBA9
:10112000DDE92812CDE92C202B910C222BA905A852
:10113000FFF7EAF8D8B16C2225A9304611F0C8FDB6
:101140002D990798CDE9400125AB44AA08A9184676
:1011500019F0C0FA002440AD55F8243033B3DDE96E
:101160000801CDE9420100210A4605E035E020E012
:10117000109F0508ABAAAA2A44985B1E45F82430A4
:1011800018BF3A9B0BD0401C072818BF19441BD02E
:1011900055F824C0BCF1010C45F824C0F3D142A895
:1011A00006F0E0F942A9304612F0B0FF641C022CB0
:1011B000D2D30421304613F0C9F80121304613F090
:1011C000C5F84DB0BDE8F08FA3EB830C01EB4C01EB
:1011D000DDF8ECC000206244DAE70221304613F06B
:1011E000B5F84DB0BDE8F08F4FF000096C2225A98D
:1011F0003046CDF8089011F055FD304612F060FCF5
:101200008046304612F074FC044634986FF0704A01
:10121000504509D006F069FE3C980021431EA8F114
:101220000102084604F074FDADF820903C98ADF83A
:1012300022003A98CC4D401EADF82400601EADF857
:101240002600002425AE3F984A4601190846C5FBF2
:1012500001208210A2EBE070A0EBC00008440390D4
:101260000228ACBF0120002006EB8000406A5045F8
:1012700004D006F03AFE08A804F076FD002208A883
:101280003A9906F06FF9641C072CDCDBADF820906E
:101290003C98ADF822003A99491EADF824103B99CC
:1012A0000844401EADF82600389806F04DFE022096
:1012B00006F09AFE369806F018FE00243F9849463C
:1012C00002191046C5FB02108110A1EBE070A0EBE3
:1012D000C00010443E9903900E2251F8200008A946
:1012E00003F0F4FF002208A83A9906F03BF9641CC9
:1012F000072CE3DBBDF92600A8F10302022104F06C
:1013000089FB03AA08A925A819F0E4F93F99002947
:1013100040F31E8111F0010F05D003980628B4BFD9
:10132000401C0020039048100CD003990629B4BF3C
:10133000491C002103910629B4BF491C00210391D7
:10134000401EF2D108370DF5807EB7E83F118EE8D8
:101350003F1197E80F0048AC84E80F002998401E21
:101360008BFB00214A10A2EBE171A1EB810100EBA4
:10137000810040A951F820002999022905BF289928
:1013800011F0030F0021012100EB01054FF00004D3
:10139000002DCEBFDFF8D4814DB0BDE8F08F00BF87
:1013A00004F131008DF8080014E0092CF8DB601C12
:1013B00088FB00108110A1EBE07000F130018DF886
:1013C00008104042611C00EB800001EB400030300F
:1013D0008DF809002B992898814241D12C992998A0
:1013E00081423DD12D98611C884239D130985045B9
:1013F00004D006F07AFD08A804F0B6FC339F2599C6
:10140000289881420DD129992698884209D1279997
:10141000601C814205D1379806F067FD08A804F0EA
:10142000C3FB384606F061FD0E2208A902A803F0AE
:101430004DFF0398401C0390072808BFCDF80C907F
:101440003F990398814214D1002108A83B9A06F0E5
:1014500089F8ADF820903A98401EADF824000DE0D0
:1014600003980228ACBF0120002006EB8000076B28
:10147000C5E7002208A83A9906F074F8641CAC424B
:1014800093DB4DB0BDE8F08FA06812F09EF9E168E3
:10149000B0F5B87F15D0A0F58070713807BF02296C
:1014A00001244DB0BDE8F08F4FF06C020AA9304620
:1014B00011F0F8FB0E9800190E900AD00D280DD0EF
:1014C00011E002290EBF4FF0FF344DB0BDE8F08FA0
:1014D000EAE70D98401E0D900C2003E00D98401C8B
:1014E0000D9001200E904FF4B071304612F0DAF8F2
:1014F00004460E9A6FF00300229900EB82000B580D
:1015000025A90D98CDF80010009A13F8011B02F8D8
:10151000011B00920029F7D138B1511E202201F899
:10152000012B0091694603F0A7FA25A9204610F087
:1015300060FC6C220AA9304611F0CAFB304612F05A
:1015400055FE0A21304612F001FF4DB0BDE8F08F84
:1015500000293FF4F7AE03980628B4BF401C0020D2
:101560000390491EF7D1EDE69324499267666666BB
:101570002DE9FF4FC9B00E46DDE95749DDE959872E
:101580009A46154670211EA8DDF858B1FEF79CFE5C
:101590006C2103A8FEF798FEABF101000C2880F047
:1015A000E280AAF22E6042F2E201884280F0DB8003
:1015B00044226F490CA8FEF75FFE6E4B00211A46CD
:1015C0000846E4FB0320C008A0EB40102044CDE90E
:1015D00003ABCDE9050A0120CDE907B06648059BBC
:1015E000CDF824A0CDE91D90CDE90AB318981A9B37
:1015F000C0EBC0021998ADF88260C0EBC00018447F
:10160000ADF888006C202490ADF88A704FF4B87063
:10161000ADF89C000320ADF89E001A98574B0A388D
:10162000ADF8808025932C93ADF8A40040F271139F
:10163000ADF88450ADF8B830ADF886201A9B4FF065
:10164000050CD21AD21DADF8BA204D4B3393ADF82C
:10165000C0004FF4B073ADF8D430C31CADF8A0C0D7
:10166000ADF8A200D21AADF8DC00ADF8BCC0ADF800
:10167000D8C0ADF8BE00ADF8D630ADF8DA20009194
:101680000191404A04211EA8499B03F07DFB0500FF
:1016900069D06FF0704111F008FB3B49284613F008
:1016A00015F84FF4B871284611F0FCFF04460021EC
:1016B00011F08DF835492046FFF786FA40F2711196
:1016C000284611F0EFFF0446002111F080F82F4961
:1016D0002046FFF779FA4FF4B071284611F0E2FF87
:1016E00004462B4912F0F2FF0E21204610F0ADFB0C
:1016F0002046139910F0C0FB2046179910F060FBAC
:10170000204611F081FB2046129910F037FB079913
:101710006FF003021B9802EB81013AAA4158069828
:10172000CDF80020009B11F8012B03F8012B00934A
:10173000002AF7D138B1591E202201F8012B00915F
:10174000694603F099F93AA9204610F052FB284661
:1017500013F030F86C2203A9284611F0B9FA4DB005
:101760002846BDE8F08F4DB00020BDE8F08F0000A6
:10177000F4050020218410421D2C020805080108F0
:10178000931C0208610D010861EB02086D930208C9
:1017900005C8020830B59BB00C46054604F000FDB4
:1017A0006C226946284611F07DFADDE90601089AA7
:1017B000A260C4E9000107F0A3FB1BB030BD30B547
:1017C0009BB00C46054604F0EBFC6C2269462846AB
:1017D00011F068FAD4E90012A368CDE9001202936F
:1017E0006C226946284611F073FA284612F0FEFC76
:1017F00007F086FB1BB030BD022828BF7047024AA5
:1018000002EB800081627047F4050020064A002840
:1018100004BF91637047012804BF11637047022819
:1018200008BF516370470000F40500202DE9F04720
:1018300044680546014682B0204610F0D5FE0028D7
:1018400004BF02B0BDE8F08728680B287DD00E28C1
:1018500005D00F283ED0B0F5107F4CD0ADE020462B
:1018600002F026FF019090F8746090F8757001A85E
:1018700002F0F6FF204613F09CFE002854D0E868E2
:101880004168002950DD006820284DD1781CB0FB4C
:10189000F6F106FB1106002C46D004F081FC204630
:1018A00002F006FF009090F87410B1420CD980F855
:1018B0007560684602F0D4FF204612F097FC0521BF
:1018C000204612F043FD02E0684602F0C9FF07F02F
:1018D00017FB72E02546204602F0EAFE0090006FFA
:1018E0000468684602F0BCFF002C1CBF2846A047D5
:1018F00002B0BDE8F0874FF00009204602F0D8FEA4
:10190000019090F8748090F87570B0F930A001A83B
:1019100002F0A6FFEE68BEB3204612F037FB20B1FE
:101920004946204612F012FD47E0307A68B30121A3
:10193000204612F0E3FE781CB0FBF8F108FB11061C
:10194000ECB104F02DFC204600E02CE002F0B0FEEB
:10195000009090F87410B1420CD980F87560684618
:1019600002F07EFF204612F041FC0521204612F0D5
:10197000EDFC02E0684602F073FF07F0C1FA0121B6
:10198000204612F0E3FC18E008E0FFE702212046C1
:1019900012F0DCFC504606F03FFB0EE0032120462F
:1019A00012F0D4FC09E0204602F082FE009078306C
:1019B00002F08EFD684602F053FF02B02846BDE8F3
:1019C000F04711F02DBB70B586B0B0F90840458ADC
:1019D000D0F818C00026CDE90254CDE90016CDF8A4
:1019E00010C0B0F90C10B0F91040B0F90EC0B0F949
:1019F0000A00194410442346624600F003F806B07A
:101A000070BD00002DE9FF4F85B01D46DDE912A72E
:101A1000DDE9158916468B4604F0C2FB264C0EB153
:101A200035B10AE02068806800688047064625B91D
:101A30002068806800688047054620486FF0704144
:101A4000C068884208BF47F0010709F154011C48EB
:101A5000CDE900A7CDE902012B463246594605984B
:101A600011F022FA050021D002F022FE1022414698
:101A7000049011F01BF8241D0499B4E8CD133431FF
:101A8000A1E8CD1394E8CD11A1E8CD1154F8240DAF
:101A900041F87009022081F874000F20C86704A87B
:101AA00002F0DEFE206841682846884707F028FAE1
:101AB00009B02846BDE8F08F380600203C0600201B
:101AC0002D1801082DE9F04F0446006889B028B1AF
:101AD00013F06FFD002808BF012500D00025FE4847
:101AE00050F8256060680A2800F0738108DC00283F
:101AF00000F0DD81062841D007280CD000F0E8B9BD
:101B0000122800F03081192802BFB06909B0BDE881
:101B1000F08F00F0DDB9256804F042FB284602F0A2
:101B2000C7FD0090C76F684602F09AFE07F0E8F91B
:101B30005FF0000556F8250006F0D7F92069C119B5
:101B4000491B4B1E61691A462944284403F0E4FFEF
:101B50006D1C032DEED3D6E90301CDE90001D4F8C5
:101B600010C00CEB0700401B431E60691A46411968
:101B70000CEB050003F040FE00F0AAB9A068401E7F
:101B80000690246804F00CFB204602F091FD0090C2
:101B9000D0F87C80684602F063FE07F0B1F9DFF808
:101BA0003C9359F82570002F1CBF069800EB80006D
:101BB0000DD000BFB7F84810414505D107EB8001B3
:101BC000896809B11FB1C4E0FF6C002FF2D1502029
:101BD00002F0E4FC070000F07B81C14C50220021A0
:101BE0002368984770697864A7F8488059F82500F9
:101BF000F864BC48A8F1060880FB081049F8257075
:101C00004110A1EBE071032008900120049007F13E
:101C10004000CDE90280069D05EB850007EB8000C2
:101C2000019005EB450007EB80002830009008EBA1
:101C3000D8704210401000EBD073A0EB6300461840
:101C4000501A059008F10700C11700EB51704FEAD8
:101C5000E00A0AFB08FB584602F0A0FC5FEA000914
:101C600077D023685A4600219847DDE904200128EF
:101C700026DD089B01213046334483421BDD4FEAB9
:101C8000E27C02EB5C7E02F0070C802424FA0CFC60
:101C9000404509DA0AFB00F404EBEE0419F804B03D
:101CA0004BEA0C0B09F804B06940401C834202DD8A
:101CB0000029F9D0ECE70598521C761C9042D8DC3C
:101CC00004990298401A0490904225DD0899012059
:101CD00034463144A1421ADDD31702EB537E02F0A1
:101CE000070C802323FA0CF3444509DA0AFB04FCB1
:101CF0000CEBEE0C19F80CB04BEA030B09F80CB026
:101D00006840641CA14202DD0028F9D0ECE7049889
:101D1000521C761E9042D9DC009802210160009985
:101D200001200871009A039991600199C880019877
:101D30000021A0F804A00198C0F808900198016162
:101D4000DDE90001C860DDE9010101800198A0F82A
:101D500002800698032200EB800007EB800011460A
:101D600003F080FBB4E0206802F0A2FC0290B0F91E
:101D7000547090F85650D0F84490D0F8348002A8AF
:101D800002F06EFD266804F00BFA304602F090FC7B
:101D90000390B0F87C6003A802F062FD07F0B0F891
:101DA000684611F035FCBDF8000071190844ADF823
:101DB0000000246A404606F0C7F8022006F014F935
:101DC000484606F092F83A466946204603F07EFA05
:101DD0007EE0206802F06CFC0290B0F9548090F82C
:101DE0005660D0F83490876C02A802F039FD25685F
:101DF00004F0D6F9284602F05BFC0390B0F87C5062
:101E000003A802F02DFD07F07BF8684611F000FCF6
:101E1000BDF80000A9190844ADF80000206A04F0DC
:101E2000E1F80446484604F00BF928F003010429C0
:101E300004BFBDF80610091A08D00C2908D1BDF955
:101E40000610091A491C01EBD1714910ADF80210B6
:101E500028F00C0101290CD0022913D1BDF904107E
:101E6000BDF90020891A091B01EBD17102EB610158
:101E700006E0BDF80420BDF80010521A121B1144F0
:101E8000ADF80010BDF80010621E1144ADF804104A
:101E9000BDF80210401E0844ADF80600384606F0B2
:101EA00024F84FF0FF31684603F056FB10E020683D
:101EB00012F07EFD206802F0FBFB0790B0F90610DF
:101EC000B0F90220891A491CC16707A802F0C8FCB2
:101ED00009B00020BDE8F08F7C150608BC09002081
:101EE0009C0800206766666638B505004FF0000460
:101EF0000CD004F055F9284602F0DAFB009090F877
:101F00007540684602F0ACFC06F0FAFF204638BD8A
:101F1000002808BF704738B50C46054604F040F964
:101F2000284602F0C5FB0090416BA14203D04463F8
:101F3000284612F05BF9684602F092FC06F0E0FFDA
:101F400038BD002808BF704738B50C46054604F078
:101F500027F9284602F0ACFB009090F87410A142DB
:101F60000CD980F87540684602F07AFC284612F0D9
:101F70003DF90521284612F0E9F902E0684602F031
:101F80006FFC06F0BDFF38BD002814BF0029704764
:101F900070B582B00D46044604F002F9204602F006
:101FA00087FB0190866F01A8009602F059FC294634
:101FB000684608F0BDFB70B10098B04208D02046DA
:101FC00002F076FB01900099816701A802F048FCBD
:101FD000204612F00BF906F093FF02B070BD00002E
:101FE00000B589B000200090029003900490059005
:101FF00006900790089019200190044800688068B6
:1020000041686846884709B000BD000038060020D6
:102010004FF6FF707047000002464FF480510148B0
:1020200009F05BBB001C024000B583B011F024FB3B
:102030000021009103460191034A0721034802F061
:10204000A3FE03B000BD000061E502080C270308F1
:1020500010B502200DF014F901221146034809F0D1
:102060003CFB03490120C87010BD00000000024085
:10207000D4B3012010B500200DF002F90022012197
:10208000034809F02AFB03490020C87010BD000076
:1020900000000240D4B301202DE9F047DFF8288288
:1020A0004FF0020998F80400002823D0874E01273A
:1020B000DFF81CA2327A0024A6F11005012826D0F0
:1020C00002286BD1A5F13808DFF80892D8F814007F
:1020D000824205D3B47000220121484609F0FDFA7E
:1020E000D8F81410307A891E884277D2F079002807
:1020F00076D084E00FF0C0FC0FF05AFC88F8049012
:102100000DF020FCBDE8F047002000F011BF98F86A
:102110000310012914D0022930D0032940D004290A
:102120003CD101220821504609F0D7FA71790029E3
:1021300034D05046BDE8F0470022082109F0CDBA5E
:10214000322A2BD2707938B177705046BDE8F0470B
:102150000122082109F0C1BA47F23050286088F8FE
:10216000039000220821504609F0B7FA3770504614
:10217000BDE8F0470122102109F0AFBA2868002815
:102180000CD1347000221021504609F0A6FA98F8BC
:102190000300401C88F803004F486860BDE8F087E2
:1021A0004E496868B0FBF1F201FB120089108842C9
:1021B00005D901220821504609F08FFA04E00022D7
:1021C0000821504609F089FA68680028E6D198F895
:1021D0000300401C88F80300BDE8F08715E0FFE726
:1021E000707901280BD1E86841F28831884206D91C
:1021F00001221146484609F070FAB77005E0002246
:102200000121484609F069FAB470707958B1B07983
:1022100088B100221021504609F05FFA3470F0793D
:10222000012810D015E06C6001221021504609F001
:1022300054FA3770F3E76C6001221021504609F020
:102240004CFA3770EBE700221021504609F045FAAE
:102250003470A86828B97078012802D174700CF025
:1022600087FCD8F82C000028B6D0D8F82810002910
:10227000B2D0717809B9317839B1002201215046C4
:1022800009F02BFA6C60BDE8F08740F25372696880
:102290005043B1EB401F01D9FFF7DAFED8F82C000C
:1022A0004EF660214143D8F8280000EB4002C2EB13
:1022B000C01001EBC00069688842E4D26C60BDE8E0
:1022C000F047FFF7D7BE0000EC010020D4B3012097
:1022D000000002400004024080EE3600804F1200F1
:1022E00000B583B011F0C8F90021009103460191B7
:1022F000034A0321034802F047FD03B000BD00007C
:1023000085DC0208BC25030810B582B011F0B4F9D1
:102310000021009103460191084A0921084802F072
:1023200033FD0446002332221946204610F08CFD6E
:102330000449486002B0204610BD00000DDF0208CD
:102340001026030864010020014808F011BE0000B7
:10235000600C002001680A4BCAB2103AA3FB02329B
:102360001209084B9B5CC365032A04D96FF309016A
:10237000091D816502E06FF309018165806D704779
:10238000ABAAAAAA0C0C0308014600208A6A8B6932
:10239000002B0FD0B3F5005F1DD08AB3012A30D0D7
:1023A000022A2ED0032A04D1C96A11F0807F00D0FE
:1023B000012070471AB1012A07D0022AF9D1C96A4F
:1023C00011F0807FF5D001207047C96AB1F1C07F5C
:1023D000FAD1012070475AB1012A0BD0022A07D046
:1023E000032AF7D1C96AB1F1C07FF3D10120704748
:1023F00001207047C96A11F0807FFAD00120704730
:10240000FFE70120704710B4D0F800C0DCF80040AE
:1024100024F48024CCF80040D0F800C0CCF804307C
:102420008368402B05D0036899600068C26010BCC7
:10243000704703689A600068C16010BC70477047BD
:1024400000B583B011F018F9002100910346019105
:10245000034A0621034802F097FC03B000BD0000C8
:10246000C9CB02087821030810B501200BF0D0F881
:102470000020FFF7D1FD002010F02EF80A201CF0FC
:10248000ADFD00200BF0C4F803490878002801D006
:10249000401E087010BD0000F80100200248A32172
:1024A000C17001218170704798030020002808BF87
:1024B00070472DE9F04F91B00F46044603F070FECF
:1024C000204602F0F5F8039090F854A0D0F834902C
:1024D000866DC56C03A802F0C3F926B139462046C3
:1024E000B04700F0ABB900264FF00108122F7DD0A5
:1024F00006DC082F7BD0102F7AD0112F3CD006E0BD
:10250000132F5BD01D2F00F0E4801E2F71D0202FE1
:10251000C0F29481BAF1000F00F0F280204602F080
:10252000C7F80590D0F834A0D0F84C9005A802F078
:1025300097F9BAF1000F00F0E380504602F0B8F8C6
:1025400082464946069006F0AFFB81465046FDF7AD
:10255000C6FE48457DD9D144484606F051FB09EBFB
:1025600000014846FDF7DDFE06A802F079F90521D5
:10257000204611F0EBFEC3E0B9F1000F00F05E81E0
:10258000484602F095F807462946049006F08CFB71
:102590000744384606F024FB0546029606F04EFB3B
:1025A0008046681C86B2304606F048FB0546A845C2
:1025B00026D004A802F054F900F040B9B9F1000F98
:1025C00000F03C81484602F073F807462946049023
:1025D00006F06AFB0744384606F002FB0546029601
:1025E00006F02CFB8046681E86B203E016E021E070
:1025F0001AE043E0304606F021FB0546A845D8D155
:10260000314602A806F0DAFA2A4602A93846FDF752
:1026100033FE0521204611F099FECAE7691C2046C9
:1026200000F052FC00F00AB9691E204600F04CFC94
:1026300000F004B9002D00F00181691E204600F071
:1026400043FC204602F034F80190C76C456B01A8AA
:1026500000E052E002F004F9002D00F0EF8028467F
:1026600002F026F806463946029006F01DFB0546A4
:102670003046FDF734FEA84229D918E0204602F082
:1026800017F80190C76C456B01A802F0E9F8002D1E
:102690007ED0284602F00CF806463946029006F035
:1026A00003FB05463046FDF71AFEA8420FD9354414
:1026B000284606F0A5FA29182846FDF732FE02A89A
:1026C00002F0CEF80521204611F040FEB6E002A847
:1026D00010E0204601F0ECFF0390BAF1010F08BFB3
:1026E00080F8546005D080F854802946204600F0D8
:1026F000EBFB03A802F0B4F8A0E006A802F0B0F8E3
:102700001FFA87FB204601F0D3FF07460290B0F97D
:102710003800002812DD786B4FF0000940B101F05D
:10272000C7FF009007F050FE8146684602F098F817
:10273000B7F9381009F10100884200DC46460298DA
:10274000C06C079002A802F08BF8002E76D0584695
:1027500006F074FA074626464FF00008204601F0BE
:10276000A7FF0B90406B40B101F0A2FF0890FDF76E
:10277000B6FD804608A802F073F80B9907EB080035
:10278000498F401A00F101080BA802F069F800E037
:1027900054E0B8F1000F2CDD304608F1100801F0CC
:1027A00087FF0090D0F834A0408F8044684602F044
:1027B00057F84146504601F08FFF5FEA00093DD0CF
:1027C000BAF1000F0AD101F073FF204B0D90424681
:1027D0001B68002198470DA802F042F8304601F02E
:1027E00067FF0090A0F83A80C0F83490684602F085
:1027F00037F8204601F05CFF0290466B02A802F019
:102800002FF8304601F054FF06460F90079906F066
:102810004BFA06443046FDF762FD421CF019314682
:10282000FDF72AFD5946304606F0C8F90FA802F018
:1028300017F80521204611F089FDEFE6204611F03A
:10284000D5FC06F05DFB11B0BDE8F08F9C080020C0
:1028500070B54568044682B0284612F0AAFE0646C6
:10286000214628460FF0C0FE002804BF02B070BD0C
:1028700020680F2844D004DC0B2847D00E2850D005
:1028800066E0A0F58070133804D0A0F580702D3874
:102890001FD05DE0284611F0A9FE284601F008FF90
:1028A000009090F8561081F0040180F856106846A8
:1028B00001F0D6FF0021284618F0B4FC284601F0AC
:1028C000F7FE0090D0F88400002111F026FE684643
:1028D00024E0E06878B1017A41B10168284600F04F
:1028E00022F90121284611F031FD31E0022128466C
:1028F00011F02CFD2CE00321284611F027FD27E0E4
:102900000121284618F08EFC02B070BD284601F067
:10291000CFFE0190343001F0DBFD01A801F0A0FFF3
:1029200016E0AEB1E0684168002911DD01681B299D
:102930000ED009DC09291CBF0A290D2908D0284618
:10294000FFF7B4FD02B070BD212918BF2229F6D1CE
:10295000204610F065FB02B070BD2DE9F04186B055
:102960000DF1300898E8F0104FF00008CDF8148011
:102970008DE8F01000F004F806B0BDE8F08100002A
:102980002DE9FF4F85B09846DDE91654DDE9126B5D
:1029900091468A46159F03F003FC04F16001324A18
:1029A00003914BF480500096CDE9010243464A461C
:1029B0005146059810F078FA04004FD001F078FEE7
:1029C00010223946049010F071F82848049990E8D4
:1029D000CC1701F1600B8BE8CC17006AC1F88000BE
:1029E000012081F85500681C18BF012081F888007B
:1029F000002DD8BF08252AB20A87002048874863DF
:102A0000551C04A801F02CFF204601F051FE009057
:102A1000476B408F0544684601F022FF294638463F
:102A200001F05AFE060015D057B901F041FE104BD7
:102A300001902A461B680021984701A801F010FF69
:102A4000204601F035FE009045874663684601F058
:102A500007FF03E0204610F01DFB002406F050FAAB
:102A600009B02046BDE8F08F51280108C4090020B4
:102A70009C0800200148806870470000C4090020BD
:102A800038B5040008BF38BD03F08AFB204601F0CA
:102A90000FFE0090846E684601F0E2FE06F030FA08
:102AA000204638BD38B505004FF000040BD003F0C8
:102AB00077FB284601F0FCFD0090846C684601F02D
:102AC000CFFE06F01DFA204638BD002808BF70472B
:102AD000F8B516460C46054603F062FB284601F0A1
:102AE000E7FD0090002818BF032C05D200EB8400FE
:102AF0008667284611F07AFB684601F0B1FE06F0C1
:102B0000FFF9F8BD70B50D46044603F049FB34B13A
:102B10002946204600F0D8F9204611F067FBBDE8B1
:102B2000704006F0EDB9002808BF70472DE9F0416C
:102B300086B00C46074603F033FB384601F0B8FD7B
:102B40000090406B002849D001F0B2FD039000983E
:102B5000806E05F0F9F98046384610F0B1FF064660
:102B6000039803F03FFA0546009890F8601001F0D2
:102B70000301012918D002290FD0416EC06A0068F4
:102B80000844201A441E039807F01EFC002C11DA9A
:102B90000021384600F098F917E0701B401C00EB4C
:102BA000D070A4EB6004EEE7406E711B081A201A87
:102BB000441CE8E7A54204DB02462146039807F0DF
:102BC00097FB0146384600F07FF903A801F048FE64
:102BD000404605F0B9F9384611F008FB684601F0A7
:102BE0003FFE06F08DF906B0BDE8F0812DE9F8430F
:102BF0001D46DDE9086714468946804603F0D0FA91
:102C0000B8F1000F75D0404601F052FD3B490090ED
:102C100081653B49C1650021C0E91291C0E90F45BA
:102C200080F8446080F85670012180F8541090F8C4
:102C30008890684601F014FEB9F1000F40D0002DD5
:102C4000A7BF01210B460221CB1EB8BF6D422D4A02
:102C50000A2D08DB82FB05C04FEAA00CACEBE07547
:102C6000491C0A2DF6DAB3F1FF3F02BF4B1EB342F7
:102C7000491C002CBDBF02204FF0FF3C64420120E4
:102C8000A8BF84460A2C07DB82FB04439C10A4EBFC
:102C9000E374401C0A2CF7DABCF1FF3F02BF431E6D
:102CA000B342401C002E1CBF401C491C17F0010FF2
:102CB00018BF491C8142D8BF0146404600F03CF88D
:102CC000404619F0BBFD404601F0F2FC009000F0D8
:102CD000E5F80D490978884205D10098C06C411C7F
:102CE000404600F0F1F8684601F0BAFD404611F0A8
:102CF0007DFA06F005F9BDE8F8830000255E0208BC
:102D00003DC8020867666666B4030020002808BF55
:102D1000704738B50C46054603F042FA284601F0E4
:102D2000C7FC00908466284611F060FA684601F0FE
:102D300097FD06F0E5F838BD002808BF70472DE97B
:102D4000F04184B00C46064603F02AFA304601F002
:102D5000AFFC0090B0F93810458FA14248D012DD89
:102D6000406B80B101F0A4FC019007F02DFBA04264
:102D700006DD2146019805F097FF019A00211154C4
:102D800001A801F06DFD684601F06AFD601B451C5D
:102D9000304601F08DFC0290D0F83480408F05441D
:102DA00002A801F05DFD2946404601F095FC0700B0
:102DB00016D0B8F1000F0AD101F07AFC104B039045
:102DC0002A461B680021984703A801F049FD3046B8
:102DD00001F06EFC02904587476302A801F040FDB8
:102DE000304601F065FC00900487304611F0FEF992
:102DF000684601F035FD06F083F804B0BDE8F081C7
:102E00009C080020002808BF7047F8B516460C46FD
:102E1000054603F0C5F9284601F04AFC0090002859
:102E200018BF032C05D200EB8400C666284611F0BB
:102E3000DDF9684601F014FD06F062F8F8BD38B51A
:102E400005000C4608BF38BD03F0AAF9284601F07A
:102E50002FFC0090C16BA1421CDC016CA1421BDB6A
:102E6000816CA14210D08464C16D00291CBF28462A
:102E70008847284611F0BAF9684601F0F1FC0521AF
:102E8000284611F063FA02E0684601F0E9FC06F01A
:102E900037F838BD0C46E0E70C46E1E738B50546A3
:102EA000406B002468B101F003FC00900446E96C1B
:102EB00005F0FAFE204405F093FE0446684601F052
:102EC000CFFC204638BD000010B582B00C4601F0A2
:102ED000EFFB0090406BE8B101F0EAFB019007F0D6
:102EE00073FA009991F85420002A18BF0122002C8F
:102EF00015DB844215DC00BFB1F93800801AA0420E
:102F000011DBC86CA04218BFCC640020086501A882
:102F100001F0A6FC684601F0A3FC02B010BD00243D
:102F2000E7E70446E8E7B1F93800841AE9E700006A
:102F300002464021014808F0D0BB000000000240DA
:102F4000064A136823F44073136013681360136810
:102F500043F001031360017070470000103C024011
:102F60000A49D1F800C02CF4407CC1F800C0D1F867
:102F700000C04CF4407CC1F800C0D1F800C04CF057
:102F8000010CC1F800C0026043607047103C024071
:102F9000074A136823F440731360136843F4807383
:102FA0001360136843F00103136001807047000051
:102FB000103C0240074A136823F4407313601368FF
:102FC00043F400731360136843F00103136001605E
:102FD00070470000103C02401A49086810F0100FBA
:102FE000194805D0C26942F01002C26110220A607D
:102FF0000A6812F0200F05D0C26942F00802C261CF
:1030000020220A600A6812F0400F05D0C26942F01F
:103010000402C26140220A600A6812F0800F05D0E3
:10302000C26942F00202C26180220A600A6812F09C
:10303000020F05D0C26942F02002C261022008607E
:10304000704700000C3C0240C00C002070B50446E4
:1030500014490020C86108F047FB0646124D286855
:1030600010F4803F0ED0B4F1FF3F07D024B108F038
:103070003BFB801BA04201D9032070BD286810F4DF
:10308000803FF0D1286810F0010F01D001202860A6
:10309000286810F0F20F03D0FFF79EFF012070BDEB
:1030A000002070BDC00C00200C3C024030B4B3F5D1
:1030B000804F06D06FF0704140F8221030BC0020E5
:1030C000704750F82230DFF82CC003EA0C03D1F827
:1030D00000C04C688D894CEA041C8C688969240204
:1030E00044EA05444CEA040C4CEA0101194340F857
:1030F0002210E3E70000F0CF70B40B6850F82320F3
:10310000DFF84CC002EA0C0C4C688A680E69CD6886
:10311000144335432C434D692C438D692C43CD69B1
:103120002C430D6A2C434D6A2C438D6A2C43CD6A87
:103130002C43CD6B096B2C43214341EA0C01082A37
:1031400001D141F0400140F8231070BC00207047CD
:103150008000F0FF30B4521C50F8223003F040439E
:10316000D1F800C04C688D894CEA041C8C6824029C
:1031700044EA05444CEA040C0C8A641E4CEA045CE4
:103180000C7D8969A41E4CEA046C4CEA01011943C8
:1031900040F82210002030BC7047000070B5064691
:1031A0000024064D314655F83400FDF79FF818B15C
:1031B000601CC4B2252CF5D3204670BD3C00002015
:1031C000FEF76ABF2DE9F84F0F46DDF82890064656
:1031D000941BA3EB0708D9F800504FF0000A54EAFB
:1031E000080063D0002CD4BF60422046B8F1000F25
:1031F000CCBF4146C8F1000188420ADA2046444665
:10320000804630463E46074610461A4603464FF073
:10321000010A002CCCBF20466042A04208BF01201A
:1032200008D03046164602466442C8F100081F46E0
:103230004FF0FF300090C448C449B8F1000FD0F8F7
:1032400000C01CBF04EBD4724FEA620BB8BFCBF1D5
:10325000000B30D09CF81A20002A00F0FA80009A67
:10326000002ABCBF2A19C9F800200025002CC0F292
:10327000458100BF08FB05B090FBF4F0C219D9F8F6
:10328000001000980844B049C9F8000009688B7E16
:10329000012B00F00081022B00F00781032B00F0CE
:1032A0000D81042B00F03A8100F019B93046BDE8D9
:1032B000F84F00F08DBABAF1000F62D09CF81AC036
:1032C000BCF1000F14D04FF00008002CA4BF8A46B8
:1032D000834640DBDBF8001028466D1C8A7E012AFD
:1032E0000CD0022A14D0032A1BD0042A35D027E0A0
:1032F00031463846BDE8F84F0AF098BB801DC2172A
:1033000000EB127222F00F02801A0C281FDB17E06C
:10331000C21700EB927222F00302801A022816DB19
:103320000EE08AFB0032D310A3EBE272524202EBB2
:10333000820200EB82000C2809DB1038022806D339
:10334000496E06EB08004A6801463846904708F186
:103350000108A045BEDD681EDCE07D4A82FB00322C
:103360009310A3EBE272A2EB820200EBC2000C28E6
:10337000EDDBA0F11002022A24BF14380228E6D3A4
:10338000DEE79CF81A80B8F1000F14D04FF0000867
:10339000002CA4BF8A46834642DBDBF80010284697
:1033A0006D1C8A7E012A0FD0022A17D0032A1ED054
:1033B000042A3AD02AE0DCF864003946036801B0F8
:1033C0003046BDE8F04F1847801DC21700EB12725F
:1033D00022F00F02801A0C281EDB17E0C21700EB48
:1033E000927222F00302801A022815DB0EE08AFB9B
:1033F0000032D310A3EBE272524202EB820200EBE6
:1034000082000C2808DB1038022805D3496E06EB31
:1034100008004A683946904708F10108A045BCDD1C
:10342000681EC9F80000BDE8F88F494A82FB0032E7
:103430009310A3EBE272A2EB820200EBC2000C2815
:10344000EADBA0F11002022A24BF14380228E3D3D9
:10345000DCE70025002CACBF8146BDE8F88F00BF3B
:1034600008FB05B090FBF4F03844BAF1000F0AD025
:10347000D9F800207119526E526890476D1CA54210
:10348000EEDDBDE8F88FD9F800107319496E4A686F
:1034900001461846F1E7801DC31700EB137323F0B4
:1034A0000F03C01A0C2825DB19E0C31700EB937338
:1034B00023F00303C01A02281CDB10E0234B83FB1C
:1034C00000C34FEAE30CACEBE3735B4203EB830313
:1034D00000EB83000C280DDB103802280AD3496E5C
:1034E000BAF1000F06EB05004B680EBF114601460E
:1034F000104698476D1CA5427FF7BCAE0098002887
:1035000004DAD9F800002044C9F80000D9F8001006
:103510000098081AC9F80000BDE8F88F0C4B83FB2F
:1035200000C34FEAA30CACEBE373A3EB830300EB04
:10353000C3000C28DEDBA0F11003022B24BF1438DB
:103540000228D7D3CBE70000C80300206766666671
:10355000ABAAAA2A2DE9F047DFF86892804684B02A
:10356000D9F800000F460C99007E1D46164601282A
:1035700000F0CE80A8EB060C7C1B5CEA040104BFC3
:1035800004B0BDE8F087421E0021BCF1000FBCBFB3
:103590000121CCF1000C002CBCBF41F002016442BF
:1035A000644504DD20466446844641F00401A002DF
:1035B0000CEBDC7300EB630090FBFCF08010824CA2
:1035C0004FEA201C00F00F0034F81C30C0F110004E
:1035D00013FB00F3102807D004EB4C0CC0F11000D3
:1035E000BCF802C01CFB003303F10800C31700EB5A
:1035F0001370001111F0040F18BFC0F5806011F0B6
:10360000010F18BFC0F5006011F0020F18BFC0F520
:10361000805000F5806100F50060C0F30B004FF0B2
:10362000000AB0F5006FC4BF4FF0010AA0F50060BA
:10363000B0F5806FC8BFC0F500604FEAA01C634BB7
:1036400000F03F00C0F1400033F81C4044434028E4
:1036500018BFBCF1100F07DA03EB4C0CC0F14000AF
:10366000BCF802C00CFB004404F120008009BAF150
:10367000000F18BF404200FB02FC0024C1F30B0006
:10368000B0F5006FC4BF0124A0F50060B0F5806FF5
:10369000C8BFC0F50060811100F03F00C0F14000DC
:1036A00033F811A040280AFB00FA18BF102906DAE7
:1036B00003EB4101C0F14000498801FB00AA0AF177
:1036C00020008009002C18BF404200FB02F1BCF131
:1036D000000FB4BFCCF500700CF500704FEAA020CD
:1036E000B8BF40420029BDBFC1F500718912C1F1C8
:1036F000000C01F50071A8BF4FEAA12C00280FDDD6
:10370000411C01EBD171491000EBD07042100EE06A
:10371000009139464046FFF755FD04B0BDE8F087FB
:1037200000EBD071401E491000EBD0704210BCF18C
:10373000000FC6BF0CF1010000EBD0700CEBDC7089
:103740004FEA6000CEBF0CEBDC73ACF1010303EB7E
:10375000D3735B1008EB010CADF800C007EB000C55
:10376000ADF802C0A8EB020CB21AADF804C0ADF877
:1037700008203144A7EB030CEA1AADF80C102844DA
:10378000ADF80A20ADF80E000023ADF806C01A46C9
:103790000421684600F08EF8D9F8002040463946EA
:1037A000527E002A08BF00F013F83046D9F80020F6
:1037B0002946527E002A08BF00F00AF804B0BDE88E
:1037C000F0870000C80300208E1606086C16060855
:1037D000064A13681A7E012A05D0521E02EBD272E5
:1037E000521000F005B85A6E52681047C803002006
:1037F0002DE9F84F06460F4640F2C32050434FF4E0
:103800007A7190FBF1F000F1010A02FB02F002EB89
:10381000D271DFF89C8000EB61000090D8F80010B6
:1038200014463244496E301B0B68394698470125CF
:10383000BAF1010FB8BFBDE8F88F00BF05FB05F076
:1038400004FB0400009988421ADD544517DDD8F8BE
:10385000003006EB050BA6EB05095B6EABF1010230
:1038600039191B6809F101009847D8F80030ABF10D
:103870000102391B5B6E09F101001B689847641E49
:10388000D8F80030321979195B6E301B93461B68EB
:1038900081469847D8F800305A46791B5B6E4846F7
:1038A0001B6898476D1CAA45C8DABDE8F88F000070
:1038B000C80300202DE9FF4F83B0074643F6FF748D
:1038C000C4F1000090460E1E0090C4BFBA1C08460A
:1038D0000EDD00BFB2F90010A142D8BF0C46009B1C
:1038E0009942D8BF19460091401E02F10402F1D15D
:1038F0008C490868406970B1B0F90630069A9B1A85
:10390000009A9342C0F20281B0F90230069A9A1AE4
:10391000A24200F3018100988442D2BFA6F10109BE
:1039200007B0BDE8F08F00207F490546002E0860F3
:10393000C4BF069804EB000A7EDD4D45B4BF6A1C87
:10394000002207EB850C07EB8201BCF90200B1F9FC
:103950000230A04255D1A34213D137F92500514678
:1039600000EB080337F922006E4A40448342126894
:10397000526ED2F800C0BABF024618461A46E04757
:1039800087E000222946B9F1000F0CDD002914BFA1
:10399000491E711E07EB8100B0F90200A04203D15D
:1039A000521C4A45F2DB2046A04272D0001B37F978
:1039B00025101A1B90EA020F09D45A4A01EB08009D
:1039C00051461268526E13680246984761E0DFF86C
:1039D00058B1DBF800C0BCF10C0F5ADA0020BCF182
:1039E000000FC4BF6046514A4CDD00BF02EB4003EC
:1039F00033F9023C8B4245DB22F81030401EF5D1F2
:103A000040E0A34245D0A8BF844203DAA042A8BF49
:103A10009C423EDB98424EDC0246A042DFBF184685
:103A20008442BCF90030B1F9001032DCA1EB030C88
:103A3000A11A0CFB01F100E02FE00029A0EB020C21
:103A4000CEBF01EB6C01A1EB6C01491C801A91FB0C
:103A5000F0F0DFF8D4B0C118DBF800C0BCF10C0FF7
:103A600017DA0020BCF1000FC4BF60462F4A09DD01
:103A700002EB400333F9023C8B4203DB22F81030A7
:103A8000401EF5D1294A22F810100CF10100CBF8A4
:103A900000006D1CB542FFF650AF0698002520448B
:103AA00001902148AB4601680029C4BF1F49B1F904
:103AB00000A022DD18E01A46A342DEBF8442B1F91D
:103AC0000030BCF90010B1DDE3E7184931F91BA063
:103AD00055B108EB000C134808EB0A020199006885
:103AE000406E0368604698470F490BF1010B85F063
:103AF0000105096850465945E7DC0098641C84427A
:103B00007FF711AF07B0BDE8F08F00BFB0F9063006
:103B1000069A9A1A0092F7E6B0F902200698141A4B
:103B2000F9E60000C80300208C0B0020C8B6012075
:103B300070B52048046802F033FB20460AF088FB89
:103B400005F0DEF91C48046802F02AFB20460AF062
:103B5000B9FB05F0D5F9012502F022FB174C2068CE
:103B6000057605F0CDF902F01BFB20680025858560
:103B700005F0C6F902F014FB2068458505F0C0F990
:103B800002F00EFB28460AF0B5FB05F0B9F90C4827
:103B9000056802F005FB2068002D18BFC56105F01F
:103BA000AFF9002502F0FCFA20688576BDE8704088
:103BB00005F0A6B9C4030020C0030020C8030020FC
:103BC000BC03002070B50C46054600F0FBF8A86861
:103BD0002168C16261680163A168416311F0040F4B
:103BE00007D0D0E90021C0E90012D0E90221C0E9E4
:103BF0000212A189818421690029B8BF002118BF60
:103C0000016270BD2DE9F0411E4617468846044604
:103C100000F0D8F8A5686822414605F58A70FCF7DF
:103C20002BFB2046B8472046B04720698068804774
:103C3000A862BDE8F081000010B5044600F0C2F8AB
:103C4000A0681049134AC0F8AC100F49C0F8A8107A
:103C50000E49C0F8B0100E49C0F8B8100021C0F8E5
:103C6000BC101368C0F8B4300B4BC0E93331516855
:103C7000C0F8C810C18C21F00301C1840749C0F805
:103C8000941010BD0DC4020831C60208D1C3020849
:103C90002FBD0208A4040020C9BE020861C30208A7
:103CA00010B5044600F08EF8A46810481021C4F83E
:103CB000EC000F48C4F8F0000E48C4F8F4000E48B9
:103CC000C4F8F8000D48C4F8A0000D48C4F8A400DA
:103CD000D4F8C800C4F80401D4F8942020469047D2
:103CE0001020A0630748606410BD0000D570020872
:103CF000AD990208093D0108413E0108D1BC020806
:103D000051C90208E0140608F8B5846815460F4644
:103D100094F8260010F0020F48D0D4F8083120465D
:103D200098470646D4F80C312A463946204698472B
:103D3000D4F8983005461BB100220121204698474F
:103D40002069B042CCBF01200020A169B142B4BFBC
:103D50000121002108436169A942CCBF0121002152
:103D60000843E169A942B4BF0121002108430AD0F8
:103D70006068401E00902068D4F8A8C0431E00224E
:103D800011462046E047D4F8AC302A46314620465A
:103D90009847D4F8A01020468847D4F898300546B4
:103DA0006BB1012200212046984708E0D4F8AC30DE
:103DB00020469847D4F8A010204688470546284654
:103DC000F8BD000010B504468068002818BF10BD7B
:103DD0004FF4BE7000F0E2FB084BA0604FF4BE72DF
:103DE0001B6800219847A0680221C1840121046456
:103DF00001620349C0F8101110BD00009C080020AA
:103E0000053E01082DE9F0010C4991B0B1E8FC1123
:103E10008DE8FC1191E8FE100DF1200888E8FE10F5
:103E2000416B5DF82120C0F8082108AA52F8211042
:103E3000C0F80C1111B0BDE8F001704784290508E5
:103E40002DE9F84384681F46154694F826008846F5
:103E500010F0020F35D0D4F80831204698470646B6
:103E6000D4F80CC12A4641462046E0470546206961
:103E7000B042D4BF00200120A169B142B4BF0121EA
:103E8000002108436169A942CCBF012100210843F8
:103E9000E169A942B4BF0121002108430AD060684A
:103EA000401E00902068D4F8A8C0431E002211468E
:103EB0002046E047D4F8AC302A46314620469847A1
:103EC00003E0D4F8AC3020469847D4F8A42001B0E1
:103ED00039462046BDE8F043104700002DE9F04F79
:103EE0004B4989B00968B1F922200692D1F81CC06B
:103EF000B1F92470DCF81C40A28982429CBFE3899E
:103F0000984205D8A0EB02094FF0FF38266812E06E
:103F1000D4E90162002A71D0138883429CBF55887E
:103F2000A8426BD8C01A526880B202EB8000B0F988
:103F30000090B0F90280B9F1FF3F5FD09CF8180003
:103F4000A27C10FB02FB94F810A00790B1F92A5054
:103F500028460AF0CFF9C0B208902D4809FB0B6241
:103F60000068A37C4FF00109816BCDE90293CDE994
:103F70000421C0695246C17E807ECDE90001DDE9A1
:103F80000603394609F0A8FBB8F1FF3F18D045F009
:103F900002000AF0AFF91E48A37C08FB0B62006820
:103FA000816BCDE90293CDE90421C0695246C17EFF
:103FB000807ECDE90001DDE90603394609F08CFB7E
:103FC000134E3068C069417E007E814213D9022DB4
:103FD00011D085F004000AF08DF93068C069017EC7
:103FE000C27E11FB0271427ED319827E06981AFBB3
:103FF000020209F04DFD08980AF07CF90448627C41
:104000000068418C1144418409B0BDE8F08F000084
:10401000C8030020044800290068C069C0691CBFAB
:10402000027C0A60407C7047C803002002200880A0
:104030007047C06982898A429CBFC289914210D967
:10404000806880B102888A429CBF438899420AD81E
:10405000406800EB8100A0EB8200B0F9000000286E
:1040600001DB012070470020704700002DE9F0437C
:10407000394D024687B02868B0F92A60C069C16925
:104080001046002904BF07B0BDE8F0830B888342C7
:104090009CBF4B88984205D989680029F6D107B0A2
:1040A000BDE8F083002904BF07B0BDE8F08348688D
:1040B0000988511A00EBC1043046A7780AF01AF9B2
:1040C0008046286862680123816BCDE90237CDE91B
:1040D0000421C169CB7E8A7ECDE900230B7EB0F935
:1040E00024102278B0F9220009F0F6FA2868C06995
:1040F000417E027E91421FD9C07E11FB00F912FB66
:1041000000F7022E18D001F0F2FE064601F0B8FECC
:1041100003F0EBFE29682278CB69B1F92200DB7E3F
:1041200012FB0302B1F9241001EB0903394409F031
:10413000AFFC304603F0D9FE40460AF0DBF82868B1
:104140006278C369B0F922109B7E12FB031141848F
:1041500007B0BDE8F0830000C803002010B4044697
:1041600015480068D0F81CC02046DCF81C2002B3BB
:10417000138883429CBF5388984203D99268002ACF
:10418000F6D116E0AAB110885368221A012000EB7C
:10419000C2009CF81AC0185C10FB0CF0002904BF88
:1041A00010BC704713F8322012FB0CF20A6010BCEE
:1041B000704710BC00207047C80300200120088011
:1041C0007047C06968B102888A429CBF42889142A8
:1041D00003D980680028F6D103E000281CBF012025
:1041E00070470020704700002DE9F047DFF8A480F9
:1041F000DFF8A4A04FF00009D8F80840002CC4BF95
:10420000D8F8106000251DDDD8F81000C5EB0517A3
:1042100000EBC7007022001DDAF80010FCF72CF844
:1042200046F8789BD8F8100005F1010500EBC700AF
:1042300000F10C018161011D0A1DC0E90F124164EA
:10424000641EE1D1D8F808000024002810DD00BF6A
:1042500004F071FED8F81020C4EB041152F83110AC
:10426000814206D081B1D8F80800641C8442EFDB9B
:104270004C46D8F81010C4EB041001EBC000001D30
:10428000CAF80000BDE8F087C4EB041142F8310021
:10429000EFE70000EC080020C803002070B51B49C0
:1042A00019480860084606F03BFA194CA068C0EBB4
:1042B0000010C500284600F071F9164B20612A460F
:1042C0001B68002198474FF0FF30206004F038FE53
:1042D000A06800250028D8BF70BD00BF04F02BFEE9
:1042E0002269C5EB051152F83110814208BF70BD3B
:1042F00021B16D1CA0688542F0DB70BDC5EB0511D6
:1043000042F8310070BD000041B0020800090020F1
:10431000EC0800209C080020002904BF0020704702
:104320002DE9F0410F46804601F03AFF01F038FFD9
:10433000384611F09DFF044604F0E2FD002C2FD01A
:104340001A4D3A46E869401CE861686B00EBC4000E
:104350000178491C01700421686B01EBC401B8F1BC
:10436000000F405800F1080605D0114B4146304679
:104370001B68984704E00F4B002130461B689847A4
:1043800056F8081C686B00EBC1000178022904D3C1
:10439000E96900291CBF491EE9610178491E0170C5
:1043A00004F0AEFD2046BDE8F081000004B4012019
:1043B000A00800209C080020002808BF704710B506
:1043C000044601F0EDFE204611F052FF044604F0D1
:1043D00097FD204610BD00002DE9F041074601F091
:1043E000DFFE002F08BF002430D001F0D9FE384690
:1043F00011F03EFF044604F083FD002C26D0164D3C
:10440000164B3A46E869401CE861686B00EBC40053
:104410000178491C01700421686B01EBC4011B6821
:104420004058002100F108063046984756F8081C0D
:10443000686B00EBC1000178022904D3E969002907
:104440001CBF491EE9610178491E017004F058FD46
:104450002046BDE8F081000004B401209C08002043
:10446000024A106021F0030050607047C4B401207C
:10447000002808BF704770B5044601F091FE0C4D4E
:10448000042000EBC406696B8959486811F06CFC84
:104490006868401C6860696B686A8851696B0020B5
:1044A00001F834006C62BDE8704004F029BD0000E2
:1044B00004B40120002808BF7047044AD16B016092
:1044C000002918BF4860D0637047000004B4012081
:1044D0002DE9F041064601F063FE34680027C4B1BF
:1044E00001F05EFE0D4D042000EBC408696B51F82D
:1044F0000810486811F038FC6868401C6860696BF7
:10450000686A41F80800686B00F834706C6204F067
:10451000F7FC3760BDE8F04104F0F2BC04B40120C0
:104520002DE9F05F0F1E81464FF00005C6BFDFF892
:1045300068804FF0000ABDE8F09F00BF09EB8506D8
:1045400001F02EFE3468F4B101F02AFE0420D8F800
:10455000341000EBC40B51F80B10486811F004FC48
:10456000D8F80400401CC8F80400D8F83410D8F873
:10457000240041F80B00D8F8340000F834A0C8F843
:10458000244004F0BDFCC6F800A004F0B9FC6D1C8A
:10459000BD42D3DBBDE8F09F04B401202DE9F0411A
:1045A000044616F099FAE01C274E20F00300051D82
:1045B000306CA84288BF0546F46BBCB154F8041CAB
:1045C000A94210D19CB1206800281CBF61684160DD
:1045D000606800281CBF21680160F16BA14204BF24
:1045E0002068F0632DE02468002CE7D10024F168F6
:1045F000B06B00EB010858F8040CA8EB0007386812
:1046000040B1002017F002FD58F8040CA8EB000799
:104610003868B0B97868A84213DB3844401B041DE1
:10462000384617F0C5FCF068401BF06070692844FC
:1046300070617868401B1CBF394611F095FB44F847
:10464000045C2046BDE8F08104B4012010B50024CC
:1046500016F042FA0D490F2001EBC002526C8AB1EC
:1046600001EBC000406C806848B14168A14288BF3E
:104670000C46806800281CBF80680028F5D1A4F192
:104680000C0010BD401EE7D5F9E7000004B401207E
:10469000002140B10549042202EBC000496B0858D3
:1046A0004068A0F10C0108467047000004B40120E6
:1046B0000849CA69521CCA614A6B02EBC0021378EE
:1046C0005B1C1370496B042202EBC00008580830D1
:1046D0007047000004B401202DE9F05F0E0005468C
:1046E0004FF0000808BF474674D001F059FD30462E
:1046F00011F0BEFD074604F003FC002F18BF002D8B
:1047000068D0364C4FF0040909EBC50A606B50F8CD
:104710000A004068A0F10C00B042B8BF064601F0A4
:104720003FFDE0692E4B401CE061606B324600EBC0
:10473000C7000178491C0170606B09EBC701415843
:1047400000EBC50001F1080BE169491CE16101784A
:10475000491C0170606B1B6850F80A0000F10809E1
:104760004946584698475BF8081C606B00EBC1004F
:104770000178022904D3E16900291CBF491EE161C7
:104780000178491E017059F8081C606B00EBC100EC
:104790000178022904D3E16900291CBF491EE161A7
:1047A0000178491E017001F0FBFC606B50F80A10A3
:1047B000486811F0D9FA6068401C6060616B606AFB
:1047C00041F80A00606B00F83580656204F098FBE0
:1047D00004F096FB3846BDE8F09F000004B40120C9
:1047E000A008002010B501F0DBFC002416F074F9DD
:1047F000194B1A490F2000BF01EBC002526CE2B105
:1048000001EBC000406C8068C8B14268A24288BF1A
:104810001446806800281CBF80680028F5D1A4F1E8
:104820000C00B0F5800F0DD983FB00204211096AFE
:10483000A2EBE07000FB01F409E0401EDCD5A4F11E
:104840000C00F1E7096A4843A3FB0010440904F097
:1048500057FB204610BD00001F85EB5104B401201A
:104860000A4902684B6B52F8082C03EBC20213781A
:10487000022B04D3CB69002B1CBF5B1ECB611178CC
:10488000491E1170002101600846704704B40120E0
:104890000349042202EBC000496B085808307047F6
:1048A00004B401202DE9F0414FF0000682B00B4620
:1048B0005FEA000834462BD032B111461846FFF7A4
:1048C0002BFD060008BF01244046FFF7F1FE0090D3
:1048D000078845686846FFF7C3FFCCB9B800011DDB
:1048E0002846FFF7F9FE050016D0FFF7E1FE01901C
:1048F00040F8276001A8FFF7B3FF4046FFF7D8FE56
:10490000009045600188491C01806846FFF7A8FFB8
:1049100002B02046BDE8F0813046FFF7A9FD012432
:10492000F6E70820FFF758BD002808BF704730B5EC
:1049300083B00546FFF7BCFE00904068D8B1FFF792
:10494000B7FE0190009800240088002809DD019836
:1049500000EB8400FFF7BCFD0098641C0088A042B7
:10496000F5DC01A8FFF77CFF0098001DFFF7B0FD04
:104970000099002008806846FFF772FF2846FFF77D
:1049800077FD03B030BD38B5002430B1FFF790FE9D
:10499000009004886846FFF763FF204638BD30B5B5
:1049A00083B00D460024B8B1FFF782FE0090018865
:1049B000A9420ED9406860B1FFF77AFE019050F825
:1049C000255001A8FFF74CFF280002D0FFF770FE2A
:1049D00004466846FFF744FF03B0204630BD0000A0
:1049E0002DE9F043002483B01E4690460D46002872
:1049F0003BD0FFF75DFE0190B0F80090476801A83A
:104A0000FFF72EFF4D4530D27FB33846FFF750FEFB
:104A1000009050F825406846FFF722FF24B1204659
:104A2000FFF736FEB04211D03046FFF7D5FC040048
:104A30001BD03846FFF73CFE00EB8505009028466A
:104A4000FFF746FD68462C60FFF70AFFB8F1000F3C
:104A50000BD02046FFF72CFE064B029032461B6817
:104A60004146984702A8FFF7FBFE03B02046BDE889
:104A7000F0830000A008002070B50C46054601F048
:104A8000DBFBC1B223462846BDE87040002200F09F
:104A900001B800002DE9F0012D24D3F800C0B0F1D9
:104AA000004F34D000250028A8BF4FF0000C07DAD3
:104AB0000CF101061E608CF8004040424FF0010CE2
:104AC000A1EB0C01C9B2002A1CBF491EC9B20029C2
:104AD0001CBF234F234E3DD08C46491EC9B294457E
:104AE00008D1D3F800C03C780CF10108C3F800806D
:104AF0008CF8004056F8214090FBF4FC0CF0FF0CC1
:104B0000BCF10A0F26D80CFB140081B909E00CF1A6
:104B1000010601251E606FF000408CF80040491E20
:104B2000D0E7002D1CBF0CF1010C0CF0FF0CBCF108
:104B30000A0F03D1491C4FF0010CC9B20CF130042B
:104B4000D3F800C000290CF10108C3F800808CF8EC
:104B50000040C1D1196800200870BDE8F00170471D
:104B6000B4030020E82805080028D8BF70472B238D
:104B70000A6802F1010CC1F800C013700968002234
:104B80000A70704770B514460D46064601F008FBE2
:104B9000204601F0B9F90300164804EB840109D05E
:104BA00050F8210041688068711A2A1A184603F0EB
:104BB000DBF91AE000EB8104A268B24214BF0122C3
:104BC0000022E368AB4214BF012300231A430CD038
:104BD000236943B150F82100816840686A1A311A8C
:104BE000184602F0FFFDC4E90265BDE8704004F01C
:104BF00087B9000070B60120C2B2CBB2D21A48BF4A
:104C0000524292B202FB02F3C0F30722C1F3072C17
:104C1000B2EB0C0248BF524292B2000CA0EB114022
:104C200002FB023200B20028BCBF404200B280B298
:104C300000FB0020704700002DE9F041002182B008
:104C4000084601F013FA43F6FF76374601F0A8FA5A
:104C5000042009F04FFB804612484069C16C006D8A
:104C60008D1B841B0E440744ADF80050ADF8046062
:104C7000ADF80240ADF80670684610F0E1FA48B1B0
:104C80003B4632462146284608F002FF10F0EAF87B
:104C90000028F5D1404609F02DFB04F031F902B0AF
:104CA000BDE8F081B40300202DE9F04182B01C463C
:104CB00017460D46064601F073FA042009F01AFB68
:104CC000804613484169C86C096D064407440D4489
:104CD0000C44ADF80060ADF80470ADF80250ADF8CA
:104CE0000640684610F0ACFA48B123463A462946D9
:104CF000304608F0CDFE10F0B5F80028F5D140465A
:104D000009F0F8FA04F0FCF802B0BDE8F081000008
:104D1000B40300202DE9F04182B0B0F90050B0F9A1
:104D20000240B0F90460B0F9067001F039FA0420CD
:104D300009F0E0FA804613484169C86C096D0544E2
:104D400006440C440F44ADF80050ADF80460ADF8D3
:104D50000240ADF80670684610F072FA48B13B4662
:104D600032462146284608F093FE10F07BF80028D2
:104D7000F5D1404609F0BEFA04F0C2F802B0BDE831
:104D8000F0810000B40300202DE9F8431C00DDE9A8
:104D9000089816460F46054602D10EF06DFC0446F3
:104DA0000096D5F800C043464A4621462846E047CB
:104DB000061E08BFBDE8F8830EF051FC8146698AE3
:104DC00030460DF0DCFC30460FF0B5FE48460FF0E3
:104DD000B2FE7F1E002FC8BF4FF000080FDD00BFDE
:104DE000CDF8008055F81CCF00231A4649462846C6
:104DF000E04718B30FF09FFE7F1E002FF0DC1D214F
:104E000048460FF03BFCB4F1FF3F14D001F0C8F965
:104E10000EF0BAFC40B100BFFFF73AFD8469B4421E
:104E200018BF5FEA0400F7D1B4421CBF30460FF050
:104E30003DFD04F065F83046BDE8F88330460EF0DD
:104E400029F90020BDE8F883022BA4BF0020704799
:104E50002DE9F04106461C4615460F461C20FFF77B
:104E60009DFB002808BFBDE8F081002F18BF076137
:104E70000BD10A4A52F8241039B10A681AB1114606
:104E80001268002AFBD109690161846185820021D1
:104E900001604160C0E90216BDE8F081F403002022
:104EA0002DE9F04100241D46074688461646022B90
:104EB00027DA1C20FFF772FB18B3B8F1000F18BFF8
:104EC000C0F810800BD1104A52F8251039B10A6889
:104ED0001AB111461268002AFBD109690161856186
:104EE000868204604460C0E90247040009D000F0F3
:104EF00011F8E068006820B90448006800EB8500FC
:104F000084652046BDE8F081F4030020C80300203A
:104F1000FFF7D0BA00281CBF8369022BA4BF012071
:104F20007047234A591C92F800C08C45B8BF1170D5
:104F300010B4204C54F82310002908BF44F8230073
:104F400030D04A682AB111465268002AFBD10029A4
:104F50002BD0C268D2F800C0CA681268624503DD6F
:104F600009680029F8D120E0F9B1CA6812686245E1
:104F700004BF828A012A08D10A682AB11146D26880
:104F800012686245F8DA00E079B14A68002A1DBF6C
:104F900010604A68426044F823004860884208BFB5
:104FA0000021016010BC0020704710BC0120704738
:104FB0001A040020F4030020002808BF704770B4D2
:104FC000244D254CD0F800C000281CBF8669022E55
:104FD0003ADA2A78711C8A42B8BF297054F8261030
:104FE000002908BF44F826002ED04A6822B1114695
:104FF0005268002AFBD139B3C2681268CB681B68BB
:10500000934203DD09680029F8D11DE0E1B1CB68C6
:105010001B68934204BF838A012B08D10B682BB114
:105020001946DB681B689342F8DA00E061B14A6810
:10503000002A1DBF10604A68426044F8260048609C
:10504000884208BF002101605FEA0C00BAD170BC41
:10505000704700001A040020F40300200D4B826901
:10506000002153F822C0844507D1D0F800C043F88E
:1050700022C00268002A18BF51604268002A1CBF83
:10508000036813600268002A1CBF43685360016014
:1050900041607047F40300200020704702280BDABB
:1050A000064A52F8200038B1C26812688A4208BF26
:1050B000704700680028F7D100207047F4030020F3
:1050C0000228A4BF00207047064951F8200000289C
:1050D00008BF7047C168096800291CBF0068002824
:1050E000F8D17047F4030020F8B516460F460500C6
:1050F0004FF0000414D00C20FFF76EF904000FD01D
:1051000001F04EF82046FFF7D3FA06490090C0E9B7
:105110000015078146816846FFF7A2FB03F0F0FE09
:105120002046F8BD84150608002808BF70472DE901
:10513000F8431E46174688460446FFF7B9FA009022
:10514000006805686846FFF78BFB33463A464146E0
:105150002046A847BDE8F883002808BF70472DE91E
:10516000F04F83B0054601F01BF800F0D7FE3C4C31
:1051700080462068B0F9227000F040FF8246206827
:10518000818CA1EB0A0181842878002818BFA8F13E
:10519000010946D047F6FF71284605F0F3F883462B
:1051A0000146284605F0B4F82168064691F82C001F
:1051B00000F00300012808BF304605D0022812BFC6
:1051C000002006EBD67040104A8C101A4884ADF8C7
:1051D0000000721E1044ADF80400888CADF8020087
:1051E0004844ADF806006A465946284604F0FAF8E5
:1051F0002168BDF8020088845946284603F054FD12
:10520000054428780A2818BF0D2817D0BDF80000DB
:10521000216830444884287818B115F8010F002817
:10522000B8D12068818C51448184818D21F00301A3
:10523000818503F065FE03B0BDE8F08F206890F82B
:105240002C1001F0030101291DBF0229018C4184AA
:10525000478429780A29DED1818C41448184DAE7A8
:10526000C803002070B514460D46064600F098FFAE
:105270000548016830464D848C84FFF76DFFBDE81A
:10528000704003F03DBE0000C80300202DE9F0414E
:105290000D4F0646154638680C46B0F92C0040F014
:1052A000020002F091FE804600F07AFF38684484E4
:1052B00085843046FFF750FF03F022FE4046BDE8EC
:1052C000F04102F081BE0000C80300202DE9F0414A
:1052D00082B006000D46174647F6FF784FF00004EF
:1052E00004BF02B0BDE8F08100F05AFF65B1284666
:1052F0000FF0E4FB040007D002462946684605F09B
:10530000BAF868460FF0DAFB43463A46294630467B
:1053100004F05AF920460FF0D1FB03F0F1FD02B082
:10532000BDE8F081002808BF70472DE9FF4F87B026
:1053300093460E46054600F033FF3468776821B285
:1053400038B2401A401C029000F0E8FD82461BF083
:105350000C0F2FD0029801900A98A8464FF0000930
:10536000009000F01DFFDDE90021404605F042FA03
:105370008044002818BF09F10109F4D103F0C0FDF1
:105380000BF00C00042818BF082802D00C2805D008
:1053900010E0381409FB1A00401C09E02114C1EB8D
:1053A000274009FB1A00401C00EBD07001EB6000A5
:1053B00060F31F4430460FF081FB5FEA000909D01B
:1053C000CDE904470246314604A805F054F804A884
:1053D0000FF074FBAAF1010828460A9A029905F019
:1053E0004BFA039008EB244060F31F47CDE90047D8
:1053F0002846039904F08CFF1BF0030108BF308896
:105400000ED001290FD0022912D1B6F90420B6F925
:105410000010521A101A401C00EBD07001EB600013
:10542000ADF8000004E0B188081A401CADF8000097
:105430006A462846039903F0D5FF28460A9A02993E
:1054400005F0D8F905440AEB244060F31F4428789E
:105450000028C1D148460FF031FB03F051FD0BB0DD
:10546000BDE8F08F2DE9F04F89B015460E46044691
:1054700000F096FE364F3868C16C006D0E4405444E
:105480002088711E0844ADF81860ADF81C006088D3
:10549000691E0844ADF81E00ADF81A5006A80FF0BA
:1054A000CFFE00281CBFDFF8ACB04FF0010A42D09D
:1054B0000020D4F80C9002F03BFD8046B9F1000FBB
:1054C0001BBF99F80400002828F0020048F00200F1
:1054D00002F02EFD206970B1D4E902120091CDE9ED
:1054E000012ACDF80CA0D0F800C063882288294694
:1054F0003046E04718E03868DBF800302146427C4F
:10550000E0689847E0B1A288E388A168CDF800A0E0
:10551000CDE90410CDE90232CDF804A063882288D9
:105520002946304608F0D8F8404602F001FD0FF059
:1055300099FC0028BCD103F0E3FC09B0BDE8F08F72
:10554000E088012812BF00203868806BDBE700008C
:10555000C8030020B803002010B50A4682B00146F7
:10556000684605F0CFF800F01BFE2B48BDF8001090
:105570000068B0F84C201144ADF80010BDF80210DE
:10558000B0F850201144ADF80210BDF80410B0F886
:105590004C201144ADF80410BDF80610B0F85000CE
:1055A0000844ADF8060068460FF04AFE78B300BF25
:1055B000BDF90040BDF90400A0420EDBBDF90210A8
:1055C000204608F0FBF9BDF90610204608F0F6F970
:1055D000BDF90400A41CA042F0DABDF90240BDF9F7
:1055E0000600A0420FDB00BFBDF90000214608F015
:1055F000E5F9BDF90400214608F0E0F9BDF906001F
:10560000A41CA042F0DA0FF02DFC0028D0D103F04A
:1056100077FC02B010BD0000C80300202DE9FF4F49
:10562000A3B01C4615460E46074600F0B9FD70486B
:105630000168D1F84CC00CEB07002390096D881964
:1056400024900CEB05002590081926902398ADF8BE
:1056500068002598ADF86C002498ADF86A0026988B
:10566000ADF86E001AA80FF0EBFD002800F0BA802C
:1056700025992398091A31980391C1B23098C0B284
:10568000091A1C9103994843109001EBD1700C90BA
:1056900030983199C0F30720C1F30721091A1991F5
:1056A00003994843119030983199C0F30740C1F3F2
:1056B0000741091A1D910399484312903098319976
:1056C000000EC0EB11611E9103994843139024987A
:1056D000029023980890269801902598DDE930459E
:1056E00006904448049000F002FC1F90AC4209D19F
:1056F000204608F0E7FDDDE90131069A089808F038
:10570000C7F966E0039F0126002F65D01C99179109
:10571000109A0C99089C02EB610B199A1692119A37
:1057200002EB610A1D9A1592129A02EB61091E9A08
:105730001492139A02EB610806998C4242DC00BF76
:105740009BFBF7FC9AFBF7F3179999FBF7F28B4455
:105750001699149D8A4415994CEA0323894498FBB1
:10576000F7F1A84443EA024242EA016508998C42F3
:1057700014DD854208BF761C10D008F0A3FD012E71
:1057800006DDDDE90131A01B621E08F081F904E0AD
:10579000DDE90121049B601E984701260699641CDF
:1057A00028468C42CCDD08F08DFD0698012E0CDDDC
:1057B000811B01F1010CDDE901310246604608F070
:1057C00067F906E008F07EFD0698DDE90121049BFB
:1057D00098471F9808F076FD0FF044FB00287FF4EF
:1057E00076AF00BF03F08CFB27B0BDE8F08F000060
:1057F000C80300202DDA01082DE9FF4FA3B01C4695
:1058000015460E46074600F0CBFC80480168D1F8EB
:105810004CC00CEB07002390086D811924910CEB10
:1058200005012044CDE925102398ADF86800ADF8B6
:105830006C1026982499ADF86E00ADF86A101AA87D
:105840000FF0FEFC002800F0DB8026992498081A4F
:1058500002903198C2B23098C1B2501A1C9002988E
:1058600048431090029800EBD0700F903098C0F32E
:1058700007213198C0F30720401A19900298484335
:1058800011903098C0F307413198C0F30740401A97
:105890001D900298484312903098010E3198C1EB48
:1058A00010601E9002984843139023980390249808
:1058B0000790259801902698DDE9304505905448D9
:1058C00004900120209000F012FB1F90AC4207D101
:1058D000204608F0F7FC059B019A0799039879E0A8
:1058E000029F0125002F6ED01C991791DDE90F1240
:1058F00002EB610B199A1692119A079C02EB610A4E
:105900001D9A1592129A02EB61091E9A1492139A2B
:1059100002EB610805998C4251DC00BF9BFBF7FC50
:105920009AFBF7F3179999FBF7F28B441699149E9B
:105930008A4415994CEA0323894498FBF7F1B04453
:1059400043EA024242EA016607998C4216DD86422A
:1059500008BF6D1C12D008F0B5FC2098012D23DD86
:1059600000281FBF611B631E019A039801BF601BC3
:10597000019B621E039908F08BF801250599641CB0
:1059800030468C42CADD08F09DFC05982099012D17
:1059900023DD0029A0EB050116D00346491C019A1E
:1059A000039808F075F823E0019A002819BF611EDA
:1059B000DDE90303601EDDE903139847DDE708F026
:1059C00081FC05980FE016E001F1010C02466046EB
:1059D000019B039908F05CF80AE0002904BF019AD2
:1059E000DDE9031303D00146DDE90303019A98477B
:1059F0001F9808F067FC0FF035FA00287FF455AFC8
:105A000003F07EFA27B0BDE8F08F0000C803002045
:105A100059D90108F0B583B015460E46074600F087
:105A2000BFFB114C2168C86C096D064405440F4446
:105A3000ADF80060ADF80450ADF80270ADF8067036
:105A400068460FF0FDFB50B120682A463946406E8B
:105A50000368304698470FF005FA0028F4D103F0A8
:105A60004FFA03B0F0BD0000C80300202DE9F04359
:105A700083B01C4615460E46074600F091FB1148C0
:105A80000168C86C096D074405440E440C440020AD
:105A90000FF0D6FB00281CBF4FF000080DF10409E1
:105AA0000BD0CDE90098384631462A462346FDF70B
:105AB00051FD0FF0D7F90028F3D103B0BDE8F04352
:105AC00003F01EBAC803002070B582B00D4606462A
:105AD00000F066FB0F4C2068C16C006D0E4405445D
