:020000040801F1
:1000000078FD012055020108F3C301080DAF010876
:10001000F1C30108050A0108DDE70108000000003E
:100020000000000000000000000000009D01010829
:10003000391D010800000000F1010108A1DF0108DD
:100040006F0201086F0201086F0201086F020108C8
:100050006F020108F1C901086F0201086F0201086F
:100060006F0201086F0201086F0201086F020108A8
:100070006F0201086F0201086F0201086F02010898
:100080006F0201086F0201086F0201086F02010888
:100090006F0201086F0201086F0201086F02010878
:1000A0006F0201086F0201086F0201086F02010868
:1000B0006F0201086F0201086F0201086F02010858
:1000C0006F0201086F0201086F0201086F02010848
:1000D0006F0201086F0201086F0201086F02010838
:1000E0006F0201086F0201086F0201086F02010828
:1000F0006F0201086F0201086F0201086F02010818
:100100006F0201086F0201086F0201086F02010807
:100110006F0201086F0201086F0201086F020108F7
:100120006F0201086F0201086F0201086F020108E7
:100130006F0201086F0201086F0201086F020108D7
:100140006F0201086F0201086F0201086F020108C7
:100150006F0201086F0201086F0201086F020108B7
:100160006F0201086F0201086F0201086F020108A7
:100170006F0201086F0201086F0201080000000011
:100180006F0201086F020108DFF80CD000F0DAF806
:10019000004800475D8D020878FD01202A4B196850
:1001A0000868B0E8F04F80F30988BFF36F8F4FF015
:1001B000000080F3118870470000000006480068C6
:1001C000006880F3088862B661B6BFF34F8FBFF353
:1001D0006F8F00DF00BF00BF08ED00E0DFF80C000C
:1001E000016841F470010160704700BF88ED00E0D4
:1001F000EFF30980BFF36F8F134B1A681EF0100FD7
:1002000008BF20ED108A20E9F04F106008B44FF0CD
:10021000500080F31188BFF34F8FBFF36F8F19F039
:100220001FFD4FF0000080F3118808BC19680868B2
:10023000B0E8F04F1EF0100F08BFB0EC108A80F34A
:100240000988BFF36F8F704790000020EFF305809F
:10025000704700000648804706480047FEE7FEE773
:10026000FEE7FEE7FEE7FEE7FEE7FEE7FEE7FEE766
:1002700059E001088901010810B5441A0346944267
:1002800009D28418114403E011F8013D04F8013D3E
:10029000521EF9D210BD40EA0104A40703D009E0C0
:1002A00010C9121F10C3042AFAD203E011F8014B3F
:1002B00003F8014B521EF9D210BDD2B201E000F892
:1002C000012B491EFBD270470022F6E710B51346FA
:1002D0000A4604461946FFF7F0FF204610BD421CAF
:1002E00010F8011B0029FBD1801A704730B5044675
:1002F0000020034600E05B1C934203D2E05CCD5C2F
:10030000401BF8D030BD034611F8012B00F8012B3B
:10031000002AF9D11846704730B50B460146002037
:100320002022012409E021FA02F59D4205D303FAB7
:1003300002F5491B04FA02F52844151EA2F1010238
:10034000F1DC30BD064C074D06E0E06840F00103EB
:1003500094E8070098471034AC42F6D3FFF718FF33
:10036000C0460408E046040870B58D1810F8014B2B
:1003700014F0030201D110F8012B231106D110F85B
:10038000013B03E010F8016B01F8016B521EF9D13B
:10039000ABB110F8012B04F00C048A1A0C2C03D01A
:1003A000A2EB84129B1C08E010F8014BA2EB042284
:1003B000F8E712F8014B01F8014B5B1EF9D5A94291
:1003C000D4D3002070BD000010B50BF0BDFF0BF0C2
:1003D00041FB054C20602068A0F5A901663901D1D8
:1003E0000AF0BEFD206810BD0800002038B5446842
:1003F0000546014620460EF047FA002808BF38BDE2
:10040000464A286811280DD006DC0B282AD00E2871
:1004100038D00F2817D07CE0282873D0B0F5107F93
:100420000AD076E09268002A08BF38BD294601B09C
:100430002046BDE830401047526801B029462046AA
:10044000BDE8304010472546204603F021FD0090CE
:10045000406E0468684603F0F3FD002C1CBF28467C
:10046000A04738BD204603F013FD0090683003F02C
:100470001FFC009803216C3003F042FC684603F037
:10048000DFFD46E0E968486809680D2902D02029A7
:1004900018D037E0002835DD4FF4807120460EF08B
:1004A000BEFA204603F0F4FC009090F8285068460D
:1004B00003F0C6FD15F0020F1ED0012120460FF0FB
:1004C00019FF19E0002817DD25464FF480712046FA
:1004D0000EF0A5FA284603F0DBFC009090F82840C7
:1004E000684603F0ADFD14F0020F08BF38BD0121CE
:1004F00028460FF0FFFE38BD2046BDE838400221F7
:1005000015F0B8BCE86820B920464FF480710EF0B1
:1005100066F92846BDE838400EF0A2BEFC01002076
:1005200070B5044688B08069B4F908C0658A0026B1
:100530000091CDE90165CDE903C0B4F90C00B4F92F
:100540001050C118B4F90A00B4F90EC010442B467B
:10055000624600F027F86468050020D005F0F8F83E
:10056000284603F095FC0190866E01A8009603F0E2
:1005700067FD2146684609F06BF970B10098B042FA
:1005800008D0284603F084FC01900099816601A8F8
:1005900003F056FD28460FF0FDFD07F0B3FE08B04E
:1005A000284670BD2DE9F04F85B09846DDE911640D
:1005B000DDE90E5791468A46834605F0C9F804F1F5
:1005C0004C001749CDE90210CDE9005743464A4691
:1005D000514658460EF088FD05001BD003F058FC2C
:1005E0001022314604900EF093FB0E4C0499B4E8AF
:1005F000CD133431A1E8CD1394E80D10A1E80D100E
:1006000054F82C0D086004A803F01AFD2068416816
:100610002846884707F076FE05B02846BDE8F08FEB
:10062000ED03010808020020F0B5044680688C49FB
:1006300089B051F820506068002800F00A81052830
:1006400006D006287DD0122800F0B48000F004B94E
:10065000E869002808BF002651D0D5E90012AB6830
:100660008DE80F0004F110010FC908F08BFC002683
:1006700055F8260006F031FEA169E8690A1A2169D9
:1006800001446069304404F0B9FCA169E8690A1AC0
:1006900021690144E069801B04F0B0FCE169E8696C
:1006A0000A1A616901442069304404F0B9FDE16926
:1006B000E8690A1A61690144A069801B04F0B0FD71
:1006C000761C022ED4DBA86806F007FEE069E96913
:1006D000D4F814C0431A206942186144801C521E89
:1006E00004F00AFEE169E869A2690B1A6169014434
:1006F000101A401C921E04F0FFFDEE6911E055F83F
:10070000260006F0EAFDE069831BA069821B606990
:1007100081192069304404F0F3FC761C022EEEDBD4
:100720000226D5E90301CDE90001E16960690144D0
:100730004B10A1698A1B811C2069304404F050FBD6
:1007400000E011E0D5E90501CDE90001E06961694A
:10075000831E01440122A06902EB6101821B206912
:10076000304404F03DFB77E0206803F091FB0490F7
:10077000206810F0AAFE50B1A068002818BF002021
:100780000AD10498006F002818BF012004E00498E3
:10079000406F002818BF0220049901EB8000C56E4D
:1007A00004A803F04DFC00231A462846216803F0F4
:1007B000AFFF51E0206803F06BFB0490866E002EC3
:1007C00008BF04A842D0A168B0F95C70002908BF36
:1007D000012103D003290CBF0221002100EB81017C
:1007E000406D0C6C06F0A8FD204606F076FD06A8CC
:1007F00004F06CFEBDF81810A88B0144ADF8181079
:10080000BDF81C10081AADF81C00BDF81A00801CB9
:10081000ADF81A00BDF81E00801EADF81E00049849
:10082000B0F96020B0F95E1006A806F01FF904A820
:1008300003F006FC022006F0CFFD304603F028FB53
:100840003A4606A9059004F035F805A803F0F8FB30
:1008500002E0206810F080F809B00020F0BD000030
:100860002CC40308042928BF7047F0B4044A52F886
:10087000211091E8FE1080E8FE10F0BC70470000E7
:100880002CC4030838B503F003FB04460090684607
:1008900003F0D6FB204638BD70B505460C46104621
:1008A00000210A4603F014FF024621462846BDE80F
:1008B000704000F086B8002808BF704738B50C4675
:1008C000054604F045FF284603F0E2FA009044652F
:1008D000684603F0B5FB28460FF05CFC07F012FDFC
:1008E00038BD000038B50C46054604F031FF2846F7
:1008F00003F0CEFA0090064984654166684603F02D
:100900009FFB28460FF046FC07F0FCFC38BD0000BA
:10091000E0050020042928BF7047F0B4044A52F8CB
:10092000211090E8FD1081E8FD10F0BC7047000038
:100930002CC40308F0B583B00F4605004FF0010446
:1009400021D004F005FF284603F0A2FA0190866E3C
:1009500001A8009603F074FB3946684608F078FF5A
:1009600078B100980024B04208D0284603F090FAED
:1009700001900099816601A803F062FB28460FF000
:1009800009FC07F0BFFC03B02046F0BD002808BFFB
:100990007047F8B515460C46064604F0D9FE3046B9
:1009A00003F076FA0090032C3CBF00EB8400056452
:1009B000684603F045FB30460FF0ECFB07F0A2FC65
:1009C000F8BD002808BF7047F8B515460C46064626
:1009D00004F0BEFE304603F05BFA0090032C0BD20D
:1009E00000EB84006C3003F063F9009800EB8400A6
:1009F000C56630460FF0CEFB684603F021FB07F0DA
:100A000081FCF8BDFEE700002DE9F04F4668044682
:100A10000146CDB030460DF037FF002804BF4DB081
:100A2000BDE8F08FFC4F2068DFF8F0B30E280FD040
:100A30000F2800F02D82262800F07A83B0F5107F71
:100A400000F0618120460EF00BFC4DB0BDE8F08F48
:100A5000304610F03AFD002804BF4DB0BDE8F08FDD
:100A60006C2225A930460EF03DFA2B9828B9DDE915
:100A70002501279A2D92CDE92B0128992B988842A0
:100A80001CBF4DB0BDE8F08F2C99299881421CBF46
:100A90004DB0BDE8F08FE06841680029DCBF4DB083
:100AA000BDE8F08FDDE92C450068DDF8AC80132847
:100AB00008BFE81D17D00CDC102808BF681E12D034
:100AC000112808BFE81F0ED0122808BF681C0AD0E2
:100AD0000AE0212808BF601E03D0222808BF601C3E
:100AE00002D12C9000E02D902C980C2804DD0C38BD
:100AF0002C9008F1010005E0012804DA0C302C905C
:100B0000A8F101002B900837B7E80F56CDE9400156
:100B100042A880E80C5697E80F000DF59079283F21
:100B200089E80F002C98401E8BFB00214A10A2EB95
:100B3000E171A1EB810100EB810040A951F8200097
:100B40002C99022905BF2B9911F0030F00210121D7
:100B500008442D9981420DDD081A2D902C98401CD7
:100B60002C900C283BDD2B98401C2B902C980C389B
:100B70002C9034E0012932DA2C98401E2C90012868
:100B800005DA2B98401E2B902C980C302C900837AF
:100B9000B7E80F56CDE9400142A880E80C5697E827
:100BA0000F000DF5907989E80F002C98401E8BFB03
:100BB00000214A10A2EBE171A1EB810100EB810160
:100BC00040A850F821102C98022805BF2B9810F04F
:100BD000030F0020012008442D9908442D904FF464
:100BE000B07130460EF06EFE07462C9A6FF003008F
:100BF0003D9900EB82002B9B0A5840A8CDF80800D5
:100C0000029912F8010B01F8010B02910028F7D1AB
:100C100043B1481E202100F8011B029002A918468A
:100C200003F030FA40A938460DF057FB2C98299074
:100C30002B9828906C2225A930460EF069F9299846
:100C4000844204BF289880451CD04FF00000ADF8C6
:100C50000000DDE93B1001443A98ADF80210C0EB0A
:100C6000C000A0F101023B98ADF80420C0EBC00029
:100C7000A0F101000144ADF80610694630460FF0BE
:100C800019FA30E02D9925A8CDE9085107AA40A905
:100C900014F0E4FC002508AC54F8253003B3DDE97A
:100CA0004001CDE90401002107985B1E0A4644F883
:100CB000253018BF3A9B0CD0401C072818BF194498
:100CC00018D000BF54F825C0BCF1010C44F825C071
:100CD000F2D104A805F0CAFE04A930460FF0EAF9E3
:100CE0006D1C022DD8D3042130460FF003FB4DB00C
:100CF000BDE8F08FA3EB830C01EB4C01DDF8ECC0F9
:100D000000206244DEE7E468002C04BF4DB0BDE87B
:100D1000F08F207A00287DD06C2225A930460EF075
:100D2000E1F8DDE92B012D9A0792CDE90501D4E91F
:100D3000005425A808AA694614F090FC3A983A99FC
:100D400095FBF0F048433C993B9A611A891A91FB54
:100D5000F2F13C9B083701FB02311144BDF9002040
:100D60000DF5807A801A3A9A90FBF2F2BDF90200F2
:100D7000081A3B9990FBF1F0C0EBC0001044B7E8B3
:100D80003E138AE83E1397E80E1048AD401C85E8F4
:100D90000E102999491E8BFB01325310A3EBE2720E
:100DA000A2EB820201EB820140AA52F82110299A9B
:100DB000022A03BF289A12F0030F012200221144D5
:100DC0000128A8BF81424CDBDDE92812CDE92C20A7
:100DD0002B910C222BA905A8FFF788FAD8B16C2219
:100DE00025A930460EF094F82D990798CDE94001D9
:100DF00025AB44AA08A9184614F030FC002440ADE5
:100E000055F8243033B3DDE90801CDE94201002172
:100E10000A4605E035E020E03CC40308ABAAAA2A54
:100E200044985B1E45F8243018BF3A9B0BD0401CF9
:100E3000072818BF19441BD055F824C0BCF1010C79
:100E400045F824C0F3D142A805F010FE42A930466F
:100E50000FF030F9641C022CD2D3042130460FF07D
:100E600049FA012130460FF045FA4DB0BDE8F08F48
:100E7000A3EB830C01EB4C01DDF8ECC000206244D5
:100E8000DAE7022130460FF035FA4DB0BDE8F08FB9
:100E90004FF000096C2225A93046CDF808900EF0DD
:100EA00021F830460EF0E0FD804630460EF0F4FDAD
:100EB000044634986FF0704A504509D006F00DFA98
:100EC0003C980021431EA8F10102084604F014FAE0
:100ED000ADF820903C98ADF822003A98CC4D401ED9
:100EE000ADF82400601EADF82600002425AE3F9822
:100EF0004A4601190846C5FB01208210A2EBE070AA
:100F0000A0EBC000084403900228ACBF01200020E1
:100F100006EB8000406A504504D006F0DEF908A8D0
:100F200004F016FA002208A83A9905F09FFD641C07
:100F3000072CDCDBADF820903C98ADF822003A9904
:100F4000491EADF824103B990844401EADF8260018
:100F5000389806F0F1F9022006F03EFA369806F0CD
:100F6000BCF900243F98494602191046C5FB0210FF
:100F70008110A1EBE070A0EBC00010443E990390FB
:100F80000E2251F8200008A903F094FC002208A8C2
:100F90003A9905F06BFD641C072CE3DBBDF92600D4
:100FA000A8F10302022104F029F803AA08A925A840
:100FB00014F054FB3F99002940F31E8111F0010FFA
:100FC00005D003980628B4BF401C002003904810A9
:100FD0000CD003990629B4BF491C002103910629AE
:100FE000B4BF491C00210391401EF2D108370DF512
:100FF000807EB7E83F118EE83F1197E80F0048ACBC
:1010000084E80F002998401E8BFB00214A10A2EBB8
:10101000E171A1EB810100EB810040A951F82000B2
:101020002999022905BF289911F0030F00210121F8
:1010300000EB01054FF00004002DCEBFDFF8D48196
:101040004DB0BDE8F08F00BF04F131008DF808000D
:1010500014E0092CF8DB601C88FB00108110A1EB68
:10106000E07000F130018DF808104042611C00EB87
:10107000800001EB400030308DF809002B99289852
:10108000814241D12C99299881423DD12D98611CF2
:10109000884239D13098504504D006F01EF908A88E
:1010A00004F056F9339F2599289881420DD129994A
:1010B0002698884209D12799601C814205D137982A
:1010C00006F00BF908A804F063F8384606F005F9B5
:1010D0000E2208A902A803F0EDFB0398401C039020
:1010E000072808BFCDF80C903F990398814214D18E
:1010F000002108A83B9A05F0B9FCADF820903A9879
:10110000401EADF824000DE003980228ACBF01207A
:10111000002006EB8000076BC5E7002208A83A997B
:1011200005F0A4FC641CAC4293DB4DB0BDE8F08F2D
:10113000A0680EF05AFCE168B0F5B87F15D0A0F5B4
:101140008070713807BF022901244DB0BDE8F08FCF
:101150004FF06C020AA930460DF0C4FE0E9800193B
:101160000E900AD00D280DD011E002290EBF4FF0CD
:10117000FF344DB0BDE8F08FEAE70D98401E0D90AA
:101180000C2003E00D98401C0D9001200E904FF4B0
:10119000B07130460EF096FB04460E9A6FF00300D5
:1011A000229900EB82000B5825A90D98CDF800106C
:1011B000009A13F8011B02F8011B00920029F7D1D5
:1011C00038B1511E202201F8012B0091694602F02E
:1011D00059FF25A920460DF080F86C220AA9304657
:1011E0000DF096FE30460EF0D5FF0A2130460FF086
:1011F00081F84DB0BDE8F08F00293FF4F7AE0398B9
:101200000628B4BF401C00200390491EF7D1EDE62C
:1012100093244992676666662DE9FF4FC9B00E4672
:10122000DDE95749DDE959879A46154670211EA820
:10123000DDF858B1FFF748F86C2103A8FFF744F830
:10124000ABF101000C2880F0E280AAF22E6042F29D
:10125000E201884280F0DB8044226F490CA8FFF74E
:101260000BF86E4B00211A460846E4FB0320C00829
:10127000A0EB40102044CDE903ABCDE9050A0120E5
:10128000CDE907B06648059BCDF824A0CDE91D90B7
:10129000CDE90AB318981A9BC0EBC0021998ADF8B3
:1012A0008260C0EBC0001844ADF888006C20249028
:1012B000ADF88A704FF4B870ADF89C000320ADF81B
:1012C0009E001A98574B0A38ADF8808025932C93CE
:1012D000ADF8A40040F27113ADF88450ADF8B83009
:1012E000ADF886201A9B4FF0050CD21AD21DADF82E
:1012F000BA204D4B3393ADF8C0004FF4B073ADF846
:10130000D430C31CADF8A0C0ADF8A200D21AADF81D
:10131000DC00ADF8BCC0ADF8D8C0ADF8BE00ADF88B
:10132000D630ADF8DA2000910191404A04211EA880
:10133000499B03F02FF8050069D06FF070410DF064
:10134000D4FD3B4928460FF095F94FF4B871284673
:101350000EF0B8FA044600210DF089FB354920460D
:10136000FFF7C0FA40F2711128460EF0ABFA0446BE
:1013700000210DF07CFB2F492046FFF7B3FA4FF414
:10138000B07128460EF09EFA04462B490FF072F910
:101390000E2120460CF0CDFF204613990CF0E0FF03
:1013A000204617990CF080FF20460DF04DFE204698
:1013B00012990CF057FF07996FF003021B9802EB8C
:1013C00081013AAA41580698CDF80020009B11F8F7
:1013D000012B03F8012B0093002AF7D138B1591ED5
:1013E000202201F8012B0091694602F04BFE3AA938
:1013F00020460CF072FF28460FF0B0F96C2203A9CA
:1014000028460DF085FD4DB02846BDE8F08F4DB063
:101410000020BDE8F08F000044030020218410422A
:101420005DEE0108210501087BE10108090A0108B8
:10143000298902088D4502087773020830B59BB0F0
:101440000C46054604F084F96C22694628460DF0E6
:1014500049FDDDE90601089AA260C4E9000106F031
:1014600051FF1BB030BD30B59BB00C46054604F0B3
:101470006FF96C22694628460DF034FDD4E900125C
:10148000A368CDE9001202936C22694628460DF04C
:101490003FFD28460EF07EFE06F034FF1BB030BD47
:1014A000022828BF7047024A02EB80008162704721
:1014B00044030020064A002804BF916370470128B6
:1014C00004BF11637047022808BF516370470000D2
:1014D000440300202DE9F04744680546014682B0E8
:1014E00020460DF0D1F9002804BF02B0BDE8F08716
:1014F00028680B287DD00E2805D00F283ED0B0F5E7
:10150000107F4CD0ADE0204602F0C2FC019090F874
:10151000746090F8757001A802F092FD20460FF0FB
:10152000D4FF002854D0E8684168002950DD0068E5
:1015300020284DD1781CB0FBF6F106FB1106002CDB
:1015400046D004F005F9204602F0A2FC009090F885
:101550007410B1420CD980F87560684602F070FDD5
:1015600020460EF017FE052120460EF0C3FE02E0D5
:10157000684602F065FD06F0C5FE72E0254620468D
:1015800002F086FC0090006F0468684602F058FD87
:10159000002C1CBF2846A04702B0BDE8F0874FF0E2
:1015A0000009204602F074FC019090F8748090F8D5
:1015B0007570B0F930A001A802F042FDEE68BEB32C
:1015C00020460EF0B7FC20B1494620460EF092FEB0
:1015D00047E0307A68B3012120460FF063F8781CA9
:1015E000B0FBF8F108FB1106ECB104F0B1F82046AD
:1015F00000E02CE002F04CFC009090F87410B14236
:101600000CD980F87560684602F01AFD20460EF08D
:10161000C1FD052120460EF06DFE02E0684602F095
:101620000FFD06F06FFE012120460EF063FE18E06C
:1016300008E0FFE7022120460EF05CFE504605F070
:10164000E3FE0EE0032120460EF054FE09E02046A2
:1016500002F01EFC0090783002F02AFB684602F08F
:10166000EFFC02B02846BDE8F0470DF0F9BD70B5BB
:1016700086B0B0F90840458AD0F818C00026CDE9F8
:101680000254CDE90016CDF810C0B0F90C10B0F935
:101690001040B0F90EC0B0F90A00194410442346B6
:1016A000624600F003F806B070BD00002DE9FF4F60
:1016B00085B01D46DDE912A7DDE9158916468B4682
:1016C00004F046F8264C0EB135B10AE02068806877
:1016D00000688047064625B9206880680068804712
:1016E000054620486FF07041C068884208BF47F047
:1016F000010709F154011C48CDE900A7CDE9020119
:101700002B463246594605980DF0EEFC050021D0D7
:1017100002F0BEFB1022414604900DF0F9FA241DA0
:101720000499B4E8CD133431A1E8CD1394E8CD1178
:10173000A1E8CD1154F8240D41F87009022081F878
:1017400074000F20C86704A802F07AFC2068416882
:101750002846884706F0D6FD09B02846BDE8F08F38
:10176000880300208C030020D51401082DE9F04FD8
:101770000446006889B028B10FF0A7FE002808BF12
:10178000012500D00025FE4850F8256060680A2831
:1017900000F0738108DC002800F0DD81062841D0CC
:1017A00007280CD000F0E8B9122800F03081192881
:1017B00002BFB06909B0BDE8F08F00F0DDB925685F
:1017C00003F0C6FF284602F063FB0090C76F68462F
:1017D00002F036FC06F096FD5FF0000556F8250095
:1017E00005F07BFD2069C119491B4B1E61691A4632
:1017F0002944284403F084FC6D1C032DEED3D6E964
:101800000301CDE90001D4F810C00CEB0700401B28
:10181000431E60691A4641190CEB050003F0E0FA1B
:1018200000F0AAB9A068401E0690246803F090FF5B
:10183000204602F02DFB0090D0F87C80684602F034
:10184000FFFB06F05FFDDFF83C9359F82570002F91
:101850001CBF069800EB80000DD000BFB7F8481001
:10186000414505D107EB8001896809B11FB1C4E08A
:10187000FF6C002FF2D1502002F080FA070000F038
:101880007B81C14C5022002123689847706978649D
:10189000A7F8488059F82500F864BC48A8F1060864
:1018A00080FB081049F825704110A1EBE07103207E
:1018B00008900120049007F14000CDE90280069DC8
:1018C00005EB850007EB8000019005EB450007EB79
:1018D00080002830009008EBD8704210401000EBD8
:1018E000D073A0EB63004618501A059008F107006A
:1018F000C11700EB51704FEAE00A0AFB08FB58469B
:1019000002F03CFA5FEA000977D023685A460021CA
:101910009847DDE90420012826DD089B0121304697
:10192000334483421BDD4FEAE27C02EB5C7E02F033
:10193000070C802424FA0CFC404509DA0AFB00F469
:1019400004EBEE0419F804B04BEA0C0B09F804B0F0
:101950006940401C834202DD0029F9D0ECE705987C
:10196000521C761C9042D8DC04990298401A0490CC
:10197000904225DD0899012034463144A1421ADD08
:10198000D31702EB537E02F0070C802323FA0CF3EB
:10199000444509DA0AFB04FC0CEBEE0C19F80CB018
:1019A0004BEA030B09F80CB06840641CA14202DD4D
:1019B0000028F9D0ECE70498521C761E9042D9DC3E
:1019C000009802210160009901200871009A039992
:1019D00091600199C88001980021A0F804A00198A5
:1019E000C0F8089001980161DDE90001C860DDE9F7
:1019F000010101800198A0F802800698032200EB03
:101A0000800007EB8000114603F020F8B4E0206866
:101A100002F03EFA0290B0F9547090F85650D0F8A7
:101A20004490D0F8348002A802F00AFB266803F044
:101A30008FFE304602F02CFA0390B0F87C6003A8C9
:101A400002F0FEFA06F05EFC68460DF0F1FEBDF80D
:101A5000000071190844ADF80000246A404605F002
:101A60006BFC022005F0B8FC484605F036FC3A460F
:101A70006946204602F01EFF7EE0206802F008FA68
:101A80000290B0F9548090F85660D0F83490876C8A
:101A900002A802F0D5FA256803F05AFE284602F0A3
:101AA000F7F90390B0F87C5003A802F0C9FA06F0E9
:101AB00029FC68460DF0BCFEBDF80000A9190844D9
:101AC000ADF80000206A03F065FD0446484603F0C7
:101AD0008FFD28F00301042904BFBDF80610091A80
:101AE00008D00C2908D1BDF90610091A491C01EBD0
:101AF000D1714910ADF8021028F00C0101290CD069
:101B0000022913D1BDF90410BDF90020891A091B5F
:101B100001EBD17102EB610106E0BDF80420BDF8D4
:101B20000010521A121B1144ADF80010BDF800103D
:101B3000621E1144ADF80410BDF80210401E0844A6
:101B4000ADF80600384605F0C8FB4FF0FF31684697
:101B500002F0F6FF10E020680EF0FEFE206802F0B2
:101B600097F90790B0F90610B0F90220891A491CBC
:101B7000C16707A802F064FA09B00020BDE8F08F41
:101B8000683A0408300600202C0500206766666667
:101B900038B505004FF000040CD003F0D9FD2846FD
:101BA00002F076F9009090F87540684602F048FA25
:101BB00006F0A8FB204638BD002808BF704738B59E
:101BC0000C46054603F0C4FD284602F061F900907A
:101BD000416BA14203D0446328460EF0DBFA68460D
:101BE00002F02EFA06F08EFB38BD002808BF7047C1
:101BF00038B50C46054603F0ABFD284602F048F91F
:101C0000009090F87410A1420CD980F87540684695
:101C100002F016FA28460EF0BDFA052128460EF00D
:101C200069FB02E0684602F00BFA06F06BFB38BD78
:101C3000002814BF0029704770B582B00D460446D5
:101C400003F086FD204602F023F90190866F01A87B
:101C5000009602F0F5F92946684607F0F9FD70B1E3
:101C60000098B04208D0204602F012F90190009985
:101C7000816701A802F0E4F920460EF08BFA06F025
:101C800041FB02B070BD000000B589B0002000909B
:101C900002900390049005900690079008901920F8
:101CA000019004480068806841686846884709B028
:101CB00000BD00008803002000B583B00DF0ECFDEE
:101CC0000021009103460191034A0721034802F0D5
:101CD00061FB03B000BD000091840208ECB602086D
:101CE00000B583B00DF0D8FD0021009103460191AD
:101CF000034A0221034802F04DFB03B000BD00007F
:101D00007580020880B5020810B582B00DF0C4FDE0
:101D10000021009103460191054A0B21054802F07C
:101D200039FB044606F07EF902B0204610BD0000E3
:101D300081810208B8B502087047000000B583B081
:101D40000DF0AAFD0021009103460191034A0721ED
:101D5000034802F01FFB03B000BD0000117702082A
:101D6000E0B20208002808BF70472DE9F04F91B09B
:101D70000F46044603F0ECFC204602F089F803907D
:101D800090F854A0D0F83490866DC56C03A802F08A
:101D900057F926B139462046B04700F0ABB90026C6
:101DA0004FF00108122F7DD006DC082F7BD0102FBA
:101DB0007AD0112F3CD006E0132F5BD01D2F00F0FE
:101DC000E4801E2F71D0202FC0F29481BAF1000F51
:101DD00000F0F280204602F05BF80590D0F834A0C5
:101DE000D0F84C9005A802F02BF9BAF1000F00F0E2
:101DF000E380504602F04CF882464946069006F0D1
:101E000055F981465046FEF76AFA48457DD9D144D6
:101E1000484606F0F7F809EB00014846FEF773FA6A
:101E200006A802F00DF9052120460EF063FAC3E082
:101E3000B9F1000F00F05E81484602F029F807462C
:101E40002946049006F032F90744384606F0CAF8ED
:101E50000546029606F0F4F88046681C86B23046C5
:101E600006F0EEF80546A84526D004A802F0E8F8EA
:101E700000F040B9B9F1000F00F03C81484602F093
:101E800007F807462946049006F010F9074438463B
:101E900006F0A8F80546029606F0D2F88046681EBD
:101EA00086B203E016E021E01AE043E0304606F097
:101EB000C7F80546A845D8D1314602A806F080F8F3
:101EC0002A4602A93846FEF7D7F9052120460EF02A
:101ED00011FACAE7691C204600F052FC00F00AB96A
:101EE000691E204600F04CFC00F004B9002D00F003
:101EF0000181691E204600F043FC204601F0C8FF26
:101F00000190C76C456B01A800E052E002F098F820
:101F1000002D00F0EF80284601F0BAFF0646394652
:101F2000029006F0C3F805463046FEF7D8F9A842FD
:101F300029D918E0204601F0ABFF0190C76C456B32
:101F400001A802F07DF8002D7ED0284601F0A0FF08
:101F500006463946029006F0A9F805463046FEF7D7
:101F6000BEF9A8420FD93544284606F04BF8291887
:101F70002846FEF7C8F902A802F062F805212046BB
:101F80000EF0B8F9B6E002A810E0204601F080FF9C
:101F90000390BAF1010F08BF80F8546005D080F8B3
:101FA00054802946204600F0EBFB03A802F048F8D5
:101FB000A0E006A802F044F81FFA87FB204601F0D3
:101FC00067FF07460290B0F93800002812DD786BF1
:101FD0004FF0000940B101F05BFF009007F084FA78
:101FE0008146684602F02CF8B7F9381009F1010073
:101FF000884200DC46460298C06C079002A802F0B6
:102000001FF8002E76D0584606F01AF807462646E6
:102010004FF00008204601F03BFF0B90406B40B1B1
:1020200001F036FF0890FEF75AF9804608A802F042
:1020300007F80B9907EB0800498F401A00F10108D7
:102040000BA801F0FDFF00E054E0B8F1000F2CDD1B
:10205000304608F1100801F01BFF0090D0F834A0C2
:10206000408F8044684601F0EBFF4146504601F046
:1020700023FF5FEA00093DD0BAF1000F0AD101F059
:1020800007FF204B0D9042461B68002198470DA882
:1020900001F0D6FF304601F0FBFE0090A0F83A8038
:1020A000C0F83490684601F0CBFF204601F0F0FE06
:1020B0000290466B02A801F0C3FF304601F0E8FE33
:1020C00006460F90079905F0F1FF06443046FEF7EB
:1020D00006F9421CF0193146FEF7CEF85946304653
:1020E00005F06EFF0FA801F0ABFF052120460EF0B2
:1020F00001F9EFE620460EF04DF806F003F911B0B5
:10210000BDE8F08F2C05002070B54568044682B00C
:1021100028460FF0DAF90646214628460CF0B4FBB3
:10212000002804BF02B070BD20680F2844D004DC32
:102130000B2847D00E2850D066E0A0F580701338E9
:1021400004D0A0F580702D381FD05DE028460EF039
:1021500021FA284601F09CFE009090F8561081F07C
:10216000040180F85610684601F06AFF00212846F5
:1021700014F040F8284601F08BFE0090D0F884005F
:1021800000210EF09EF9684624E0E06878B1017AFB
:1021900041B10168284600F022F9012128460EF0DD
:1021A000A9F831E0022128460EF0A4F82CE0032122
:1021B00028460EF09FF827E00121284614F01AF86F
:1021C00002B070BD284601F063FE0190343001F08A
:1021D0006FFD01A801F034FF16E0AEB1E068416880
:1021E000002911DD01681B290ED009DC09291CBF5B
:1021F0000A290D2908D02846FFF7B4FD02B070BDAA
:10220000212918BF2229F6D120460DF029F802B065
:1022100070BD2DE9F04186B00DF1300898E8F0105E
:102220004FF00008CDF814808DE8F01000F004F8AD
:1022300006B0BDE8F08100002DE9FF4F85B098465B
:10224000DDE91654DDE9126B91468A46159F03F0CD
:102250007FFA04F16001324A03914BF480500096FA
:10226000CDE9010243464A46514605980CF03CFF31
:1022700004004FD001F00CFE1022394604900CF0FF
:1022800047FD2848049990E8CC1701F1600B8BE8D2
:10229000CC17006AC1F88000012081F85500681C45
:1022A00018BF012081F88800002DD8BF08252AB268
:1022B0000A87002048874863551C04A801F0C0FE27
:1022C000204601F0E5FD0090476B408F05446846CD
:1022D00001F0B6FE2946384601F0EEFD060015D0A5
:1022E00057B901F0D5FD104B01902A461B6800211B
:1022F000984701A801F0A4FE204601F0C9FD009016
:1023000045874663684601F09BFE03E020460CF0DB
:10231000E1FF002405F0F6FF09B02046BDE8F08F8C
:1023200009210108380600202C050020014880689A
:10233000704700003806002038B5040008BF38BDDB
:1023400003F006FA204601F0A3FD0090846E684673
:1023500001F076FE05F0D6FF204638BD38B5050001
:102360004FF000040BD003F0F3F9284601F090FD84
:102370000090846C684601F063FE05F0C3FF2046C0
:1023800038BD002808BF7047F8B516460C4605460C
:1023900003F0DEF9284601F07BFD0090002818BF0D
:1023A000032C05D200EB8400866728460DF0F2FE70
:1023B000684601F045FE05F0A5FFF8BD70B50D4675
:1023C000044603F0C5F934B12946204600F0D8F997
:1023D00020460DF0DFFEBDE8704005F093BF0028F9
:1023E00008BF70472DE9F04186B00C46074603F060
:1023F000AFF9384601F04CFD0090406B002849D001
:1024000001F046FD03900098806E04F095FF804631
:1024100038460DF029FB0646039803F0BBF8054645
:10242000009890F8601001F00301012918D00229EA
:102430000FD0416EC06A00680844201A441E0398F9
:1024400007F052F8002C11DA0021384600F098F914
:1024500017E0701B401C00EBD070A4EB6004EEE7AB
:10246000406E711B081A201A441CE8E7A54204DBE1
:1024700002462146039806F0CBFF0146384600F09D
:102480007FF903A801F0DCFD404604F055FF384613
:102490000DF080FE684601F0D3FD05F033FF06B075
:1024A000BDE8F0812DE9F8431D46DDE908671446D3
:1024B0008946804603F04CF9B8F1000F75D04046CC
:1024C00001F0E6FC3B49009081653B49C165002174
:1024D000C0E91291C0E90F4580F8446080F8567059
:1024E000012180F8541090F88890684601F0A8FD0A
:1024F000B9F1000F40D0002DA7BF01210B460221EA
:10250000CB1EB8BF6D422D4A0A2D08DB82FB05C0E9
:102510004FEAA00CACEBE075491C0A2DF6DAB3F1DA
:10252000FF3F02BF4B1EB342491C002CBDBF02201F
:102530004FF0FF3C64420120A8BF84460A2C07DB11
:1025400082FB04439C10A4EBE374401C0A2CF7DAD2
:10255000BCF1FF3F02BF431EB342401C002E1CBF14
:10256000401C491C17F0010F18BF491C8142D8BFFD
:102570000146404600F03CF8404614F019FF404642
:1025800001F086FC009000F0E5F80D4909788842DA
:1025900005D10098C06C411C404600F0F1F8684637
:1025A00001F04EFD40460DF0F5FD05F0ABFEBDE837
:1025B000F88300003D1D0208B17302086766666675
:1025C00004010020002808BF704738B50C460546B6
:1025D00003F0BEF8284601F05BFC009084662846B4
:1025E0000DF0D8FD684601F02BFD05F08BFE38BDDF
:1025F000002808BF70472DE9F04184B00C4606461C
:1026000003F0A6F8304601F043FC0090B0F9381012
:10261000458FA14248D012DD406B80B101F038FCFB
:10262000019006F061FFA04206DD2146019805F009
:102630003DFD019A0021115401A801F001FD6846F9
:1026400001F0FEFC601B451C304601F021FC0290AD
:10265000D0F83480408F054402A801F0F1FC2946EF
:10266000404601F029FC070016D0B8F1000F0AD14E
:1026700001F00EFC104B03902A461B68002198477E
:1026800003A801F0DDFC304601F002FC0290458712
:10269000476302A801F0D4FC304601F0F9FB00903A
:1026A000048730460DF076FD684601F0C9FC05F060
:1026B00029FE04B0BDE8F0812C050020002808BFE9
:1026C0007047F8B516460C46054603F041F8284613
:1026D00001F0DEFB0090002818BF032C05D200EBB0
:1026E0008400C66628460DF055FD684601F0A8FC3A
:1026F00005F008FEF8BD38B505000C4608BF38BD2A
:1027000003F026F8284601F0C3FB0090C16BA142FC
:102710001CDC016CA1421BDB816CA14210D08464E3
:10272000C16D00291CBF2846884728460DF032FDA0
:10273000684601F085FC052128460DF0DBFD02E02E
:10274000684601F07DFC05F0DDFD38BD0C46E0E794
:102750000C46E1E738B50546406B002468B101F04E
:1027600097FB00900446E96C05F0A0FC204405F0BE
:1027700039FC0446684601F063FC204638BD000081
:1027800010B582B00C4601F083FB0090406BE8B1BD
:1027900001F07EFB019006F0A7FE009991F854200D
:1027A000002A18BF0122002C15DB844215DC00BF73
:1027B000B1F93800801AA04211DBC86CA04218BFE2
:1027C000CC640020086501A801F03AFC684601F0DD
:1027D00037FC02B010BD0024E7E70446E8E7B1F992
:1027E0003800841AE9E70000064A136823F44073AE
:1027F000136013681360136843F0010313600170E2
:1028000070470000103C02400A49D1F800C02CF487
:10281000407CC1F800C0D1F800C04CF4407CC1F845
:1028200000C0D1F800C04CF0010CC1F800C002603B
:1028300043607047103C0240074A136823F440731A
:102840001360136843F480731360136843F001034B
:102850001360018070470000103C0240074A136873
:1028600023F440731360136843F400731360136818
:1028700043F001031360016070470000103C024008
:102880001A49086810F0100F194805D0C26942F0C3
:102890001002C26110220A600A6812F0200F05D0EF
:1028A000C26942F00802C26120220A600A6812F07E
:1028B000400F05D0C26942F00402C26140220A60A2
:1028C0000A6812F0800F05D0C26942F00202C261AC
:1028D00080220A600A6812F0020F05D0C26942F035
:1028E0002002C26102200860704700000C3C0240D8
:1028F0003808002070B5044614490020C86107F06C
:10290000E9FA0646124D286810F4803F0ED0B4F163
:10291000FF3F07D024B107F0DDFA801BA04201D9A8
:10292000032070BD286810F4803FF0D1286810F0B3
:10293000010F01D001202860286810F0F20F03D0A9
:10294000FFF79EFF012070BD002070BD38080020F9
:102950000C3C024030B4B3F5804F06D06FF07041AC
:1029600040F8221030BC0020704750F82230DFF8C9
:102970002CC003EA0C03D1F800C04C688D894CEAE6
:10298000041C8C688969240244EA05444CEA040C5E
:102990004CEA0101194340F82210E3E70000F0CFB0
:1029A00070B40B6850F82320DFF84CC002EA0C0C1E
:1029B0004C688A680E69CD68144335432C434D69D1
:1029C0002C438D692C43CD692C430D6A2C434D6AF1
:1029D0002C438D6A2C43CD6A2C43CD6B096B2C4361
:1029E000214341EA0C01082A01D141F0400140F89D
:1029F000231070BC002070478000F0FF30B4521CE0
:102A000050F8223003F04043D1F800C04C688D8963
:102A10004CEA041C8C68240244EA05444CEA040C89
:102A20000C8A641E4CEA045C0C7D8969A41E4CEA85
:102A3000046C4CEA0101194340F82210002030BC1C
:102A4000704700002DE9F84F0F46DDF82890064644
:102A5000941BA3EB0708D9F800504FF0000A54EA82
:102A6000080063D0002CD4BF60422046B8F1000FAC
:102A7000CCBF4146C8F1000188420ADA20464446EC
:102A8000804630463E46074610461A4603464FF0FB
:102A9000010A002CCCBF20466042A04208BF0120A2
:102AA00008D03046164602466442C8F100081F4668
:102AB0004FF0FF300090C448C449B8F1000FD0F87F
:102AC00000C01CBF04EBD4724FEA620BB8BFCBF15D
:102AD000000B30D09CF81A20002A00F0FA80009AEF
:102AE000002ABCBF2A19C9F800200025002CC0F21A
:102AF000458100BF08FB05B090FBF4F0C219D9F87E
:102B0000001000980844B049C9F8000009688B7E9D
:102B1000012B00F00081022B00F00781032B00F055
:102B20000D81042B00F03A8100F019B93046BDE860
:102B3000F84F00F08DBABAF1000F62D09CF81AC0BD
:102B4000BCF1000F14D04FF00008002CA4BF8A463F
:102B5000834640DBDBF8001028466D1C8A7E012A84
:102B60000CD0022A14D0032A1BD0042A35D027E027
:102B700031463846BDE8F84F08F078BC801DC217D2
:102B800000EB127222F00F02801A0C281FDB17E0F4
:102B9000C21700EB927222F00302801A022816DBA1
:102BA0000EE08AFB0032D310A3EBE272524202EB3A
:102BB000820200EB82000C2809DB1038022806D3C1
:102BC000496E06EB08004A6801463846904708F10E
:102BD0000108A045BEDD681EDCE07D4A82FB0032B4
:102BE0009310A3EBE272A2EB820200EBC2000C286E
:102BF000EDDBA0F11002022A24BF14380228E6D32C
:102C0000DEE79CF81A80B8F1000F14D04FF00008EE
:102C1000002CA4BF8A46834642DBDBF8001028461E
:102C20006D1C8A7E012A0FD0022A17D0032A1ED0DB
:102C3000042A3AD02AE0DCF864003946036801B07F
:102C40003046BDE8F04F1847801DC21700EB1272E6
:102C500022F00F02801A0C281EDB17E0C21700EBCF
:102C6000927222F00302801A022815DB0EE08AFB22
:102C70000032D310A3EBE272524202EB820200EB6D
:102C800082000C2808DB1038022805D3496E06EBB9
:102C900008004A683946904708F10108A045BCDDA4
:102CA000681EC9F80000BDE8F88F494A82FB00326F
:102CB0009310A3EBE272A2EB820200EBC2000C289D
:102CC000EADBA0F11002022A24BF14380228E3D361
:102CD000DCE70025002CACBF8146BDE8F88F00BFC3
:102CE00008FB05B090FBF4F03844BAF1000F0AD0AD
:102CF000D9F800207119526E526890476D1CA54298
:102D0000EEDDBDE8F88FD9F800107319496E4A68F6
:102D100001461846F1E7801DC31700EB137323F03B
:102D20000F03C01A0C2825DB19E0C31700EB9373BF
:102D300023F00303C01A02281CDB10E0234B83FBA3
:102D400000C34FEAE30CACEBE3735B4203EB83039A
:102D500000EB83000C280DDB103802280AD3496EE3
:102D6000BAF1000F06EB05004B680EBF1146014695
:102D7000104698476D1CA5427FF7BCAE009800280E
:102D800004DAD9F800002044C9F80000D9F800108E
:102D90000098081AC9F80000BDE8F88F0C4B83FBB7
:102DA00000C34FEAA30CACEBE373A3EB830300EB8C
:102DB000C3000C28DEDBA0F11003022B24BF143863
:102DC0000228D7D3CBE700001801002067666666AB
:102DD000ABAAAA2A2DE9F047DFF86892804684B0B2
:102DE000D9F800000F460C99007E1D4616460128B2
:102DF00000F0CE80A8EB060C7C1B5CEA040104BF4B
:102E000004B0BDE8F087421E0021BCF1000FBCBF3A
:102E10000121CCF1000C002CBCBF41F00201644246
:102E2000644504DD20466446844641F00401A00266
:102E30000CEBDC7300EB630090FBFCF08010824C29
:102E40004FEA201C00F00F0034F81C30C0F11000D5
:102E500013FB00F3102807D004EB4C0CC0F110005A
:102E6000BCF802C01CFB003303F10800C31700EBE1
:102E70001370001111F0040F18BFC0F5806011F03D
:102E8000010F18BFC0F5006011F0020F18BFC0F5A8
:102E9000805000F5806100F50060C0F30B004FF03A
:102EA000000AB0F5006FC4BF4FF0010AA0F5006042
:102EB000B0F5806FC8BFC0F500604FEAA01C634B3F
:102EC00000F03F00C0F1400033F81C40444340286C
:102ED00018BFBCF1100F07DA03EB4C0CC0F1400037
:102EE000BCF802C00CFB004404F120008009BAF1D8
:102EF000000F18BF404200FB02FC0024C1F30B008E
:102F0000B0F5006FC4BF0124A0F50060B0F5806F7C
:102F1000C8BFC0F50060811100F03F00C0F1400063
:102F200033F811A040280AFB00FA18BF102906DA6E
:102F300003EB4101C0F14000498801FB00AA0AF1FE
:102F400020008009002C18BF404200FB02F1BCF1B8
:102F5000000FB4BFCCF500700CF500704FEAA02054
:102F6000B8BF40420029BDBFC1F500718912C1F14F
:102F7000000C01F50071A8BF4FEAA12C00280FDD5D
:102F8000411C01EBD171491000EBD07042100EE0F2
:102F9000009139464046FFF755FD04B0BDE8F08783
:102FA00000EBD071401E491000EBD0704210BCF114
:102FB000000FC6BF0CF1010000EBD0700CEBDC7011
:102FC0004FEA6000CEBF0CEBDC73ACF1010303EB06
:102FD000D3735B1008EB010CADF800C007EB000CDD
:102FE000ADF802C0A8EB020CB21AADF804C0ADF8FF
:102FF00008203144A7EB030CEA1AADF80C10284462
:10300000ADF80A20ADF80E000023ADF806C01A4650
:103010000421684600F08EF8D9F800204046394671
:10302000527E002A08BF00F013F83046D9F800207D
:103030002946527E002A08BF00F00AF804B0BDE815
:10304000F087000018010020CE3A0408AC3A0408CA
:10305000064A13681A7E012A05D0521E02EBD2726C
:10306000521000F005B85A6E52681047180100203F
:103070002DE9F84F06460F4640F2C32050434FF467
:103080007A7190FBF1F000F1010A02FB02F002EB11
:10309000D271DFF89C8000EB61000090D8F800103E
:1030A00014463244496E301B0B6839469847012557
:1030B000BAF1010FB8BFBDE8F88F00BF05FB05F0FE
:1030C00004FB0400009988421ADD544517DDD8F846
:1030D000003006EB050BA6EB05095B6EABF10102B8
:1030E00039191B6809F101009847D8F80030ABF195
:1030F0000102391B5B6E09F101001B689847641ED1
:10310000D8F80030321979195B6E301B93461B6872
:1031100081469847D8F800305A46791B5B6E48467E
:103120001B6898476D1CAA45C8DABDE8F88F0000F7
:10313000180100202DE9FF4F83B0074643F6FF74C6
:10314000C4F1000090460E1E0090C4BFBA1C084691
:103150000EDD00BFB2F90010A142D8BF0C46009BA3
:103160009942D8BF19460091401E02F10402F1D1E4
:103170008C490868406970B1B0F90630069A9B1A0C
:10318000009A9342C0F20281B0F90230069A9A1A6C
:10319000A24200F3018100988442D2BFA6F1010946
:1031A00007B0BDE8F08F00207F490546002E08607B
:1031B000C4BF069804EB000A7EDD4D45B4BF6A1C0F
:1031C000002207EB850C07EB8201BCF90200B1F984
:1031D0000230A04255D1A34213D137F92500514600
:1031E00000EB080337F922006E4A4044834212681C
:1031F000526ED2F800C0BABF024618461A46E047DF
:1032000087E000222946B9F1000F0CDD002914BF28
:10321000491E711E07EB8100B0F90200A04203D1E4
:10322000521C4A45F2DB2046A04272D0001B37F9FF
:1032300025101A1B90EA020F09D45A4A01EB080024
:1032400051461268526E13680246984761E0DFF8F3
:1032500058B1DBF800C0BCF10C0F5ADA0020BCF109
:10326000000FC4BF6046514A4CDD00BF02EB400373
:1032700033F9023C8B4245DB22F81030401EF5D179
:1032800040E0A34245D0A8BF844203DAA042A8BFD1
:103290009C423EDB98424EDC0246A042DFBF18460D
:1032A0008442BCF90030B1F9001032DCA1EB030C10
:1032B000A11A0CFB01F100E02FE00029A0EB020CA9
:1032C000CEBF01EB6C01A1EB6C01491C801A91FB94
:1032D000F0F0DFF8D4B0C118DBF800C0BCF10C0F7F
:1032E00017DA0020BCF1000FC4BF60462F4A09DD89
:1032F00002EB400333F9023C8B4203DB22F810302F
:10330000401EF5D1294A22F810100CF10100CBF82B
:1033100000006D1CB542FFF650AF06980025204412
:1033200001902148AB4601680029C4BF1F49B1F98B
:1033300000A022DD18E01A46A342DEBF8442B1F9A4
:103340000030BCF90010B1DDE3E7184931F91BA0EA
:1033500055B108EB000C134808EB0A02019900680C
:10336000406E0368604698470F490BF1010B85F0EA
:103370000105096850465945E7DC0098641C844201
:103380007FF711AF07B0BDE8F08F00BFB0F906308E
:10339000069A9A1A0092F7E6B0F902200698141AD3
:1033A000F9E6000018010020F80700205CED01207C
:1033B00070B52048046802F0CBF9204608F094FC70
:1033C00004F0A0FF1C48046802F0C2F9204608F08F
:1033D000C5FC04F097FF012502F0BAF9174C2068EC
:1033E000057604F08FFF02F0B3F92068002585858B
:1033F00004F088FF02F0ACF92068458504F082FFF4
:1034000002F0A6F9284608F0C1FC04F07BFF0C4846
:10341000056802F09DF92068002D18BFC56104F011
:1034200071FF002502F094F920688576BDE87040B0
:1034300004F068BF140100201001002018010020D2
:103440000C01002070B50C46054600F0FBF8A8689A
:103450002168C16261680163A168416311F0040FD2
:1034600007D0D0E90021C0E90012D0E90221C0E96B
:103470000212A189818421690029B8BF002118BFE7
:10348000016270BD2DE9F0411E461746884604468C
:1034900000F0D8F8A5686822414605F58A70FCF767
:1034A000EBFE2046B8472046B04720698068804739
:1034B000A862BDE8F081000010B5044600F0C2F833
:1034C000A0681049134AC0F8AC100F49C0F8A81002
:1034D0000E49C0F8B0100E49C0F8B8100021C0F86D
:1034E000BC101368C0F8B4300B4BC0E933315168DD
:1034F000C0F8C810C18C21F00301C1840749C0F88D
:10350000941010BDC5700208A572020889700208E7
:10351000876A0208F40100208F6B020829700208F4
:1035200010B5044600F08EF8A46810481021C4F8C5
:10353000EC000F48C4F8F0000E48C4F8F4000E4840
:10354000C4F8F8000D48C4F8A0000D48C4F8A40061
:10355000D4F8C800C4F80401D4F894202046904759
:103560001020A0630748606410BD0000A12C020871
:10357000514B020889350108C1360108296A020841
:10358000C5740208CC390408F8B5846815460F469E
:1035900094F8260010F0020F48D0D4F808312046E5
:1035A00098470646D4F80C312A46394620469847B3
:1035B000D4F8983005461BB10022012120469847D7
:1035C0002069B042CCBF01200020A169B142B4BF44
:1035D0000121002108436169A942CCBF01210021DA
:1035E0000843E169A942B4BF0121002108430AD080
:1035F0006068401E00902068D4F8A8C0431E0022D6
:1036000011462046E047D4F8AC302A4631462046E1
:103610009847D4F8A01020468847D4F8983005463B
:103620006BB1012200212046984708E0D4F8AC3065
:1036300020469847D4F8A0102046884705462846DB
:10364000F8BD000010B504468068002818BF10BD02
:103650004FF4BE7000F092FB084BA0604FF4BE72B6
:103660001B6800219847A0680221C18401210464DD
:1036700001620349C0F8101110BD00002C050020A4
:10368000853601082DE9F0010C4991B0B1E8FC1133
:103690008DE8FC1191E8FE100DF1200888E8FE107D
:1036A000416B5DF82120C0F8082108AA52F82110CA
:1036B000C0F80C1111B0BDE8F0017047B04E03081E
:1036C0002DE9F84384681F46154694F8260088467D
:1036D00010F0020F35D0D4F808312046984706463E
:1036E000D4F80CC12A4641462046E04705462069E9
:1036F000B042D4BF00200120A169B142B4BF012172
:10370000002108436169A942CCBF0121002108437F
:10371000E169A942B4BF0121002108430AD06068D1
:10372000401E00902068D4F8A8C0431E0022114615
:103730002046E047D4F8AC302A4631462046984728
:1037400003E0D4F8AC3020469847D4F8A42001B068
:1037500039462046BDE8F043104700002DE9F04F00
:103760004B4989B00968B1F922200692D1F81CC0F2
:10377000B1F92470DCF81C40A28982429CBFE38925
:10378000984205D8A0EB02094FF0FF38266812E0F6
:10379000D4E90162002A71D0138883429CBF558806
:1037A000A8426BD8C01A526880B202EB8000B0F910
:1037B0000090B0F90280B9F1FF3F5FD09CF818008B
:1037C000A27C10FB02FB94F810A00790B1F92A50DC
:1037D000284608F0DBFAC0B208902D4809FB0B62BE
:1037E0000068A37C4FF00109816BCDE90293CDE91C
:1037F0000421C0695246C17E807ECDE90001DDE929
:103800000603394607F088FCB8F1FF3F18D045F0B1
:10381000020008F0BBFA1E48A37C08FB0B6200689C
:10382000816BCDE90293CDE90421C0695246C17E86
:10383000807ECDE90001DDE90603394607F06CFC26
:10384000134E3068C069417E007E814213D9022D3B
:1038500011D085F0040008F099FA3068C069017E43
:10386000C27E11FB0271427ED319827E06981AFB3A
:10387000020207F02DFE089808F088FA0448627CDE
:103880000068418C1144418409B0BDE8F08F00000C
:1038900018010020044800290068C069C0691CBFE5
:1038A000027C0A60407C70471801002002200880DA
:1038B0007047C06982898A429CBFC289914210D9EF
:1038C000806880B102888A429CBF438899420AD8A6
:1038D000406800EB8100A0EB8200B0F900000028F6
:1038E00001DB012070470020704700002DE9F04304
:1038F000394D024687B02868B0F92A60C069C169AD
:103900001046002904BF07B0BDE8F0830B8883424E
:103910009CBF4B88984205D989680029F6D107B029
:10392000BDE8F083002904BF07B0BDE8F083486814
:103930000988511A00EBC1043046A77808F026FA2E
:103940008046286862680123816BCDE90237CDE9A2
:103950000421C169CB7E8A7ECDE900230B7EB0F9BC
:1039600024102278B0F9220007F0D6FB2868C0693D
:10397000417E027E91421FD9C07E11FB00F912FBED
:1039800000F7022E18D001F0A6FD064601F06CFDEE
:1039900003F0A3FC29682278CB69B1F92200DB7E11
:1039A00012FB0302B1F9241001EB0903394407F0BB
:1039B0008FFD304603F091FC404608F0E7F9286897
:1039C0006278C369B0F922109B7E12FB0311418417
:1039D00007B0BDE8F08300001801002010B40446D1
:1039E00015480068D0F81CC02046DCF81C2002B343
:1039F000138883429CBF5388984203D99268002A57
:103A0000F6D116E0AAB110885368221A012000EB03
:103A1000C2009CF81AC0185C10FB0CF0002904BF0F
:103A200010BC704713F8322012FB0CF20A6010BC75
:103A3000704710BC0020704718010020012008804A
:103A40007047C06968B102888A429CBF428891422F
:103A500003D980680028F6D103E000281CBF0120AC
:103A600070470020704700002DE9F047DFF8A48080
:103A7000DFF8A4A04FF00009D8F80840002CC4BF1C
:103A8000D8F8106000251DDDD8F81000C5EB05172B
:103A900000EBC7007022001DDAF80010FCF7ECFB09
:103AA00046F8789BD8F8100005F1010500EBC70037
:103AB00000F10C018161011D0A1DC0E90F12416472
:103AC000641EE1D1D8F808000024002810DD00BFF2
:103AD00004F033FCD8F81020C4EB041152F8311074
:103AE000814206D081B1D8F80800641C8442EFDB23
:103AF0004C46D8F81010C4EB041001EBC000001DB8
:103B0000CAF80000BDE8F087C4EB041142F83100A8
:103B1000EFE70000600500201801002070B51B4988
:103B200019480860084605F08BFE194CA068C0EBE8
:103B30000010C500284600F021F9164B20612A46E6
:103B40001B68002198474FF0FF30206004F0FAFB1B
:103B5000A06800250028D8BF70BD00BF04F0EDFBB1
:103B60002269C5EB051152F83110814208BF70BDC2
:103B700021B16D1CA0688542F0DB70BDC5EB05115D
:103B800042F8310070BD0000116002087405002089
:103B9000600500202C050020002808BF704710B5E4
:103BA000044601F0D5FD20460EF0EEFA044604F07E
:103BB000A9FB204610BD00002DE9F041074601F0A9
:103BC000C7FD002F08BF002430D001F0C1FD3846EA
:103BD0000EF0DAFA044604F095FB002C26D0164DC0
:103BE000164B3A46E869401CE861686B00EBC4007C
:103BF0000178491C01700421686B01EBC4011B684A
:103C00004058002100F108063046984756F8081C35
:103C1000686B00EBC1000178022904D3E96900292F
:103C20001CBF491EE9610178491E017004F06AFB5E
:103C30002046BDE8F081000068EA01202C05002044
:103C4000024A106021F003005060704728EB012009
:103C5000002808BF704770B5044601F079FD0C4D8F
:103C6000042000EBC406696B895948680EF008F817
:103C70006868401C6860696B686A8851696B0020DD
:103C800001F834006C62BDE8704004F03BBB0000FA
:103C900068EA0120002808BF7047044AD16B016020
:103CA000002918BF4860D0637047000068EA01200F
:103CB0002DE9F041064601F04BFD34680027C4B100
:103CC00001F046FD0D4D042000EBC408696B51F86E
:103CD000081048680DF0D4FF6868401C6860696B84
:103CE000686A41F80800686B00F834706C6204F090
:103CF00009FB3760BDE8F04104F004BB68EA01202D
:103D00002DE9F05F0F1E81464FF00005C6BFDFF8BA
:103D100068804FF0000ABDE8F09F00BF09EB850600
:103D200001F016FD3468F4B101F012FD0420D8F85A
:103D3000341000EBC40B51F80B1048680DF0A0FFD5
:103D4000D8F80400401CC8F80400D8F83410D8F89B
:103D5000240041F80B00D8F8340000F834A0C8F86B
:103D6000244004F0CFFAC6F800A004F0CBFA6D1C92
:103D7000BD42D3DBBDE8F09F68EA01202DE9F041A8
:103D8000044611F0B5FDE01C274E20F00300051D90
:103D9000306CA84288BF0546F46BBCB154F8041CD3
:103DA000A94210D19CB1206800281CBF6168416005
:103DB000606800281CBF21680160F16BA14204BF4C
:103DC0002068F0632DE02468002CE7D10024F1681E
:103DD000B06B00EB010858F8040CA8EB000738683A
:103DE00040B1002012F076FF58F8040CA8EB000751
:103DF0003868B0B97868A84213DB3844401B041D0A
:103E0000384612F039FFF068401BF06070692844B2
:103E100070617868401B1CBF39460DF031FF44F8D3
:103E2000045C2046BDE8F08168EA012010B500245A
:103E300011F05EFD0D490F2001EBC002526C8AB1FA
:103E400001EBC000406C806848B14168A14288BF66
:103E50000C46806800281CBF80680028F5D1A4F1BA
:103E60000C0010BD401EE7D5F9E7000068EA01200C
:103E7000002140B10549042202EBC000496B0858FB
:103E80004068A0F10C0108467047000068EA012074
:103E90000849CA69521CCA614A6B02EBC002137816
:103EA0005B1C1370496B042202EBC00008580830F9
:103EB0007047000068EA01202DE9F05F0E0005461A
:103EC0004FF0000808BF474674D001F041FC30466F
:103ED0000EF05AF9074604F015FA002F18BF002D0E
:103EE00068D0364C4FF0040909EBC50A606B50F8F6
:103EF0000A004068A0F10C00B042B8BF064601F0CD
:103F000027FCE0692E4B401CE061606B324600EB01
:103F1000C7000178491C0170606B09EBC70141586B
:103F200000EBC50001F1080BE169491CE161017872
:103F3000491C0170606B1B6850F80A0000F1080909
:103F40004946584698475BF8081C606B00EBC10077
:103F50000178022904D3E16900291CBF491EE161EF
:103F60000178491E017059F8081C606B00EBC10014
:103F70000178022904D3E16900291CBF491EE161CF
:103F80000178491E017001F0E3FB606B50F80A10E4
:103F900048680DF075FE6068401C6060616B606A87
:103FA00041F80A00606B00F83580656204F0AAF9F8
:103FB00004F0A8F93846BDE8F09F000068EA012047
:103FC0003005002010B501F0C3FB002411F090FC77
:103FD000194B1A490F2000BF01EBC002526CE2B12D
:103FE00001EBC000406C8068C8B14268A24288BF43
:103FF0001446806800281CBF80680028F5D1A4F111
:104000000C00B0F5800F0DD983FB00204211096A26
:10401000A2EBE07000FB01F409E0401EDCD5A4F146
:104020000C00F1E7096A4843A3FB0010440904F0BF
:1040300069F9204610BD00001F85EB5168EA012098
:104040000A4902684B6B52F8082C03EBC202137842
:10405000022B04D3CB69002B1CBF5B1ECB611178F4
:10406000491E1170002101600846704768EA01206E
:104070000349042202EBC000496B0858083070471E
:1040800068EA012070B50C46054601F0ADFBC1B2EF
:1040900023462846BDE87040002200F001B8000029
:1040A0002DE9F0012D24D3F800C0B0F1004F34D039
:1040B00000250028A8BF4FF0000C07DA0CF101061C
:1040C0001E608CF8004040424FF0010CA1EB0C0147
:1040D000C9B2002A1CBF491EC9B200291CBF234F08
:1040E000234E3DD08C46491EC9B2944508D1D3F821
:1040F00000C03C780CF10108C3F800808CF8004047
:1041000056F8214090FBF4FC0CF0FF0CBCF10A0FB8
:1041100026D80CFB140081B909E00CF10106012539
:104120001E606FF000408CF80040491ED0E7002D63
:104130001CBF0CF1010C0CF0FF0CBCF10A0F03D1F9
:10414000491C4FF0010CC9B20CF13004D3F800C087
:1041500000290CF10108C3F800808CF80040C1D19F
:10416000196800200870BDE8F001704704010020C4
:10417000044E03080028D8BF70472B230A6802F1B9
:10418000010CC1F800C01370096800220A70704762
:1041900070B514460D46064601F0DAFA204601F0E5
:1041A000A7F90300164804EB840109D050F8210058
:1041B00041688068711A2A1A184603F0CDF81AE08F
:1041C00000EB8104A268B24214BF01220022E3681E
:1041D000AB4214BF012300231A430CD0236943B11F
:1041E00050F82100816840686A1A311A184602F0B6
:1041F0007DFDC4E90265BDE8704004F083B80000AD
:10420000D4EC0120C2B2CBB2D21A48BF524292B211
:1042100002FB02F3C0F30722C1F3072CB2EB0C023E
:1042200048BF524292B2000CA0EB114002FB023296
:1042300000B20028BCBF404200B280B200FB0020A8
:10424000704700002DE9F041002182B0084601F0DE
:10425000E5F943F6FF76374601F07AFA042007F0D5
:1042600095FD804612484069C16C006D8D1B841B12
:104270000E440744ADF80050ADF80460ADF80240BC
:10428000ADF8067068460CF067FF48B13B46324611
:104290002146284607F01CF90CF070FD0028F5D1E6
:1042A000404607F073FD04F02DF802B0BDE8F08140
:1042B000040100202DE9F04182B01C4617460D464E
:1042C000064601F045FA042007F060FD80461348D9
:1042D0004169C86C096D064407440D440C44ADF8AF
:1042E0000060ADF80470ADF80250ADF806406846C5
:1042F0000CF032FF48B123463A462946304607F0D3
:10430000E7F80CF03BFD0028F5D1404607F03EFDF4
:1043100003F0F8FF02B0BDE8F081000004010020C6
:104320002DE9F04182B0B0F90050B0F90240B0F987
:104330000460B0F9067001F00BFA042007F026FDC6
:10434000804613484169C86C096D054406440C4415
:104350000F44ADF80050ADF80460ADF80240ADF880
:10436000067068460CF0F8FE48B13B4632462146DE
:10437000284607F0ADF80CF001FD0028F5D14046C5
:1043800007F004FD03F0BEFF02B0BDE8F0810000BD
:10439000040100202DE9F8431C00DDE908981646C9
:1043A0000F46054602D10BF077FA04460096D5F881
:1043B00000C043464A4621462846E047061E08BF3D
:1043C000BDE8F8830BF05BFA8146698A30460AF053
:1043D00026FB30460CF049FB48460CF046FB7F1E9E
:1043E000002FC8BF4FF000080FDD00BFCDF80080E0
:1043F00055F81CCF00231A4649462846E04718B313
:104400000CF033FB7F1E002FF0DC1D2148460CF022
:1044100009F9B4F1FF3F14D001F09AF90BF0C4FA96
:1044200040B100BFFFF724FE8469B44218BF5FEAC1
:104430000400F7D1B4421CBF30460CF00BFA03F075
:1044400061FF3046BDE8F88330460AF043FF0020A4
:10445000BDE8F883022BA4BF002070472DE9F0418E
:1044600006461C4615460F461C20FFF787FC002811
:1044700008BFBDE8F081002F18BF07610BD10A4AC1
:1044800052F8241039B10A681AB111461268002A8C
:10449000FBD109690161846185820021016041606D
:1044A000C0E90216BDE8F081440100202DE9F04189
:1044B00000241D46074688461646022B27DA1C2094
:1044C000FFF75CFC18B3B8F1000F18BFC0F81080FC
:1044D0000BD1104A52F8251039B10A681AB11146A9
:1044E0001268002AFBD10969016185618682046036
:1044F0004460C0E90247040009D000F011F8E06808
:10450000006820B90448006800EB850084652046F7
:10451000BDE8F0814401002018010020FFF7BABB7C
:1045200000281CBF8369022BA4BF01207047234AC7
:10453000591C92F800C08C45B8BF117010B4204CC3
:1045400054F82310002908BF44F8230030D04A68EB
:104550002AB111465268002AFBD100292BD0C2682B
:10456000D2F800C0CA681268624503DD09680029F4
:10457000F8D120E0F9B1CA681268624504BF828AA6
:10458000012A08D10A682AB11146D2681268624528
:10459000F8DA00E079B14A68002A1DBF10604A6865
:1045A000426044F823004860884208BF002101604F
:1045B00010BC0020704710BC012070476A01002029
:1045C00044010020002808BF704770B4244D254CDA
:1045D000D0F800C000281CBF8669022E3ADA2A787B
:1045E000711C8A42B8BF297054F82610002908BFF0
:1045F00044F826002ED04A6822B111465268002A9B
:10460000FBD139B3C2681268CB681B68934203DDE3
:1046100009680029F8D11DE0E1B1CB681B6893421D
:1046200004BF838A012B08D10B682BB11946DB68C4
:104630001B689342F8DA00E061B14A68002A1DBFA6
:1046400010604A68426044F826004860884208BF0B
:10465000002101605FEA0C00BAD170BC7047000015
:104660006A010020440100200D4B8269002153F8AB
:1046700022C0844507D1D0F800C043F822C00268A8
:10468000002A18BF51604268002A1CBF03681360EB
:104690000268002A1CBF4368536001604160704794
:1046A00044010020002070470228A4BF002070476A
:1046B000064951F82000002808BF7047C168096802
:1046C00000291CBF00680028F8D170474401002071
:1046D000F8B516460F4605004FF0000414D00C2024
:1046E000FFF76AFA04000FD001F032F82046FFF716
:1046F000CFFB06490090C0E9001507814681684656
:10470000FFF79EFC03F0FEFD2046F8BD703A04085A
:10471000002808BF70472DE9F8431E461746884613
:104720000446FFF7B5FB0090006805686846FFF790
:1047300087FC33463A4641462046A847BDE8F88301
:10474000002808BF70472DE9F04F83B0054600F000
:10475000FFFF00F0D7FE3C4C80462068B0F9227085
:1047600000F024FF82462068818CA1EB0A0181843D
:104770002878002818BFA8F1010946D047F6FF7134
:10478000284604F08FFE83460146284604F050FE7A
:104790002168064691F82C0000F00300012808BFAC
:1047A000304605D0022812BF002006EBD67040101C
:1047B0004A8C101A4884ADF80000721E1044ADF8FF
:1047C0000400888CADF802004844ADF806006A4643
:1047D0005946284604F008F82168BDF8020088848C
:1047E0005946284603F062FC054428780A2818BF79
:1047F0000D2817D0BDF8000021683044488428787F
:1048000018B115F8010F0028B8D12068818C5144E7
:104810008184818D21F00301818503F073FD03B054
:10482000BDE8F08F206890F82C1001F003010129F9
:104830001DBF0229018C4184478429780A29DED1D1
:10484000818C41448184DAE71801002070B5144658
:104850000D46064600F07CFF0548016830464D8451
:104860008C84FFF76DFFBDE8704003F04BBD000086
:10487000180100202DE9F0410D4F06461546386815
:104880000C46B0F92C0040F0020002F095FD804685
:1048900000F05EFF3868448485843046FFF750FF9F
:1048A00003F030FD4046BDE8F04102F085BD000058
:1048B000180100202DE9F04182B006000D46174690
:1048C00047F6FF784FF0000404BF02B0BDE8F08166
:1048D00000F03EFF65B128460CF08AF8040007D0CE
:1048E00002462946684604F056FE68460CF080F8F9
:1048F00043463A462946304604F068F820460CF014
:1049000077F803F0FFFC02B0BDE8F081002808BF93
:1049100070472DE9FF4F87B093460E46054600F0DD
:1049200017FF3468776821B238B2401A401C0290F1
:1049300000F0E8FD82461BF00C0F2FD0029801908A
:104940000A98A8464FF00009009000F001FFDDE949
:104950000021404604F0DEFF8044002818BF09F122
:104960000109F4D103F0CEFC0BF00C00042818BFB1
:10497000082802D00C2805D010E0381409FB1A00D2
:10498000401C09E02114C1EB274009FB1A00401C20
:1049900000EBD07001EB600060F31F4430460CF078
:1049A00027F85FEA000909D0CDE9044702463146FD
:1049B00004A804F0F0FD04A80CF01AF8AAF101080C
:1049C00028460A9A029904F0E7FF039008EB244076
:1049D00060F31F47CDE900472846039904F028FDFE
:1049E0001BF0030108BF30880ED001290FD0022927
:1049F00012D1B6F90420B6F90010521A101A401C50
:104A000000EBD07001EB6000ADF8000004E0B1886D
:104A1000081A401CADF800006A462846039903F0C6
:104A2000E3FE28460A9A029904F074FF05440AEB53
:104A3000244060F31F4428780028C1D148460BF079
:104A4000D7FF03F05FFC0BB0BDE8F08F2DE9F04F0E
:104A500089B015460E46044600F07AFE364F386897
:104A6000C16C006D0E4405442088711E0844ADF8E9
:104A70001860ADF81C006088691E0844ADF81E007F
:104A8000ADF81A5006A80CF067FB00281CBFDFF831
:104A9000ACB04FF0010A42D00020D4F80C9002F0E4
:104AA0003FFC8046B9F1000F1BBF99F804000028B5
:104AB00028F0020048F0020002F032FC206970B1D8
:104AC000D4E902120091CDE9012ACDF80CA0D0F86A
:104AD00000C06388228829463046E04718E03868DD
:104AE000DBF800302146427CE0689847E0B1A288BC
:104AF000E388A168CDF800A0CDE90410CDE9023229
:104B0000CDF804A0638822882946304606F004FBCD
:104B1000404602F005FC0CF031F90028BCD103F04E
:104B2000F1FB09B0BDE8F08FE088012812BF00203A
:104B30003868806BDBE700001801002008010020C6
:104B400010B50A4682B00146684604F06BFE00F0DC
:104B5000FFFD2B48BDF800100068B0F84C20114450
:104B6000ADF80010BDF80210B0F850201144ADF8B7
:104B70000210BDF80410B0F84C201144ADF8041038
:104B8000BDF80610B0F850000844ADF806006846BD
:104B90000CF0E2FA78B300BFBDF90040BDF90400A3
:104BA000A0420EDBBDF90210204606F027FCBDF93D
:104BB0000610204606F022FCBDF90400A41CA04209
:104BC000F0DABDF90240BDF90600A0420FDB00BFDC
:104BD000BDF90000214606F011FCBDF90400214694
:104BE00006F00CFCBDF90600A41CA042F0DA0CF0A3
:104BF000C5F80028D0D103F085FB02B010BD00003D
:104C0000180100202DE9FF4FA3B01C4615460E46A3
:104C1000074600F09DFD70480168D1F84CC00CEBD0
:104C200007002390096D881924900CEB050025904E
:104C3000081926902398ADF868002598ADF86C0007
:104C40002498ADF86A002698ADF86E001AA80CF00A
:104C500083FA002800F0BA8025992398091A319820
:104C60000391C1B23098C0B2091A1C91039948430C
:104C7000109001EBD1700C9030983199C0F307205F
:104C8000C1F30721091A19910399484311903098EB
:104C90003199C0F30740C1F30741091A1D910399E7
:104CA0004843129030983199000EC0EB11611E916B
:104CB00003994843139024980290239808902698CB
:104CC00001902598DDE9304506904448049000F0B5
:104CD00002FC1F90AC4209D1204607F03FF8DDE905
:104CE0000131069A089806F0F3FB66E0039F01265F
:104CF000002F65D01C991791109A0C99089C02EB13
:104D0000610B199A1692119A02EB610A1D9A15927B
:104D1000129A02EB61091E9A1492139A02EB61082F
:104D200006998C4242DC00BF9BFBF7FC9AFBF7F331
:104D3000179999FBF7F28B441699149D8A4415999B
:104D40004CEA0323894498FBF7F1A84443EA024262
:104D500042EA016508998C4214DD854208BF761C41
:104D600010D006F0FBFF012E06DDDDE90131A01BAE
:104D7000621E06F0ADFB04E0DDE90121049B601E2C
:104D8000984701260699641C28468C42CCDD06F023
:104D9000E5FF0698012E0CDD811B01F1010CDDE918
:104DA00001310246604606F093FB06E006F0D6FFAE
:104DB0000698DDE90121049B98471F9806F0CEFF75
:104DC0000BF0DCFF00287FF476AF00BF03F09AFA07
:104DD00027B0BDE8F08F0000180100206DB4010875
:104DE0002DE9FF4FA3B01C4615460E46074600F0BE
:104DF000AFFC80480168D1F84CC00CEB0700239051
:104E0000086D811924910CEB05012044CDE9251092
:104E10002398ADF86800ADF86C1026982499ADF889
:104E20006E00ADF86A101AA80CF096F9002800F090
:104E3000DB8026992498081A02903198C2B23098E3
:104E4000C1B2501A1C90029848431090029800EB8F
:104E5000D0700F903098C0F307213198C0F307202D
:104E6000401A19900298484311903098C0F30741B6
:104E70003198C0F30740401A1D90029848431290A1
:104E80003098010E3198C1EB10601E900298484393
:104E900013902398039024980790259801902698C2
:104EA000DDE930450590544804900120209000F041
:104EB00012FB1F90AC4207D1204606F04FFF059B26
:104EC000019A0799039879E0029F0125002F6ED07F
:104ED0001C991791DDE90F1202EB610B199A1692DA
:104EE000119A079C02EB610A1D9A1592129A02EB25
:104EF00061091E9A1492139A02EB610805998C427B
:104F000051DC00BF9BFBF7FC9AFBF7F3179999FB69
:104F1000F7F28B441699149E8A4415994CEA0323A0
:104F2000894498FBF7F1B04443EA024242EA016641
:104F300007998C4216DD864208BF6D1C12D006F020
:104F40000DFF2098012D23DD00281FBF611B631E6C
:104F5000019A039801BF601B019B621E039906F032
:104F6000B7FA01250599641C30468C42CADD06F06B
:104F7000F5FE05982099012D23DD0029A0EB050100
:104F800016D00346491C019A039806F0A1FA23E0C3
:104F9000019A002819BF611EDDE90303601EDDE9E7
:104FA00003139847DDE706F0D9FE05980FE016E0F9
:104FB00001F1010C02466046019B039906F088FA54
:104FC0000AE0002904BF019ADDE9031303D001467A
:104FD000DDE90303019A98471F9806F0BFFE0BF026
:104FE000CDFE00287FF455AF03F08CF927B0BDE863
:104FF000F08F00001801002099B30108F0B583B0CC
:1050000015460E46074600F0A3FB114C2168C86CFC
:10501000096D064405440F44ADF80060ADF8045036
:10502000ADF80270ADF8067068460CF095F850B116
:1050300020682A463946406E0368304698470BF090
:105040009DFE0028F4D103F05DF903B0F0BD00002F
:10505000180100202DE9F04383B01C4615460E468A
:10506000074600F075FB11480168C86C096D0744DC
:1050700005440E440C4400200CF06EF800281CBFC0
:105080004FF000080DF104090BD0CDE90098384627
:1050900031462A462346FDF79DFE0BF06FFE0028A1
:1050A000F3D103B0BDE8F04303F02CB918010020A0
:1050B00070B582B00D46064600F04AFB0F4C2068E2
:1050C000C16C006D0E440544ADF80460ADF800609D
:1050D000ADF80650ADF8025068460CF03DF848B106
:1050E00020682946406E4268304690470BF046FEE5
:1050F0000028F5D103F006F902B070BD18010020B8
:105100002DE9F04182B0984617460D46064600F05C
:105110001FFB1E480468207E216DA0F1010CE06C8D
:105120000D4406440744A6EB0C00ADF8000007EB65
:105130000C00ADF80400A5EB0C0001EB0804ADF881
:10514000020004EB0C00ADF8060068460CF004F811
:10515000B8B13A462946304606F01EF93A4621468D
:10516000304606F019F9621E691C304606F07EF9D9
:10517000621E691C384606F079F90BF0FFFD002825
:10518000E7D103F0BFF802B0BDE8F08118010020BC
:105190002DE9F04182B0B0F90060B0F90240B0F9F9
:1051A0000450B0F9068000F0D3FA1C480168087E6C
:1051B000CA6C096D571916440C4401EB0805401ED2
:1051C000311AADF800103918ADF80410211A28442E
:1051D000ADF80600ADF8021068460BF0BDFFB8B19F
:1051E0003A462146304606F0D7F83A462946304638
:1051F00006F0D2F86A1E611C304606F037F96A1EC6
:10520000611C384606F032F90BF0B8FD0028E7D1F2
:1052100003F078F802B0BDE8F0810000180100202A
:1052200070B582B014460D46064600F091FA10485B
:105230000068C16C006D0E4405440444ADF8006084
:10524000ADF80460ADF80250ADF8064068460BF0CA
:1052500083FF40B122462946304606F007F90BF09D
:105260008DFD0028F6D103F04DF802B070BD0000AE
:10527000180100202DE9F0411C4E00252C46306815
:1052800018B18047002818BF01240AF0F1F800285F
:1052900018BF0124164F386818B18047002818BF7E
:1052A0000124DFF85080D8F80000002818BF80479C
:1052B000CCB101253068002418B18047002818BF00
:1052C00001240AF0D5F8002818BF0124386818B165
:1052D0008047002818BF0124D8F80000002818BF14
:1052E0008047002CE5D12846BDE8F081240100204C
:1052F000500100204C010020F0B583B01C4615463B
:105300000E46074600F024FA10480168C86C096D83
:10531000074405440E440C44ADF80070ADF8045049
:10532000ADF80260ADF8064068460BF015FF48B1D5
:1053300023462A463146384606F0CAF80BF01EFDD1
:105340000028F5D102F0DEFF03B0F0BD1801002007
:10535000F0B583B0B0F90040B0F90250B0F9046084
:10536000B0F9067000F0F4F910480168C86C096DD6
:10537000044406440D440F44ADF80040ADF8046009
:10538000ADF80250ADF8067068460BF0E5FE48B186
:105390003B4632462946204606F09AF80BF0EEFCD2
:1053A0000028F5D102F0AEFF03B0F0BD18010020D7
:1053B000002808BF7047B0F806C083888068BCF139
:1053C000080F02BF02FB0311405C704709DCBCF10F
:1053D000010F0ED0BCF1020F17D0BCF1040F21D089
:1053E00005E0BCF1100F28D0BCF1200F2BD000201D
:1053F00070475A4302EBD10201F00701805CC1F112
:105400000701C84000F0010070475A4302EB9102C7
:10541000805C062202EA4101C1F10601C84000F0A9
:10542000030070475A4302EB510211F0010F805CF8
:1054300014BF00F00F00000970475B0802FB031166
:1054400030F8110070479B0802FB031150F821004F
:1054500070470000034951F82000C1688A6A08219A
:10546000104700004401002010B500F071F906F06B
:1054700075F806F057FA044602F044FF204610BDC6
:1054800010B5044600F064F9054920460968C96969
:105490004A6800219047044602F034FF204610BDC0
:1054A0001801002070B50C46054600F051F9064A77
:1054B000214628461268D26952689047044602F095
:1054C00021FF204670BD000018010020002808BF01
:1054D00070470AF0ADB910B500F03AF906F046F899
:1054E00006F020FA044602F00DFF204610BD000031
:1054F000002102283CBF024951F82010084670479D
:105500005805002010B500F023F904480068C06970
:10551000447E02F0F7FE204610BD00001801002076
:1055200010B500F015F905480068C069017EC07E1D
:1055300011FB00F402F0E6FE204610BD1801002029
:1055400070B515460E46044600F002F92A4631466B
:10555000204606F0C7F8040002D000203060286022
:1055600002F0D0FE204670BD70B50C46054600F036
:10557000EFF80648B0F9000028600548B0F90000CF
:105580002060BDE8704002F0BDBE00007001002048
:105590007201002010B5044603F0A6FF0146204624
:1055A000BDE8104003F044BF02F0C9BE10B50024AE
:1055B00000F0CEF80C48006890F82C1001F00C01B7
:1055C000042904D0082918BF0C2905D008E0C069B7
:1055D000007EA0F1010403E0C069007E4FEA5004A0
:1055E00002F090FE204610BD18010020407E70475A
:1055F000017EC07E11FB00F070470000024951F8A7
:10560000200000690068704744010020024951F8F9
:1056100020000069406870474401002070B50C46C6
:10562000054600F095F8044800684584848402F03B
:1056300069FE002070BD0000180100202DE9F04136
:105640003948016821F0010101603848012686606F
:1056500081680029FCD136490160006835498842DB
:1056600000D0FEE7344D686B70B96E6302F054FEF3
:10567000FEF754FA06F022FC05F138012F480860C5
:105680000846296B416028632E20287002F059FEDD
:1056900068692B4C011DC0E90E010064091D6161A0
:1056A000417C284850F82100C1680A6B04F10801C8
:1056B000904725486066A868E061686908306061C5
:1056C00026760AF0E9F8A064032084F868006FF0F9
:1056D000704020636063286906F006FBE86806F006
:1056E0003DFB1A48E86113F0CDFA044606F06CF869
:1056F00010B106F0ADF838B906F0BFF8074606F06D
:1057000078F8394606F03CFB0021084601F034FEEB
:105710000AF04CFCFEF7A8F9A869002818BF8047DA
:10572000AE702046BDE8F081002000E0003002406D
:10573000C2A507F4CDB5E8B504010020215F020839
:1057400034EB0120440100202C4E0308E4C603087A
:1057500070B5234CE06820B102F0EFFD616888422B
:1057600004D002F019FE02F0E8FD6060E068401C21
:10577000E060012818BF70BD0025A06800280DDD7D
:1057800002F0DBFD2269C5EB051152F831108142B0
:1057900005D0F9B1A0686D1C8542F1DB00252068B9
:1057A000854208BF70BD002812DBFEF77BFF216831
:1057B000C1EB0112216901EBC2025067C5EB051074
:1057C000084A01EBC000011D1160406FFEF7FAFEB0
:1057D000256070BDC5EB051142F83100DFE7000020
:1057E000600500201801002010B4021ECCBF034643
:1057F00053420120DFF820C0014600BF5CF8204082
:105800009C4203D8401C491C0929F7DD002AB8BF77
:10581000401C10BC70470000044E030810B582B055
:10582000040006D10F480068046E002C04BF02B0CB
:1058300010BDFFF78DFF2046FEF72AFB009044695C
:105840006846FEF7FDFB4CB12046FEF721FB0190B8
:1058500081688968884701A8FEF7F2FB02F052FDD3
:1058600002B010BD1801002001490A4600F002B83C
:1058700001F0FFFF002808BF70472DE9F04786B010
:1058800016460C468146FFF763FF002001F048FDF5
:10589000314D80462868076E4846FEF7F9FA0090B9
:1058A0000068806901F0F2FC824640F6FF70C44255
:1058B00004D10098B0F90440B0F906600098621E67
:1058C0000189ADF808401144ADF80C104089711EF3
:1058D0000844ADF80A60ADF80E0009F01DFB6846FB
:1058E000FEF7AEFB02A80BF037FC40B13246214672
:1058F000484600F07FFC0BF041FA0028F6D15046F4
:1059000001F0C4FC3C46FFF723FF2868006EFCB1A1
:10591000002818BF01F0ACFC09F092FC2046FEF70D
:10592000B7FA019029680C660068FEF7F9FD01A836
:10593000FEF786FB06F0B0FA06F002FA02F0E2FC8F
:10594000404601F0EDFC02F0DDFC06B0BDE8F0875A
:1059500001F08EFCF2E70000180100202DE9F04F65
:1059600083B01F469046894682464FF0000B0C9E3E
:10597000FFF7EEFE1B480068417C1B4850F82140B1
:10598000E0680068042803D02468002CF8D100E007
:105990003CB90846FEF788FE041E04BF03B0BDE80C
:1059A000F08FE0680121C26A20469047050012D0BE
:1059B0002469A0688047B0F1FF3F04BF0B4C46F05C
:1059C00001063B460096CDE9015442464946504601
:1059D00000F09AFA834602F095FC03B05846BDE801
:1059E000F08F00001801002044010020083B04084B
:1059F000002808BF704738B50446FFF7A9FE0E48D7
:105A00000068006EA04208BF01F032FC2046FEF79D
:105A10003FFA00904069002818BF02F05BFC009834
:105A20000068FEF77BFD6846FEF70AFB2046FEF79E
:105A30000FF902F067FC38BD180100202DE9FF4F77
:105A400083B01F4689460546DDF840A0FFF780FE7B
:105A50004F480068447C4F4800570128204606DD27
:105A600005F0B8FE8346204605F0F8FE05E005F097
:105A70005EFE8346204605F083FE04462DB302A950
:105A800001A8FFF771FDB5F90080B8F1000FB8BFAC
:105A90004FF00008B5F90260002EB8BF0026B5F936
:105AA000041001985844401E8142C8BF0146B5F910
:105AB0000600029A2244521E9042C8BF1046A1EB33
:105AC00008014A1C801B441C03E04FF000084646B6
:105AD0005A46002F08BF6742002AC8BF002C49DD84
