:020000040801F1
:1000000018FE01205502010847D101084DB2010830
:1000100045D10108790A0108ADFE01080000000081
:100020000000000000000000000000009D01010829
:10003000AD1D010800000000F101010871F6010882
:100040006F0201086F0201086F0201086F020108C8
:100050006F02010845D701086F0201086F0201080D
:100060006F0201086F0201086F0201086F020108A8
:100070006F0201086F0201086F0201086F02010898
:100080006F0201086F0201086F0201086F02010888
:100090006F0201086F0201086F0201086F02010878
:1000A0006F0201086F0201086F0201086F02010868
:1000B0006F0201086F0201086F0201086F02010858
:1000C0006F0201086F0201086F0201086F02010848
:1000D0006F0201086F0201086F0201086F02010838
:1000E0006F0201086F0201086F0201086F02010828
:1000F0006F0201086F0201086F0201086F02010818
:100100006F0201086F0201086F0201086F02010807
:100110006F0201086F0201086F0201086F020108F7
:100120006F0201086F0201086F0201086F020108E7
:100130006F0201086F0201086F0201086F020108D7
:100140006F0201086F0201086F0201086F020108C7
:100150006F0201086F0201086F0201086F020108B7
:100160006F0201086F0201086F0201086F020108A7
:100170006F0201086F0201086F0201080000000011
:100180006F0201086F020108DFF80CD000F006F9D9
:10019000004800470DBC020818FE01202A4B1968D0
:1001A0000868B0E8F04F80F30988BFF36F8F4FF015
:1001B000000080F3118870470000000006480068C6
:1001C000006880F3088862B661B6BFF34F8FBFF353
:1001D0006F8F00DF00BF00BF08ED00E0DFF80C000C
:1001E000016841F470010160704700BF88ED00E0D4
:1001F000EFF30980BFF36F8F134B1A681EF0100FD7
:1002000008BF20ED108A20E9F04F106008B44FF0CD
:10021000500080F31188BFF34F8FBFF36F8F1CF036
:1002200077FC4FF0000080F3118808BC196808685B
:10023000B0E8F04F1EF0100F08BFB0EC108A80F34A
:100240000988BFF36F8F704790000020EFF305809F
:10025000704700000648804706480047FEE7FEE773
:10026000FEE7FEE7FEE7FEE7FEE7FEE7FEE7FEE766
:1002700029F701088901010810B5441A0346944280
:1002800009D28418114403E011F8013D04F8013D3E
:10029000521EF9D210BD40EA0104A40703D009E0C0
:1002A00010C9121F10C3042AFAD203E011F8014B3F
:1002B00003F8014B521EF9D210BDD2B201E000F892
:1002C000012B491EFBD270470022F6E710B51346FA
:1002D0000A4604461946FFF7F0FF204610BD421CAF
:1002E00010F8011B0029FBD1801A704730B5044675
:1002F0000020034600E05B1C934203D2E05CCD5C2F
:10030000401BF8D030BD034611F8012B00F8012B3B
:10031000002AF9D1184670472DE9F05F0546002004
:1003200092469B4688460646814640241BE0284666
:1003300041464746224600F020F853465A46C01A26
:10034000914110D311461846224600F039F82D1A73
:1003500067EB01084F4622460120002100F030F8EB
:1003600017EB00094E41201EA4F10104DFDC4846D2
:1003700031462A464346BDE8F09F202A04DB203A56
:1003800021FA02F00021704721FA02F3D040C2F1B5
:10039000200291400843194670470000064C074D63
:1003A00006E0E06840F0010394E807009847103445
:1003B000AC42F6D3FFF7ECFE60E0050880E00508EC
:1003C000202A04DB203A00FA02F100207047914015
:1003D000C2F1200320FA03F319439040704770B52F
:1003E0008D1810F8014B14F0030201D110F8012B05
:1003F000231106D110F8013B03E010F8016B01F85E
:10040000016B521EF9D1ABB110F8012B04F00C04B2
:100410008A1A0C2C03D0A2EB84129B1C08E010F863
:10042000014BA2EB0422F8E712F8014B01F8014B53
:100430005B1EF9D5A942D4D3002070BD10B50CF0D5
:100440002DFE0CF0B1F9054C20602068A0F5A90143
:10045000663901D10BF05AFC206810BD080000205D
:1004600038B544680546014620460FF075FD002862
:1004700008BF38BD464A286811280DD006DC0B2875
:100480002AD00E2838D00F2817D07CE0282873D027
:10049000B0F5107F0AD076E09268002A08BF38BD18
:1004A000294601B02046BDE830401047526801B0EF
:1004B00029462046BDE8304010472546204603F037
:1004C00071FD0090406E0468684603F043FE002C06
:1004D0001CBF2846A04738BD204603F063FD0090AE
:1004E000683003F06FFC009803216C3003F092FC3D
:1004F000684603F02FFE46E0E968486809680D2960
:1005000002D0202918D037E0002835DD4FF4807163
:1005100020460FF0ECFD204603F044FD009090F8DB
:100520002850684603F016FE15F0020F1ED0012178
:10053000204611F0B3FB19E0002817DD25464FF4E3
:10054000807120460FF0D3FD284603F02BFD00906C
:1005500090F82840684603F0FDFD14F0020F08BF34
:1005600038BD0121284611F099FB38BD2046BDE871
:100570003840022118F00BB9E86820B920464FF442
:1005800080710FF094FC2846BDE8384010F000BAA6
:10059000FC01002070B5044688B08069B4F908C039
:1005A000658A00260091CDE90165CDE903C0B4F963
:1005B0000C00B4F91050C118B4F90A00B4F90EC017
:1005C00010442B46624600F027F86468050020D0EE
:1005D00005F0F6F9284603F0E5FC0190866E01A8C7
:1005E000009603F0B7FD2146684609F0D1FA70B1D4
:1005F0000098B04208D0284603F0D4FC019000993E
:10060000816601A803F0A6FD284611F097FA08F0CC
:1006100091F808B0284670BD2DE9F04F85B0984696
:10062000DDE91164DDE90E5791468A46834605F0FF
:10063000C7F904F14C001749CDE90210CDE9005784
:1006400043464A465146584610F0E6F805001BD08E
:1006500003F0A8FC1022314604900FF0DFFE0E4C90
:100660000499B4E8CD133431A1E8CD1394E80D100A
:10067000A1E80D1054F82C0D086004A803F06AFDE1
:10068000206841682846884708F054F805B0284695
:10069000BDE8F08F6104010808020020F0B50446AF
:1006A00080688C4989B051F820506068002800F0BB
:1006B0000A81052806D006287DD0122800F0B480D3
:1006C00000F004B9E869002808BF002651D0D5E938
:1006D0000012AB688DE80F0004F110010FC908F09B
:1006E00031FD002655F8260007F00FF8A169E869EA
:1006F0000A1A216901446069304404F0B7FDA16918
:10070000E8690A1A21690144E069801B04F0AEFD22
:10071000E169E8690A1A616901442069304404F01A
:10072000B7FEE169E8690A1A61690144A069801BA2
:1007300004F0AEFE761C022ED4DBA86806F0E5FFBE
:10074000E069E969D4F814C0431A20694218614489
:10075000801C521E04F008FFE169E869A2690B1AC7
:1007600061690144101A401C921E04F0FDFEEE69FE
:1007700011E055F8260006F0C8FFE069831BA06968
:10078000821B606981192069304404F0F1FD761CF8
:10079000022EEEDB0226D5E90301CDE90001E16975
:1007A000606901444B10A1698A1B811C2069304497
:1007B00004F04EFC00E011E0D5E90501CDE90001AF
:1007C000E0696169831E01440122A06902EB6101B5
:1007D000821B2069304404F03BFC77E0206803F082
:1007E000E1FB0490206812F08CFB50B1A068002857
:1007F00018BF00200AD10498006F002818BF0120FC
:1008000004E00498406F002818BF0220049901EB0F
:100810008000C56E04A803F09DFC00231A462846FC
:10082000216804F0ADF851E0206803F0BBFB0490B0
:10083000866E002E08BF04A842D0A168B0F95C7093
:10084000002908BF012103D003290CBF0221002188
:1008500000EB8101406D0C6C06F086FF204606F02F
:1008600054FF06A804F06AFFBDF81810A88B0144D5
:10087000ADF81810BDF81C10081AADF81C00BDF832
:100880001A00801CADF81A00BDF81E00801EADF8DD
:100890001E000498B0F96020B0F95E1006A806F0BA
:1008A00071FA04A803F056FC022006F0ADFF3046B2
:1008B00003F078FB3A4606A9059004F033F905A841
:1008C00003F048FC02E0206811F01AFD09B0002096
:1008D000F0BD0000BC6D0508042928BF7047F0B4C6
:1008E000044A52F8211091E8FE1080E8FE10F0BC96
:1008F00070470000BC6D050838B503F053FB044693
:100900000090684603F026FC204638BD70B50546C9
:100910000C46104600210A4604F012F80246214611
:100920002846BDE8704000F086B8002808BF704730
:1009300038B50C46054605F043F8284603F032FB6F
:1009400000904465684603F005FC284611F0F6F86F
:1009500007F0F0FE38BD000038B50C46054605F03E
:100960002FF8284603F01EFB009006498465416677
:10097000684603F0EFFB284611F0E0F807F0DAFED6
:1009800038BD000038060020042928BF7047F0B4A5
:10099000044A52F8211090E8FD1081E8FD10F0BCE7
:1009A00070470000BC6D0508F0B583B00F46050028
:1009B0004FF0010421D005F003F8284603F0F2FAC5
:1009C0000190866E01A8009603F0C4FB3946684684
:1009D00009F0DEF878B100980024B04208D028462B
:1009E00003F0E0FA01900099816601A803F0B2FBE0
:1009F000284611F0A3F807F09DFE03B02046F0BD95
:100A0000002808BF7047F8B515460C46064604F0A6
:100A1000D7FF304603F0C6FA0090032C3CBF00EB32
:100A200084000564684603F095FB304611F086F8B3
:100A300007F080FEF8BD002808BF7047F8B51546DE
:100A40000C46064604F0BCFF304603F0ABFA0090BB
:100A5000032C0BD200EB84006C3003F0B3F9009848
:100A600000EB8400C566304611F068F8684603F074
:100A700071FB07F05FFEF8BDFEE700002DE9F04FC7
:100A8000466804460146CDB030460FF065FA0028AE
:100A900004BF4DB0BDE8F08FFC4F2068DFF8F0B325
:100AA0000E280FD00F2800F02D82262800F07A8320
:100AB000B0F5107F00F0618120460FF069FF4DB066
:100AC000BDE8F08F304612F01CFA002804BF4DB08C
:100AD000BDE8F08F6C2225A930460FF09BFD2B98C6
:100AE00028B9DDE92501279A2D92CDE92B01289916
:100AF0002B9888421CBF4DB0BDE8F08F2C992998E7
:100B000081421CBF4DB0BDE8F08FE068416800290C
:100B1000DCBF4DB0BDE8F08FDDE92C450068DDF8A5
:100B2000AC80132808BFE81D17D00CDC102808BFC4
:100B3000681E12D0112808BFE81F0ED0122808BF67
:100B4000681C0AD00AE0212808BF601E03D02228B2
:100B500008BF601C02D12C9000E02D902C980C282E
:100B600004DD0C382C9008F1010005E0012804DABE
:100B70000C302C90A8F101002B900837B7E80F56E5
:100B8000CDE9400142A880E80C5697E80F000DF52A
:100B90009079283F89E80F002C98401E8BFB00219C
:100BA0004A10A2EBE171A1EB810100EB810040A9A9
:100BB00051F820002C99022905BF2B9911F0030F41
:100BC0000021012108442D9981420DDD081A2D9044
:100BD0002C98401C2C900C283BDD2B98401C2B9013
:100BE0002C980C382C9034E0012932DA2C98401ED5
:100BF0002C90012805DA2B98401E2B902C980C3055
:100C00002C900837B7E80F56CDE9400142A880E89C
:100C10000C5697E80F000DF5907989E80F002C9895
:100C2000401E8BFB00214A10A2EBE171A1EB810178
:100C300000EB810140A850F821102C98022805BF34
:100C40002B9810F0030F0020012008442D99084430
:100C50002D904FF4B071304610F0CCF907462C9A25
:100C60006FF003003D9900EB82002B9B0A5840A8CF
:100C7000CDF80800029912F8010B01F8010B02915E
:100C80000028F7D143B1481E202100F8011B029033
:100C900002A9184603F01DFB40A938460EF085FE58
:100CA0002C9829902B9828906C2225A930460FF07B
:100CB000C7FC2998844204BF289880451CD04FF077
:100CC0000000ADF80000DDE93B1001443A98ADF8B2
:100CD0000210C0EBC000A0F101023B98ADF8042067
:100CE000C0EBC000A0F101000144ADF80610694658
:100CF000304610F0B3FE30E02D9925A8CDE908511B
:100D000007AA40A917F07AF9002508AC54F8253055
:100D100003B3DDE94001CDE90401002107985B1E22
:100D20000A4644F8253018BF3A9B0CD0401C0728CF
:100D300018BF194418D000BF54F825C0BCF1010CED
:100D400044F825C0F2D104A806F01CF804A93046E6
:100D500010F084FE6D1C022DD8D30421304610F013
:100D60009DFF4DB0BDE8F08FA3EB830C01EB4C0170
:100D7000DDF8ECC000206244DEE7E468002C04BF2C
:100D80004DB0BDE8F08F207A00287DD06C2225A9D7
:100D900030460FF03FFCDDE92B012D9A0792CDE99B
:100DA0000501D4E9005425A808AA694617F026F9D8
:100DB0003A983A9995FBF0F048433C993B9A611A6E
:100DC000891A91FBF2F13C9B083701FB0231114477
:100DD000BDF900200DF5807A801A3A9A90FBF2F264
:100DE000BDF90200081A3B9990FBF1F0C0EBC0007E
:100DF0001044B7E83E138AE83E1397E80E1048AD5A
:100E0000401C85E80E102999491E8BFB01325310B6
:100E1000A3EBE272A2EB820201EB820140AA52F83C
:100E20002110299A022A03BF289A12F0030F0122E7
:100E3000002211440128A8BF81424CDBDDE92812C1
:100E4000CDE92C202B910C222BA905A8FFF74EFAF7
:100E5000D8B16C2225A930460FF0F2FB2D990798E6
:100E6000CDE9400125AB44AA08A9184617F0C6F8F9
:100E7000002440AD55F8243033B3DDE90801CDE955
:100E8000420100210A4605E035E020E0CC6D05086E
:100E9000ABAAAA2A44985B1E45F8243018BF3A9B97
:100EA0000BD0401C072818BF19441BD055F824C08C
:100EB000BCF1010C45F824C0F3D142A805F062FF53
:100EC00042A9304610F0CAFD641C022CD2D3042182
:100ED000304610F0E3FE0121304610F0DFFE4DB049
:100EE000BDE8F08FA3EB830C01EB4C01DDF8ECC007
:100EF00000206244DAE70221304610F0CFFE4DB008
:100F0000BDE8F08F4FF000096C2225A93046CDF8DE
:100F100008900FF07FFB304610F07AFA804630469A
:100F200010F08EFA044634986FF0704A504509D09C
:100F300006F0EBFB3C980021431EA8F10102084695
:100F400004F012FBADF820903C98ADF822003A98DE
:100F5000CC4D401EADF82400601EADF826000024E4
:100F600025AE3F984A4601190846C5FB012082106C
:100F7000A2EBE070A0EBC000084403900228ACBFD5
:100F80000120002006EB8000406A504504D006F0A6
:100F9000BCFB08A804F014FB002208A83A9905F04D
:100FA000F1FE641C072CDCDBADF820903C98ADF81A
:100FB00022003A99491EADF824103B990844401E7E
:100FC000ADF82600389806F0CFFB022006F01CFC96
:100FD000369806F09AFB00243F98494602191046BD
:100FE000C5FB02108110A1EBE070A0EBC000104423
:100FF0003E9903900E2251F8200008A903F092FDBB
:10100000002208A83A9905F0BDFE641C072CE3DB1A
:10101000BDF92600A8F10302022104F027F903AA72
:1010200008A925A816F0EAFF3F99002940F31E8180
:1010300011F0010F05D003980628B4BF401C002012
:10104000039048100CD003990629B4BF491C002115
:1010500003910629B4BF491C00210391401EF2D11F
:1010600008370DF5807EB7E83F118EE83F1197E80D
:101070000F0048AC84E80F002998401E8BFB00212C
:101080004A10A2EBE171A1EB810100EB810040A9C4
:1010900051F820002999022905BF289911F0030F62
:1010A0000021012100EB01054FF00004002DCEBF0F
:1010B000DFF8D4814DB0BDE8F08F00BF04F13100FE
:1010C0008DF8080014E0092CF8DB601C88FB001088
:1010D0008110A1EBE07000F130018DF80810404262
:1010E000611C00EB800001EB400030308DF80900FE
:1010F0002B992898814241D12C99299881423DD140
:101100002D98611C884239D13098504504D006F0A2
:10111000FCFA08A804F054FA339F259928988142D4
:101120000DD129992698884209D12799601C8142BE
:1011300005D1379806F0E9FA08A804F061F93846B5
:1011400006F0E3FA0E2208A902A803F0EBFC0398CC
:10115000401C0390072808BFCDF80C903F990398D6
:10116000814214D1002108A83B9A05F00BFEADF88E
:1011700020903A98401EADF824000DE00398022814
:10118000ACBF0120002006EB8000076BC5E7002202
:1011900008A83A9905F0F6FD641CAC4293DB4DB00B
:1011A000BDE8F08FA0680FF0B8FFE168B0F5B87F38
:1011B00015D0A0F58070713807BF022901244DB009
:1011C000BDE8F08F4FF06C020AA930460FF022FA0A
:1011D0000E9800190E900AD00D280DD011E00229AA
:1011E0000EBF4FF0FF344DB0BDE8F08FEAE70D9829
:1011F000401E0D900C2003E00D98401C0D90012026
:101200000E904FF4B07130460FF0F4FE04460E9A83
:101210006FF00300229900EB82000B5825A90D986E
:10122000CDF80010009A13F8011B02F8011B009280
:101230000029F7D138B1511E202201F8012B00916D
:10124000694603F046F825A920460EF0AEFB6C2255
:101250000AA930460FF0F4F9304610F06FFC0A216D
:10126000304610F01BFD4DB0BDE8F08F00293FF473
:10127000F7AE03980628B4BF401C00200390491E17
:10128000F7D1EDE693244992676666662DE9FF4F34
:10129000C9B00E46DDE95749DDE959879A4615463A
:1012A00070211EA8DDF858B1FFF70EF86C2103A8D5
:1012B000FFF70AF8ABF101000C2880F0E280AAF2F7
:1012C0002E6042F2E201884280F0DB8044226F49C6
:1012D0000CA8FEF7D1FF6E4B00211A460846E4FB2E
:1012E0000320C008A0EB40102044CDE903ABCDE9BA
:1012F000050A0120CDE907B06648059BCDF824A07A
:10130000CDE91D90CDE90AB318981A9BC0EBC00235
:101310001998ADF88260C0EBC0001844ADF88800A1
:101320006C202490ADF88A704FF4B870ADF89C0032
:101330000320ADF89E001A98574B0A38ADF880800C
:1013400025932C93ADF8A40040F27113ADF88450AE
:10135000ADF8B830ADF886201A9B4FF0050CD21AC4
:10136000D21DADF8BA204D4B3393ADF8C0004FF409
:10137000B073ADF8D430C31CADF8A0C0ADF8A20076
:10138000D21AADF8DC00ADF8BCC0ADF8D8C0ADF8ED
:10139000BE00ADF8D630ADF8DA2000910191404A98
:1013A00004211EA8499B03F01BF9050069D06FF0CA
:1013B00070410FF032F93B49284610F02FFE4FF4F0
:1013C000B87128460FF016FE044600210EF0B7FE55
:1013D00035492046FFF7C0FA40F2711128460FF058
:1013E00009FE044600210EF0AAFE2F492046FFF711
:1013F000B3FA4FF4B07128460FF0FCFD04462B49B8
:1014000010F00CFE0E2120460EF0FBFA2046139938
:101410000EF00EFB204617990EF0AEFA20460FF0A4
:10142000ABF9204612990EF085FA07996FF0030286
:101430001B9802EB81013AAA41580698CDF800208A
:10144000009B11F8012B03F8012B0093002AF7D120
:1014500038B1591E202201F8012B0091694602F093
:1014600038FF3AA920460EF0A0FA284610F04AFEAE
:101470006C2203A928460FF0E3F84DB02846BDE8DA
:10148000F08F4DB00020BDE8F08F00004403002035
:10149000218410428D050208950501084BF80108CA
:1014A0007D0A0108B9B60208956C0208719F02080E
:1014B00030B59BB00C46054604F082FA6C226946B2
:1014C00028460FF0A7F8DDE90601089AA260C4E9F2
:1014D000000107F02FF91BB030BD30B59BB00C46B2
:1014E000054604F06DFA6C22694628460FF092F822
:1014F000D4E90012A368CDE9001202936C22694678
:1015000028460FF09DF8284610F018FB07F012F956
:101510001BB030BD022828BF7047024A02EB800092
:101520008162704744030020064A002804BF91638B
:101530007047012804BF11637047022808BF516338
:1015400070470000440300202DE9F0474468054639
:10155000014682B020460EF0FFFC002804BF02B016
:10156000BDE8F08728680B287DD00E2805D00F280D
:101570003ED0B0F5107F4CD0ADE0204602F012FD19
:10158000019090F8746090F8757001A802F0E2FD87
:10159000204611F0B6FC002854D0E86841680029C4
:1015A00050DD006820284DD1781CB0FBF6F106FB19
:1015B0001106002C46D004F003FA204602F0F2FC9B
:1015C000009090F87410B1420CD980F875606846AC
:1015D00002F0C0FD204610F0B1FA0521204610F0BF
:1015E0005DFB02E0684602F0B5FD07F0A3F872E08B
:1015F0002546204602F0D6FC0090006F046868463D
:1016000002F0A8FD002C1CBF2846A04702B0BDE890
:10161000F0874FF00009204602F0C4FC019090F8DA
:10162000748090F87570B0F930A001A802F092FDB6
:10163000EE68BEB3204610F051F920B1494620466D
:1016400010F02CFB47E0307A68B30121204610F0FF
:10165000FDFC781CB0FBF8F108FB1106ECB104F0BE
:10166000AFF9204600E02CE002F09CFC009090F8DE
:101670007410B1420CD980F87560684602F06AFDBA
:10168000204610F05BFA0521204610F007FB02E02F
:10169000684602F05FFD07F04DF80121204610F08A
:1016A000FDFA18E008E0FFE70221204610F0F6FA04
:1016B000504606F0C1F80EE00321204610F0EEFA85
:1016C00009E0204602F06EFC0090783002F07AFBD0
:1016D000684602F03FFD02B02846BDE8F0470FF033
:1016E00057B970B586B0B0F90840458AD0F818C02F
:1016F0000026CDE90254CDE90016CDF810C0B0F9AE
:101700000C10B0F91040B0F90EC0B0F90A0019443D
:1017100010442346624600F003F806B070BD000096
:101720002DE9FF4F85B01D46DDE912A7DDE91589DA
:1017300016468B4604F044F9264C0EB135B10AE04A
:101740002068806800688047064625B92068806860
:1017500000688047054620486FF07041C0688842A5
:1017600008BF47F0010709F154011C48CDE900A763
:10177000CDE902012B463246594605980FF04CF848
:10178000050021D002F00EFC1022414604900EF01C
:1017900045FE241D0499B4E8CD133431A1E8CD13DE
:1017A00094E8CD11A1E8CD1154F8240D41F8700949
:1017B000022081F874000F20C86704A802F0CAFC58
:1017C000206841682846884706F0B4FF09B02846DB
:1017D000BDE8F08F880300208C0300204915010824
:1017E0002DE9F04F0446006889B028B111F089FB5B
:1017F000002808BF012500D00025FE4850F82560CC
:1018000060680A2800F0738108DC002800F0DD81A0
:10181000062841D007280CD000F0E8B9122800F0C3
:101820003081192802BFB06909B0BDE8F08F00F01F
:10183000DDB9256804F0C4F8284602F0B3FB009037
:10184000C76F684602F086FC06F074FF5FF0000583
:1018500056F8250005F059FF2069C119491B4B1E98
:1018600061691A462944284403F082FD6D1C032D4A
:10187000EED3D6E90301CDE90001D4F810C00CEB9A
:101880000700401B431E60691A4641190CEB050016
:1018900003F0DEFB00F0AAB9A068401E06902468A1
:1018A00004F08EF8204602F07DFB0090D0F87C809A
:1018B000684602F04FFC06F03DFFDFF83C9359F814
:1018C0002570002F1CBF069800EB80000DD000BFD4
:1018D000B7F84810414505D107EB8001896809B187
:1018E0001FB1C4E0FF6C002FF2D1502002F0D0FAFB
:1018F000070000F07B81C14C5022002123689847EB
:1019000070697864A7F8488059F82500F864BC48E5
:10191000A8F1060880FB081049F825704110A1EBDA
:10192000E071032008900120049007F14000CDE908
:101930000280069D05EB850007EB8000019005EB1A
:10194000450007EB80002830009008EBD87042106B
:10195000401000EBD073A0EB63004618501A0590BE
:1019600008F10700C11700EB51704FEAE00A0AFBCB
:1019700008FB584602F08CFA5FEA000977D023682A
:101980005A4600219847DDE90420012826DD089BFE
:1019900001213046334483421BDD4FEAE27C02EBF7
:1019A0005C7E02F0070C802424FA0CFC404509DA26
:1019B0000AFB00F404EBEE0419F804B04BEA0C0B3C
:1019C00009F804B06940401C834202DD0029F9D0C7
:1019D000ECE70598521C761C9042D8DC04990298DA
:1019E000401A0490904225DD089901203446314484
:1019F000A1421ADDD31702EB537E02F0070C8023BD
:101A000023FA0CF3444509DA0AFB04FC0CEBEE0C58
:101A100019F80CB04BEA030B09F80CB06840641CD1
:101A2000A14202DD0028F9D0ECE70498521C761E92
:101A30009042D9DC009802210160009901200871D0
:101A4000009A039991600199C88001980021A0F83B
:101A500004A00198C0F8089001980161DDE9000137
:101A6000C860DDE9010101800198A0F802800698B4
:101A7000032200EB800007EB8000114603F01EF903
:101A8000B4E0206802F08EFA0290B0F9547090F839
:101A90005650D0F84490D0F8348002A802F05AFB97
:101AA000266803F08DFF304602F07CFA0390B0F810
:101AB0007C6003A802F04EFB06F03CFE68460FF087
:101AC0004FFABDF8000071190844ADF80000246A0F
:101AD000404605F049FE022005F096FE484605F016
:101AE00014FE3A466946204603F01CF87EE0206862
:101AF00002F058FA0290B0F9548090F85660D0F88D
:101B00003490876C02A802F025FB256803F058FF8B
:101B1000284602F047FA0390B0F87C5003A802F080
:101B200019FB06F007FE68460FF01AFABDF8000030
:101B3000A9190844ADF80000206A03F063FE0446CA
:101B4000484603F08DFE28F00301042904BFBDF8C8
:101B50000610091A08D00C2908D1BDF90610091A77
:101B6000491C01EBD1714910ADF8021028F00C01AD
:101B700001290CD0022913D1BDF90410BDF90020B0
:101B8000891A091B01EBD17102EB610106E0BDF876
:101B90000420BDF80010521A121B1144ADF80010B9
:101BA000BDF80010621E1144ADF80410BDF802101B
:101BB000401E0844ADF80600384605F0A6FD4FF07B
:101BC000FF31684603F0F4F810E0206810F098FB4D
:101BD000206802F0E7F90790B0F90610B0F902208A
:101BE000891A491CC16707A802F0B4FA09B000209D
:101BF000BDE8F08F10D40508880600206805002095
:101C00006766666638B505004FF000040CD003F037
:101C1000D7FE284602F0C6F9009090F87540684655
:101C200002F098FA06F086FD204638BD002808BF6D
:101C3000704738B50C46054603F0C2FE284602F050
:101C4000B1F90090416BA14203D0446328460FF0E4
:101C500075FF684602F07EFA06F06CFD38BD00287C
:101C600008BF704738B50C46054603F0A9FE284664
:101C700002F098F9009090F87410A1420CD980F805
:101C80007540684602F066FA28460FF057FF0521B6
:101C9000284610F003F802E0684602F05BFA06F00E
:101CA00049FD38BD002814BF0029704770B582B0C7
:101CB0000D46044603F084FE204602F073F90190BD
:101CC000866F01A8009602F045FA2946684607F09B
:101CD0005FFF70B10098B04208D0204602F062F970
:101CE00001900099816701A802F034FA20460FF0B4
:101CF00025FF06F01FFD02B070BD000000B589B0E1
:101D000000200090029003900490059006900790A8
:101D1000089019200190044800688068416868466E
:101D2000884709B000BD00008803002000B583B0DB
:101D30000FF04AF90021009103460191034A07215F
:101D4000034802F04DFC03B000BD00004DB1020895
:101D500064E5020800B583B00FF036F90021009168
:101D600003460191034A0321034802F039FC03B002
:101D700000BD000085AC0208DCE3020810B582B0AB
:101D80000FF022F90021009103460191054A0B2131
:101D9000054802F025FC044606F05CFB02B0204634
:101DA00010BD00003DAE020830E40208704700009C
:101DB00000B583B00FF008F90021009103460191AE
:101DC000034A0621034802F00BFC03B000BD0000EB
:101DD00035A3020890E10208002808BF70472DE9EA
:101DE000F04F91B00F46044603F0EAFD204602F0A2
:101DF000D9F8039090F854A0D0F83490866DC56C53
:101E000003A802F0A7F926B139462046B04700F0F2
:101E1000ABB900264FF00108122F7DD006DC082F49
:101E20007BD0102F7AD0112F3CD006E0132F5BD03F
:101E30001D2F00F0E4801E2F71D0202FC0F294815E
:101E4000BAF1000F00F0F280204602F0ABF80590E6
:101E5000D0F834A0D0F84C9005A802F07BF9BAF184
:101E6000000F00F0E380504602F09CF8824649469D
:101E7000069006F033FB81465046FEF730FA48459F
:101E80007DD9D144484606F0D5FA09EB0001484611
:101E9000FEF739FA06A802F05DF9052120460FF099
:101EA000FDFEC3E0B9F1000F00F05E81484602F08C
:101EB00079F807462946049006F010FB0744384697
:101EC00006F0A8FA0546029606F0D2FA8046681C8B
:101ED00086B2304606F0CCFA0546A84526D004A8BE
:101EE00002F038F900F040B9B9F1000F00F03C8180
:101EF000484602F057F807462946049006F0EEFAE5
:101F00000744384606F086FA0546029606F0B0FA0F
:101F10008046681E86B203E016E021E01AE043E046
:101F2000304606F0A5FA0546A845D8D1314602A8A4
:101F300006F05EFA2A4602A93846FEF79DF9052109
:101F400020460FF0ABFECAE7691C204600F052FCA9
:101F500000F00AB9691E204600F04CFC00F004B9FC
:101F6000002D00F00181691E204600F043FC204650
:101F700002F018F80190C76C456B01A800E052E030
:101F800002F0E8F8002D00F0EF80284602F00AF891
:101F900006463946029006F0A1FA05463046FEF79D
:101FA0009EF9A84229D918E0204601F0FBFF0190D4
:101FB000C76C456B01A802F0CDF8002D7ED02846F5
:101FC00001F0F0FF06463946029006F087FA054612
:101FD0003046FEF784F9A8420FD93544284606F06A
:101FE00029FA29182846FEF78EF902A802F0B2F85D
:101FF000052120460FF052FEB6E002A810E0204670
:1020000001F0D0FF0390BAF1010F08BF80F85460CF
:1020100005D080F854802946204600F0EBFB03A849
:1020200002F098F8A0E006A802F094F81FFA87FBE7
:10203000204601F0B7FF07460290B0F938000028AB
:1020400012DD786B4FF0000940B101F0ABFF00905A
:1020500007F0EAFB8146684602F07CF8B7F93810D1
:1020600009F10100884200DC46460298C06C0790E6
:1020700002A802F06FF8002E76D0584606F0F8F964
:10208000074626464FF00008204601F08BFF0B90D4
:10209000406B40B101F086FF0890FEF720F98046C2
:1020A00008A802F057F80B9907EB0800498F401A6F
:1020B00000F101080BA802F04DF800E054E0B8F17F
:1020C000000F2CDD304608F1100801F06BFF009086
:1020D000D0F834A0408F8044684602F03BF8414677
:1020E000504601F073FF5FEA00093DD0BAF1000FDE
:1020F0000AD101F057FF204B0D9042461B6800218A
:1021000098470DA802F026F8304601F04BFF0090EA
:10211000A0F83A80C0F83490684602F01BF82046D8
:1021200001F040FF0290466B02A802F013F830461F
:1021300001F038FF06460F90079906F0CFF90644E4
:102140003046FEF7CCF8421CF0193146FEF794F801
:102150005946304606F04CF90FA801F0FBFF052167
:1021600020460FF09BFDEFE620460FF0E7FC06F05F
:10217000E1FA11B0BDE8F08F6805002070B5456840
:10218000044682B0284610F0BCFE0646214628468A
:102190000DF0E2FE002804BF02B070BD20680F28D9
:1021A00044D004DC0B2847D00E2850D066E0A0F5C0
:1021B0008070133804D0A0F580702D381FD05DE0FA
:1021C00028460FF0BBFE284601F0ECFE009090F888
:1021D000561081F0040180F85610684601F0BAFFED
:1021E0000021284616F0B2FC284601F0DBFE0090E4
:1021F000D0F8840000210FF038FE684624E0E06843
:1022000078B1017A41B10168284600F022F9012134
:1022100028460FF043FD31E0022128460FF03EFD35
:102220002CE0032128460FF039FD27E00121284644
:1022300016F08CFC02B070BD284601F0B3FE019090
:10224000343001F0BFFD01A801F084FF16E0AEB10B
:10225000E0684168002911DD01681B290ED009DC06
:1022600009291CBF0A290D2908D02846FFF7B4FD0B
:1022700002B070BD212918BF2229F6D120460EF0E8
:1022800087FB02B070BD2DE9F04186B00DF130083A
:1022900098E8F0104FF00008CDF814808DE8F010A9
:1022A00000F004F806B0BDE8F08100002DE9FF4F12
:1022B00085B09846DDE91654DDE9126B91468A46F1
:1022C000159F03F07DFB04F16001324A03914BF44A
:1022D00080500096CDE9010243464A465146059892
:1022E0000EF09AFA04004FD001F05CFE102239463D
:1022F00004900EF093F82848049990E8CC1701F167
:10230000600B8BE8CC17006AC1F88000012081F8CF
:102310005500681C18BF012081F88800002DD8BF27
:1023200008252AB20A87002048874863551C04A85C
:1023300001F010FF204601F035FE0090476B408F02
:102340000544684601F006FF2946384601F03EFE86
:10235000060015D057B901F025FE104B01902A4612
:102360001B680021984701A801F0F4FE204601F007
:1023700019FE009045874663684601F0EBFE03E0D6
:1023800020460EF03FFB002406F0D4F909B02046A9
:10239000BDE8F08F7D21010890060020680500202F
:1023A00001488068704700009006002038B504009E
:1023B00008BF38BD03F004FB204601F0F3FD009098
:1023C000846E684601F0C6FE06F0B4F9204638BDBA
:1023D00038B505004FF000040BD003F0F1FA2846A1
:1023E00001F0E0FD0090846C684601F0B3FE06F059
:1023F000A1F9204638BD002808BF7047F8B5164639
:102400000C46054603F0DCFA284601F0CBFD0090AF
:10241000002818BF032C05D200EB840086672846ED
:102420000FF08CFB684601F095FE06F083F9F8BDCD
:1024300070B50D46044603F0C3FA34B12946204670
:1024400000F0D8F920460FF079FBBDE8704006F0A7
:1024500071B9002808BF70472DE9F04186B00C46DD
:10246000074603F0ADFA384601F09CFD0090406B42
:10247000002849D001F096FD03900098806E05F089
:1024800073F9804638460EF0C3FF0646039803F002
:10249000B9F90546009890F8601001F00301012990
:1024A00018D002290FD0416EC06A00680844201A73
:1024B000441E039807F0B8F9002C11DA00213846C1
:1024C00000F098F917E0701B401C00EBD070A4EBF3
:1024D0006004EEE7406E711B081A201A441CE8E7FE
:1024E000A54204DB02462146039807F031F9014674
:1024F000384600F07FF903A801F02CFE404605F0B5
:1025000033F938460FF01AFB684601F023FE06F057
:1025100011F906B0BDE8F0812DE9F8431D46DDE96B
:10252000086714468946804603F04AFAB8F1000F5E
:1025300075D0404601F036FD3B49009081653B492E
:10254000C1650021C0E91291C0E90F4580F84460DF
:1025500080F85670012180F8541090F888906846F1
:1025600001F0F8FDB9F1000F40D0002DA7BF012107
:102570000B460221CB1EB8BF6D422D4A0A2D08DB47
:1025800082FB05C04FEAA00CACEBE075491C0A2D9C
:10259000F6DAB3F1FF3F02BF4B1EB342491C002CD9
:1025A000BDBF02204FF0FF3C64420120A8BF84461B
:1025B0000A2C07DB82FB04439C10A4EBE374401C51
:1025C0000A2CF7DABCF1FF3F02BF431EB342401CA6
:1025D000002E1CBF401C491C17F0010F18BF491CDE
:1025E0008142D8BF0146404600F03CF8404617F013
:1025F000DBFC404601F0D6FC009000F0E5F80D4908
:102600000978884205D10098C06C411C404600F012
:10261000F1F8684601F09EFD40460FF08FFA06F093
:1026200089F8BDE8F883000075370208A99F020801
:102630006766666604010020002808BF704738B549
:102640000C46054603F0BCF9284601F0ABFC0090AF
:10265000846628460FF072FA684601F07BFD06F0AA
:1026600069F838BD002808BF70472DE9F04184B0F3
:102670000C46064603F0A4F9304601F093FC0090A6
:10268000B0F93810458FA14248D012DD406B80B1BF
:1026900001F088FC019007F0C7F8A04206DD214652
:1026A000019805F01BFF019A0021115401A801F0C7
:1026B00051FD684601F04EFD601B451C304601F09F
:1026C00071FC0290D0F83480408F054402A801F0DC
:1026D00041FD2946404601F079FC070016D0B8F1CB
:1026E000000F0AD101F05EFC104B03902A461B68D4
:1026F0000021984703A801F02DFD304601F052FC5F
:1027000002904587476302A801F024FD304601F09E
:1027100049FC0090048730460FF010FA684601F03B
:1027200019FD06F007F804B0BDE8F0816805002047
:10273000002808BF7047F8B516460C46054603F05A
:102740003FF9284601F02EFC0090002818BF032C0A
:1027500005D200EB8400C66628460FF0EFF9684604
:1027600001F0F8FC05F0E6FFF8BD38B505000C46B1
:1027700008BF38BD03F024F9284601F013FC00908F
:10278000C16BA1421CDC016CA1421BDB816CA1422C
:1027900010D08464C16D00291CBF28468847284694
:1027A0000FF0CCF9684601F0D5FC052128460FF062
:1027B00075FA02E0684601F0CDFC05F0BBFF38BDBC
:1027C0000C46E0E70C46E1E738B50546406B0024CF
:1027D00068B101F0E7FB00900446E96C05F07EFE6D
:1027E000204405F017FE0446684601F0B3FC20467D
:1027F00038BD000010B582B00C4601F0D3FB00904C
:10280000406BE8B101F0CEFB019007F00DF80099A4
:1028100091F85420002A18BF0122002C15DB8442B5
:1028200015DC00BFB1F93800801AA04211DBC86C7A
:10283000A04218BFCC640020086501A801F08AFC02
:10284000684601F087FC02B010BD0024E7E70446AB
:10285000E8E7B1F93800841AE9E70000064A13688E
:1028600023F44073136013681360136843F001038B
:102870001360017070470000103C02400A49D1F813
:1028800000C02CF4407CC1F800C0D1F800C04CF46A
:10289000407CC1F800C0D1F800C04CF0010CC1F878
:1028A00000C0026043607047103C0240074A136852
:1028B00023F440731360136843F480731360136848
:1028C00043F001031360018070470000103C024098
:1028D000074A136823F440731360136843F40073CA
:1028E0001360136843F00103136001607047000038
:1028F000103C02401A49086810F0100F194805D022
:10290000C26942F01002C26110220A600A6812F025
:10291000200F05D0C26942F00802C26120220A607D
:102920000A6812F0400F05D0C26942F00402C26189
:1029300040220A600A6812F0800F05D0C26942F096
:102940000202C26180220A600A6812F0020F05D0FA
:10295000C26942F02002C261022008607047000094
:102960000C3C02400009002070B5044614490020C8
:10297000C86107F04FFC0646124D286810F4803FEE
:102980000ED0B4F1FF3F07D024B107F043FC801B09
:10299000A04201D9032070BD286810F4803FF0D117
:1029A000286810F0010F01D001202860286810F07D
:1029B000F20F03D0FFF79EFF012070BD002070BD15
:1029C000000900200C3C024030B4B3F5804F06D023
:1029D0006FF0704140F8221030BC0020704750F872
:1029E0002230DFF82CC003EA0C03D1F800C04C6899
:1029F0008D894CEA041C8C688969240244EA0544E8
:102A00004CEA040C4CEA0101194340F82210E3E7B8
:102A10000000F0CF70B40B6850F82320DFF84CC0F2
:102A200002EA0C0C4C688A680E69CD681443354381
:102A30002C434D692C438D692C43CD692C430D6A81
:102A40002C434D6A2C438D6A2C43CD6A2C43CD6BAD
:102A5000096B2C43214341EA0C01082A01D141F0C2
:102A6000400140F8231070BC002070478000F0FF48
:102A700030B4521C50F8223003F04043D1F800C06B
:102A80004C688D894CEA041C8C68240244EA054495
:102A90004CEA040C0C8A641E4CEA045C0C7D8969C7
:102AA000A41E4CEA046C4CEA0101194340F82210C0
:102AB000002030BC704700002DE9F84F0F46DDF8CC
:102AC00028900646941BA3EB0708D9F800504FF056
:102AD000000A54EA080063D0002CD4BF60422046AC
:102AE000B8F1000FCCBF4146C8F1000188420ADAB4
:102AF00020464446804630463E46074610461A4623
:102B000003464FF0010A002CCCBF20466042A04291
:102B100008BF012008D03046164602466442C8F17C
:102B200000081F464FF0FF300090C448C449B8F178
:102B3000000FD0F800C01CBF04EBD4724FEA620B48
:102B4000B8BFCBF1000B30D09CF81A20002A00F05F
:102B5000FA80009A002ABCBF2A19C9F80020002573
:102B6000002CC0F2458100BF08FB05B090FBF4F0DB
:102B7000C219D9F8001000980844B049C9F80000FB
:102B800009688B7E012B00F00081022B00F0078189
:102B9000032B00F00D81042B00F03A8100F019B9ED
:102BA0003046BDE8F84F00F08DBABAF1000F62D0A0
:102BB0009CF81AC0BCF1000F14D04FF00008002C94
:102BC000A4BF8A46834640DBDBF8001028466D1C14
:102BD0008A7E012A0CD0022A14D0032A1BD0042A90
:102BE00035D027E031463846BDE8F84F09F014BB30
:102BF000801DC21700EB127222F00F02801A0C28FF
:102C00001FDB17E0C21700EB927222F00302801A5A
:102C1000022816DB0EE08AFB0032D310A3EBE2722F
:102C2000524202EB820200EB82000C2809DB1038D2
:102C3000022806D3496E06EB08004A68014638466A
:102C4000904708F10108A045BEDD681EDCE07D4A22
:102C500082FB00329310A3EBE272A2EB820200EB44
:102C6000C2000C28EDDBA0F11002022A24BF1438A8
:102C70000228E6D3DEE79CF81A80B8F1000F14D0E2
:102C80004FF00008002CA4BF8A46834642DBDBF8E5
:102C9000001028466D1C8A7E012A0FD0022A17D008
:102CA000032A1ED0042A3AD02AE0DCF86400394610
:102CB000036801B03046BDE8F04F1847801DC217C9
:102CC00000EB127222F00F02801A0C281EDB17E0B4
:102CD000C21700EB927222F00302801A022815DB61
:102CE0000EE08AFB0032D310A3EBE272524202EBF9
:102CF000820200EB82000C2808DB1038022805D382
:102D0000496E06EB08004A683946904708F1010809
:102D1000A045BCDD681EC9F80000BDE8F88F494A2F
:102D200082FB00329310A3EBE272A2EB820200EB73
:102D3000C2000C28EADBA0F11002022A24BF1438DA
:102D40000228E3D3DCE70025002CACBF8146BDE8B8
:102D5000F88F00BF08FB05B090FBF4F03844BAF1DF
:102D6000000F0AD0D9F800207119526E52689047AE
:102D70006D1CA542EEDDBDE8F88FD9F8001073197F
:102D8000496E4A6801461846F1E7801DC31700EBFB
:102D9000137323F00F03C01A0C2825DB19E0C317A7
:102DA00000EB937323F00303C01A02281CDB10E02E
:102DB000234B83FB00C34FEAE30CACEBE3735B42B2
:102DC00003EB830300EB83000C280DDB1038022893
:102DD0000AD3496EBAF1000F06EB05004B680EBF2F
:102DE00011460146104698476D1CA5427FF7BCAEC0
:102DF0000098002804DAD9F800002044C9F800003F
:102E0000D9F800100098081AC9F80000BDE8F88F3A
:102E10000C4B83FB00C34FEAA30CACEBE373A3EBB7
:102E2000830300EBC3000C28DEDBA0F11003022BB0
:102E300024BF14380228D7D3CBE7000018010020A4
:102E400067666666ABAAAA2A2DE9F047DFF86892A2
:102E5000804684B0D9F800000F460C99007E1D46CC
:102E60001646012800F0CE80A8EB060C7C1B5CEA1D
:102E7000040104BF04B0BDE8F087421E0021BCF18C
:102E8000000FBCBF0121CCF1000C002CBCBF41F0F5
:102E900002016442644504DD20466446844641F0F4
:102EA0000401A0020CEBDC7300EB630090FBFCF070
:102EB0008010824C4FEA201C00F00F0034F81C30C8
:102EC000C0F1100013FB00F3102807D004EB4C0CEA
:102ED000C0F11000BCF802C01CFB003303F1080075
:102EE000C31700EB1370001111F0040F18BFC0F5E9
:102EF000806011F0010F18BFC0F5006011F0020FE3
:102F000018BFC0F5805000F5806100F50060C0F387
:102F10000B004FF0000AB0F5006FC4BF4FF0010A7C
:102F2000A0F50060B0F5806FC8BFC0F500604FEA43
:102F3000A01C634B00F03F00C0F1400033F81C4080
:102F40004443402818BFBCF1100F07DA03EB4C0CC8
:102F5000C0F14000BCF802C00CFB004404F12000AA
:102F60008009BAF1000F18BF404200FB02FC0024A8
:102F7000C1F30B00B0F5006FC4BF0124A0F50060E1
:102F8000B0F5806FC8BFC0F50060811100F03F0050
:102F9000C0F1400033F811A040280AFB00FA18BF26
:102FA000102906DA03EB4101C0F14000498801FB1A
:102FB00000AA0AF120008009002C18BF404200FB43
:102FC00002F1BCF1000FB4BFCCF500700CF500703D
:102FD0004FEAA020B8BF40420029BDBFC1F5007133
:102FE0008912C1F1000C01F50071A8BF4FEAA12CB4
:102FF00000280FDD411C01EBD171491000EBD070AE
:1030000042100EE0009139464046FFF755FD04B0EE
:10301000BDE8F08700EBD071401E491000EBD07086
:103020004210BCF1000FC6BF0CF1010000EBD070E4
:103030000CEBDC704FEA6000CEBF0CEBDC73ACF144
:10304000010303EBD3735B1008EB010CADF800C078
:1030500007EB000CADF802C0A8EB020CB21AADF8F9
:1030600004C0ADF808203144A7EB030CEA1AADF810
:103070000C102844ADF80A20ADF80E000023ADF87E
:1030800006C01A460421684600F08EF8D9F80020E0
:1030900040463946527E002A08BF00F013F83046F9
:1030A000D9F800202946527E002A08BF00F00AF80D
:1030B00004B0BDE8F08700001801002076D40508B0
:1030C00054D40508064A13681A7E012A05D0521EF8
:1030D00002EBD272521000F005B85A6E52681047D7
:1030E000180100202DE9F84F06460F4640F2C32094
:1030F00050434FF47A7190FBF1F000F1010A02FBAA
:1031000002F002EBD271DFF89C8000EB61000090CE
:10311000D8F8001014463244496E301B0B6839460B
:1031200098470125BAF1010FB8BFBDE8F88F00BF7D
:1031300005FB05F004FB0400009988421ADD5445A4
:1031400017DDD8F8003006EB050BA6EB05095B6E22
:10315000ABF1010239191B6809F101009847D8F851
:103160000030ABF10102391B5B6E09F101001B68F5
:103170009847641ED8F80030321979195B6E301BFD
:1031800093461B6881469847D8F800305A46791B09
:103190005B6E48461B6898476D1CAA45C8DABDE8B7
:1031A000F88F0000180100202DE9FF4F83B007467B
:1031B00043F6FF74C4F1000090460E1E0090C4BF99
:1031C000BA1C08460EDD00BFB2F90010A142D8BFFC
:1031D0000C46009B9942D8BF19460091401E02F14F
:1031E0000402F1D18C490868406970B1B0F9063029
:1031F000069A9B1A009A9342C0F20281B0F90230FB
:10320000069A9A1AA24200F3018100988442D2BF22
:10321000A6F1010907B0BDE8F08F00207F490546FF
:10322000002E0860C4BF069804EB000A7EDD4D4501
:10323000B4BF6A1C002207EB850C07EB8201BCF9C6
:103240000200B1F90230A04255D1A34213D137F99F
:103250002500514600EB080337F922006E4A40442E
:1032600083421268526ED2F800C0BABF02461846B6
:103270001A46E04787E000222946B9F1000F0CDD2D
:10328000002914BF491E711E07EB8100B0F902002E
:10329000A04203D1521C4A45F2DB2046A04272D024
:1032A000001B37F925101A1B90EA020F09D45A4A5D
:1032B00001EB080051461268526E136802469847A7
:1032C00061E0DFF858B1DBF800C0BCF10C0F5ADA4E
:1032D0000020BCF1000FC4BF6046514A4CDD00BF66
:1032E00002EB400333F9023C8B4245DB22F81030FD
:1032F000401EF5D140E0A34245D0A8BF844203DA86
:10330000A042A8BF9C423EDB98424EDC0246A0424F
:10331000DFBF18468442BCF90030B1F9001032DC3E
:10332000A1EB030CA11A0CFB01F100E02FE0002936
:10333000A0EB020CCEBF01EB6C01A1EB6C01491CB0
:10334000801A91FBF0F0DFF8D4B0C118DBF800C0B0
:10335000BCF10C0F17DA0020BCF1000FC4BF6046AF
:103360002F4A09DD02EB400333F9023C8B4203DBB9
:1033700022F81030401EF5D1294A22F810100CF125
:103380000100CBF800006D1CB542FFF650AF069867
:103390000025204401902148AB4601680029C4BFA4
:1033A0001F49B1F900A022DD18E01A46A342DEBF92
:1033B0008442B1F90030BCF90010B1DDE3E71849EF
:1033C00031F91BA055B108EB000C134808EB0A02B9
:1033D00001990068406E0368604698470F490BF1F9
:1033E000010B85F00105096850465945E7DC009856
:1033F000641C84427FF711AF07B0BDE8F08F00BFB7
:10340000B0F90630069A9A1A0092F7E6B0F902204F
:103410000698141AF9E6000018010020740800202C
:10342000FCED012070B52048046802F0C9FA20467E
:1034300009F004FB05F07EF91C48046802F0C0FAAC
:10344000204609F035FB05F075F9012502F0B8FAC0
:10345000174C2068057605F06DF902F0B1FA206886
:103460000025858505F066F902F0AAFA20684585F1
:1034700005F060F902F0A4FA284609F031FB05F0E6
:1034800059F90C48056802F09BFA2068002D18BF16
:10349000C56105F04FF9002502F092FA20688576A3
:1034A000BDE8704005F046B914010020100100206D
:1034B000180100200C01002070B50C46054600F0F4
:1034C000FBF8A8682168C16261680163A168416373
:1034D00011F0040F07D0D0E90021C0E90012D0E9B3
:1034E0000221C0E90212A189818421690029B8BFA3
:1034F000002118BF016270BD2DE9F0411E4617463C
:103500008846044600F0D8F8A5686822414605F5CB
:103510008A70FCF7B1FE2046B8472046B0472069C4
:1035200080688047A862BDE8F081000010B50446BD
:1035300000F0C2F8A0681049134AC0F8AC100F4957
:10354000C0F8A8100E49C0F8B0100E49C0F8B81065
:103550000021C0F8BC101368C0F8B4300B4BC0E9B0
:1035600033315168C0F8C810C18C21F00301C18407
:103570000749C0F8941010BD799B02089D9D020870
:103580003D9B02089B940208F40100203596020836
:10359000CD9A020810B5044600F08EF8A4681048D1
:1035A0001021C4F8EC000F48C4F8F0000E48C4F82D
:1035B000F4000E48C4F8F8000D48C4F8A0000D4807
:1035C000C4F8A400D4F8C800C4F80401D4F89420C6
:1035D000204690471020A0630748606410BD00009B
:1035E000FD490208D5720208FD350108353701088A
:1035F0003D940208BDA0020874D30508F8B584689C
:1036000015460F4694F8260010F0020F48D0D4F863
:103610000831204698470646D4F80C312A463946E8
:1036200020469847D4F8983005461BB10022012166
:10363000204698472069B042CCBF01200020A169F4
:10364000B142B4BF0121002108436169A942CCBF46
:10365000012100210843E169A942B4BF01210021F1
:1036600008430AD06068401E00902068D4F8A8C0C3
:10367000431E002211462046E047D4F8AC302A46CB
:10368000314620469847D4F8A01020468847D4F801
:10369000983005466BB1012200212046984708E08A
:1036A000D4F8AC3020469847D4F8A010204688477C
:1036B00005462846F8BD000010B50446806800287D
:1036C00018BF10BD4FF4BE7000F0E2FB084BA060C5
:1036D0004FF4BE721B6800219847A0680221C18484
:1036E0000121046401620349C0F8101110BD0000FB
:1036F00068050020F93601082DE9F0010C4991B068
:10370000B1E8FC118DE8FC1191E8FE100DF12008E4
:1037100088E8FE10416B5DF82120C0F8082108AA56
:1037200052F82110C0F80C1111B0BDE8F00170473B
:10373000F8E704082DE9F84384681F46154694F815
:103740002600884610F0020F35D0D4F80831204604
:1037500098470646D4F80CC12A4641462046E04721
:1037600005462069B042D4BF00200120A169B142C2
:10377000B4BF0121002108436169A942CCBF0121E6
:1037800000210843E169A942B4BF01210021084397
:103790000AD06068401E00902068D4F8A8C0431E7C
:1037A000002211462046E047D4F8AC302A46314684
:1037B0002046984703E0D4F8AC3020469847D4F828
:1037C000A42001B039462046BDE8F0431047000070
:1037D0002DE9F04F4B4989B00968B1F922200692D2
:1037E000D1F81CC0B1F92470DCF81C40A2898242D7
:1037F0009CBFE389984205D8A0EB02094FF0FF383F
:10380000266812E0D4E90162002A71D0138883424D
:103810009CBF5588A8426BD8C01A526880B202EB90
:103820008000B0F90090B0F90280B9F1FF3F5FD09D
:103830009CF81800A27C10FB02FB94F810A00790E3
:10384000B1F92A50284609F04BF9C0B208902D482A
:1038500009FB0B620068A37C4FF00109816BCDE985
:103860000293CDE90421C0695246C17E807ECDE934
:103870000001DDE90603394608F024FBB8F1FF3FFB
:1038800018D045F0020009F02BF91E48A37C08FB74
:103890000B620068816BCDE90293CDE90421C06918
:1038A0005246C17E807ECDE90001DDE9060339463E
:1038B00008F008FB134E3068C069417E007E8142EB
:1038C00013D9022D11D085F0040009F009F93068F0
:1038D000C069017EC27E11FB0271427ED319827ED5
:1038E00006981AFB020208F0C9FC089809F0F8F8DB
:1038F0000448627C0068418C1144418409B0BDE8F1
:10390000F08F000018010020044800290068C069F9
:10391000C0691CBF027C0A60407C7047180100200F
:10392000022008807047C06982898A429CBFC28990
:10393000914210D9806880B102888A429CBF438836
:1039400099420AD8406800EB8100A0EB8200B0F9F0
:103950000000002801DB01207047002070470000B4
:103960002DE9F043394D024687B02868B0F92A6046
:10397000C069C1691046002904BF07B0BDE8F083E3
:103980000B8883429CBF4B88984205D989680029DF
:10399000F6D107B0BDE8F083002904BF07B0BDE849
:1039A000F08348680988511A00EBC1043046A778B3
:1039B00009F096F88046286862680123816BCDE99A
:1039C0000237CDE90421C169CB7E8A7ECDE900238F
:1039D0000B7EB0F924102278B0F9220008F072FAB8
:1039E0002868C069417E027E91421FD9C07E11FBCA
:1039F00000F912FB00F7022E18D001F0A4FE0646D3
:103A000001F06AFE03F081FE29682278CB69B1F9E2
:103A10002200DB7E12FB0302B1F9241001EB090343
:103A2000394408F02BFC304603F06FFE404609F0A5
:103A300057F828686278C369B0F922109B7E12FBA0
:103A40000311418407B0BDE8F08300001801002095
:103A500010B4044615480068D0F81CC02046DCF8B5
:103A60001C2002B3138883429CBF5388984203D919
:103A70009268002AF6D116E0AAB110885368221A7B
:103A8000012000EBC2009CF81AC0185C10FB0CF07F
:103A9000002904BF10BC704713F8322012FB0CF24F
:103AA0000A6010BC704710BC00207047180100204D
:103AB000012008807047C06968B102888A429CBFB3
:103AC0004288914203D980680028F6D103E000289B
:103AD0001CBF012070470020704700002DE9F0470F
:103AE000DFF8A480DFF8A4A04FF00009D8F8084060
:103AF000002CC4BFD8F8106000251DDDD8F81000D8
:103B0000C5EB051700EBC7007022001DDAF80010A6
:103B1000FCF7B2FB46F8789BD8F8100005F10105D8
:103B200000EBC70000F10C018161011D0A1DC0E915
:103B30000F124164641EE1D1D8F808000024002867
:103B400010DD00BF04F011FED8F81020C4EB041102
:103B500052F83110814206D081B1D8F80800641CB7
:103B60008442EFDB4C46D8F81010C4EB041001EB94
:103B7000C000001DCAF80000BDE8F087C4EB0411C6
:103B800042F83100EFE70000B805002018010020DE
:103B900070B51B4919480860084605F0F1FF194C3B
:103BA000A068C0EB0010C500284600F071F9164B64
:103BB00020612A461B68002198474FF0FF302060A3
:103BC00004F0D8FDA06800250028D8BF70BD00BF54
:103BD00004F0CBFD2269C5EB051152F8311081428A
:103BE00008BF70BD21B16D1CA0688542F0DB70BDBF
:103BF000C5EB051142F8310070BD0000698902086B
:103C0000CC050020B805002068050020002904BF6D
:103C1000002070472DE9F0410F46804601F0D0FEAC
:103C200001F0CEFE38460FF0CBFF044604F082FDD3
:103C3000002C2FD01A4D3A46E869401CE861686BA9
:103C400000EBC4000178491C01700421686B01EB92
:103C5000C401B8F1000F405800F1080605D0114B1F
:103C6000414630461B68984704E00F4B0021304620
:103C70001B68984756F8081C686B00EBC100017878
:103C8000022904D3E96900291CBF491EE9610178B2
:103C9000491E017004F04EFD2046BDE8F081000091
:103CA00038EB01206C05002068050020002808BFC3
:103CB000704710B5044601F083FE20460FF080FFE8
:103CC000044604F037FD204610BD00002DE9F04108
:103CD000074601F075FE002F08BF002430D001F028
:103CE0006FFE38460FF06CFF044604F023FD002CF5
:103CF00026D0164D164B3A46E869401CE861686BC1
:103D000000EBC4000178491C01700421686B01EBD1
:103D1000C4011B684058002100F10806304698474E
:103D200056F8081C686B00EBC1000178022904D327
:103D3000E96900291CBF491EE9610178491E01702B
:103D400004F0F8FC2046BDE8F081000038EB0120CB
:103D500068050020024A106021F00300506070479F
:103D6000F8EB0120002808BF704770B5044601F049
:103D700027FE0C4D042000EBC406696B8959486886
:103D80000FF09AFC6868401C6860696B686A88512B
:103D9000696B002001F834006C62BDE8704004F0EB
:103DA000C9BC000038EB0120002808BF7047044A56
:103DB000D16B0160002918BF4860D06370470000D4
:103DC00038EB01202DE9F041064601F0F9FD346899
:103DD0000027C4B101F0F4FD0D4D042000EBC40830
:103DE000696B51F8081048680FF066FC6868401C61
:103DF0006860696B686A41F80800686B00F83470A5
:103E00006C6204F097FC3760BDE8F04104F092BCAE
:103E100038EB01202DE9F05F0F1E81464FF00005C1
:103E2000C6BFDFF868804FF0000ABDE8F09F00BF12
:103E300009EB850601F0C4FD3468F4B101F0C0FD62
:103E40000420D8F8341000EBC40B51F80B1048686C
:103E50000FF032FCD8F80400401CC8F80400D8F871
:103E60003410D8F8240041F80B00D8F8340000F8DA
:103E700034A0C8F8244004F05DFCC6F800A004F0AB
:103E800059FC6D1CBD42D3DBBDE8F09F38EB01202F
:103E90002DE9F041044614F0B3FAE01C274E20F05F
:103EA0000300051D306CA84288BF0546F46BBCB109
:103EB00054F8041CA94210D19CB1206800281CBFF2
:103EC00061684160606800281CBF21680160F16B77
:103ED000A14204BF2068F0632DE02468002CE7D1E4
:103EE0000024F168B06B00EB010858F8040CA8EB53
:103EF0000007386840B1002015F03EFC58F8040C6B
:103F0000A8EB00073868B0B97868A84213DB3844DA
:103F1000401B041D384615F001FCF068401BF060A2
:103F20007069284470617868401B1CBF39460FF0E7
:103F3000C3FB44F8045C2046BDE8F08138EB012067
:103F400010B5002414F05CFA0D490F2001EBC002FB
:103F5000526C8AB101EBC000406C806848B1416886
:103F6000A14288BF0C46806800281CBF80680028DA
:103F7000F5D1A4F10C0010BD401EE7D5F9E7000013
:103F800038EB0120002140B10549042202EBC000BA
:103F9000496B08584068A0F10C01084670470000C2
:103FA00038EB01200849CA69521CCA614A6B02EB0E
:103FB000C00213785B1C1370496B042202EBC00033
:103FC000085808307047000038EB01202DE9F05FF9
:103FD0000E0005464FF0000808BF474674D001F0B8
:103FE000EFFC30460FF0ECFD074604F0A3FB002F7A
:103FF00018BF002D68D0364C4FF0040909EBC50AF4
:10400000606B50F80A004068A0F10C00B042B8BFE5
:10401000064601F0D5FCE0692E4B401CE061606B68
:10402000324600EBC7000178491C0170606B09EB58
:10403000C701415800EBC50001F1080BE169491CBB
:10404000E1610178491C0170606B1B6850F80A003F
:1040500000F108094946584698475BF8081C606B10
:1040600000EBC1000178022904D3E16900291CBFDB
:10407000491EE1610178491E017059F8081C606B06
:1040800000EBC1000178022904D3E16900291CBFBB
:10409000491EE1610178491E017001F091FC606BDD
:1040A00050F80A1048680FF007FB6068401C606019
:1040B000616B606A41F80A00606B00F835806562E8
:1040C00004F038FB04F036FB3846BDE8F09F0000F2
:1040D00038EB01206C05002010B501F071FC0024C4
:1040E00014F08EF9194B1A490F2000BF01EBC002E2
:1040F000526CE2B101EBC000406C8068C8B142680C
:10410000A24288BF1446806800281CBF806800282F
:10411000F5D1A4F10C00B0F5800F0DD983FB002080
:104120004211096AA2EBE07000FB01F409E0401EB5
:10413000DCD5A4F10C00F1E7096A4843A3FB0010A9
:10414000440904F0F7FA204610BD00001F85EB512A
:1041500038EB01200A4902684B6B52F8082C03EB3C
:10416000C2021378022B04D3CB69002B1CBF5B1E49
:10417000CB611178491E117000210160084670471B
:1041800038EB01200349042202EBC000496B0858B8
:104190000830704738EB01202DE9F0414FF0000660
:1041A00082B00B465FEA000834462BD032B111468C
:1041B0001846FFF72BFD060008BF01244046FFF715
:1041C000F1FE0090078845686846FFF7C3FFCCB949
:1041D000B800011D2846FFF7F9FE050016D0FFF7CD
:1041E000E1FE019040F8276001A8FFF7B3FF4046C9
:1041F000FFF7D8FE009045600188491C01806846A1
:10420000FFF7A8FF02B02046BDE8F0813046FFF777
:10421000A9FD0124F6E70820FFF758BD002808BFD4
:10422000704730B583B00546FFF7BCFE009040688C
:10423000D8B1FFF7B7FE019000980024008800284D
:1042400009DD019800EB8400FFF7BCFD0098641CB9
:104250000088A042F5DC01A8FFF77CFF0098001D54
:10426000FFF7B0FD0099002008806846FFF772FF55
:104270002846FFF777FD03B030BD38B5002430B1D4
:10428000FFF790FE009004886846FFF763FF204622
:1042900038BD30B583B00D460024B8B1FFF782FEBB
:1042A00000900188A9420ED9406860B1FFF77AFEFC
:1042B000019050F8255001A8FFF74CFF280002D0CC
:1042C000FFF770FE04466846FFF744FF03B0204640
:1042D00030BD70B50C46054601F0BEFBC1B22346A9
:1042E0002846BDE870400022AFF300802DE9F001C0
:1042F0002D24D3F800C0B0F1004F34D000250028A1
:10430000A8BF4FF0000C07DA0CF101061E608CF814
:10431000004040424FF0010CA1EB0C01C9B2002A51
:104320001CBF491EC9B200291CBF234F234E3DD0DC
:104330008C46491EC9B2944508D1D3F800C03C78D8
:104340000CF10108C3F800808CF8004056F82140B9
:1043500090FBF4FC0CF0FF0CBCF10A0F26D80CFB10
:10436000140081B909E00CF1010601251E606FF00F
:1043700000408CF80040491ED0E7002D1CBF0CF116
:10438000010C0CF0FF0CBCF10A0F03D1491C4FF0DB
:10439000010CC9B20CF13004D3F800C000290CF1B3
:1043A0000108C3F800808CF80040C1D119680020D2
:1043B0000870BDE8F0017047040100205CE70408C4
:1043C0000028D8BF70472B230A6802F1010CC1F8FE
:1043D00000C01370096800220A70704770B5144657
:1043E0000D46064601F0ECFA204601F0B9F903004B
:1043F000164804EB840109D050F821004168806818
:10440000711A2A1A184603F0BFF91AE000EB81046A
:10441000A268B24214BF01220022E368AB4214BF7B
:10442000012300231A430CD0236943B150F8210023
:10443000816840686A1A311A184602F0E3FDC4E93F
:104440000265BDE8704004F075B90000A4ED0120DC
:10445000C2B2CBB2D21A48BF524292B202FB02F3AE
:10446000C0F30722C1F3072CB2EB0C0248BF524243
:1044700092B2000CA0EB114002FB023200B2002805
:10448000BCBF404200B280B200FB00207047000079
:104490002DE9F041002182B0084601F0F7F943F61A
:1044A000FF76374601F08CFA042008F019FB8046AD
:1044B00012484069C16C006D8D1B841B0E4407447B
:1044C000ADF80050ADF80460ADF80240ADF80670EC
:1044D00068460EF05DFB48B13B4632462146284611
:1044E00007F0CCFE0EF066F90028F5D1404608F042
:1044F000F7FA04F01FF902B0BDE8F08104010020D2
:104500002DE9F04182B01C4617460D46064601F0E3
:1045100057FA042008F0E4FA804613484169C86C51
:10452000096D064407440D440C44ADF80060ADF835
:104530000470ADF80250ADF8064068460EF028FB56
:1045400048B123463A462946304607F097FE0EF01A
:1045500031F90028F5D1404608F0C2FA04F0EAF833
:1045600002B0BDE8F0810000040100202DE9F04117
:1045700082B0B0F90050B0F90240B0F90460B0F96F
:10458000067001F01DFA042008F0AAFA80461348CC
:104590004169C86C096D054406440C440F44ADF8EC
:1045A0000050ADF80460ADF80240ADF80670684602
:1045B0000EF0EEFA48B13B4632462146284607F057
:1045C0005DFE0EF0F7F80028F5D1404608F088FAB5
:1045D00004F0B0F802B0BDE8F08100000401002052
:1045E0002DE9F8431C00DDE9089816460F460546FC
:1045F00002D10CF0E9FC04460096D5F800C0434611
:104600004A4621462846E047061E08BFBDE8F88313
:104610000CF0CDFC8146698A30460BF068FD3046CF
:104620000DF031FF48460DF02EFF7F1E002FC8BF52
:104630004FF000080FDD00BFCDF8008055F81CCF0B
:1046400000231A4649462846E04718B30DF01BFFE1
:104650007F1E002FF0DC1D2148460DF0B7FCB4F1A1
:10466000FF3F14D001F0ACF90CF036FD40B100BFB3
:10467000FFF788FD8469B44218BF5FEA0400F7D1F0
:10468000B4421CBF30460DF0B9FD04F053F830467B
:10469000BDE8F88330460CF0B5F90020BDE8F8839A
:1046A000022BA4BF002070472DE9F04106461C46AE
:1046B00015460F461C20FFF7EBFB002808BFBDE89E
:1046C000F081002F18BF07610BD10A4A52F824105D
:1046D00039B10A681AB111461268002AFBD109697A
:1046E000016184618582002101604160C0E9021698
:1046F000BDE8F081440100202DE9F04100241D4671
:10470000074688461646022B27DA1C20FFF7C0FB17
:1047100018B3B8F1000F18BFC0F810800BD1104AC1
:1047200052F8251039B10A681AB111461268002AE8
:10473000FBD1096901618561868204604460C0E93A
:104740000247040009D000F011F8E068006820B9C1
:104750000448006800EB850084652046BDE8F081D0
:104760004401002018010020FFF71EBB00281CBFD9
:104770008369022BA4BF01207047234A591C92F879
:1047800000C08C45B8BF117010B4204C54F82310F1
:10479000002908BF44F8230030D04A682AB11146E6
:1047A0005268002AFBD100292BD0C268D2F800C081
:1047B000CA681268624503DD09680029F8D120E063
:1047C000F9B1CA681268624504BF828A012A08D119
:1047D0000A682AB11146D26812686245F8DA00E028
:1047E00079B14A68002A1DBF10604A68426044F8E7
:1047F00023004860884208BF0021016010BC0020EF
:10480000704710BC012070476A010020440100205D
:10481000002808BF704770B4244D254CD0F800C064
:1048200000281CBF8669022E3ADA2A78711C8A4257
:10483000B8BF297054F82610002908BF44F8260094
:104840002ED04A6822B111465268002AFBD139B3F2
:10485000C2681268CB681B68934203DD09680029AF
:10486000F8D11DE0E1B1CB681B68934204BF838A95
:10487000012B08D10B682BB11946DB681B689342EA
:10488000F8DA00E061B14A68002A1DBF10604A688A
:10489000426044F826004860884208BF0021016059
:1048A0005FEA0C00BAD170BC704700006A010020BA
:1048B000440100200D4B8269002153F822C0844539
:1048C00007D1D0F800C043F822C00268002A18BF00
:1048D00051604268002A1CBF036813600268002A06
:1048E0001CBF436853600160416070474401002071
:1048F0000020704702280BDA064A52F8200038B12F
:10490000C26812688A4208BF704700680028F7D161
:1049100000207047440100200228A4BF00207047F7
:10492000064951F82000002808BF7047C16809688F
:1049300000291CBF00680028F8D1704744010020FE
:10494000F8B516460F4605004FF0000414D00C20B1
:10495000FFF7BCF904000FD001F032F82046FFF752
:1049600021FB06490090C0E9001507814681684691
:10497000FFF7F0FB03F0DEFE2046F8BD18D4050873
:10498000002808BF70472DE9F8431E4617468846A1
:104990000446FFF707FB0090006805686846FFF7CC
:1049A000D9FB33463A4641462046A847BDE8F8833E
:1049B000002808BF70472DE9F04F83B0054600F08E
:1049C000FFFF00F0D7FE3C4C80462068B0F9227013
:1049D00000F024FF82462068818CA1EB0A018184CB
:1049E0002878002818BFA8F1010946D047F6FF71C2
:1049F000284604F0F7FE83460146284604F0B8FE38
:104A00002168064691F82C0000F00300012808BF39
:104A1000304605D0022812BF002006EBD6704010A9
:104A20004A8C101A4884ADF80000721E1044ADF88C
:104A30000400888CADF802004844ADF806006A46D0
:104A40005946284604F0E8F82168BDF80200888439
:104A50005946284603F042FD054428780A2818BF25
:104A60000D2817D0BDF8000021683044488428780C
:104A700018B115F8010F0028B8D12068818C514475
:104A80008184818D21F00301818503F053FE03B001
:104A9000BDE8F08F206890F82C1001F00301012987
:104AA0001DBF0229018C4184478429780A29DED15F
:104AB000818C41448184DAE71801002070B51446E6
:104AC0000D46064600F07CFF0548016830464D84DF
:104AD0008C84FFF76DFFBDE8704003F02BBE000033
:104AE000180100202DE9F0410D4F064615463868A3
:104AF0000C46B0F92C0040F0020002F075FE804632
:104B000000F05EFF3868448485843046FFF750FF2C
:104B100003F010FE4046BDE8F04102F065BE000023
:104B2000180100202DE9F04182B006000D4617461D
:104B300047F6FF784FF0000404BF02B0BDE8F081F3
:104B400000F03EFF65B128460DF060FC040007D080
:104B500002462946684604F0BEFE68460DF056FC43
:104B600043463A462946304604F048F920460DF0BF
:104B70004DFC03F0DFFD02B0BDE8F081002808BF66
:104B800070472DE9FF4F87B093460E46054600F06B
:104B900017FF3468776821B238B2401A401C02907F
:104BA00000F0E8FD82461BF00C0F2FD00298019018
:104BB0000A98A8464FF00009009000F001FFDDE9D7
:104BC0000021404605F046F88044002818BF09F14E
:104BD0000109F4D103F0AEFD0BF00C00042818BF5E
:104BE000082802D00C2805D010E0381409FB1A0060
:104BF000401C09E02114C1EB274009FB1A00401CAE
:104C000000EBD07001EB600060F31F4430460DF004
:104C1000FDFB5FEA000909D0CDE9044702463146B1
:104C200004A804F058FE04A80DF0F0FBAAF1010856
:104C300028460A9A029905F04FF8039008EB2440A1
:104C400060F31F47CDE900472846039904F090FD23
:104C50001BF0030108BF30880ED001290FD00229B4
:104C600012D1B6F90420B6F90010521A101A401CDD
:104C700000EBD07001EB6000ADF8000004E0B188FB
:104C8000081A401CADF800006A462846039903F054
:104C9000C3FF28460A9A029904F0DCFF05440AEB98
:104CA000244060F31F4428780028C1D148460DF005
:104CB000ADFB03F03FFD0BB0BDE8F08F2DE9F04FE9
:104CC00089B015460E46044600F07AFE364F386825
:104CD000C16C006D0E4405442088711E0844ADF877
:104CE0001860ADF81C006088691E0844ADF81E000D
:104CF000ADF81A5006A80DF04BFF00281CBFDFF8D6
:104D0000ACB04FF0010A42D00020D4F80C9002F071
:104D10001FFD8046B9F1000F1BBF99F80400002861
:104D200028F0020048F0020002F012FD206970B184
:104D3000D4E902120091CDE9012ACDF80CA0D0F8F7
:104D400000C06388228829463046E04718E038686A
:104D5000DBF800302146427CE0689847E0B1A28849
:104D6000E388A168CDF800A0CDE90410CDE90232B6
:104D7000CDF804A0638822882946304607F0A2F8BF
:104D8000404602F0E5FC0DF015FD0028BCD103F013
:104D9000D1FC09B0BDE8F08FE088012812BF0020E7
:104DA0003868806BDBE70000180100200801002054
:104DB00010B50A4682B00146684604F0D3FE00F002
:104DC000FFFD2B48BDF800100068B0F84C201144DE
:104DD000ADF80010BDF80210B0F850201144ADF845
:104DE0000210BDF80410B0F84C201144ADF80410C6
:104DF000BDF80610B0F850000844ADF8060068464B
:104E00000DF0C6FE78B300BFBDF90040BDF9040047
:104E1000A0420EDBBDF90210204607F0C5F9BDF92E
:104E20000610204607F0C0F9BDF90400A41CA042FA
:104E3000F0DABDF90240BDF90600A0420FDB00BF69
:104E4000BDF90000214607F0AFF9BDF90400214685
:104E500007F0AAF9BDF90600A41CA042F0DA0DF093
:104E6000A9FC0028D0D103F065FC02B010BD000001
:104E7000180100202DE9FF4FA3B01C4615460E4631
:104E8000074600F09DFD70480168D1F84CC00CEB5E
:104E900007002390096D881924900CEB05002590DC
:104EA000081926902398ADF868002598ADF86C0095
:104EB0002498ADF86A002698ADF86E001AA80DF097
:104EC00067FE002800F0BA8025992398091A3198C6
:104ED0000391C1B23098C0B2091A1C91039948439A
:104EE000109001EBD1700C9030983199C0F30720ED
:104EF000C1F30721091A1991039948431190309879
:104F00003199C0F30740C1F30741091A1D91039974
:104F10004843129030983199000EC0EB11611E91F8
:104F20000399484313902498029023980890269858
:104F300001902598DDE9304506904448049000F042
:104F400002FC1F90AC4209D1204607F0B1FDDDE91B
:104F50000131069A089807F091F966E0039F01264F
:104F6000002F65D01C991791109A0C99089C02EBA0
:104F7000610B199A1692119A02EB610A1D9A159209
:104F8000129A02EB61091E9A1492139A02EB6108BD
:104F900006998C4242DC00BF9BFBF7FC9AFBF7F3BF
:104FA000179999FBF7F28B441699149D8A44159929
:104FB0004CEA0323894498FBF7F1A84443EA0242F0
:104FC00042EA016508998C4214DD854208BF761CCF
:104FD00010D007F06DFD012E06DDDDE90131A01BCB
:104FE000621E07F04BF904E0DDE90121049B601E1D
:104FF000984701260699641C28468C42CCDD07F0B0
:1050000057FD0698012E0CDD811B01F1010CDDE935
:1050100001310246604607F031F906E007F048FD2D
:105020000698DDE90121049B98471F9807F040FD91
:105030000DF0C0FB00287FF476AF00BF03F07AFBD1
:1050400027B0BDE8F08F00001801002019C2010848
:105050002DE9FF4FA3B01C4615460E46074600F04B
:10506000AFFC80480168D1F84CC00CEB07002390DE
:10507000086D811924910CEB05012044CDE9251020
:105080002398ADF86800ADF86C1026982499ADF817
:105090006E00ADF86A101AA80DF07AFD002800F035
:1050A000DB8026992498081A02903198C2B2309871
:1050B000C1B2501A1C90029848431090029800EB1D
:1050C000D0700F903098C0F307213198C0F30720BB
:1050D000401A19900298484311903098C0F3074144
:1050E0003198C0F30740401A1D900298484312902F
:1050F0003098010E3198C1EB10601E900298484321
:10510000139023980390249807902598019026984F
:10511000DDE930450590544804900120209000F0CE
:1051200012FB1F90AC4207D1204607F0C1FC059B43
:10513000019A0799039879E0029F0125002F6ED00C
:105140001C991791DDE90F1202EB610B199A169267
:10515000119A079C02EB610A1D9A1592129A02EBB2
:1051600061091E9A1492139A02EB610805998C4208
:1051700051DC00BF9BFBF7FC9AFBF7F3179999FBF7
:10518000F7F28B441699149E8A4415994CEA03232E
:10519000894498FBF7F1B04443EA024242EA0166CF
:1051A00007998C4216DD864208BF6D1C12D007F0AD
:1051B0007FFC2098012D23DD00281FBF611B631E8B
:1051C000019A039801BF601B019B621E039907F0BF
:1051D00055F801250599641C30468C42CADD07F05C
:1051E00067FC05982099012D23DD0029A0EB05011E
:1051F00016D00346491C019A039807F03FF823E0B4
:10520000019A002819BF611EDDE90303601EDDE974
:1052100003139847DDE707F04BFC05980FE016E015
:1052200001F1010C02466046019B039907F026F844
:105230000AE0002904BF019ADDE9031303D0014607
:10524000DDE90303019A98471F9807F031FC0DF040
:10525000B1FA00287FF455AF03F06CFA27B0BDE82F
:10526000F08F00001801002045C10108F0B583B09F
:1052700015460E46074600F0A3FB114C2168C86C8A
:10528000096D064405440F44ADF80060ADF80450C4
:10529000ADF80270ADF8067068460DF079FC50B1BB
:1052A00020682A463946406E0368304698470DF01C
:1052B00081FA0028F4D103F03DFA03B0F0BD0000FC
:1052C000180100202DE9F04383B01C4615460E4618
:1052D000074600F075FB11480168C86C096D07446A
:1052E00005440E440C4400200DF052FC00281CBF65
:1052F0004FF000080DF104090BD0CDE900983846B5
:1053000031462A462346FDF79FFD0DF053FA00284B
:10531000F3D103B0BDE8F04303F00CBA180100204C
:1053200070B582B00D46064600F04AFB0F4C20686F
:10533000C16C006D0E440544ADF80460ADF800602A
:10534000ADF80650ADF8025068460DF021FC48B1AA
:1053500020682946406E4268304690470DF02AFA90
:105360000028F5D103F0E6F902B070BD1801002065
:105370002DE9F04182B0984617460D46064600F0EA
:105380001FFB1E480468207E216DA0F1010CE06C1B
:105390000D4406440744A6EB0C00ADF8000007EBF3
:1053A0000C00ADF80400A5EB0C0001EB0804ADF80F
:1053B000020004EB0C00ADF8060068460DF0E8FBB7
:1053C000B8B13A462946304606F0BCFE3A46214678
:1053D000304606F0B7FE621E691C304606F01CFF20
:1053E000621E691C384606F017FF0DF0E3F900282D
:1053F000E7D103F09FF902B0BDE8F0811801002069
:105400002DE9F04182B0B0F90060B0F90240B0F986
:105410000450B0F9068000F0D3FA1C480168087EF9
:10542000CA6C096D571916440C4401EB0805401E5F
:10543000311AADF800103918ADF80410211A2844BB
:10544000ADF80600ADF8021068460DF0A1FBB8B14A
:105450003A462146304606F075FE3A462946304621
:1054600006F070FE6A1E611C304606F0D5FE6A1E0C
:10547000611C384606F0D0FE0DF09CF90028E7D1FB
:1054800003F058F902B0BDE8F081000018010020D7
:1054900070B582B014460D46064600F091FA1048E9
:1054A0000068C16C006D0E4405440444ADF8006012
:1054B000ADF80460ADF80250ADF8064068460DF056
:1054C00067FB40B122462946304606F0A5FE0DF0A6
:1054D00071F90028F6D103F02DF902B070BD00007B
:1054E000180100202DE9F0411C4E00252C463068A3
:1054F00018B18047002818BF01240BF051FB002889
:1055000018BF0124164F386818B18047002818BF0B
:105510000124DFF85080D8F80000002818BF804729
:10552000CCB101253068002418B18047002818BF8D
:1055300001240BF035FB002818BF0124386818B18E
:105540008047002818BF0124D8F80000002818BFA1
:105550008047002CE5D12846BDE8F08124010020D9
:10556000500100204C010020F0B583B01C461546C8
:105570000E46074600F024FA10480168C86C096D11
:10558000074405440E440C44ADF80070ADF80450D7
:10559000ADF80260ADF8064068460DF0F9FA48B182
:1055A00023462A463146384606F068FE0DF002F9D9
:1055B0000028F5D103F0BEF803B0F0BD18010020BB
:1055C000F0B583B0B0F90040B0F90250B0F9046012
:1055D000B0F9067000F0F4F910480168C86C096D64
:1055E000044406440D440F44ADF80040ADF8046097
:1055F000ADF80250ADF8067068460DF0C9FA48B132
:105600003B4632462946204606F038FE0DF0D2F8D9
:105610000028F5D103F08EF803B0F0BD180100208A
:10562000002808BF7047B0F806C083888068BCF1C6
:10563000080F02BF02FB0311405C704709DCBCF19C
:10564000010F0ED0BCF1020F17D0BCF1040F21D016
:1056500005E0BCF1100F28D0BCF1200F2BD00020AA
:1056600070475A4302EBD10201F00701805CC1F19F
:105670000701C84000F0010070475A4302EB910255
:10568000805C062202EA4101C1F10601C84000F037
:10569000030070475A4302EB510211F0010F805C86
:1056A00014BF00F00F00000970475B0802FB0311F4
:1056B00030F8110070479B0802FB031150F82100DD
:1056C00070470000034951F82000C1688A6A082128
:1056D000104700004401002010B500F071F906F0F9
:1056E00013FE06F0DBFF044603F024F8204610BD4D
:1056F00010B5044600F064F9054920460968C969F7
:105700004A6800219047044603F014F8204610BD73
:105710001801002070B50C46054600F051F9064A04
:10572000214628461268D26952689047044603F021
:1057300001F8204670BD000018010020002808BFB5
:1057400070470BF00DBC10B500F03AF906F0E4FD1F
:1057500006F0A4FF044602F0EDFF204610BD000055
:10576000002102283CBF024951F82010084670472A
:105770009405002010B500F023F904480068C069C2
:10578000447E02F0D7FF204610BD00001801002023
:1057900010B500F015F905480068C069017EC07EAB
:1057A00011FB00F402F0C6FF204610BD18010020D6
:1057B00070B515460E46044600F002F92A463146F9
:1057C000204606F04BFE040002D000203060286026
:1057D00002F0B0FF204670BD70B50C46054600F0E3
:1057E000EFF80648B0F9000028600548B0F900005D
:1057F0002060BDE8704002F09DBF000070010020F5
:105800007201002010B5044604F00EF8014620464F
:10581000BDE8104003F0ACBF02F0A9BF10B50024F2
:1058200000F0CEF80C48006890F82C1001F00C0144
:10583000042904D0082918BF0C2905D008E0C06944
:10584000007EA0F1010403E0C069007E4FEA50042D
:1058500002F070FF204610BD18010020407E704706
:10586000017EC07E11FB00F070470000024951F834
:10587000200000690068704744010020024951F887
:1058800020000069406870474401002070B50C4654
:10589000054600F095F8044800684584848402F0C9
:1058A00049FF002070BD0000180100202DE9F041E3
:1058B0003948016821F001010160384801268660FD
:1058C00081680029FCD13649016000683549884269
:1058D00000D0FEE7344D686B70B96E6302F034FFA0
:1058E000FEF756F907F094F905F138012F480860E2
:1058F0000846296B416028632E20287002F039FF8A
:1059000068692B4C011DC0E90E010064091D61612D
:10591000417C284850F82100C1680A6B04F1080155
:10592000904725486066A868E06168690830606152
:1059300026760BF049FBA064032084F868006FF022
:10594000704020636063286907F078F8E86807F022
:10595000AFF81A48E86116F0EDF8044606F0F0FDDD
:1059600010B106F031FE38B906F043FE074606F0E6
:10597000FCFD394607F0AEF80021084601F014FF9F
:105980000BF0E8FFFEF7AAF8A869002818BF8047C7
:10599000AE702046BDE8F081002000E000300240FB
:1059A000C2A507F4CDB5E8B5040100203D88020882
:1059B00004EC01204401002084E70408B0700508CD
:1059C00070B5234CE06820B102F0CFFE61688842D8
:1059D00004D002F0F9FE02F0C8FE6060E068401CEE
:1059E000E060012818BF70BD0025A06800280DDD0B
:1059F00002F0BBFE2269C5EB051152F8311081425D
:105A000005D0F9B1A0686D1C8542F1DB0025206846
:105A1000854208BF70BD002812DBFEF769FF2168D0
:105A2000C1EB0112216901EBC2025067C5EB051001
:105A3000084A01EBC000011D1160406FFEF7E8FE4F
:105A4000256070BDC5EB051142F83100DFE70000AD
:105A5000B80500201801002010B4021ECCBF034678
:105A600053420120DFF820C0014600BF5CF820400F
:105A70009C4203D8401C491C0929F7DD002AB8BF05
:105A8000401C10BC704700005CE7040810B582B0F1
:105A9000040006D10F480068046E002C04BF02B059
:105AA00010BDFFF78DFF2046FEF77CFA0090446999
:105AB0006846FEF74FFB4CB12046FEF773FA0190A3
:105AC00081688968884701A8FEF744FB02F032FE2E
:105AD00002B010BD1801002001490A4600F002B8CA
